{
  "contractName": "Assets",
  "abi": [
    {
      "constant": false,
      "inputs": [],
      "name": "renounceOwnership",
      "outputs": [],
      "payable": false,
      "stateMutability": "nonpayable",
      "type": "function",
      "signature": "0x715018a6"
    },
    {
      "constant": true,
      "inputs": [],
      "name": "owner",
      "outputs": [
        {
          "name": "",
          "type": "address"
        }
      ],
      "payable": false,
      "stateMutability": "view",
      "type": "function",
      "signature": "0x8da5cb5b"
    },
    {
      "constant": true,
      "inputs": [],
      "name": "isOwner",
      "outputs": [
        {
          "name": "",
          "type": "bool"
        }
      ],
      "payable": false,
      "stateMutability": "view",
      "type": "function",
      "signature": "0x8f32d59b"
    },
    {
      "constant": false,
      "inputs": [
        {
          "name": "newOwner",
          "type": "address"
        }
      ],
      "name": "transferOwnership",
      "outputs": [],
      "payable": false,
      "stateMutability": "nonpayable",
      "type": "function",
      "signature": "0xf2fde38b"
    },
    {
      "inputs": [
        {
          "name": "_schemasAddr",
          "type": "address"
        },
        {
          "name": "_erc223Addr",
          "type": "address"
        }
      ],
      "payable": false,
      "stateMutability": "nonpayable",
      "type": "constructor",
      "signature": "constructor"
    },
    {
      "anonymous": false,
      "inputs": [
        {
          "indexed": true,
          "name": "previousOwner",
          "type": "address"
        },
        {
          "indexed": true,
          "name": "newOwner",
          "type": "address"
        }
      ],
      "name": "OwnershipTransferred",
      "type": "event",
      "signature": "0x8be0079c531659141344cd1fd0a4f28419497f9722a3daafe3b4186f6b6457e0"
    },
    {
      "constant": true,
      "inputs": [
        {
          "name": "_assetId",
          "type": "uint256"
        },
        {
          "name": "_schemaId",
          "type": "uint256"
        }
      ],
      "name": "checkOwnership",
      "outputs": [
        {
          "name": "",
          "type": "bool"
        }
      ],
      "payable": false,
      "stateMutability": "view",
      "type": "function",
      "signature": "0x04edae0f"
    },
    {
      "constant": true,
      "inputs": [
        {
          "name": "_target",
          "type": "address"
        },
        {
          "name": "_assetId",
          "type": "uint256"
        },
        {
          "name": "_schemaId",
          "type": "uint256"
        }
      ],
      "name": "checkOwnershipForAddress",
      "outputs": [
        {
          "name": "",
          "type": "bool"
        }
      ],
      "payable": false,
      "stateMutability": "view",
      "type": "function",
      "signature": "0x700651aa"
    },
    {
      "constant": false,
      "inputs": [
        {
          "name": "_assetId",
          "type": "uint256"
        },
        {
          "name": "_schemaId",
          "type": "uint256"
        },
        {
          "name": "_amount",
          "type": "uint256"
        },
        {
          "name": "_dappId",
          "type": "string"
        },
        {
          "name": "_description",
          "type": "string"
        }
      ],
      "name": "buy",
      "outputs": [],
      "payable": false,
      "stateMutability": "nonpayable",
      "type": "function",
      "signature": "0x080e6887"
    },
    {
      "constant": false,
      "inputs": [
        {
          "name": "_assetId",
          "type": "uint256"
        },
        {
          "name": "_schemaId",
          "type": "uint256"
        },
        {
          "name": "_amount",
          "type": "uint256"
        },
        {
          "name": "_dappId",
          "type": "string"
        }
      ],
      "name": "buy",
      "outputs": [],
      "payable": false,
      "stateMutability": "nonpayable",
      "type": "function",
      "signature": "0x7de3b0ed"
    },
    {
      "constant": true,
      "inputs": [],
      "name": "getAssetsPageCount",
      "outputs": [
        {
          "name": "",
          "type": "uint256"
        }
      ],
      "payable": false,
      "stateMutability": "view",
      "type": "function",
      "signature": "0x4aa3bfeb"
    },
    {
      "constant": true,
      "inputs": [
        {
          "name": "_page",
          "type": "uint256"
        }
      ],
      "name": "getAssets",
      "outputs": [
        {
          "components": [
            {
              "name": "expirationDate",
              "type": "uint256"
            },
            {
              "name": "assetId",
              "type": "uint256"
            },
            {
              "name": "schemaId",
              "type": "uint256"
            },
            {
              "name": "dappId",
              "type": "string"
            },
            {
              "name": "description",
              "type": "string"
            }
          ],
          "name": "",
          "type": "tuple[]"
        }
      ],
      "payable": false,
      "stateMutability": "view",
      "type": "function",
      "signature": "0xd9212164"
    },
    {
      "constant": false,
      "inputs": [
        {
          "name": "_from",
          "type": "address"
        },
        {
          "name": "_value",
          "type": "uint256"
        },
        {
          "name": "_schemaId",
          "type": "uint256"
        }
      ],
      "name": "tokenFallback",
      "outputs": [],
      "payable": false,
      "stateMutability": "nonpayable",
      "type": "function",
      "signature": "0x4f4ee353"
    },
    {
      "constant": true,
      "inputs": [
        {
          "name": "theNumber",
          "type": "uint256"
        },
        {
          "name": "percentage",
          "type": "uint256"
        }
      ],
      "name": "calculatePercentage",
      "outputs": [
        {
          "name": "",
          "type": "uint256"
        }
      ],
      "payable": false,
      "stateMutability": "view",
      "type": "function",
      "signature": "0x2133e3b9"
    }
  ],
  "bytecode": "0x60806040523480156200001157600080fd5b5060405160408062001e7b83398101806040526200003391908101906200018f565b336000806101000a81548173ffffffffffffffffffffffffffffffffffffffff021916908373ffffffffffffffffffffffffffffffffffffffff1602179055506000809054906101000a900473ffffffffffffffffffffffffffffffffffffffff1673ffffffffffffffffffffffffffffffffffffffff16600073ffffffffffffffffffffffffffffffffffffffff167f8be0079c531659141344cd1fd0a4f28419497f9722a3daafe3b4186f6b6457e060405160405180910390a380600360006101000a81548173ffffffffffffffffffffffffffffffffffffffff021916908373ffffffffffffffffffffffffffffffffffffffff16021790555081600260006101000a81548173ffffffffffffffffffffffffffffffffffffffff021916908373ffffffffffffffffffffffffffffffffffffffff160217905550505062000204565b6000620001878251620001d0565b905092915050565b60008060408385031215620001a357600080fd5b6000620001b38582860162000179565b9250506020620001c68582860162000179565b9150509250929050565b6000620001dd82620001e4565b9050919050565b600073ffffffffffffffffffffffffffffffffffffffff82169050919050565b611c6780620002146000396000f3fe608060405234801561001057600080fd5b50600436106100d1576000357c010000000000000000000000000000000000000000000000000000000090048063715018a61161008e578063715018a6146101bc5780637de3b0ed146101c65780638da5cb5b146101e25780638f32d59b14610200578063d92121641461021e578063f2fde38b1461024e576100d1565b806304edae0f146100d6578063080e6887146101065780632133e3b9146101225780634aa3bfeb146101525780634f4ee35314610170578063700651aa1461018c575b600080fd5b6100f060048036036100eb91908101906115a3565b61026a565b6040516100fd91906119b2565b60405180910390f35b610120600480360361011b919081019061165a565b61027f565b005b61013c600480360361013791908101906115a3565b610294565b6040516101499190611a0d565b60405180910390f35b61015a6102ab565b6040516101679190611a0d565b60405180910390f35b61018a600480360361018591908101906114ea565b610302565b005b6101a660048036036101a191908101906114ea565b6105d1565b6040516101b391906119b2565b60405180910390f35b6101c46105e7565b005b6101e060048036036101db91908101906115df565b6106b7565b005b6101ea6106da565b6040516101f79190611907565b60405180910390f35b610208610703565b60405161021591906119b2565b60405180910390f35b6102386004803603610233919081019061157a565b61075a565b6040516102459190611990565b60405180910390f35b610268600480360361026391908101906114c1565b610a32565b005b6000610277338484610a4f565b905092915050565b61028d338686868686610cc6565b5050505050565b60006064828402816102a257fe5b04905092915050565b6000600a600160003373ffffffffffffffffffffffffffffffffffffffff1673ffffffffffffffffffffffffffffffffffffffff16815260200190815260200160002060000180549050816102fc57fe5b04905090565b61030a6110da565b600260009054906101000a900473ffffffffffffffffffffffffffffffffffffffff1673ffffffffffffffffffffffffffffffffffffffff16632b26fb29836040518263ffffffff167c01000000000000000000000000000000000000000000000000000000000281526004016103819190611a0d565b60006040518083038186803b15801561039957600080fd5b505afa1580156103ad573d6000803e3d6000fd5b505050506040513d6000823e3d601f19601f820116820180604052506103d69190810190611539565b9050600083905060008090505b6001836080015151038110156104f857600061041a868560800151848151811061040957fe5b602002602001015160000151610294565b9050600360009054906101000a900473ffffffffffffffffffffffffffffffffffffffff1673ffffffffffffffffffffffffffffffffffffffff1663095bcdb68560800151848151811061046a57fe5b6020026020010151602001518360006040518463ffffffff167c01000000000000000000000000000000000000000000000000000000000281526004016104b393929190611922565b600060405180830381600087803b1580156104cd57600080fd5b505af11580156104e1573d6000803e3d6000fd5b5050505080830392505080806001019150506103e3565b50600360009054906101000a900473ffffffffffffffffffffffffffffffffffffffff1673ffffffffffffffffffffffffffffffffffffffff1663095bcdb683608001516001856080015151038151811061054f57fe5b6020026020010151602001518360006040518463ffffffff167c010000000000000000000000000000000000000000000000000000000002815260040161059893929190611922565b600060405180830381600087803b1580156105b257600080fd5b505af11580156105c6573d6000803e3d6000fd5b505050505050505050565b60006105de848484610a4f565b90509392505050565b6105ef610703565b6105f857600080fd5b600073ffffffffffffffffffffffffffffffffffffffff166000809054906101000a900473ffffffffffffffffffffffffffffffffffffffff1673ffffffffffffffffffffffffffffffffffffffff167f8be0079c531659141344cd1fd0a4f28419497f9722a3daafe3b4186f6b6457e060405160405180910390a360008060006101000a81548173ffffffffffffffffffffffffffffffffffffffff021916908373ffffffffffffffffffffffffffffffffffffffff160217905550565b6106d4338585858560405180602001604052806000815250610cc6565b50505050565b60008060009054906101000a900473ffffffffffffffffffffffffffffffffffffffff16905090565b60008060009054906101000a900473ffffffffffffffffffffffffffffffffffffffff1673ffffffffffffffffffffffffffffffffffffffff163373ffffffffffffffffffffffffffffffffffffffff1614905090565b60606000600a83600a020390506060600160003373ffffffffffffffffffffffffffffffffffffffff1673ffffffffffffffffffffffffffffffffffffffff168152602001908152602001600020600001805480602002602001604051908101604052809291908181526020016000905b8282101561095f57838290600052602060002090600502016040518060a0016040529081600082015481526020016001820154815260200160028201548152602001600382018054600181600116156101000203166002900480601f0160208091040260200160405190810160405280929190818152602001828054600181600116156101000203166002900480156108a55780601f1061087a576101008083540402835291602001916108a5565b820191906000526020600020905b81548152906001019060200180831161088857829003601f168201915b50505050508152602001600482018054600181600116156101000203166002900480601f0160208091040260200160405190810160405280929190818152602001828054600181600116156101000203166002900480156109475780601f1061091c57610100808354040283529160200191610947565b820191906000526020600020905b81548152906001019060200180831161092a57829003601f168201915b505050505081525050815260200190600101906107cb565b5050505090506000815114806109785750600181510382115b1561098a576060809350505050610a2d565b6060600a6040519080825280602002602001820160405280156109c757816020015b6109b4611112565b8152602001906001900390816109ac5790505b50905060008090505b85600a02841015610a25578251841015610a10578284815181106109f057fe5b6020026020010151828281518110610a0457fe5b60200260200101819052505b808060010191505083806001019450506109d0565b819450505050505b919050565b610a3a610703565b610a4357600080fd5b610a4c81610fe2565b50565b600080600090505b600160008673ffffffffffffffffffffffffffffffffffffffff1673ffffffffffffffffffffffffffffffffffffffff16815260200190815260200160002060000180549050811015610cb957610aac611141565b600160008773ffffffffffffffffffffffffffffffffffffffff1673ffffffffffffffffffffffffffffffffffffffff1681526020019081526020016000206000018281548110610af957fe5b90600052602060002090600502016040518060a0016040529081600082015481526020016001820154815260200160028201548152602001600382018054600181600116156101000203166002900480601f016020809104026020016040519081016040528092919081815260200182805460018160011615610100020316600290048015610bc95780601f10610b9e57610100808354040283529160200191610bc9565b820191906000526020600020905b815481529060010190602001808311610bac57829003601f168201915b50505050508152602001600482018054600181600116156101000203166002900480601f016020809104026020016040519081016040528092919081815260200182805460018160011615610100020316600290048015610c6b5780601f10610c4057610100808354040283529160200191610c6b565b820191906000526020600020905b815481529060010190602001808311610c4e57829003601f168201915b5050505050815250509050848160200151148015610c8c5750838160400151145b8015610c9b5750428160000151115b15610cab57600192505050610cbf565b508080600101915050610a57565b50600090505b9392505050565b610cce6110da565b600260009054906101000a900473ffffffffffffffffffffffffffffffffffffffff1673ffffffffffffffffffffffffffffffffffffffff16632b26fb29866040518263ffffffff167c0100000000000000000000000000000000000000000000000000000000028152600401610d459190611a0d565b60006040518083038186803b158015610d5d57600080fd5b505afa158015610d71573d6000803e3d6000fd5b505050506040513d6000823e3d601f19601f82011682018060405250610d9a9190810190611539565b905083816040015114610de2576040517f08c379a0000000000000000000000000000000000000000000000000000000008152600401610dd9906119cd565b60405180910390fd5b610ded878787610a4f565b15610e2d576040517f08c379a0000000000000000000000000000000000000000000000000000000008152600401610e24906119ed565b60405180910390fd5b6000841115610ee457600360009054906101000a900473ffffffffffffffffffffffffffffffffffffffff1673ffffffffffffffffffffffffffffffffffffffff1663095bcdb63086886040518463ffffffff167c0100000000000000000000000000000000000000000000000000000000028152600401610eb193929190611959565b600060405180830381600087803b158015610ecb57600080fd5b505af1158015610edf573d6000803e3d6000fd5b505050505b600160008873ffffffffffffffffffffffffffffffffffffffff1673ffffffffffffffffffffffffffffffffffffffff1681526020019081526020016000206000016040518060a0016040528083606001514201815260200188815260200187815260200185815260200184815250908060018154018082558091505090600182039060005260206000209060050201600090919290919091506000820151816000015560208201518160010155604082015181600201556060820151816003019080519060200190610fb8929190611170565b506080820151816004019080519060200190610fd5929190611170565b5050505050505050505050565b600073ffffffffffffffffffffffffffffffffffffffff168173ffffffffffffffffffffffffffffffffffffffff16141561101c57600080fd5b8073ffffffffffffffffffffffffffffffffffffffff166000809054906101000a900473ffffffffffffffffffffffffffffffffffffffff1673ffffffffffffffffffffffffffffffffffffffff167f8be0079c531659141344cd1fd0a4f28419497f9722a3daafe3b4186f6b6457e060405160405180910390a3806000806101000a81548173ffffffffffffffffffffffffffffffffffffffff021916908373ffffffffffffffffffffffffffffffffffffffff16021790555050565b6040518060c0016040528060008152602001600081526020016000815260200160008152602001606081526020016000151581525090565b6040518060a0016040528060008152602001600081526020016000815260200160608152602001606081525090565b6040518060a0016040528060008152602001600081526020016000815260200160608152602001606081525090565b828054600181600116156101000203166002900490600052602060002090601f016020900481019282601f106111b157805160ff19168380011785556111df565b828001600101855582156111df579182015b828111156111de5782518255916020019190600101906111c3565b5b5090506111ec91906111f0565b5090565b61121291905b8082111561120e5760008160009055506001016111f6565b5090565b90565b60006112218235611b80565b905092915050565b60006112358251611b80565b905092915050565b600082601f83011261124e57600080fd5b815161126161125c82611a55565b611a28565b9150818183526020840193506020810190508360005b838110156112a7578151860161128d888261136d565b845260208401935060208301925050600181019050611277565b5050505092915050565b60006112bd8251611b92565b905092915050565b600082601f8301126112d657600080fd5b81516112e96112e482611a7d565b611a28565b9150808252602083016020830185838301111561130557600080fd5b611310838284611be9565b50505092915050565b600082601f83011261132a57600080fd5b813561133d61133882611aa9565b611a28565b9150808252602083016020830185838301111561135957600080fd5b611364838284611bda565b50505092915050565b60006060828403121561137f57600080fd5b6113896060611a28565b90506000611399848285016114ad565b60008301525060206113ad84828501611229565b602083015250604082015167ffffffffffffffff8111156113cd57600080fd5b6113d9848285016112c5565b60408301525092915050565b600060c082840312156113f757600080fd5b61140160c0611a28565b90506000611411848285016114ad565b6000830152506020611425848285016114ad565b6020830152506040611439848285016114ad565b604083015250606061144d848285016114ad565b606083015250608082015167ffffffffffffffff81111561146d57600080fd5b6114798482850161123d565b60808301525060a061148d848285016112b1565b60a08301525092915050565b60006114a58235611bbe565b905092915050565b60006114b98251611bbe565b905092915050565b6000602082840312156114d357600080fd5b60006114e184828501611215565b91505092915050565b6000806000606084860312156114ff57600080fd5b600061150d86828701611215565b935050602061151e86828701611499565b925050604061152f86828701611499565b9150509250925092565b60006020828403121561154b57600080fd5b600082015167ffffffffffffffff81111561156557600080fd5b611571848285016113e5565b91505092915050565b60006020828403121561158c57600080fd5b600061159a84828501611499565b91505092915050565b600080604083850312156115b657600080fd5b60006115c485828601611499565b92505060206115d585828601611499565b9150509250929050565b600080600080608085870312156115f557600080fd5b600061160387828801611499565b945050602061161487828801611499565b935050604061162587828801611499565b925050606085013567ffffffffffffffff81111561164257600080fd5b61164e87828801611319565b91505092959194509250565b600080600080600060a0868803121561167257600080fd5b600061168088828901611499565b955050602061169188828901611499565b94505060406116a288828901611499565b935050606086013567ffffffffffffffff8111156116bf57600080fd5b6116cb88828901611319565b925050608086013567ffffffffffffffff8111156116e857600080fd5b6116f488828901611319565b9150509295509295909350565b600061170d838361186c565b905092915050565b61171e81611b38565b82525050565b600061172f82611ae2565b6117398185611b05565b93508360208202850161174b85611ad5565b60005b84811015611784578383038852611766838351611701565b925061177182611af8565b915060208801975060018101905061174e565b508196508694505050505092915050565b61179e81611b4a565b82525050565b6117ad81611bc8565b82525050565b60006117be82611aed565b6117c88185611b16565b93506117d8818560208601611be9565b6117e181611c1c565b840191505092915050565b60006117f9601083611b27565b91507f696e636f727265637420616d6f756e74000000000000000000000000000000006000830152602082019050919050565b6000611839600a83611b27565b91507f6475706c696361746564000000000000000000000000000000000000000000006000830152602082019050919050565b600060a08301600083015161188460008601826118e9565b50602083015161189760208601826118e9565b5060408301516118aa60408601826118e9565b50606083015184820360608601526118c282826117b3565b915050608083015184820360808601526118dc82826117b3565b9150508091505092915050565b6118f281611b76565b82525050565b61190181611b76565b82525050565b600060208201905061191c6000830184611715565b92915050565b60006060820190506119376000830186611715565b61194460208301856118f8565b61195160408301846117a4565b949350505050565b600060608201905061196e6000830186611715565b61197b60208301856118f8565b61198860408301846118f8565b949350505050565b600060208201905081810360008301526119aa8184611724565b905092915050565b60006020820190506119c76000830184611795565b92915050565b600060208201905081810360008301526119e6816117ec565b9050919050565b60006020820190508181036000830152611a068161182c565b9050919050565b6000602082019050611a2260008301846118f8565b92915050565b6000604051905081810181811067ffffffffffffffff82111715611a4b57600080fd5b8060405250919050565b600067ffffffffffffffff821115611a6c57600080fd5b602082029050602081019050919050565b600067ffffffffffffffff821115611a9457600080fd5b601f19601f8301169050602081019050919050565b600067ffffffffffffffff821115611ac057600080fd5b601f19601f8301169050602081019050919050565b6000602082019050919050565b600081519050919050565b600081519050919050565b6000602082019050919050565b600082825260208201905092915050565b600082825260208201905092915050565b600082825260208201905092915050565b6000611b4382611b56565b9050919050565b60008115159050919050565b600073ffffffffffffffffffffffffffffffffffffffff82169050919050565b6000819050919050565b6000611b8b82611b9e565b9050919050565b60008115159050919050565b600073ffffffffffffffffffffffffffffffffffffffff82169050919050565b6000819050919050565b6000611bd382611b76565b9050919050565b82818337600083830152505050565b60005b83811015611c07578082015181840152602081019050611bec565b83811115611c16576000848401525b50505050565b6000601f19601f830116905091905056fea265627a7a7230582045a127d0e4b11a47a2a2cb9f88fb96dfe42ea23e1341818f004529772939c7c16c6578706572696d656e74616cf50037",
  "source": "pragma solidity ^0.5.2;\npragma experimental ABIEncoderV2;\n\nimport \"./Schemas.sol\";\nimport \"./token/ERC223ReceivingContract.sol\";\nimport \"./token/ERC223.sol\";\nimport \"../../node_modules/openzeppelin-solidity/contracts/math/SafeMath.sol\";\nimport \"../../node_modules/openzeppelin-solidity/contracts/ownership/Ownable.sol\";\n\ncontract  Assets is ERC223ReceivingContract, Ownable{\n\n  using SafeMath for uint256;\n    \n  struct UserAssets {   \n    Asset[] assets;\n  } \n\n  struct Asset {   \n    uint expirationDate;\n    uint256 assetId;\n    uint256 schemaId;\n    string dappId;\n    string description;\n  }\n\n  uint256 constant private PAGE_SIZE = 10;\n\n  mapping (address => UserAssets) private userAssets_; \n\n  Schemas private _schemas;\n  ERC223 private _erc223;\n  \n  constructor (address _schemasAddr, address _erc223Addr) public{\n    _erc223 = ERC223(_erc223Addr);\n    _schemas = Schemas(_schemasAddr);\n  }\n\n  function checkOwnership(uint256 _assetId, uint256 _schemaId) public view returns (bool) {\n    return _checkOwnership(msg.sender, _assetId, _schemaId);  \n  }\n\n  function checkOwnershipForAddress(address _target, uint256 _assetId, uint256 _schemaId) public view returns (bool) {\n    return _checkOwnership(_target, _assetId, _schemaId);  \n  }\n\n  function buy(uint256 _assetId, uint256 _schemaId, uint256 _amount, string memory _dappId) public  {\n    _buy(msg.sender, _assetId, _schemaId, _amount, _dappId, \"\");  \n  }\n\n  function buy(uint256 _assetId, uint256 _schemaId, uint256 _amount, string memory _dappId, string memory _description) public  {\n    _buy(msg.sender, _assetId, _schemaId, _amount, _dappId, _description);  \n  }\n\n  function getAssetsPageCount() public view returns (uint256) {\n    // TODO: si el length es 0 hay 0 paginas si no +1\n    return userAssets_[msg.sender].assets.length / PAGE_SIZE;\n  }\n\n  function getAssets(uint256 _page) public view returns (Asset[] memory) {\n    \n    uint256 transferIndex = PAGE_SIZE * _page - PAGE_SIZE;\n    Asset[] memory assets = userAssets_[msg.sender].assets;\n\n    if (assets.length == 0 || transferIndex > assets.length - 1) {\n      Asset[] memory empty;\n      return empty ;\n    }\n\n    Asset[] memory assetsPage = new Asset[](PAGE_SIZE);  \n    uint256 returnCounter = 0;\n\n    for (transferIndex; transferIndex < PAGE_SIZE * _page; transferIndex++) {\n      if (transferIndex < assets.length) {\n        assetsPage[returnCounter] = assets[transferIndex];\n      }\n      returnCounter++;\n    }\n\n    return (assetsPage);\n  }\n\n  function _buy(address _user, uint256 _assetId, uint256 _schemaId, uint256 _amount, string memory _dappId, string memory _description) internal  {\n    Schemas.Schema memory schema = _schemas.getSchema(_schemaId);\n    require(schema.amount == _amount, \"incorrect amount\");    \n    require(!_checkOwnership(_user, _assetId, _schemaId), \"duplicated\");\n\n    if (_amount >0 ){\n      // avoid money transfer on free assets\n      _erc223.transfer(address(this), _amount, _schemaId);\n    }\n  \n    // registrar la compra\n    userAssets_[_user].assets.push(Asset(now + schema.assetLifeTime , _assetId, _schemaId, _dappId, _description));\n  }\n\n  function _checkOwnership(address _owner, uint256 _assetId, uint256 _schemaId) internal view returns (bool) {\n    \n    for (uint i = 0; i < userAssets_[_owner].assets.length; i++) {\n      Asset memory asset = userAssets_[_owner].assets[i];\n\n      if ( (asset.assetId == _assetId) && (asset.schemaId == _schemaId) && (asset.expirationDate > now)){\n        return true;\n      }\n    }\n    \n    return false;\n  }\n\n  function tokenFallback(address _from, uint _value, uint256 _schemaId) public {\n    Schemas.Schema memory schema = _schemas.getSchema(_schemaId);\n    uint pieValue = _value;\n\n    for (uint i = 0; i < schema.clearingHouseRules.length-1; i++) {\n      uint tmpValue = calculatePercentage(_value,schema.clearingHouseRules[i].percent);\n      _erc223.transfer(schema.clearingHouseRules[i].receptor, tmpValue, 0);\n      pieValue -= tmpValue;\n    }\n\n    _erc223.transfer(schema.clearingHouseRules[schema.clearingHouseRules.length-1].receptor, pieValue, 0);\n\n  }\n\n  function calculatePercentage(uint theNumber, uint percentage) public view returns (uint) {\n    return theNumber * percentage / 100 ;\n  }\n    \n}",
  "sourcePath": "/home/jordi/ws/jordiescudero/bloomen-wallet/bloomen-wallet-truffle/contracts/bloomen/Assets.sol",
  "compiler": {
    "name": "solc",
    "version": "0.5.7+commit.6da8b019.Emscripten.clang"
  },
  "schemaVersion": "3.0.6",
  "updatedAt": "2019-04-18T10:25:26.030Z",
  "devdoc": {
    "methods": {
      "isOwner()": {
        "return": "true if `msg.sender` is the owner of the contract."
      },
      "owner()": {
        "return": "the address of the owner."
      },
      "renounceOwnership()": {
        "details": "Allows the current owner to relinquish control of the contract. It will not be possible to call the functions with the `onlyOwner` modifier anymore."
      },
      "transferOwnership(address)": {
        "details": "Allows the current owner to transfer control of the contract to a newOwner.",
        "params": {
          "newOwner": "The address to transfer ownership to."
        }
      }
    }
  },
  "userdoc": {
    "methods": {
      "renounceOwnership()": {
        "notice": "Renouncing ownership will leave the contract without an owner, thereby removing any functionality that is only available to the owner."
      }
    }
  }
}