{
  "contractName": "Assets",
  "abi": [
    {
      "constant": true,
      "inputs": [],
      "name": "name",
      "outputs": [
        {
          "name": "",
          "type": "string"
        }
      ],
      "payable": false,
      "stateMutability": "view",
      "type": "function"
    },
    {
      "constant": false,
      "inputs": [
        {
          "name": "_to",
          "type": "address"
        },
        {
          "name": "_value",
          "type": "uint256"
        },
        {
          "name": "_data",
          "type": "uint256"
        }
      ],
      "name": "transfer",
      "outputs": [],
      "payable": false,
      "stateMutability": "nonpayable",
      "type": "function"
    },
    {
      "constant": false,
      "inputs": [
        {
          "name": "spender",
          "type": "address"
        },
        {
          "name": "value",
          "type": "uint256"
        }
      ],
      "name": "approve",
      "outputs": [
        {
          "name": "",
          "type": "bool"
        }
      ],
      "payable": false,
      "stateMutability": "nonpayable",
      "type": "function"
    },
    {
      "constant": true,
      "inputs": [],
      "name": "totalSupply",
      "outputs": [
        {
          "name": "",
          "type": "uint256"
        }
      ],
      "payable": false,
      "stateMutability": "view",
      "type": "function"
    },
    {
      "constant": false,
      "inputs": [
        {
          "name": "from",
          "type": "address"
        },
        {
          "name": "to",
          "type": "address"
        },
        {
          "name": "value",
          "type": "uint256"
        }
      ],
      "name": "transferFrom",
      "outputs": [
        {
          "name": "",
          "type": "bool"
        }
      ],
      "payable": false,
      "stateMutability": "nonpayable",
      "type": "function"
    },
    {
      "constant": true,
      "inputs": [
        {
          "name": "_schemaId",
          "type": "uint256"
        }
      ],
      "name": "getSchema",
      "outputs": [
        {
          "components": [
            {
              "name": "expirationDate",
              "type": "uint256"
            },
            {
              "name": "schemaId",
              "type": "uint256"
            },
            {
              "name": "amount",
              "type": "uint256"
            },
            {
              "name": "assetLifeTime",
              "type": "uint256"
            },
            {
              "components": [
                {
                  "name": "percent",
                  "type": "uint256"
                },
                {
                  "name": "receptor",
                  "type": "address"
                },
                {
                  "name": "description",
                  "type": "string"
                }
              ],
              "name": "clearingHouseRules",
              "type": "tuple[]"
            },
            {
              "name": "valid",
              "type": "bool"
            }
          ],
          "name": "",
          "type": "tuple"
        }
      ],
      "payable": false,
      "stateMutability": "view",
      "type": "function"
    },
    {
      "constant": true,
      "inputs": [],
      "name": "decimals",
      "outputs": [
        {
          "name": "",
          "type": "uint8"
        }
      ],
      "payable": false,
      "stateMutability": "view",
      "type": "function"
    },
    {
      "constant": false,
      "inputs": [
        {
          "name": "spender",
          "type": "address"
        },
        {
          "name": "addedValue",
          "type": "uint256"
        }
      ],
      "name": "increaseAllowance",
      "outputs": [
        {
          "name": "",
          "type": "bool"
        }
      ],
      "payable": false,
      "stateMutability": "nonpayable",
      "type": "function"
    },
    {
      "constant": false,
      "inputs": [
        {
          "name": "_schemaId",
          "type": "uint256"
        }
      ],
      "name": "validateSchema",
      "outputs": [],
      "payable": false,
      "stateMutability": "nonpayable",
      "type": "function"
    },
    {
      "constant": false,
      "inputs": [
        {
          "name": "to",
          "type": "address"
        },
        {
          "name": "value",
          "type": "uint256"
        }
      ],
      "name": "mint",
      "outputs": [
        {
          "name": "",
          "type": "bool"
        }
      ],
      "payable": false,
      "stateMutability": "nonpayable",
      "type": "function"
    },
    {
      "constant": false,
      "inputs": [
        {
          "name": "value",
          "type": "uint256"
        }
      ],
      "name": "burn",
      "outputs": [],
      "payable": false,
      "stateMutability": "nonpayable",
      "type": "function"
    },
    {
      "constant": false,
      "inputs": [
        {
          "name": "_schemaId",
          "type": "uint256"
        }
      ],
      "name": "invalidateSchema",
      "outputs": [],
      "payable": false,
      "stateMutability": "nonpayable",
      "type": "function"
    },
    {
      "constant": true,
      "inputs": [
        {
          "name": "owner",
          "type": "address"
        }
      ],
      "name": "balanceOf",
      "outputs": [
        {
          "name": "",
          "type": "uint256"
        }
      ],
      "payable": false,
      "stateMutability": "view",
      "type": "function"
    },
    {
      "constant": false,
      "inputs": [],
      "name": "renounceOwnership",
      "outputs": [],
      "payable": false,
      "stateMutability": "nonpayable",
      "type": "function"
    },
    {
      "constant": false,
      "inputs": [
        {
          "name": "from",
          "type": "address"
        },
        {
          "name": "value",
          "type": "uint256"
        }
      ],
      "name": "burnFrom",
      "outputs": [],
      "payable": false,
      "stateMutability": "nonpayable",
      "type": "function"
    },
    {
      "constant": true,
      "inputs": [],
      "name": "owner",
      "outputs": [
        {
          "name": "",
          "type": "address"
        }
      ],
      "payable": false,
      "stateMutability": "view",
      "type": "function"
    },
    {
      "constant": true,
      "inputs": [],
      "name": "isOwner",
      "outputs": [
        {
          "name": "",
          "type": "bool"
        }
      ],
      "payable": false,
      "stateMutability": "view",
      "type": "function"
    },
    {
      "constant": true,
      "inputs": [],
      "name": "getSchemas",
      "outputs": [
        {
          "name": "",
          "type": "uint256[]"
        }
      ],
      "payable": false,
      "stateMutability": "view",
      "type": "function"
    },
    {
      "constant": true,
      "inputs": [],
      "name": "symbol",
      "outputs": [
        {
          "name": "",
          "type": "string"
        }
      ],
      "payable": false,
      "stateMutability": "view",
      "type": "function"
    },
    {
      "constant": false,
      "inputs": [
        {
          "name": "account",
          "type": "address"
        }
      ],
      "name": "addMinter",
      "outputs": [],
      "payable": false,
      "stateMutability": "nonpayable",
      "type": "function"
    },
    {
      "constant": false,
      "inputs": [],
      "name": "renounceMinter",
      "outputs": [],
      "payable": false,
      "stateMutability": "nonpayable",
      "type": "function"
    },
    {
      "constant": false,
      "inputs": [
        {
          "name": "_schemaId",
          "type": "uint256"
        },
        {
          "name": "_data",
          "type": "bytes"
        }
      ],
      "name": "createSchema",
      "outputs": [],
      "payable": false,
      "stateMutability": "nonpayable",
      "type": "function"
    },
    {
      "constant": false,
      "inputs": [
        {
          "name": "spender",
          "type": "address"
        },
        {
          "name": "subtractedValue",
          "type": "uint256"
        }
      ],
      "name": "decreaseAllowance",
      "outputs": [
        {
          "name": "",
          "type": "bool"
        }
      ],
      "payable": false,
      "stateMutability": "nonpayable",
      "type": "function"
    },
    {
      "constant": false,
      "inputs": [
        {
          "name": "_to",
          "type": "address"
        },
        {
          "name": "_value",
          "type": "uint256"
        }
      ],
      "name": "transfer",
      "outputs": [
        {
          "name": "",
          "type": "bool"
        }
      ],
      "payable": false,
      "stateMutability": "nonpayable",
      "type": "function"
    },
    {
      "constant": true,
      "inputs": [
        {
          "name": "account",
          "type": "address"
        }
      ],
      "name": "isMinter",
      "outputs": [
        {
          "name": "",
          "type": "bool"
        }
      ],
      "payable": false,
      "stateMutability": "view",
      "type": "function"
    },
    {
      "constant": true,
      "inputs": [
        {
          "name": "owner",
          "type": "address"
        },
        {
          "name": "spender",
          "type": "address"
        }
      ],
      "name": "allowance",
      "outputs": [
        {
          "name": "",
          "type": "uint256"
        }
      ],
      "payable": false,
      "stateMutability": "view",
      "type": "function"
    },
    {
      "constant": false,
      "inputs": [
        {
          "name": "newOwner",
          "type": "address"
        }
      ],
      "name": "transferOwnership",
      "outputs": [],
      "payable": false,
      "stateMutability": "nonpayable",
      "type": "function"
    },
    {
      "anonymous": false,
      "inputs": [
        {
          "indexed": true,
          "name": "account",
          "type": "address"
        }
      ],
      "name": "MinterAdded",
      "type": "event"
    },
    {
      "anonymous": false,
      "inputs": [
        {
          "indexed": true,
          "name": "account",
          "type": "address"
        }
      ],
      "name": "MinterRemoved",
      "type": "event"
    },
    {
      "anonymous": false,
      "inputs": [
        {
          "indexed": true,
          "name": "from",
          "type": "address"
        },
        {
          "indexed": true,
          "name": "to",
          "type": "address"
        },
        {
          "indexed": false,
          "name": "value",
          "type": "uint256"
        }
      ],
      "name": "Transfer",
      "type": "event"
    },
    {
      "anonymous": false,
      "inputs": [
        {
          "indexed": true,
          "name": "owner",
          "type": "address"
        },
        {
          "indexed": true,
          "name": "spender",
          "type": "address"
        },
        {
          "indexed": false,
          "name": "value",
          "type": "uint256"
        }
      ],
      "name": "Approval",
      "type": "event"
    },
    {
      "anonymous": false,
      "inputs": [
        {
          "indexed": true,
          "name": "previousOwner",
          "type": "address"
        },
        {
          "indexed": true,
          "name": "newOwner",
          "type": "address"
        }
      ],
      "name": "OwnershipTransferred",
      "type": "event"
    },
    {
      "constant": true,
      "inputs": [
        {
          "name": "_assetId",
          "type": "uint256"
        },
        {
          "name": "_schemaId",
          "type": "uint256"
        }
      ],
      "name": "checkOwnership",
      "outputs": [
        {
          "name": "",
          "type": "bool"
        }
      ],
      "payable": false,
      "stateMutability": "view",
      "type": "function"
    },
    {
      "constant": true,
      "inputs": [
        {
          "name": "_target",
          "type": "address"
        },
        {
          "name": "_assetId",
          "type": "uint256"
        },
        {
          "name": "_schemaId",
          "type": "uint256"
        }
      ],
      "name": "checkOwnershipForAddress",
      "outputs": [
        {
          "name": "",
          "type": "bool"
        }
      ],
      "payable": false,
      "stateMutability": "view",
      "type": "function"
    },
    {
      "constant": false,
      "inputs": [
        {
          "name": "_assetId",
          "type": "uint256"
        },
        {
          "name": "_schemaId",
          "type": "uint256"
        },
        {
          "name": "_amount",
          "type": "uint256"
        },
        {
          "name": "_dappId",
          "type": "string"
        },
        {
          "name": "_description",
          "type": "string"
        }
      ],
      "name": "buy",
      "outputs": [],
      "payable": false,
      "stateMutability": "nonpayable",
      "type": "function"
    },
    {
      "constant": false,
      "inputs": [
        {
          "name": "_assetId",
          "type": "uint256"
        },
        {
          "name": "_schemaId",
          "type": "uint256"
        },
        {
          "name": "_amount",
          "type": "uint256"
        },
        {
          "name": "_dappId",
          "type": "string"
        }
      ],
      "name": "buy",
      "outputs": [],
      "payable": false,
      "stateMutability": "nonpayable",
      "type": "function"
    },
    {
      "constant": true,
      "inputs": [],
      "name": "getAssetsPageCount",
      "outputs": [
        {
          "name": "",
          "type": "uint256"
        }
      ],
      "payable": false,
      "stateMutability": "view",
      "type": "function"
    },
    {
      "constant": true,
      "inputs": [
        {
          "name": "_page",
          "type": "uint256"
        }
      ],
      "name": "getAssets",
      "outputs": [
        {
          "components": [
            {
              "name": "expirationDate",
              "type": "uint256"
            },
            {
              "name": "assetId",
              "type": "uint256"
            },
            {
              "name": "schemaId",
              "type": "uint256"
            },
            {
              "name": "dappId",
              "type": "string"
            },
            {
              "name": "description",
              "type": "string"
            }
          ],
          "name": "",
          "type": "tuple[]"
        }
      ],
      "payable": false,
      "stateMutability": "view",
      "type": "function"
    },
    {
      "constant": false,
      "inputs": [
        {
          "name": "_from",
          "type": "address"
        },
        {
          "name": "_value",
          "type": "uint256"
        },
        {
          "name": "_schemaId",
          "type": "uint256"
        }
      ],
      "name": "tokenFallback",
      "outputs": [],
      "payable": false,
      "stateMutability": "nonpayable",
      "type": "function"
    },
    {
      "constant": true,
      "inputs": [
        {
          "name": "theNumber",
          "type": "uint256"
        },
        {
          "name": "percentage",
          "type": "uint256"
        }
      ],
      "name": "calculatePercentage",
      "outputs": [
        {
          "name": "",
          "type": "uint256"
        }
      ],
      "payable": false,
      "stateMutability": "view",
      "type": "function"
    }
  ],
  "bytecode": "0x60806040526040518060400160405280600b81526020017f426c6f6f6d656e436f696e0000000000000000000000000000000000000000008152506040518060400160405280600381526020017f424c4f00000000000000000000000000000000000000000000000000000000008152506000828282336000806101000a81548173ffffffffffffffffffffffffffffffffffffffff021916908373ffffffffffffffffffffffffffffffffffffffff1602179055506000809054906101000a900473ffffffffffffffffffffffffffffffffffffffff1673ffffffffffffffffffffffffffffffffffffffff16600073ffffffffffffffffffffffffffffffffffffffff167f8be0079c531659141344cd1fd0a4f28419497f9722a3daafe3b4186f6b6457e060405160405180910390a382600690805190602001906200014992919062000360565b5081600790805190602001906200016292919062000360565b5080600860006101000a81548160ff021916908360ff1602179055505050506200019b33620001a4640100000000026401000000009004565b5050506200040f565b620001c88160096200020e64010000000002620027ec179091906401000000009004565b8073ffffffffffffffffffffffffffffffffffffffff167f6ae172837ea30b801fbfcdd4108aa1d5bf8ff775444fd70256b44e6bf3dfc3f660405160405180910390a250565b600073ffffffffffffffffffffffffffffffffffffffff168173ffffffffffffffffffffffffffffffffffffffff1614156200024957600080fd5b620002648282620002cd640100000000026401000000009004565b156200026f57600080fd5b60018260000160008373ffffffffffffffffffffffffffffffffffffffff1673ffffffffffffffffffffffffffffffffffffffff16815260200190815260200160002060006101000a81548160ff0219169083151502179055505050565b60008073ffffffffffffffffffffffffffffffffffffffff168273ffffffffffffffffffffffffffffffffffffffff1614156200030957600080fd5b8260000160008373ffffffffffffffffffffffffffffffffffffffff1673ffffffffffffffffffffffffffffffffffffffff16815260200190815260200160002060009054906101000a900460ff16905092915050565b828054600181600116156101000203166002900490600052602060002090601f016020900481019282601f10620003a357805160ff1916838001178555620003d4565b82800160010185558215620003d4579182015b82811115620003d3578251825591602001919060010190620003b6565b5b509050620003e39190620003e7565b5090565b6200040c91905b8082111562000408576000816000905550600101620003ee565b5090565b90565b613eb3806200041f6000396000f3fe608060405234801561001057600080fd5b506004361061022e576000357c010000000000000000000000000000000000000000000000000000000090048063700651aa11610142578063983b2d56116100ca578063a9059cbb11610099578063a9059cbb1461062f578063aa271e1a1461065f578063d92121641461068f578063dd62ed3e146106bf578063f2fde38b146106ef5761022e565b8063983b2d56146105bd57806398650275146105d9578063a2086dab146105e3578063a457c2d7146105ff5761022e565b80637de3b0ed116101115780637de3b0ed146105295780638da5cb5b146105455780638f32d59b1461056357806395ba8d181461058157806395d89b411461059f5761022e565b8063700651aa146104a357806370a08231146104d3578063715018a61461050357806379cc67901461050d5761022e565b80632b26fb29116101c557806340c10f191161019457806340c10f191461040157806342966c68146104315780634aa3bfeb1461044d5780634f4ee3531461046b5780635a16f5c4146104875761022e565b80632b26fb2914610367578063313ce5671461039757806339509351146103b55780634014d468146103e55761022e565b8063095ea7b311610201578063095ea7b3146102b957806318160ddd146102e95780632133e3b91461030757806323b872dd146103375761022e565b806304edae0f1461023357806306fdde0314610263578063080e688714610281578063095bcdb61461029d575b600080fd5b61024d600480360361024891908101906132a0565b61070b565b60405161025a9190613a81565b60405180910390f35b61026b610720565b6040516102789190613a9c565b60405180910390f35b61029b60048036036102969190810190613357565b6107c2565b005b6102b760048036036102b291908101906131d4565b6107d7565b005b6102d360048036036102ce9190810190613198565b6107f3565b6040516102e09190613a81565b60405180910390f35b6102f161080a565b6040516102fe9190613c00565b60405180910390f35b610321600480360361031c91908101906132a0565b610814565b60405161032e9190613c00565b60405180910390f35b610351600480360361034c9190810190613149565b61082b565b60405161035e9190613a81565b60405180910390f35b610381600480360361037c9190810190613223565b6108dc565b60405161038e9190613bde565b60405180910390f35b61039f610b06565b6040516103ac9190613c1b565b60405180910390f35b6103cf60048036036103ca9190810190613198565b610b1d565b6040516103dc9190613a81565b60405180910390f35b6103ff60048036036103fa9190810190613223565b610bc2565b005b61041b60048036036104169190810190613198565b610be1565b6040516104289190613a81565b60405180910390f35b61044b60048036036104469190810190613223565b610c09565b005b610455610c16565b6040516104629190613c00565b60405180910390f35b610485600480360361048091908101906131d4565b610c6c565b005b6104a1600480360361049c9190810190613223565b610d34565b005b6104bd60048036036104b891908101906131d4565b610d53565b6040516104ca9190613a81565b60405180910390f35b6104ed60048036036104e891908101906130e4565b610d69565b6040516104fa9190613c00565b60405180910390f35b61050b610db2565b005b61052760048036036105229190810190613198565b610e82565b005b610543600480360361053e91908101906132dc565b610e90565b005b61054d610eb3565b60405161055a91906139eb565b60405180910390f35b61056b610edc565b6040516105789190613a81565b60405180910390f35b610589610f33565b6040516105969190613a5f565b60405180910390f35b6105a7610f8b565b6040516105b49190613a9c565b60405180910390f35b6105d760048036036105d291908101906130e4565b61102d565b005b6105e161104b565b005b6105fd60048036036105f8919081019061324c565b611056565b005b61061960048036036106149190810190613198565b611075565b6040516106269190613a81565b60405180910390f35b61064960048036036106449190810190613198565b61111a565b6040516106569190613a81565b60405180910390f35b610679600480360361067491908101906130e4565b61113e565b6040516106869190613a81565b60405180910390f35b6106a960048036036106a49190810190613223565b61115b565b6040516106b69190613a3d565b60405180910390f35b6106d960048036036106d4919081019061310d565b611433565b6040516106e69190613c00565b60405180910390f35b610709600480360361070491908101906130e4565b6114ba565b005b60006107183384846114d7565b905092915050565b606060068054600181600116156101000203166002900480601f0160208091040260200160405190810160405280929190818152602001828054600181600116156101000203166002900480156107b85780601f1061078d576101008083540402835291602001916107b8565b820191906000526020600020905b81548152906001019060200180831161079b57829003601f168201915b5050505050905090565b6107d033868686868661174e565b5050505050565b6107e2338484611905565b6107ee33848484611915565b505050565b6000610800338484611a20565b6001905092915050565b6000600554905090565b600060648284028161082257fe5b04905092915050565b6000610838848484611905565b6108d184336108cc85600460008a73ffffffffffffffffffffffffffffffffffffffff1673ffffffffffffffffffffffffffffffffffffffff16815260200190815260200160002060003373ffffffffffffffffffffffffffffffffffffffff1673ffffffffffffffffffffffffffffffffffffffff16815260200190815260200160002054611b7f90919063ffffffff16565b611a20565b600190509392505050565b6108e4612ea5565b600060016000848152602001908152602001600020600101541161093d576040517f08c379a000000000000000000000000000000000000000000000000000000000815260040161093490613ade565b60405180910390fd5b600160008381526020019081526020016000206040518060c00160405290816000820154815260200160018201548152602001600282015481526020016003820154815260200160048201805480602002602001604051908101604052809291908181526020016000905b82821015610adc5783829060005260206000209060030201604051806060016040529081600082015481526020016001820160009054906101000a900473ffffffffffffffffffffffffffffffffffffffff1673ffffffffffffffffffffffffffffffffffffffff1673ffffffffffffffffffffffffffffffffffffffff168152602001600282018054600181600116156101000203166002900480601f016020809104026020016040519081016040528092919081815260200182805460018160011615610100020316600290048015610ac45780601f10610a9957610100808354040283529160200191610ac4565b820191906000526020600020905b815481529060010190602001808311610aa757829003601f168201915b505050505081525050815260200190600101906109a8565b5050505081526020016005820160009054906101000a900460ff1615151515815250509050919050565b6000600860009054906101000a900460ff16905090565b6000610bb83384610bb385600460003373ffffffffffffffffffffffffffffffffffffffff1673ffffffffffffffffffffffffffffffffffffffff16815260200190815260200160002060008973ffffffffffffffffffffffffffffffffffffffff1673ffffffffffffffffffffffffffffffffffffffff16815260200190815260200160002054611b9f90919063ffffffff16565b611a20565b6001905092915050565b610bca610edc565b610bd357600080fd5b610bde816001611bbe565b50565b6000610bec3361113e565b610bf557600080fd5b610bff8383611cb4565b6001905092915050565b610c133382611e08565b50565b6000600a8060003373ffffffffffffffffffffffffffffffffffffffff1673ffffffffffffffffffffffffffffffffffffffff1681526020019081526020016000206000018054905081610c6657fe5b04905090565b610c74612ea5565b610c7d826108dc565b9050600083905060008090505b600183608001515103811015610cfd576000610cc18685608001518481518110610cb057fe5b602002602001015160000151610814565b9050610cea84608001518381518110610cd657fe5b6020026020010151602001518260006107d7565b8083039250508080600101915050610c8a565b50610d2d826080015160018460800151510381518110610d1957fe5b6020026020010151602001518260006107d7565b5050505050565b610d3c610edc565b610d4557600080fd5b610d50816000611bbe565b50565b6000610d608484846114d7565b90509392505050565b6000600360008373ffffffffffffffffffffffffffffffffffffffff1673ffffffffffffffffffffffffffffffffffffffff168152602001908152602001600020549050919050565b610dba610edc565b610dc357600080fd5b600073ffffffffffffffffffffffffffffffffffffffff166000809054906101000a900473ffffffffffffffffffffffffffffffffffffffff1673ffffffffffffffffffffffffffffffffffffffff167f8be0079c531659141344cd1fd0a4f28419497f9722a3daafe3b4186f6b6457e060405160405180910390a360008060006101000a81548173ffffffffffffffffffffffffffffffffffffffff021916908373ffffffffffffffffffffffffffffffffffffffff160217905550565b610e8c8282611f5c565b5050565b610ead33858585856040518060200160405280600081525061174e565b50505050565b60008060009054906101000a900473ffffffffffffffffffffffffffffffffffffffff16905090565b60008060009054906101000a900473ffffffffffffffffffffffffffffffffffffffff1673ffffffffffffffffffffffffffffffffffffffff163373ffffffffffffffffffffffffffffffffffffffff1614905090565b60606002805480602002602001604051908101604052809291908181526020018280548015610f8157602002820191906000526020600020905b815481526020019060010190808311610f6d575b5050505050905090565b606060078054600181600116156101000203166002900480601f0160208091040260200160405190810160405280929190818152602001828054600181600116156101000203166002900480156110235780601f10610ff857610100808354040283529160200191611023565b820191906000526020600020905b81548152906001019060200180831161100657829003601f168201915b5050505050905090565b6110363361113e565b61103f57600080fd5b61104881612003565b50565b6110543361205d565b565b61105e610edc565b61106757600080fd5b61107182826120b7565b5050565b6000611110338461110b85600460003373ffffffffffffffffffffffffffffffffffffffff1673ffffffffffffffffffffffffffffffffffffffff16815260200190815260200160002060008973ffffffffffffffffffffffffffffffffffffffff1673ffffffffffffffffffffffffffffffffffffffff16815260200190815260200160002054611b7f90919063ffffffff16565b611a20565b6001905092915050565b6000611127338484611905565b6111343384846000611915565b6001905092915050565b600061115482600961248190919063ffffffff16565b9050919050565b60606000600a83600a020390506060600a60003373ffffffffffffffffffffffffffffffffffffffff1673ffffffffffffffffffffffffffffffffffffffff168152602001908152602001600020600001805480602002602001604051908101604052809291908181526020016000905b8282101561136057838290600052602060002090600502016040518060a0016040529081600082015481526020016001820154815260200160028201548152602001600382018054600181600116156101000203166002900480601f0160208091040260200160405190810160405280929190818152602001828054600181600116156101000203166002900480156112a65780601f1061127b576101008083540402835291602001916112a6565b820191906000526020600020905b81548152906001019060200180831161128957829003601f168201915b50505050508152602001600482018054600181600116156101000203166002900480601f0160208091040260200160405190810160405280929190818152602001828054600181600116156101000203166002900480156113485780601f1061131d57610100808354040283529160200191611348565b820191906000526020600020905b81548152906001019060200180831161132b57829003601f168201915b505050505081525050815260200190600101906111cc565b5050505090506000815114806113795750600181510382115b1561138b57606080935050505061142e565b6060600a6040519080825280602002602001820160405280156113c857816020015b6113b5612edd565b8152602001906001900390816113ad5790505b50905060008090505b85600a02841015611426578251841015611411578284815181106113f157fe5b602002602001015182828151811061140557fe5b60200260200101819052505b808060010191505083806001019450506113d1565b819450505050505b919050565b6000600460008473ffffffffffffffffffffffffffffffffffffffff1673ffffffffffffffffffffffffffffffffffffffff16815260200190815260200160002060008373ffffffffffffffffffffffffffffffffffffffff1673ffffffffffffffffffffffffffffffffffffffff16815260200190815260200160002054905092915050565b6114c2610edc565b6114cb57600080fd5b6114d481612513565b50565b600080600090505b600a60008673ffffffffffffffffffffffffffffffffffffffff1673ffffffffffffffffffffffffffffffffffffffff1681526020019081526020016000206000018054905081101561174157611534612f0c565b600a60008773ffffffffffffffffffffffffffffffffffffffff1673ffffffffffffffffffffffffffffffffffffffff168152602001908152602001600020600001828154811061158157fe5b90600052602060002090600502016040518060a0016040529081600082015481526020016001820154815260200160028201548152602001600382018054600181600116156101000203166002900480601f0160208091040260200160405190810160405280929190818152602001828054600181600116156101000203166002900480156116515780601f1061162657610100808354040283529160200191611651565b820191906000526020600020905b81548152906001019060200180831161163457829003601f168201915b50505050508152602001600482018054600181600116156101000203166002900480601f0160208091040260200160405190810160405280929190818152602001828054600181600116156101000203166002900480156116f35780601f106116c8576101008083540402835291602001916116f3565b820191906000526020600020905b8154815290600101906020018083116116d657829003601f168201915b50505050508152505090508481602001511480156117145750838160400151145b80156117235750428160000151115b1561173357600192505050611747565b5080806001019150506114df565b50600090505b9392505050565b611756612ea5565b61175f856108dc565b9050838160400151146117a7576040517f08c379a000000000000000000000000000000000000000000000000000000000815260040161179e90613b5e565b60405180910390fd5b6117b28787876114d7565b156117f2576040517f08c379a00000000000000000000000000000000000000000000000000000000081526004016117e990613b9e565b60405180910390fd5b6000841115611807576118063085876107d7565b5b600a60008873ffffffffffffffffffffffffffffffffffffffff1673ffffffffffffffffffffffffffffffffffffffff1681526020019081526020016000206000016040518060a00160405280836060015142018152602001888152602001878152602001858152602001848152509080600181540180825580915050906001820390600052602060002090600502016000909192909190915060008201518160000155602082015181600101556040820151816002015560608201518160030190805190602001906118db929190612f3b565b5060808201518160040190805190602001906118f8929190612f3b565b5050505050505050505050565b61191083838361260b565b505050565b61191e836127d9565b156119b55760008390508073ffffffffffffffffffffffffffffffffffffffff16634f4ee3538685856040518463ffffffff167c010000000000000000000000000000000000000000000000000000000002815260040161198193929190613a06565b600060405180830381600087803b15801561199b57600080fd5b505af11580156119af573d6000803e3d6000fd5b50505050505b8273ffffffffffffffffffffffffffffffffffffffff168473ffffffffffffffffffffffffffffffffffffffff167fddf252ad1be2c89b69c2b068fc378daa952ba7f163c4a11628f55a4df523b3ef84604051611a129190613c00565b60405180910390a350505050565b600073ffffffffffffffffffffffffffffffffffffffff168273ffffffffffffffffffffffffffffffffffffffff161415611a5a57600080fd5b600073ffffffffffffffffffffffffffffffffffffffff168373ffffffffffffffffffffffffffffffffffffffff161415611a9457600080fd5b80600460008573ffffffffffffffffffffffffffffffffffffffff1673ffffffffffffffffffffffffffffffffffffffff16815260200190815260200160002060008473ffffffffffffffffffffffffffffffffffffffff1673ffffffffffffffffffffffffffffffffffffffff168152602001908152602001600020819055508173ffffffffffffffffffffffffffffffffffffffff168373ffffffffffffffffffffffffffffffffffffffff167f8c5be1e5ebec7d5bd14f71427d1e84f3dd0314c0f7b2291e5b200ac8c7c3b92583604051611b729190613c00565b60405180910390a3505050565b600082821115611b8e57600080fd5b600082840390508091505092915050565b600080828401905083811015611bb457600080fd5b8091505092915050565b600060016000848152602001908152602001600020600101541415611c18576040517f08c379a0000000000000000000000000000000000000000000000000000000008152600401611c0f90613afe565b60405180910390fd5b8015156001600084815260200190815260200160002060050160009054906101000a900460ff1615151415611c82576040517f08c379a0000000000000000000000000000000000000000000000000000000008152600401611c7990613b7e565b60405180910390fd5b806001600084815260200190815260200160002060050160006101000a81548160ff0219169083151502179055505050565b600073ffffffffffffffffffffffffffffffffffffffff168273ffffffffffffffffffffffffffffffffffffffff161415611cee57600080fd5b611d0381600554611b9f90919063ffffffff16565b600581905550611d5b81600360008573ffffffffffffffffffffffffffffffffffffffff1673ffffffffffffffffffffffffffffffffffffffff16815260200190815260200160002054611b9f90919063ffffffff16565b600360008473ffffffffffffffffffffffffffffffffffffffff1673ffffffffffffffffffffffffffffffffffffffff168152602001908152602001600020819055508173ffffffffffffffffffffffffffffffffffffffff16600073ffffffffffffffffffffffffffffffffffffffff167fddf252ad1be2c89b69c2b068fc378daa952ba7f163c4a11628f55a4df523b3ef83604051611dfc9190613c00565b60405180910390a35050565b600073ffffffffffffffffffffffffffffffffffffffff168273ffffffffffffffffffffffffffffffffffffffff161415611e4257600080fd5b611e5781600554611b7f90919063ffffffff16565b600581905550611eaf81600360008573ffffffffffffffffffffffffffffffffffffffff1673ffffffffffffffffffffffffffffffffffffffff16815260200190815260200160002054611b7f90919063ffffffff16565b600360008473ffffffffffffffffffffffffffffffffffffffff1673ffffffffffffffffffffffffffffffffffffffff16815260200190815260200160002081905550600073ffffffffffffffffffffffffffffffffffffffff168273ffffffffffffffffffffffffffffffffffffffff167fddf252ad1be2c89b69c2b068fc378daa952ba7f163c4a11628f55a4df523b3ef83604051611f509190613c00565b60405180910390a35050565b611f668282611e08565b611fff8233611ffa84600460008873ffffffffffffffffffffffffffffffffffffffff1673ffffffffffffffffffffffffffffffffffffffff16815260200190815260200160002060003373ffffffffffffffffffffffffffffffffffffffff1673ffffffffffffffffffffffffffffffffffffffff16815260200190815260200160002054611b7f90919063ffffffff16565b611a20565b5050565b6120178160096127ec90919063ffffffff16565b8073ffffffffffffffffffffffffffffffffffffffff167f6ae172837ea30b801fbfcdd4108aa1d5bf8ff775444fd70256b44e6bf3dfc3f660405160405180910390a250565b61207181600961289890919063ffffffff16565b8073ffffffffffffffffffffffffffffffffffffffff167fe94479a9f7e1952cc78f2d6baab678adc1b772d936c6583def489e524cb6669260405160405180910390a250565b6000600160008481526020019081526020016000206001015414612110576040517f08c379a000000000000000000000000000000000000000000000000000000000815260040161210790613b3e565b60405180910390fd5b612118612fbb565b61212182612943565b9050606061212e82612971565b9050600061214f8260008151811061214257fe5b6020026020010151612a48565b9050428111612193576040517f08c379a000000000000000000000000000000000000000000000000000000000815260040161218a90613b1e565b60405180910390fd5b60006121b2836001815181106121a557fe5b6020026020010151612a48565b905060006121d3846002815181106121c657fe5b6020026020010151612a48565b905060006121f4856003815181106121e757fe5b6020026020010151612a48565b905060606122158660048151811061220857fe5b6020026020010151612971565b905060008151905060008090505b8181101561239057606061224984838151811061223c57fe5b6020026020010151612971565b90506001600088815260200190815260200160002060040160405180606001604052806122898460008151811061227c57fe5b6020026020010151612a48565b81526020016122ab8460018151811061229e57fe5b6020026020010151612ab9565b73ffffffffffffffffffffffffffffffffffffffff1681526020016122e3846002815181106122d657fe5b6020026020010151612adc565b815250908060018154018082558091505090600182039060005260206000209060030201600090919290919091506000820151816000015560208201518160010160006101000a81548173ffffffffffffffffffffffffffffffffffffffff021916908373ffffffffffffffffffffffffffffffffffffffff160217905550604082015181600201908051906020019061237e929190612f3b565b50505050508080600101915050612223565b506123af60016000878152602001908152602001600020600401612b68565b856001600087815260200190815260200160002060000181905550846001600087815260200190815260200160002060010181905550836001600087815260200190815260200160002060020181905550826001600087815260200190815260200160002060030181905550600180600087815260200190815260200160002060050160006101000a81548160ff021916908315150217905550600285908060018154018082558091505090600182039060005260206000200160009091929091909150555050505050505050505050565b60008073ffffffffffffffffffffffffffffffffffffffff168273ffffffffffffffffffffffffffffffffffffffff1614156124bc57600080fd5b8260000160008373ffffffffffffffffffffffffffffffffffffffff1673ffffffffffffffffffffffffffffffffffffffff16815260200190815260200160002060009054906101000a900460ff16905092915050565b600073ffffffffffffffffffffffffffffffffffffffff168173ffffffffffffffffffffffffffffffffffffffff16141561254d57600080fd5b8073ffffffffffffffffffffffffffffffffffffffff166000809054906101000a900473ffffffffffffffffffffffffffffffffffffffff1673ffffffffffffffffffffffffffffffffffffffff167f8be0079c531659141344cd1fd0a4f28419497f9722a3daafe3b4186f6b6457e060405160405180910390a3806000806101000a81548173ffffffffffffffffffffffffffffffffffffffff021916908373ffffffffffffffffffffffffffffffffffffffff16021790555050565b600073ffffffffffffffffffffffffffffffffffffffff168273ffffffffffffffffffffffffffffffffffffffff16141561264557600080fd5b61269781600360008673ffffffffffffffffffffffffffffffffffffffff1673ffffffffffffffffffffffffffffffffffffffff16815260200190815260200160002054611b7f90919063ffffffff16565b600360008573ffffffffffffffffffffffffffffffffffffffff1673ffffffffffffffffffffffffffffffffffffffff1681526020019081526020016000208190555061272c81600360008573ffffffffffffffffffffffffffffffffffffffff1673ffffffffffffffffffffffffffffffffffffffff16815260200190815260200160002054611b9f90919063ffffffff16565b600360008473ffffffffffffffffffffffffffffffffffffffff1673ffffffffffffffffffffffffffffffffffffffff168152602001908152602001600020819055508173ffffffffffffffffffffffffffffffffffffffff168373ffffffffffffffffffffffffffffffffffffffff167fddf252ad1be2c89b69c2b068fc378daa952ba7f163c4a11628f55a4df523b3ef836040516127cc9190613c00565b60405180910390a3505050565b600080823b905060008111915050919050565b600073ffffffffffffffffffffffffffffffffffffffff168173ffffffffffffffffffffffffffffffffffffffff16141561282657600080fd5b6128308282612481565b1561283a57600080fd5b60018260000160008373ffffffffffffffffffffffffffffffffffffffff1673ffffffffffffffffffffffffffffffffffffffff16815260200190815260200160002060006101000a81548160ff0219169083151502179055505050565b600073ffffffffffffffffffffffffffffffffffffffff168173ffffffffffffffffffffffffffffffffffffffff1614156128d257600080fd5b6128dc8282612481565b6128e557600080fd5b60008260000160008373ffffffffffffffffffffffffffffffffffffffff1673ffffffffffffffffffffffffffffffffffffffff16815260200190815260200160002060006101000a81548160ff0219169083151502179055505050565b61294b612fbb565b600060208301905060405180604001604052808451815260200182815250915050919050565b606061297c82612c43565b61298557600080fd5b600061299083612c91565b9050806040519080825280602002602001820160405280156129cc57816020015b6129b9612fd5565b8152602001906001900390816129b15790505b50915060006129de8460200151612d02565b8460200151019050600080600090505b83811015612a3f576129ff83612d8b565b9150604051806040016040528083815260200184815250858281518110612a2257fe5b6020026020010181905250818301925080806001019150506129ee565b50505050919050565b6000808260000151118015612a6257506021826000015111155b612a6b57600080fd5b6000612a7a8360200151612d02565b90506000818460000151039050600080838660200151019050805191506020831015612aad57826020036101000a820491505b81945050505050919050565b60006015826000015114612acc57600080fd5b612ad582612a48565b9050919050565b60606000826000015111612aef57600080fd5b6000612afe8360200151612d02565b905060008184600001510390506060816040519080825280601f01601f191660200182016040528015612b405781602001600182028038833980820191505090505b5090506000816020019050612b5c848760200151018285612e3e565b81945050505050919050565b6000818054905011612baf576040517f08c379a0000000000000000000000000000000000000000000000000000000008152600401612ba690613abe565b60405180910390fd5b600081805490509050600080905060008090505b82811015612bfa57838181548110612bd757fe5b906000526020600020906003020160000154820191508080600101915050612bc3565b5060648114612c3e576040517f08c379a0000000000000000000000000000000000000000000000000000000008152600401612c3590613bbe565b60405180910390fd5b505050565b60008082600001511415612c5a5760009050612c8c565b60008083602001519050805160001a915060c060ff168260ff161015612c8557600092505050612c8c565b6001925050505b919050565b60008082600001511415612ca85760009050612cfd565b60008090506000612cbc8460200151612d02565b84602001510190506000846000015185602001510190505b80821015612cf657612ce582612d8b565b820191508280600101935050612cd4565b8293505050505b919050565b600080825160001a9050608060ff16811015612d22576000915050612d86565b60b860ff16811080612d47575060c060ff168110158015612d46575060f860ff1681105b5b15612d56576001915050612d86565b60c060ff16811015612d765760018060b80360ff16820301915050612d86565b60018060f80360ff168203019150505b919050565b600080825160001a9050608060ff16811015612dab576001915050612e39565b60b860ff16811015612dc9576001608060ff16820301915050612e39565b60c060ff16811015612df95760b78103600184019350806020036101000a84510460018201810193505050612e37565b60f860ff16811015612e1757600160c060ff16820301915050612e39565b60f78103600184019350806020036101000a845104600182018101935050505b505b919050565b6000811415612e4c57612ea0565b5b602060ff168110612e7c5782518252602060ff1683019250602060ff1682019150602060ff1681039050612e4d565b6000600182602060ff16036101000a03905080198451168184511681811785525050505b505050565b6040518060c0016040528060008152602001600081526020016000815260200160008152602001606081526020016000151581525090565b6040518060a0016040528060008152602001600081526020016000815260200160608152602001606081525090565b6040518060a0016040528060008152602001600081526020016000815260200160608152602001606081525090565b828054600181600116156101000203166002900490600052602060002090601f016020900481019282601f10612f7c57805160ff1916838001178555612faa565b82800160010185558215612faa579182015b82811115612fa9578251825591602001919060010190612f8e565b5b509050612fb79190612fef565b5090565b604051806040016040528060008152602001600081525090565b604051806040016040528060008152602001600081525090565b61301191905b8082111561300d576000816000905550600101612ff5565b5090565b90565b60006130208235613dea565b905092915050565b600082601f83011261303957600080fd5b813561304c61304782613c63565b613c36565b9150808252602083016020830185838301111561306857600080fd5b613073838284613e26565b50505092915050565b600082601f83011261308d57600080fd5b81356130a061309b82613c8f565b613c36565b915080825260208301602083018583830111156130bc57600080fd5b6130c7838284613e26565b50505092915050565b60006130dc8235613e1c565b905092915050565b6000602082840312156130f657600080fd5b600061310484828501613014565b91505092915050565b6000806040838503121561312057600080fd5b600061312e85828601613014565b925050602061313f85828601613014565b9150509250929050565b60008060006060848603121561315e57600080fd5b600061316c86828701613014565b935050602061317d86828701613014565b925050604061318e868287016130d0565b9150509250925092565b600080604083850312156131ab57600080fd5b60006131b985828601613014565b92505060206131ca858286016130d0565b9150509250929050565b6000806000606084860312156131e957600080fd5b60006131f786828701613014565b9350506020613208868287016130d0565b9250506040613219868287016130d0565b9150509250925092565b60006020828403121561323557600080fd5b6000613243848285016130d0565b91505092915050565b6000806040838503121561325f57600080fd5b600061326d858286016130d0565b925050602083013567ffffffffffffffff81111561328a57600080fd5b61329685828601613028565b9150509250929050565b600080604083850312156132b357600080fd5b60006132c1858286016130d0565b92505060206132d2858286016130d0565b9150509250929050565b600080600080608085870312156132f257600080fd5b6000613300878288016130d0565b9450506020613311878288016130d0565b9350506040613322878288016130d0565b925050606085013567ffffffffffffffff81111561333f57600080fd5b61334b8782880161307c565b91505092959194509250565b600080600080600060a0868803121561336f57600080fd5b600061337d888289016130d0565b955050602061338e888289016130d0565b945050604061339f888289016130d0565b935050606086013567ffffffffffffffff8111156133bc57600080fd5b6133c88882890161307c565b925050608086013567ffffffffffffffff8111156133e557600080fd5b6133f18882890161307c565b9150509295509295909350565b600061340a8383613868565b905092915050565b600061341e83836138e5565b905092915050565b600061343283836139be565b60208301905092915050565b61344781613d95565b82525050565b61345681613d95565b82525050565b600061346782613ce2565b6134718185613d40565b93508360208202850161348385613cbb565b60005b848110156134bc57838303885261349e8383516133fe565b92506134a982613d19565b9150602088019750600181019050613486565b508196508694505050505092915050565b60006134d882613ced565b6134e28185613d51565b9350836020820285016134f485613cc8565b60005b8481101561352d57838303885261350f838351613412565b925061351a82613d26565b91506020880197506001810190506134f7565b508196508694505050505092915050565b600061354982613cf8565b6135538185613d62565b935061355e83613cd5565b60005b8281101561358c57613574868351613426565b955061357f82613d33565b9150600181019050613561565b50849250505092915050565b6135a181613da7565b82525050565b6135b081613da7565b82525050565b60006135c182613d0e565b6135cb8185613d84565b93506135db818560208601613e35565b6135e481613e68565b840191505092915050565b60006135fa82613d03565b6136048185613d73565b9350613614818560208601613e35565b61361d81613e68565b840191505092915050565b6000613635600983613d84565b91507f6e6f742072756c657300000000000000000000000000000000000000000000006000830152602082019050919050565b6000613675600983613d84565b91507f6e6f745f657869737400000000000000000000000000000000000000000000006000830152602082019050919050565b60006136b5600983613d84565b91507f6e6f7420657869737400000000000000000000000000000000000000000000006000830152602082019050919050565b60006136f5600783613d84565b91507f65787069726564000000000000000000000000000000000000000000000000006000830152602082019050919050565b6000613735600583613d84565b91507f65786973740000000000000000000000000000000000000000000000000000006000830152602082019050919050565b6000613775601083613d84565b91507f696e636f727265637420616d6f756e74000000000000000000000000000000006000830152602082019050919050565b60006137b5600b83613d84565b91507f73616d65207374617475730000000000000000000000000000000000000000006000830152602082019050919050565b60006137f5600a83613d84565b91507f6475706c696361746564000000000000000000000000000000000000000000006000830152602082019050919050565b6000613835601683613d84565b91507f616c6c20616d6f756e74206469737472696275746564000000000000000000006000830152602082019050919050565b600060a08301600083015161388060008601826139be565b50602083015161389360208601826139be565b5060408301516138a660408601826139be565b50606083015184820360608601526138be82826135ef565b915050608083015184820360808601526138d882826135ef565b9150508091505092915050565b60006060830160008301516138fd60008601826139be565b506020830151613910602086018261343e565b506040830151848203604086015261392882826135ef565b9150508091505092915050565b600060c08301600083015161394d60008601826139be565b50602083015161396060208601826139be565b50604083015161397360408601826139be565b50606083015161398660608601826139be565b506080830151848203608086015261399e82826134cd565b91505060a08301516139b360a0860182613598565b508091505092915050565b6139c781613dd3565b82525050565b6139d681613dd3565b82525050565b6139e581613ddd565b82525050565b6000602082019050613a00600083018461344d565b92915050565b6000606082019050613a1b600083018661344d565b613a2860208301856139cd565b613a3560408301846139cd565b949350505050565b60006020820190508181036000830152613a57818461345c565b905092915050565b60006020820190508181036000830152613a79818461353e565b905092915050565b6000602082019050613a9660008301846135a7565b92915050565b60006020820190508181036000830152613ab681846135b6565b905092915050565b60006020820190508181036000830152613ad781613628565b9050919050565b60006020820190508181036000830152613af781613668565b9050919050565b60006020820190508181036000830152613b17816136a8565b9050919050565b60006020820190508181036000830152613b37816136e8565b9050919050565b60006020820190508181036000830152613b5781613728565b9050919050565b60006020820190508181036000830152613b7781613768565b9050919050565b60006020820190508181036000830152613b97816137a8565b9050919050565b60006020820190508181036000830152613bb7816137e8565b9050919050565b60006020820190508181036000830152613bd781613828565b9050919050565b60006020820190508181036000830152613bf88184613935565b905092915050565b6000602082019050613c1560008301846139cd565b92915050565b6000602082019050613c3060008301846139dc565b92915050565b6000604051905081810181811067ffffffffffffffff82111715613c5957600080fd5b8060405250919050565b600067ffffffffffffffff821115613c7a57600080fd5b601f19601f8301169050602081019050919050565b600067ffffffffffffffff821115613ca657600080fd5b601f19601f8301169050602081019050919050565b6000602082019050919050565b6000602082019050919050565b6000602082019050919050565b600081519050919050565b600081519050919050565b600081519050919050565b600081519050919050565b600081519050919050565b6000602082019050919050565b6000602082019050919050565b6000602082019050919050565b600082825260208201905092915050565b600082825260208201905092915050565b600082825260208201905092915050565b600082825260208201905092915050565b600082825260208201905092915050565b6000613da082613db3565b9050919050565b60008115159050919050565b600073ffffffffffffffffffffffffffffffffffffffff82169050919050565b6000819050919050565b600060ff82169050919050565b6000613df582613dfc565b9050919050565b600073ffffffffffffffffffffffffffffffffffffffff82169050919050565b6000819050919050565b82818337600083830152505050565b60005b83811015613e53578082015181840152602081019050613e38565b83811115613e62576000848401525b50505050565b6000601f19601f830116905091905056fea265627a7a7230582050a43e205355f32193a000b9786fee61c2f17a11c5996659178c1e17969165286c6578706572696d656e74616cf50037",
  "source": "pragma solidity ^0.5.2;\npragma experimental ABIEncoderV2;\n\nimport \"./Schemas.sol\";\nimport \"./token/ERC223ReceivingContract.sol\";\nimport \"./token/ERC223.sol\";\nimport \"../../node_modules/openzeppelin-solidity/contracts/math/SafeMath.sol\";\n\ncontract  Assets is Schemas, ERC223ReceivingContract, ERC223(\"BloomenCoin\",\"BLO\",0) {\n\n  using SafeMath for uint256;\n    \n  struct UserAssets {   \n    Asset[] assets;\n  } \n\n  struct Asset {   \n    uint expirationDate;\n    uint256 assetId;\n    uint256 schemaId;\n    string dappId;\n    string description;\n  }\n\n  uint256 constant private PAGE_SIZE = 10;\n\n  // buy://<assetId>#<schemaId>#<amount>#<dappId>#amount\n\n  mapping (address => UserAssets) private userAssets_;\n\n  function checkOwnership(uint256 _assetId, uint256 _schemaId) public view returns (bool) {\n    return _checkOwnership(msg.sender, _assetId, _schemaId);  \n  }\n\n  function checkOwnershipForAddress(address _target, uint256 _assetId, uint256 _schemaId) public view returns (bool) {\n    return _checkOwnership(_target, _assetId, _schemaId);  \n  }\n\n  function buy(uint256 _assetId, uint256 _schemaId, uint256 _amount, string memory _dappId) public  {\n    _buy(msg.sender, _assetId, _schemaId, _amount, _dappId, \"\");  \n  }\n\n  function buy(uint256 _assetId, uint256 _schemaId, uint256 _amount, string memory _dappId, string memory _description) public  {\n    _buy(msg.sender, _assetId, _schemaId, _amount, _dappId, _description);  \n  }\n\n  function getAssetsPageCount() public view returns (uint256) {\n    return userAssets_[msg.sender].assets.length / PAGE_SIZE;\n  }\n\n  function getAssets(uint256 _page) public view returns (Asset[] memory) {\n    \n    uint256 transferIndex = PAGE_SIZE * _page - PAGE_SIZE;\n    Asset[] memory assets = userAssets_[msg.sender].assets;\n\n    if (assets.length == 0 || transferIndex > assets.length - 1) {\n      Asset[] memory empty;\n      return empty ;\n    }\n\n    Asset[] memory assetsPage = new Asset[](PAGE_SIZE);  \n    uint256 returnCounter = 0;\n\n    for (transferIndex; transferIndex < PAGE_SIZE * _page; transferIndex++) {\n      if (transferIndex < assets.length) {\n        assetsPage[returnCounter] = assets[transferIndex];\n      }\n      returnCounter++;\n    }\n\n    return (assetsPage);\n  }\n\n  function _buy(address _user, uint256 _assetId, uint256 _schemaId, uint256 _amount, string memory _dappId, string memory _description) internal  {\n    Schema memory schema = Schemas.getSchema(_schemaId);\n    require(schema.amount == _amount, \"incorrect amount\");    \n    require(!_checkOwnership(_user, _assetId, _schemaId), \"duplicated\");\n\n    if (_amount >0 ){\n      // avoid money transfer on free assets\n      ERC223.transfer(address(this), _amount, _schemaId);\n    }\n  \n    // registrar la compra\n    userAssets_[_user].assets.push(Asset(now + schema.assetLifeTime , _assetId, _schemaId, _dappId, _description));\n  }\n\n  function _checkOwnership(address _owner, uint256 _assetId, uint256 _schemaId) internal view returns (bool) {\n    \n    for (uint i = 0; i < userAssets_[_owner].assets.length; i++) {\n      Asset memory asset = userAssets_[_owner].assets[i];\n\n      if ( (asset.assetId == _assetId) && (asset.schemaId == _schemaId) && (asset.expirationDate > now)){\n        return true;\n      }\n    }\n    \n    return false;\n  }\n\n  function tokenFallback(address _from, uint _value, uint256 _schemaId) public {\n    Schema memory schema = Schemas.getSchema(_schemaId);\n    uint pieValue = _value;\n\n    for (uint i = 0; i < schema.clearingHouseRules.length-1; i++) {\n      uint tmpValue = calculatePercentage(_value,schema.clearingHouseRules[i].percent);\n      ERC223.transfer(schema.clearingHouseRules[i].receptor, tmpValue, 0);\n      pieValue -= tmpValue;\n    }\n\n    ERC223.transfer(schema.clearingHouseRules[schema.clearingHouseRules.length-1].receptor, pieValue, 0);\n\n  }\n\n  function calculatePercentage(uint theNumber, uint percentage) public view returns (uint) {\n    return theNumber * percentage / 100 ;\n  }\n    \n}",
  "sourcePath": "/home/jordi/ws/jordiescudero/bloomen-wallet/bloomen-wallet-truffle/contracts/bloomen/Assets.sol",
  "compiler": {
    "name": "solc",
    "version": "0.5.7+commit.6da8b019.Emscripten.clang"
  },
  "schemaVersion": "3.0.6",
  "updatedAt": "2019-04-17T15:03:42.393Z",
  "devdoc": {
    "methods": {
      "allowance(address,address)": {
        "details": "Function to check the amount of tokens that an owner allowed to a spender.",
        "params": {
          "owner": "address The address which owns the funds.",
          "spender": "address The address which will spend the funds."
        },
        "return": "A uint256 specifying the amount of tokens still available for the spender."
      },
      "approve(address,uint256)": {
        "details": "Approve the passed address to spend the specified amount of tokens on behalf of msg.sender. Beware that changing an allowance with this method brings the risk that someone may use both the old and the new allowance by unfortunate transaction ordering. One possible solution to mitigate this race condition is to first reduce the spender's allowance to 0 and set the desired value afterwards: https://github.com/ethereum/EIPs/issues/20#issuecomment-263524729",
        "params": {
          "spender": "The address which will spend the funds.",
          "value": "The amount of tokens to be spent."
        }
      },
      "balanceOf(address)": {
        "details": "Gets the balance of the specified address.",
        "params": {
          "owner": "The address to query the balance of."
        },
        "return": "A uint256 representing the amount owned by the passed address."
      },
      "burn(uint256)": {
        "details": "Burns a specific amount of tokens.",
        "params": {
          "value": "The amount of token to be burned."
        }
      },
      "burnFrom(address,uint256)": {
        "details": "Burns a specific amount of tokens from the target address and decrements allowance",
        "params": {
          "from": "address The account whose tokens will be burned.",
          "value": "uint256 The amount of token to be burned."
        }
      },
      "decimals()": {
        "return": "the number of decimals of the token."
      },
      "decreaseAllowance(address,uint256)": {
        "details": "Decrease the amount of tokens that an owner allowed to a spender. approve should be called when _allowed[msg.sender][spender] == 0. To decrement allowed value is better to use this function to avoid 2 calls (and wait until the first transaction is mined) From MonolithDAO Token.sol Emits an Approval event.",
        "params": {
          "spender": "The address which will spend the funds.",
          "subtractedValue": "The amount of tokens to decrease the allowance by."
        }
      },
      "increaseAllowance(address,uint256)": {
        "details": "Increase the amount of tokens that an owner allowed to a spender. approve should be called when _allowed[msg.sender][spender] == 0. To increment allowed value is better to use this function to avoid 2 calls (and wait until the first transaction is mined) From MonolithDAO Token.sol Emits an Approval event.",
        "params": {
          "addedValue": "The amount of tokens to increase the allowance by.",
          "spender": "The address which will spend the funds."
        }
      },
      "isOwner()": {
        "return": "true if `msg.sender` is the owner of the contract."
      },
      "mint(address,uint256)": {
        "details": "Function to mint tokens",
        "params": {
          "to": "The address that will receive the minted tokens.",
          "value": "The amount of tokens to mint."
        },
        "return": "A boolean that indicates if the operation was successful."
      },
      "name()": {
        "return": "the name of the token."
      },
      "owner()": {
        "return": "the address of the owner."
      },
      "renounceOwnership()": {
        "details": "Allows the current owner to relinquish control of the contract. It will not be possible to call the functions with the `onlyOwner` modifier anymore."
      },
      "symbol()": {
        "return": "the symbol of the token."
      },
      "totalSupply()": {
        "details": "Total number of tokens in existence"
      },
      "transferFrom(address,address,uint256)": {
        "details": "Transfer tokens from one address to another. Note that while this function emits an Approval event, this is not required as per the specification, and other compliant implementations may not emit the event.",
        "params": {
          "from": "address The address which you want to send tokens from",
          "to": "address The address which you want to transfer to",
          "value": "uint256 the amount of tokens to be transferred"
        }
      },
      "transferOwnership(address)": {
        "details": "Allows the current owner to transfer control of the contract to a newOwner.",
        "params": {
          "newOwner": "The address to transfer ownership to."
        }
      }
    }
  },
  "userdoc": {
    "methods": {
      "renounceOwnership()": {
        "notice": "Renouncing ownership will leave the contract without an owner, thereby removing any functionality that is only available to the owner."
      }
    }
  }
}