{
  "contractName": "Assets",
  "abi": [
    {
      "constant": true,
      "inputs": [],
      "name": "name",
      "outputs": [
        {
          "name": "",
          "type": "string"
        }
      ],
      "payable": false,
      "stateMutability": "view",
      "type": "function"
    },
    {
      "constant": false,
      "inputs": [
        {
          "name": "_to",
          "type": "address"
        },
        {
          "name": "_value",
          "type": "uint256"
        },
        {
          "name": "_data",
          "type": "uint256"
        }
      ],
      "name": "transfer",
      "outputs": [],
      "payable": false,
      "stateMutability": "nonpayable",
      "type": "function"
    },
    {
      "constant": false,
      "inputs": [
        {
          "name": "spender",
          "type": "address"
        },
        {
          "name": "value",
          "type": "uint256"
        }
      ],
      "name": "approve",
      "outputs": [
        {
          "name": "",
          "type": "bool"
        }
      ],
      "payable": false,
      "stateMutability": "nonpayable",
      "type": "function"
    },
    {
      "constant": true,
      "inputs": [],
      "name": "totalSupply",
      "outputs": [
        {
          "name": "",
          "type": "uint256"
        }
      ],
      "payable": false,
      "stateMutability": "view",
      "type": "function"
    },
    {
      "constant": false,
      "inputs": [
        {
          "name": "from",
          "type": "address"
        },
        {
          "name": "to",
          "type": "address"
        },
        {
          "name": "value",
          "type": "uint256"
        }
      ],
      "name": "transferFrom",
      "outputs": [
        {
          "name": "",
          "type": "bool"
        }
      ],
      "payable": false,
      "stateMutability": "nonpayable",
      "type": "function"
    },
    {
      "constant": true,
      "inputs": [
        {
          "name": "_schemaId",
          "type": "uint256"
        }
      ],
      "name": "getSchema",
      "outputs": [
        {
          "components": [
            {
              "name": "expirationDate",
              "type": "uint256"
            },
            {
              "name": "schemaId",
              "type": "uint256"
            },
            {
              "name": "amount",
              "type": "uint256"
            },
            {
              "name": "assetLifeTime",
              "type": "uint256"
            },
            {
              "components": [
                {
                  "name": "percent",
                  "type": "uint256"
                },
                {
                  "name": "receptor",
                  "type": "address"
                },
                {
                  "name": "description",
                  "type": "string"
                }
              ],
              "name": "clearingHouseRules",
              "type": "tuple[]"
            },
            {
              "name": "valid",
              "type": "bool"
            }
          ],
          "name": "",
          "type": "tuple"
        }
      ],
      "payable": false,
      "stateMutability": "view",
      "type": "function"
    },
    {
      "constant": true,
      "inputs": [],
      "name": "decimals",
      "outputs": [
        {
          "name": "",
          "type": "uint8"
        }
      ],
      "payable": false,
      "stateMutability": "view",
      "type": "function"
    },
    {
      "constant": false,
      "inputs": [
        {
          "name": "spender",
          "type": "address"
        },
        {
          "name": "addedValue",
          "type": "uint256"
        }
      ],
      "name": "increaseAllowance",
      "outputs": [
        {
          "name": "",
          "type": "bool"
        }
      ],
      "payable": false,
      "stateMutability": "nonpayable",
      "type": "function"
    },
    {
      "constant": false,
      "inputs": [
        {
          "name": "_schemaId",
          "type": "uint256"
        }
      ],
      "name": "validateSchema",
      "outputs": [],
      "payable": false,
      "stateMutability": "nonpayable",
      "type": "function"
    },
    {
      "constant": false,
      "inputs": [
        {
          "name": "to",
          "type": "address"
        },
        {
          "name": "value",
          "type": "uint256"
        }
      ],
      "name": "mint",
      "outputs": [
        {
          "name": "",
          "type": "bool"
        }
      ],
      "payable": false,
      "stateMutability": "nonpayable",
      "type": "function"
    },
    {
      "constant": false,
      "inputs": [
        {
          "name": "value",
          "type": "uint256"
        }
      ],
      "name": "burn",
      "outputs": [],
      "payable": false,
      "stateMutability": "nonpayable",
      "type": "function"
    },
    {
      "constant": false,
      "inputs": [
        {
          "name": "_schemaId",
          "type": "uint256"
        }
      ],
      "name": "invalidateSchema",
      "outputs": [],
      "payable": false,
      "stateMutability": "nonpayable",
      "type": "function"
    },
    {
      "constant": true,
      "inputs": [
        {
          "name": "owner",
          "type": "address"
        }
      ],
      "name": "balanceOf",
      "outputs": [
        {
          "name": "",
          "type": "uint256"
        }
      ],
      "payable": false,
      "stateMutability": "view",
      "type": "function"
    },
    {
      "constant": false,
      "inputs": [],
      "name": "renounceOwnership",
      "outputs": [],
      "payable": false,
      "stateMutability": "nonpayable",
      "type": "function"
    },
    {
      "constant": false,
      "inputs": [
        {
          "name": "from",
          "type": "address"
        },
        {
          "name": "value",
          "type": "uint256"
        }
      ],
      "name": "burnFrom",
      "outputs": [],
      "payable": false,
      "stateMutability": "nonpayable",
      "type": "function"
    },
    {
      "constant": true,
      "inputs": [],
      "name": "owner",
      "outputs": [
        {
          "name": "",
          "type": "address"
        }
      ],
      "payable": false,
      "stateMutability": "view",
      "type": "function"
    },
    {
      "constant": true,
      "inputs": [],
      "name": "isOwner",
      "outputs": [
        {
          "name": "",
          "type": "bool"
        }
      ],
      "payable": false,
      "stateMutability": "view",
      "type": "function"
    },
    {
      "constant": true,
      "inputs": [],
      "name": "getSchemas",
      "outputs": [
        {
          "name": "",
          "type": "uint256[]"
        }
      ],
      "payable": false,
      "stateMutability": "view",
      "type": "function"
    },
    {
      "constant": true,
      "inputs": [],
      "name": "symbol",
      "outputs": [
        {
          "name": "",
          "type": "string"
        }
      ],
      "payable": false,
      "stateMutability": "view",
      "type": "function"
    },
    {
      "constant": false,
      "inputs": [
        {
          "name": "account",
          "type": "address"
        }
      ],
      "name": "addMinter",
      "outputs": [],
      "payable": false,
      "stateMutability": "nonpayable",
      "type": "function"
    },
    {
      "constant": false,
      "inputs": [],
      "name": "renounceMinter",
      "outputs": [],
      "payable": false,
      "stateMutability": "nonpayable",
      "type": "function"
    },
    {
      "constant": false,
      "inputs": [
        {
          "name": "_schemaId",
          "type": "uint256"
        },
        {
          "name": "_data",
          "type": "bytes"
        }
      ],
      "name": "createSchema",
      "outputs": [],
      "payable": false,
      "stateMutability": "nonpayable",
      "type": "function"
    },
    {
      "constant": false,
      "inputs": [
        {
          "name": "spender",
          "type": "address"
        },
        {
          "name": "subtractedValue",
          "type": "uint256"
        }
      ],
      "name": "decreaseAllowance",
      "outputs": [
        {
          "name": "",
          "type": "bool"
        }
      ],
      "payable": false,
      "stateMutability": "nonpayable",
      "type": "function"
    },
    {
      "constant": false,
      "inputs": [
        {
          "name": "_to",
          "type": "address"
        },
        {
          "name": "_value",
          "type": "uint256"
        }
      ],
      "name": "transfer",
      "outputs": [
        {
          "name": "",
          "type": "bool"
        }
      ],
      "payable": false,
      "stateMutability": "nonpayable",
      "type": "function"
    },
    {
      "constant": true,
      "inputs": [
        {
          "name": "account",
          "type": "address"
        }
      ],
      "name": "isMinter",
      "outputs": [
        {
          "name": "",
          "type": "bool"
        }
      ],
      "payable": false,
      "stateMutability": "view",
      "type": "function"
    },
    {
      "constant": true,
      "inputs": [
        {
          "name": "owner",
          "type": "address"
        },
        {
          "name": "spender",
          "type": "address"
        }
      ],
      "name": "allowance",
      "outputs": [
        {
          "name": "",
          "type": "uint256"
        }
      ],
      "payable": false,
      "stateMutability": "view",
      "type": "function"
    },
    {
      "constant": false,
      "inputs": [
        {
          "name": "newOwner",
          "type": "address"
        }
      ],
      "name": "transferOwnership",
      "outputs": [],
      "payable": false,
      "stateMutability": "nonpayable",
      "type": "function"
    },
    {
      "anonymous": false,
      "inputs": [
        {
          "indexed": true,
          "name": "account",
          "type": "address"
        }
      ],
      "name": "MinterAdded",
      "type": "event"
    },
    {
      "anonymous": false,
      "inputs": [
        {
          "indexed": true,
          "name": "account",
          "type": "address"
        }
      ],
      "name": "MinterRemoved",
      "type": "event"
    },
    {
      "anonymous": false,
      "inputs": [
        {
          "indexed": true,
          "name": "from",
          "type": "address"
        },
        {
          "indexed": true,
          "name": "to",
          "type": "address"
        },
        {
          "indexed": false,
          "name": "value",
          "type": "uint256"
        }
      ],
      "name": "Transfer",
      "type": "event"
    },
    {
      "anonymous": false,
      "inputs": [
        {
          "indexed": true,
          "name": "owner",
          "type": "address"
        },
        {
          "indexed": true,
          "name": "spender",
          "type": "address"
        },
        {
          "indexed": false,
          "name": "value",
          "type": "uint256"
        }
      ],
      "name": "Approval",
      "type": "event"
    },
    {
      "anonymous": false,
      "inputs": [
        {
          "indexed": true,
          "name": "previousOwner",
          "type": "address"
        },
        {
          "indexed": true,
          "name": "newOwner",
          "type": "address"
        }
      ],
      "name": "OwnershipTransferred",
      "type": "event"
    },
    {
      "constant": true,
      "inputs": [
        {
          "name": "_assetId",
          "type": "uint256"
        },
        {
          "name": "_schemaId",
          "type": "uint256"
        }
      ],
      "name": "checkOwnership",
      "outputs": [
        {
          "name": "",
          "type": "bool"
        }
      ],
      "payable": false,
      "stateMutability": "view",
      "type": "function"
    },
    {
      "constant": true,
      "inputs": [
        {
          "name": "_target",
          "type": "address"
        },
        {
          "name": "_assetId",
          "type": "uint256"
        },
        {
          "name": "_schemaId",
          "type": "uint256"
        }
      ],
      "name": "checkOwnershipForAddress",
      "outputs": [
        {
          "name": "",
          "type": "bool"
        }
      ],
      "payable": false,
      "stateMutability": "view",
      "type": "function"
    },
    {
      "constant": false,
      "inputs": [
        {
          "name": "_assetId",
          "type": "uint256"
        },
        {
          "name": "_schemaId",
          "type": "uint256"
        },
        {
          "name": "_amount",
          "type": "uint256"
        },
        {
          "name": "_dappId",
          "type": "string"
        },
        {
          "name": "_description",
          "type": "string"
        }
      ],
      "name": "buy",
      "outputs": [],
      "payable": false,
      "stateMutability": "nonpayable",
      "type": "function"
    },
    {
      "constant": false,
      "inputs": [
        {
          "name": "_assetId",
          "type": "uint256"
        },
        {
          "name": "_schemaId",
          "type": "uint256"
        },
        {
          "name": "_amount",
          "type": "uint256"
        },
        {
          "name": "_dappId",
          "type": "string"
        }
      ],
      "name": "buy",
      "outputs": [],
      "payable": false,
      "stateMutability": "nonpayable",
      "type": "function"
    },
    {
      "constant": true,
      "inputs": [],
      "name": "getAssetsPageCount",
      "outputs": [
        {
          "name": "",
          "type": "uint256"
        }
      ],
      "payable": false,
      "stateMutability": "view",
      "type": "function"
    },
    {
      "constant": true,
      "inputs": [
        {
          "name": "_page",
          "type": "uint256"
        }
      ],
      "name": "getAssets",
      "outputs": [
        {
          "components": [
            {
              "name": "expirationDate",
              "type": "uint256"
            },
            {
              "name": "assetId",
              "type": "uint256"
            },
            {
              "name": "schemaId",
              "type": "uint256"
            },
            {
              "name": "dappId",
              "type": "string"
            },
            {
              "name": "description",
              "type": "string"
            }
          ],
          "name": "",
          "type": "tuple[]"
        }
      ],
      "payable": false,
      "stateMutability": "view",
      "type": "function"
    },
    {
      "constant": false,
      "inputs": [
        {
          "name": "_from",
          "type": "address"
        },
        {
          "name": "_value",
          "type": "uint256"
        },
        {
          "name": "_schemaId",
          "type": "uint256"
        }
      ],
      "name": "tokenFallback",
      "outputs": [],
      "payable": false,
      "stateMutability": "nonpayable",
      "type": "function"
    },
    {
      "constant": true,
      "inputs": [
        {
          "name": "theNumber",
          "type": "uint256"
        },
        {
          "name": "percentage",
          "type": "uint256"
        }
      ],
      "name": "calculatePercentage",
      "outputs": [
        {
          "name": "",
          "type": "uint256"
        }
      ],
      "payable": false,
      "stateMutability": "view",
      "type": "function"
    }
  ],
  "bytecode": "0x600b60809081527f426c6f6f6d656e436f696e00000000000000000000000000000000000000000060a0526101006040819052600360c09081527f424c4f000000000000000000000000000000000000000000000000000000000060e052600080546001600160a01b031916331780825591926002928592859285926001600160a01b031691907f8be0079c531659141344cd1fd0a4f28419497f9722a3daafe3b4186f6b6457e0908290a38251620000c0906006906020860190620001e7565b508151620000d6906007906020850190620001e7565b506008805460ff191660ff92909216919091179055506200010090503362000109602090811b901c565b5050506200028c565b620001248160096200015b60201b6200191d1790919060201c565b6040516001600160a01b038216907f6ae172837ea30b801fbfcdd4108aa1d5bf8ff775444fd70256b44e6bf3dfc3f690600090a250565b6001600160a01b0381166200016f57600080fd5b620001818282620001b160201b60201c565b156200018c57600080fd5b6001600160a01b0316600090815260209190915260409020805460ff19166001179055565b60006001600160a01b038216620001c757600080fd5b506001600160a01b03166000908152602091909152604090205460ff1690565b828054600181600116156101000203166002900490600052602060002090601f016020900481019282601f106200022a57805160ff19168380011785556200025a565b828001600101855582156200025a579182015b828111156200025a5782518255916020019190600101906200023d565b50620002689291506200026c565b5090565b6200028991905b8082111562000268576000815560010162000273565b90565b6128c3806200029c6000396000f3fe608060405234801561001057600080fd5b50600436106102115760003560e01c8063700651aa11610125578063983b2d56116100ad578063a9059cbb1161007c578063a9059cbb14610448578063aa271e1a1461045b578063d92121641461046e578063dd62ed3e1461048e578063f2fde38b146104a157610211565b8063983b2d5614610407578063986502751461041a578063a2086dab14610422578063a457c2d71461043557610211565b80637de3b0ed116100f45780637de3b0ed146103ba5780638da5cb5b146103cd5780638f32d59b146103e257806395ba8d18146103ea57806395d89b41146103ff57610211565b8063700651aa1461037957806370a082311461038c578063715018a61461039f57806379cc6790146103a757610211565b80632b26fb29116101a857806340c10f191161017757806340c10f191461032557806342966c68146103385780634aa3bfeb1461034b5780634f4ee353146103535780635a16f5c41461036657610211565b80632b26fb29146102ca578063313ce567146102ea57806339509351146102ff5780634014d4681461031257610211565b8063095ea7b3116101e4578063095ea7b31461027c57806318160ddd1461028f5780632133e3b9146102a457806323b872dd146102b757610211565b806304edae0f1461021657806306fdde031461023f578063080e688714610254578063095bcdb614610269575b600080fd5b6102296102243660046120ca565b6104b4565b60405161023691906126c7565b60405180910390f35b6102476104ca565b60405161023691906126d5565b610267610262366004612162565b610561565b005b610267610277366004612032565b610576565b61022961028a366004612002565b610592565b6102976105a8565b6040516102369190612787565b6102976102b23660046120ca565b6105ae565b6102296102c5366004611fb5565b6105b6565b6102dd6102d8366004612064565b61060e565b6040516102369190612776565b6102f26107af565b6040516102369190612795565b61022961030d366004612002565b6107b8565b610267610320366004612064565b6107f4565b610229610333366004612002565b610813565b610267610346366004612064565b610831565b61029761083b565b610267610361366004612032565b610852565b610267610374366004612064565b6108f0565b610229610387366004612032565b61090c565b61029761039a366004611f5d565b610921565b61026761093c565b6102676103b5366004612002565b610997565b6102676103c83660046120e9565b6109a5565b6103d56109c8565b604051610236919061266f565b6102296109d7565b6103f26109e8565b60405161023691906126b6565b610247610a3f565b610267610415366004611f5d565b610aa0565b610267610abb565b610267610430366004612082565b610ac6565b610229610443366004612002565b610ae1565b610229610456366004612002565b610b1d565b610229610469366004611f5d565b610b37565b61048161047c366004612064565b610b4a565b60405161023691906126a5565b61029761049c366004611f7b565b610dc0565b6102676104af366004611f5d565b610deb565b60006104c1338484610e05565b90505b92915050565b60068054604080516020601f60026000196101006001881615020190951694909404938401819004810282018101909252828152606093909290918301828280156105565780601f1061052b57610100808354040283529160200191610556565b820191906000526020600020905b81548152906001019060200180831161053957829003601f168201915b505050505090505b90565b61056f33868686868661100a565b5050505050565b610581338484611132565b61058d3384848461113d565b505050565b600061059f3384846111f3565b50600192915050565b60055490565b606491020490565b60006105c3848484611132565b6001600160a01b0384166000908152600460209081526040808320338085529252909120546106039186916105fe908663ffffffff61128116565b6111f3565b5060015b9392505050565b610616611dd8565b6000828152600160208190526040909120015461065157604051600160e51b62461bcd028152600401610648906126f6565b60405180910390fd5b6000828152600160208181526040808420815160c081018352815481529381015484840152600281015484830152600381015460608501526004810180548351818602810186019094528084529495919460808701949192909184015b8282101561078e5760008481526020908190206040805160608101825260038602909201805483526001808201546001600160a01b0316848601526002808301805485516101009482161594909402600019011691909104601f81018790048702830187018552808352949592949386019391929091908301828280156107765780601f1061074b57610100808354040283529160200191610776565b820191906000526020600020905b81548152906001019060200180831161075957829003601f168201915b505050505081525050815260200190600101906106ae565b505050908252506005919091015460ff16151560209091015290505b919050565b60085460ff1690565b3360008181526004602090815260408083206001600160a01b0387168452909152812054909161059f9185906105fe908663ffffffff61129616565b6107fc6109d7565b61080557600080fd5b6108108160016112a8565b50565b600061081e33610b37565b61082757600080fd5b61059f8383611338565b61081033826113d3565b336000908152600c6020526040902054600a900490565b61085a611dd8565b6108638261060e565b90508260005b6001836080015151038110156108d55760006108a0868560800151848151811061088f57fe5b6020026020010151600001516105ae565b90506108c9846080015183815181106108b557fe5b602002602001015160200151826000610576565b90910390600101610869565b506080820151805161056f919060001981019081106108b557fe5b6108f86109d7565b61090157600080fd5b6108108160006112a8565b6000610919848484610e05565b949350505050565b6001600160a01b031660009081526003602052604090205490565b6109446109d7565b61094d57600080fd5b600080546040516001600160a01b03909116907f8be0079c531659141344cd1fd0a4f28419497f9722a3daafe3b4186f6b6457e0908390a3600080546001600160a01b0319169055565b6109a1828261145f565b5050565b6109c233858585856040518060200160405280600081525061100a565b50505050565b6000546001600160a01b031690565b6000546001600160a01b0316331490565b6060600280548060200260200160405190810160405280929190818152602001828054801561055657602002820191906000526020600020905b815481526020019060010190808311610a22575050505050905090565b60078054604080516020601f60026000196101006001881615020190951694909404938401819004810282018101909252828152606093909290918301828280156105565780601f1061052b57610100808354040283529160200191610556565b610aa933610b37565b610ab257600080fd5b610810816114a4565b610ac4336114ec565b565b610ace6109d7565b610ad757600080fd5b6109a18282611534565b3360008181526004602090815260408083206001600160a01b0387168452909152812054909161059f9185906105fe908663ffffffff61128116565b6000610b2a338484611132565b61059f338484600061113d565b60006104c460098363ffffffff6117c316565b336000908152600c602090815260408083208054825181850281018501909352808352606094600919600a8802019486949392919084015b82821015610d0857838290600052602060002090600502016040518060a0016040529081600082015481526020016001820154815260200160028201548152602001600382018054600181600116156101000203166002900480601f016020809104026020016040519081016040528092919081815260200182805460018160011615610100020316600290048015610c5c5780601f10610c3157610100808354040283529160200191610c5c565b820191906000526020600020905b815481529060010190602001808311610c3f57829003601f168201915b505050918352505060048201805460408051602060026001851615610100026000190190941693909304601f8101849004840282018401909252818152938201939291830182828015610cf05780601f10610cc557610100808354040283529160200191610cf0565b820191906000526020600020905b815481529060010190602001808311610cd357829003601f168201915b50505050508152505081526020019060010190610b82565b505050509050805160001480610d215750600181510382115b15610d325750606091506107aa9050565b60408051600a8082526101608201909252606091816020015b610d53611e10565b815260200190600190039081610d4b57905050905060005b85600a02841015610db7578251841015610dab57828481518110610d8b57fe5b6020026020010151828281518110610d9f57fe5b60200260200101819052505b60019384019301610d6b565b50949350505050565b6001600160a01b03918216600090815260046020908152604080832093909416825291909152205490565b610df36109d7565b610dfc57600080fd5b610810816117f8565b6000805b6001600160a01b0385166000908152600c6020526040902054811015610fff57610e31611e10565b6001600160a01b0386166000908152600c60205260409020805483908110610e5557fe5b90600052602060002090600502016040518060a0016040529081600082015481526020016001820154815260200160028201548152602001600382018054600181600116156101000203166002900480601f016020809104026020016040519081016040528092919081815260200182805460018160011615610100020316600290048015610f255780601f10610efa57610100808354040283529160200191610f25565b820191906000526020600020905b815481529060010190602001808311610f0857829003601f168201915b505050918352505060048201805460408051602060026001851615610100026000190190941693909304601f8101849004840282018401909252818152938201939291830182828015610fb95780601f10610f8e57610100808354040283529160200191610fb9565b820191906000526020600020905b815481529060010190602001808311610f9c57829003601f168201915b5050505050815250509050848160200151148015610fda5750838160400151145b8015610fe65750805142105b15610ff657600192505050610607565b50600101610e09565b506000949350505050565b611012611dd8565b61101b8561060e565b90508381604001511461104357604051600160e51b62461bcd02815260040161064890612736565b61104e878787610e05565b1561106e57604051600160e51b62461bcd02815260040161064890612756565b831561107f5761107f308587610576565b6001600160a01b0387166000908152600c60209081526040808320815160a081018352606080870151420182528185018c81529382018b815290820189815260808301899052835460018181018087559589529787902084516005909202019081559451968501969096555160028401559351805191949361110992600385019290910190611e3f565b5060808201518051611125916004840191602090910190611e3f565b5050505050505050505050565b61058d838383611866565b61114683611917565b156111b457604051600160e01b634f4ee35302815283906001600160a01b03821690634f4ee353906111809088908790879060040161267d565b600060405180830381600087803b15801561119a57600080fd5b505af11580156111ae573d6000803e3d6000fd5b50505050505b826001600160a01b0316846001600160a01b031660008051602061286a833981519152846040516111e59190612787565b60405180910390a350505050565b6001600160a01b03821661120657600080fd5b6001600160a01b03831661121957600080fd5b6001600160a01b0380841660008181526004602090815260408083209487168084529490915290819020849055517f8c5be1e5ebec7d5bd14f71427d1e84f3dd0314c0f7b2291e5b200ac8c7c3b92590611274908590612787565b60405180910390a3505050565b60008282111561129057600080fd5b50900390565b6000828201838110156104c157600080fd5b600082815260016020819052604090912001546112da57604051600160e51b62461bcd02815260040161064890612706565b60008281526001602052604090206005015460ff161515811515141561131557604051600160e51b62461bcd02815260040161064890612746565b600091825260016020526040909120600501805460ff1916911515919091179055565b6001600160a01b03821661134b57600080fd5b60055461135e908263ffffffff61129616565b6005556001600160a01b03821660009081526003602052604090205461138a908263ffffffff61129616565b6001600160a01b03831660008181526003602052604080822093909355915190919060008051602061286a833981519152906113c7908590612787565b60405180910390a35050565b6001600160a01b0382166113e657600080fd5b6005546113f9908263ffffffff61128116565b6005556001600160a01b038216600090815260036020526040902054611425908263ffffffff61128116565b6001600160a01b03831660008181526003602052604080822093909355915160008051602061286a833981519152906113c7908590612787565b61146982826113d3565b6001600160a01b0382166000908152600460209081526040808320338085529252909120546109a19184916105fe908563ffffffff61128116565b6114b560098263ffffffff61191d16565b6040516001600160a01b038216907f6ae172837ea30b801fbfcdd4108aa1d5bf8ff775444fd70256b44e6bf3dfc3f690600090a250565b6114fd60098263ffffffff61196916565b6040516001600160a01b038216907fe94479a9f7e1952cc78f2d6baab678adc1b772d936c6583def489e524cb6669290600090a250565b600082815260016020819052604090912001541561156757604051600160e51b62461bcd02815260040161064890612726565b61156f611ebd565b611578826119b1565b90506060611585826119d6565b905060006115a68260008151811061159957fe5b6020026020010151611aa3565b90504281116115ca57604051600160e51b62461bcd02815260040161064890612716565b60006115dc8360018151811061159957fe5b905060006115f08460028151811061159957fe5b905060006116048560038151811061159957fe5b905060606116258660048151811061161857fe5b60200260200101516119d6565b805190915060005b8181101561173957606061164684838151811061161857fe5b90506001600088815260200190815260200160002060040160405180606001604052806116798460008151811061159957fe5b815260200161169b8460018151811061168e57fe5b6020026020010151611b01565b6001600160a01b031681526020016116c6846002815181106116b957fe5b6020026020010151611b1b565b905281546001808201808555600094855260209485902084516003909402019283558385015191830180546001600160a01b0319166001600160a01b039093169290921790915560408301518051919461172892600285019290910190611e3f565b50506001909301925061162d915050565b50600085815260016020526040902061175490600401611b8b565b50506000838152600160208190526040822095865585810185905560028087019490945560038601929092556005909401805460ff1916821790558154908101825592527f405787fa12a823e0f2b7631cc41b3ba8828b3321ca811111fa75cd3aa3bb5ace9091015550505050565b60006001600160a01b0382166117d857600080fd5b506001600160a01b03166000908152602091909152604090205460ff1690565b6001600160a01b03811661180b57600080fd5b600080546040516001600160a01b03808516939216917f8be0079c531659141344cd1fd0a4f28419497f9722a3daafe3b4186f6b6457e091a3600080546001600160a01b0319166001600160a01b0392909216919091179055565b6001600160a01b03821661187957600080fd5b6001600160a01b0383166000908152600360205260409020546118a2908263ffffffff61128116565b6001600160a01b0380851660009081526003602052604080822093909355908416815220546118d7908263ffffffff61129616565b6001600160a01b03808416600081815260036020526040908190209390935591519085169060008051602061286a83398151915290611274908590612787565b3b151590565b6001600160a01b03811661193057600080fd5b61193a82826117c3565b1561194457600080fd5b6001600160a01b0316600090815260209190915260409020805460ff19166001179055565b6001600160a01b03811661197c57600080fd5b61198682826117c3565b61198f57600080fd5b6001600160a01b0316600090815260209190915260409020805460ff19169055565b6119b9611ebd565b506040805180820190915281518152602082810190820152919050565b60606119e182611c08565b6119ea57600080fd5b60006119f583611c38565b905080604051908082528060200260200182016040528015611a3157816020015b611a1e611ebd565b815260200190600190039081611a165790505b5091506000611a438460200151611c94565b60208501510190506000805b83811015611a9a57611a6083611cfd565b9150604051806040016040528083815260200184815250858281518110611a8357fe5b602090810291909101015291810191600101611a4f565b50505050919050565b805160009015801590611ab857508151602110155b611ac157600080fd5b6000611ad08360200151611c94565b83516020808601518301805193945091849003929190831015610db757506020919091036101000a90049392505050565b8051600090601514611b1257600080fd5b6104c482611aa3565b8051606090611b2957600080fd5b6000611b388360200151611c94565b83516040805191839003808352601f19601f8201168301602001909152919250606090828015611b6f576020820181803883390190505b5090506000816020019050610db7848760200151018285611d8d565b8054611bac57604051600160e51b62461bcd028152600401610648906126e6565b80546000805b82811015611be457838181548110611bc657fe5b60009182526020909120600390910201549190910190600101611bb2565b508060641461058d57604051600160e51b62461bcd02815260040161064890612766565b8051600090611c19575060006107aa565b6020820151805160001a9060c0821015610603576000925050506107aa565b8051600090611c49575060006107aa565b60008090506000611c5d8460200151611c94565b602085015185519181019250015b80821015611c8b57611c7c82611cfd565b60019093019290910190611c6b565b50909392505050565b8051600090811a6080811015611cae5760009150506107aa565b60b8811080611cc9575060c08110801590611cc9575060f881105b15611cd85760019150506107aa565b60c0811015611cec5760b5190190506107aa565b60f5190190506107aa565b50919050565b8051600090811a6080811015611d175760019150506107aa565b60b8811015611d2b57607e190190506107aa565b60c0811015611d585760b78103600184019350806020036101000a84510460018201810193505050611cf7565b60f8811015611d6c5760be190190506107aa565b60019290920151602083900360f7016101000a900490910160f51901919050565b80611d975761058d565b5b60208110611db7578251825260209283019290910190601f1901611d98565b915181516020939093036101000a6000190180199091169216919091179052565b6040518060c0016040528060008152602001600081526020016000815260200160008152602001606081526020016000151581525090565b6040518060a0016040528060008152602001600081526020016000815260200160608152602001606081525090565b828054600181600116156101000203166002900490600052602060002090601f016020900481019282601f10611e8057805160ff1916838001178555611ead565b82800160010185558215611ead579182015b82811115611ead578251825591602001919060010190611e92565b50611eb9929150611ed7565b5090565b604051806040016040528060008152602001600081525090565b61055e91905b80821115611eb95760008155600101611edd565b60006104c18235612805565b600082601f830112611f0e57600080fd5b8135611f21611f1c826127ca565b6127a3565b91508082526020830160208301858383011115611f3d57600080fd5b611f48838284612827565b50505092915050565b60006104c1823561055e565b600060208284031215611f6f57600080fd5b60006109198484611ef1565b60008060408385031215611f8e57600080fd5b6000611f9a8585611ef1565b9250506020611fab85828601611ef1565b9150509250929050565b600080600060608486031215611fca57600080fd5b6000611fd68686611ef1565b9350506020611fe786828701611ef1565b9250506040611ff886828701611f51565b9150509250925092565b6000806040838503121561201557600080fd5b60006120218585611ef1565b9250506020611fab85828601611f51565b60008060006060848603121561204757600080fd5b60006120538686611ef1565b9350506020611fe786828701611f51565b60006020828403121561207657600080fd5b60006109198484611f51565b6000806040838503121561209557600080fd5b60006120a18585611f51565b925050602083013567ffffffffffffffff8111156120be57600080fd5b611fab85828601611efd565b600080604083850312156120dd57600080fd5b60006120218585611f51565b600080600080608085870312156120ff57600080fd5b600061210b8787611f51565b945050602061211c87828801611f51565b935050604061212d87828801611f51565b925050606085013567ffffffffffffffff81111561214a57600080fd5b61215687828801611efd565b91505092959194509250565b600080600080600060a0868803121561217a57600080fd5b60006121868888611f51565b955050602061219788828901611f51565b94505060406121a888828901611f51565b935050606086013567ffffffffffffffff8111156121c557600080fd5b6121d188828901611efd565b925050608086013567ffffffffffffffff8111156121ee57600080fd5b6121fa88828901611efd565b9150509295509295909350565b60006104c18383612527565b60006104c1838361259c565b600061222b838361265d565b505060200190565b61223c81612805565b82525050565b600061224d826127f8565b61225781856127fc565b935083602082028501612269856127f2565b60005b848110156122a0578383038852612284838351612207565b925061228f826127f2565b60209890980197915060010161226c565b50909695505050505050565b60006122b7826127f8565b6122c181856127fc565b9350836020820285016122d3856127f2565b60005b848110156122a05783830388526122ee838351612213565b92506122f9826127f2565b6020989098019791506001016122d6565b6000612315826127f8565b61231f81856127fc565b935061232a836127f2565b60005b828110156123555761234086835161221f565b955061234b826127f2565b915060010161232d565b5093949350505050565b61223c81612810565b6000612373826127f8565b61237d81856127fc565b935061238d818560208601612833565b6123968161285f565b9093019392505050565b60006123ad6009836127fc565b600160b81b686e6f742072756c657302815260200192915050565b60006123d56009836127fc565b600160ba1b681b9bdd17d95e1a5cdd02815260200192915050565b60006123fd6009836127fc565b600160ba1b681b9bdd08195e1a5cdd02815260200192915050565b60006124256007836127fc565b600160ca1b66195e1c1a5c995902815260200192915050565b600061244b6005836127fc565b600160da1b64195e1a5cdd02815260200192915050565b600061246f6010836127fc565b7f696e636f727265637420616d6f756e7400000000000000000000000000000000815260200192915050565b60006124a8600b836127fc565b600160a81b6a73616d652073746174757302815260200192915050565b60006124d2600a836127fc565b600160b21b69191d5c1b1a58d85d195902815260200192915050565b60006124fb6016836127fc565b7f616c6c20616d6f756e7420646973747269627574656400000000000000000000815260200192915050565b805160009060a084019061253b858261265d565b50602083015161254e602086018261265d565b506040830151612561604086018261265d565b50606083015184820360608601526125798282612368565b915050608083015184820360808601526125938282612368565b95945050505050565b805160009060608401906125b0858261265d565b5060208301516125c36020860182612233565b50604083015184820360408601526125938282612368565b805160009060c08401906125ef858261265d565b506020830151612602602086018261265d565b506040830151612615604086018261265d565b506060830151612628606086018261265d565b506080830151848203608086015261264082826122ac565b91505060a083015161265560a086018261235f565b509392505050565b61223c8161055e565b61223c81612821565b602081016104c48284612233565b6060810161268b8286612233565b612698602083018561265d565b610919604083018461265d565b602080825281016104c18184612242565b602080825281016104c1818461230a565b602081016104c4828461235f565b602080825281016104c18184612368565b602080825281016104c4816123a0565b602080825281016104c4816123c8565b602080825281016104c4816123f0565b602080825281016104c481612418565b602080825281016104c48161243e565b602080825281016104c481612462565b602080825281016104c48161249b565b602080825281016104c4816124c5565b602080825281016104c4816124ee565b602080825281016104c181846125db565b602081016104c4828461265d565b602081016104c48284612666565b60405181810167ffffffffffffffff811182821017156127c257600080fd5b604052919050565b600067ffffffffffffffff8211156127e157600080fd5b506020601f91909101601f19160190565b60200190565b5190565b90815260200190565b60006104c482612815565b151590565b6001600160a01b031690565b60ff1690565b82818337506000910152565b60005b8381101561284e578181015183820152602001612836565b838111156109c25750506000910152565b601f01601f19169056feddf252ad1be2c89b69c2b068fc378daa952ba7f163c4a11628f55a4df523b3efa265627a7a72305820c8b8ecff372297247deca985ad8a44a0fae1e5caaa71c52b03bee469bd54c9236c6578706572696d656e74616cf50037",
  "source": "pragma solidity ^0.5.2;\npragma experimental ABIEncoderV2;\n\nimport \"./Schemas.sol\";\nimport \"./token/ERC223ReceivingContract.sol\";\nimport \"./token/ERC223.sol\";\nimport \"../../node_modules/openzeppelin-solidity/contracts/math/SafeMath.sol\";\n\ncontract  Assets is Schemas, ERC223ReceivingContract, ERC223(\"BloomenCoin\",\"BLO\",2) {\n\n  using SafeMath for uint256;\n    \n  struct UserAssets {   \n    Asset[] assets;\n  } \n\n  struct Asset {   \n    uint expirationDate;\n    uint256 assetId;\n    uint256 schemaId;\n    string dappId;\n    string description;\n  }\n\n  uint256 constant private PAGE_SIZE = 10;\n\n  // buy://<assetId>#<schemaId>#<amount>#<dappId>#amount\n\n  mapping (address => UserAssets) private userAssets_;\n\n  function checkOwnership(uint256 _assetId, uint256 _schemaId) public view returns (bool) {\n    return _checkOwnership(msg.sender, _assetId, _schemaId);  \n  }\n\n  function checkOwnershipForAddress(address _target, uint256 _assetId, uint256 _schemaId) public view returns (bool) {\n    return _checkOwnership(_target, _assetId, _schemaId);  \n  }\n\n  function buy(uint256 _assetId, uint256 _schemaId, uint256 _amount, string memory _dappId) public  {\n    _buy(msg.sender, _assetId, _schemaId, _amount, _dappId, \"\");  \n  }\n\n  function buy(uint256 _assetId, uint256 _schemaId, uint256 _amount, string memory _dappId, string memory _description) public  {\n    _buy(msg.sender, _assetId, _schemaId, _amount, _dappId, _description);  \n  }\n\n  function getAssetsPageCount() public view returns (uint256) {\n    return userAssets_[msg.sender].assets.length / PAGE_SIZE;\n  }\n\n  function getAssets(uint256 _page) public view returns (Asset[] memory) {\n    \n    uint256 transferIndex = PAGE_SIZE * _page - PAGE_SIZE;\n    Asset[] memory assets = userAssets_[msg.sender].assets;\n\n    if (assets.length == 0 || transferIndex > assets.length - 1) {\n      Asset[] memory empty;\n      return empty ;\n    }\n\n    Asset[] memory assetsPage = new Asset[](PAGE_SIZE);  \n    uint256 returnCounter = 0;\n\n    for (transferIndex; transferIndex < PAGE_SIZE * _page; transferIndex++) {\n      if (transferIndex < assets.length) {\n        assetsPage[returnCounter] = assets[transferIndex];\n      }\n      returnCounter++;\n    }\n\n    return (assetsPage);\n  }\n\n  function _buy(address _user, uint256 _assetId, uint256 _schemaId, uint256 _amount, string memory _dappId, string memory _description) internal  {\n    Schema memory schema = Schemas.getSchema(_schemaId);\n    require(schema.amount == _amount, \"incorrect amount\");    \n    require(!_checkOwnership(_user, _assetId, _schemaId), \"duplicated\");\n\n    if (_amount >0 ){\n      // avoid money transfer on free assets\n      ERC223.transfer(address(this), _amount, _schemaId);\n    }\n  \n    // registrar la compra\n    userAssets_[_user].assets.push(Asset(now + schema.assetLifeTime , _assetId, _schemaId, _dappId, _description));\n  }\n\n  function _checkOwnership(address _owner, uint256 _assetId, uint256 _schemaId) internal view returns (bool) {\n    \n    for (uint i = 0; i < userAssets_[_owner].assets.length; i++) {\n      Asset memory asset = userAssets_[_owner].assets[i];\n\n      if ( (asset.assetId == _assetId) && (asset.schemaId == _schemaId) && (asset.expirationDate > now)){\n        return true;\n      }\n    }\n    \n    return false;\n  }\n\n  function tokenFallback(address _from, uint _value, uint256 _schemaId) public {\n    Schema memory schema = Schemas.getSchema(_schemaId);\n    uint pieValue = _value;\n\n    for (uint i = 0; i < schema.clearingHouseRules.length-1; i++) {\n      uint tmpValue = calculatePercentage(_value,schema.clearingHouseRules[i].percent);\n      ERC223.transfer(schema.clearingHouseRules[i].receptor, tmpValue, 0);\n      pieValue -= tmpValue;\n    }\n\n    ERC223.transfer(schema.clearingHouseRules[schema.clearingHouseRules.length-1].receptor, pieValue, 0);\n\n  }\n\n  function calculatePercentage(uint theNumber, uint percentage) public view returns (uint) {\n    return theNumber * percentage / 100 ;\n  }\n    \n}",
  "sourcePath": "/home/jordi/ws/jordiescudero/bloomen-wallet/bloomen-wallet-truffle/contracts/bloomen/Assets.sol",
  "compiler": {
    "name": "solc",
    "version": "0.5.7+commit.6da8b019.Emscripten.clang"
  },
  "schemaVersion": "3.0.6",
  "updatedAt": "2019-04-16T09:48:37.235Z",
  "devdoc": {
    "methods": {
      "allowance(address,address)": {
        "details": "Function to check the amount of tokens that an owner allowed to a spender.",
        "params": {
          "owner": "address The address which owns the funds.",
          "spender": "address The address which will spend the funds."
        },
        "return": "A uint256 specifying the amount of tokens still available for the spender."
      },
      "approve(address,uint256)": {
        "details": "Approve the passed address to spend the specified amount of tokens on behalf of msg.sender. Beware that changing an allowance with this method brings the risk that someone may use both the old and the new allowance by unfortunate transaction ordering. One possible solution to mitigate this race condition is to first reduce the spender's allowance to 0 and set the desired value afterwards: https://github.com/ethereum/EIPs/issues/20#issuecomment-263524729",
        "params": {
          "spender": "The address which will spend the funds.",
          "value": "The amount of tokens to be spent."
        }
      },
      "balanceOf(address)": {
        "details": "Gets the balance of the specified address.",
        "params": {
          "owner": "The address to query the balance of."
        },
        "return": "A uint256 representing the amount owned by the passed address."
      },
      "burn(uint256)": {
        "details": "Burns a specific amount of tokens.",
        "params": {
          "value": "The amount of token to be burned."
        }
      },
      "burnFrom(address,uint256)": {
        "details": "Burns a specific amount of tokens from the target address and decrements allowance",
        "params": {
          "from": "address The account whose tokens will be burned.",
          "value": "uint256 The amount of token to be burned."
        }
      },
      "decimals()": {
        "return": "the number of decimals of the token."
      },
      "decreaseAllowance(address,uint256)": {
        "details": "Decrease the amount of tokens that an owner allowed to a spender. approve should be called when _allowed[msg.sender][spender] == 0. To decrement allowed value is better to use this function to avoid 2 calls (and wait until the first transaction is mined) From MonolithDAO Token.sol Emits an Approval event.",
        "params": {
          "spender": "The address which will spend the funds.",
          "subtractedValue": "The amount of tokens to decrease the allowance by."
        }
      },
      "increaseAllowance(address,uint256)": {
        "details": "Increase the amount of tokens that an owner allowed to a spender. approve should be called when _allowed[msg.sender][spender] == 0. To increment allowed value is better to use this function to avoid 2 calls (and wait until the first transaction is mined) From MonolithDAO Token.sol Emits an Approval event.",
        "params": {
          "addedValue": "The amount of tokens to increase the allowance by.",
          "spender": "The address which will spend the funds."
        }
      },
      "isOwner()": {
        "return": "true if `msg.sender` is the owner of the contract."
      },
      "mint(address,uint256)": {
        "details": "Function to mint tokens",
        "params": {
          "to": "The address that will receive the minted tokens.",
          "value": "The amount of tokens to mint."
        },
        "return": "A boolean that indicates if the operation was successful."
      },
      "name()": {
        "return": "the name of the token."
      },
      "owner()": {
        "return": "the address of the owner."
      },
      "renounceOwnership()": {
        "details": "Allows the current owner to relinquish control of the contract. It will not be possible to call the functions with the `onlyOwner` modifier anymore."
      },
      "symbol()": {
        "return": "the symbol of the token."
      },
      "totalSupply()": {
        "details": "Total number of tokens in existence"
      },
      "transferFrom(address,address,uint256)": {
        "details": "Transfer tokens from one address to another. Note that while this function emits an Approval event, this is not required as per the specification, and other compliant implementations may not emit the event.",
        "params": {
          "from": "address The address which you want to send tokens from",
          "to": "address The address which you want to transfer to",
          "value": "uint256 the amount of tokens to be transferred"
        }
      },
      "transferOwnership(address)": {
        "details": "Allows the current owner to transfer control of the contract to a newOwner.",
        "params": {
          "newOwner": "The address to transfer ownership to."
        }
      }
    }
  },
  "userdoc": {
    "methods": {
      "renounceOwnership()": {
        "notice": "Renouncing ownership will leave the contract without an owner, thereby removing any functionality that is only available to the owner."
      }
    }
  }
}