{
  "contractName": "Bloomen",
  "abi": [
    {
      "constant": false,
      "inputs": [],
      "name": "renounceOwnership",
      "outputs": [],
      "payable": false,
      "stateMutability": "nonpayable",
      "type": "function"
    },
    {
      "constant": true,
      "inputs": [],
      "name": "owner",
      "outputs": [
        {
          "name": "",
          "type": "address"
        }
      ],
      "payable": false,
      "stateMutability": "view",
      "type": "function"
    },
    {
      "constant": true,
      "inputs": [],
      "name": "isOwner",
      "outputs": [
        {
          "name": "",
          "type": "bool"
        }
      ],
      "payable": false,
      "stateMutability": "view",
      "type": "function"
    },
    {
      "constant": false,
      "inputs": [
        {
          "name": "newOwner",
          "type": "address"
        }
      ],
      "name": "transferOwnership",
      "outputs": [],
      "payable": false,
      "stateMutability": "nonpayable",
      "type": "function"
    },
    {
      "anonymous": false,
      "inputs": [
        {
          "indexed": true,
          "name": "previousOwner",
          "type": "address"
        },
        {
          "indexed": true,
          "name": "newOwner",
          "type": "address"
        }
      ],
      "name": "OwnershipTransferred",
      "type": "event"
    },
    {
      "constant": false,
      "inputs": [
        {
          "name": "_dappAddress",
          "type": "address"
        }
      ],
      "name": "addDapp",
      "outputs": [],
      "payable": false,
      "stateMutability": "nonpayable",
      "type": "function"
    },
    {
      "constant": false,
      "inputs": [
        {
          "name": "_index",
          "type": "uint256"
        }
      ],
      "name": "deleteDapp",
      "outputs": [],
      "payable": false,
      "stateMutability": "nonpayable",
      "type": "function"
    },
    {
      "constant": false,
      "inputs": [
        {
          "name": "_index",
          "type": "uint256"
        },
        {
          "name": "_newAddress",
          "type": "address"
        }
      ],
      "name": "setDapp",
      "outputs": [],
      "payable": false,
      "stateMutability": "nonpayable",
      "type": "function"
    },
    {
      "constant": true,
      "inputs": [],
      "name": "getDapps",
      "outputs": [
        {
          "name": "",
          "type": "address[]"
        }
      ],
      "payable": false,
      "stateMutability": "view",
      "type": "function"
    }
  ],
  "bytecode": "0x60806040819052600080546001600160a01b03191633178082556001600160a01b0316917f8be0079c531659141344cd1fd0a4f28419497f9722a3daafe3b4186f6b6457e0908290a36104f3806100576000396000f3fe608060405234801561001057600080fd5b50600436106100885760003560e01c80638f32d59b1161005b5780638f32d59b14610139578063c930158514610155578063e247dea814610181578063f2fde38b1461019e57610088565b806327b7ca5f1461008d5780632baaed18146100b5578063715018a61461010d5780638da5cb5b14610115575b600080fd5b6100b3600480360360208110156100a357600080fd5b50356001600160a01b03166101c4565b005b6100bd610226565b60408051602080825283518183015283519192839290830191858101910280838360005b838110156100f95781810151838201526020016100e1565b505050509050019250505060405180910390f35b6100b3610289565b61011d6102e4565b604080516001600160a01b039092168252519081900360200190f35b6101416102f3565b604080519115158252519081900360200190f35b6100b36004803603604081101561016b57600080fd5b50803590602001356001600160a01b0316610304565b6100b36004803603602081101561019757600080fd5b5035610355565b6100b3600480360360208110156101b457600080fd5b50356001600160a01b03166103f5565b6101cc6102f3565b6101d557600080fd5b6001805480820182556000919091527fb10e2d527612073b26eecdfd717e6a320cf44b4afac2b0732d9fcbe2b7fa0cf60180546001600160a01b0319166001600160a01b0392909216919091179055565b6060600180548060200260200160405190810160405280929190818152602001828054801561027e57602002820191906000526020600020905b81546001600160a01b03168152600190910190602001808311610260575b505050505090505b90565b6102916102f3565b61029a57600080fd5b600080546040516001600160a01b03909116907f8be0079c531659141344cd1fd0a4f28419497f9722a3daafe3b4186f6b6457e0908390a3600080546001600160a01b0319169055565b6000546001600160a01b031690565b6000546001600160a01b0316331490565b61030c6102f3565b61031557600080fd5b806001838154811061032357fe5b9060005260206000200160006101000a8154816001600160a01b0302191690836001600160a01b031602179055505050565b61035d6102f3565b61036657600080fd5b805b600154600019018110156103dd576001816001018154811061038657fe5b600091825260209091200154600180546001600160a01b0390921691839081106103ac57fe5b600091825260209091200180546001600160a01b0319166001600160a01b0392909216919091179055600101610368565b5060018054906103f1906000198301610480565b5050565b6103fd6102f3565b61040657600080fd5b61040f81610412565b50565b6001600160a01b03811661042557600080fd5b600080546040516001600160a01b03808516939216917f8be0079c531659141344cd1fd0a4f28419497f9722a3daafe3b4186f6b6457e091a3600080546001600160a01b0319166001600160a01b0392909216919091179055565b8154818355818111156104a4576000838152602090206104a49181019083016104a9565b505050565b61028691905b808211156104c357600081556001016104af565b509056fea165627a7a7230582075a121d3716184029f15e95e9515b7825c43a6ebfc5cb470dd0fadb5372116820029",
  "source": "pragma solidity ^0.5.2;\n\nimport \"../../node_modules/openzeppelin-solidity/contracts/ownership/Ownable.sol\";\n\ncontract Bloomen is Ownable{\n\n  address[] private _dapps;\n\n\n  function addDapp(address _dappAddress) onlyOwner public {\n    _dapps.push(_dappAddress);\n  }\n\n  function deleteDapp(uint _index) onlyOwner public {\n    for (uint i = _index; i < _dapps.length-1;i++){\n      _dapps[i] = _dapps[i+1];\n    }\n    _dapps.length--;\n  }\n\n  function setDapp(uint _index, address _newAddress) onlyOwner public {\n    _dapps[_index]=_newAddress;\n  }\n\n  function getDapps() view public returns(address[] memory) {\n    return _dapps;\n  }\n\n\n\n}",
  "sourcePath": "/home/jordi/ws/jordiescudero/bloomen-wallet/bloomen-wallet-truffle/contracts/bloomen/Bloomen.sol",
  "compiler": {
    "name": "solc",
    "version": "0.5.7+commit.6da8b019.Emscripten.clang"
  },
  "schemaVersion": "3.0.6",
  "updatedAt": "2019-04-16T09:48:37.238Z",
  "devdoc": {
    "methods": {
      "isOwner()": {
        "return": "true if `msg.sender` is the owner of the contract."
      },
      "owner()": {
        "return": "the address of the owner."
      },
      "renounceOwnership()": {
        "details": "Allows the current owner to relinquish control of the contract. It will not be possible to call the functions with the `onlyOwner` modifier anymore."
      },
      "transferOwnership(address)": {
        "details": "Allows the current owner to transfer control of the contract to a newOwner.",
        "params": {
          "newOwner": "The address to transfer ownership to."
        }
      }
    }
  },
  "userdoc": {
    "methods": {
      "renounceOwnership()": {
        "notice": "Renouncing ownership will leave the contract without an owner, thereby removing any functionality that is only available to the owner."
      }
    }
  }
}