{
  "contractName": "Devices",
  "abi": [
    {
      "constant": true,
      "inputs": [
        {
          "name": "_assetId",
          "type": "uint256"
        },
        {
          "name": "_schemaId",
          "type": "uint256"
        }
      ],
      "name": "checkOwnership",
      "outputs": [
        {
          "name": "",
          "type": "bool"
        }
      ],
      "payable": false,
      "stateMutability": "view",
      "type": "function"
    },
    {
      "constant": true,
      "inputs": [],
      "name": "name",
      "outputs": [
        {
          "name": "",
          "type": "string"
        }
      ],
      "payable": false,
      "stateMutability": "view",
      "type": "function"
    },
    {
      "constant": false,
      "inputs": [
        {
          "name": "_assetId",
          "type": "uint256"
        },
        {
          "name": "_schemaId",
          "type": "uint256"
        },
        {
          "name": "_amount",
          "type": "uint256"
        },
        {
          "name": "_dappId",
          "type": "string"
        },
        {
          "name": "_description",
          "type": "string"
        }
      ],
      "name": "buy",
      "outputs": [],
      "payable": false,
      "stateMutability": "nonpayable",
      "type": "function"
    },
    {
      "constant": false,
      "inputs": [
        {
          "name": "_to",
          "type": "address"
        },
        {
          "name": "_value",
          "type": "uint256"
        },
        {
          "name": "_data",
          "type": "uint256"
        }
      ],
      "name": "transfer",
      "outputs": [],
      "payable": false,
      "stateMutability": "nonpayable",
      "type": "function"
    },
    {
      "constant": false,
      "inputs": [
        {
          "name": "spender",
          "type": "address"
        },
        {
          "name": "value",
          "type": "uint256"
        }
      ],
      "name": "approve",
      "outputs": [
        {
          "name": "",
          "type": "bool"
        }
      ],
      "payable": false,
      "stateMutability": "nonpayable",
      "type": "function"
    },
    {
      "constant": true,
      "inputs": [],
      "name": "totalSupply",
      "outputs": [
        {
          "name": "",
          "type": "uint256"
        }
      ],
      "payable": false,
      "stateMutability": "view",
      "type": "function"
    },
    {
      "constant": true,
      "inputs": [
        {
          "name": "theNumber",
          "type": "uint256"
        },
        {
          "name": "percentage",
          "type": "uint256"
        }
      ],
      "name": "calculatePercentage",
      "outputs": [
        {
          "name": "",
          "type": "uint256"
        }
      ],
      "payable": false,
      "stateMutability": "view",
      "type": "function"
    },
    {
      "constant": false,
      "inputs": [
        {
          "name": "from",
          "type": "address"
        },
        {
          "name": "to",
          "type": "address"
        },
        {
          "name": "value",
          "type": "uint256"
        }
      ],
      "name": "transferFrom",
      "outputs": [
        {
          "name": "",
          "type": "bool"
        }
      ],
      "payable": false,
      "stateMutability": "nonpayable",
      "type": "function"
    },
    {
      "constant": true,
      "inputs": [
        {
          "name": "_schemaId",
          "type": "uint256"
        }
      ],
      "name": "getSchema",
      "outputs": [
        {
          "components": [
            {
              "name": "expirationDate",
              "type": "uint256"
            },
            {
              "name": "schemaId",
              "type": "uint256"
            },
            {
              "name": "amount",
              "type": "uint256"
            },
            {
              "name": "assetLifeTime",
              "type": "uint256"
            },
            {
              "components": [
                {
                  "name": "percent",
                  "type": "uint256"
                },
                {
                  "name": "receptor",
                  "type": "address"
                },
                {
                  "name": "description",
                  "type": "string"
                }
              ],
              "name": "clearingHouseRules",
              "type": "tuple[]"
            },
            {
              "name": "valid",
              "type": "bool"
            }
          ],
          "name": "",
          "type": "tuple"
        }
      ],
      "payable": false,
      "stateMutability": "view",
      "type": "function"
    },
    {
      "constant": true,
      "inputs": [],
      "name": "decimals",
      "outputs": [
        {
          "name": "",
          "type": "uint8"
        }
      ],
      "payable": false,
      "stateMutability": "view",
      "type": "function"
    },
    {
      "constant": false,
      "inputs": [
        {
          "name": "spender",
          "type": "address"
        },
        {
          "name": "addedValue",
          "type": "uint256"
        }
      ],
      "name": "increaseAllowance",
      "outputs": [
        {
          "name": "",
          "type": "bool"
        }
      ],
      "payable": false,
      "stateMutability": "nonpayable",
      "type": "function"
    },
    {
      "constant": false,
      "inputs": [
        {
          "name": "_schemaId",
          "type": "uint256"
        }
      ],
      "name": "validateSchema",
      "outputs": [],
      "payable": false,
      "stateMutability": "nonpayable",
      "type": "function"
    },
    {
      "constant": false,
      "inputs": [
        {
          "name": "to",
          "type": "address"
        },
        {
          "name": "value",
          "type": "uint256"
        }
      ],
      "name": "mint",
      "outputs": [
        {
          "name": "",
          "type": "bool"
        }
      ],
      "payable": false,
      "stateMutability": "nonpayable",
      "type": "function"
    },
    {
      "constant": false,
      "inputs": [
        {
          "name": "value",
          "type": "uint256"
        }
      ],
      "name": "burn",
      "outputs": [],
      "payable": false,
      "stateMutability": "nonpayable",
      "type": "function"
    },
    {
      "constant": true,
      "inputs": [],
      "name": "getAssetsPageCount",
      "outputs": [
        {
          "name": "",
          "type": "uint256"
        }
      ],
      "payable": false,
      "stateMutability": "view",
      "type": "function"
    },
    {
      "constant": false,
      "inputs": [
        {
          "name": "_from",
          "type": "address"
        },
        {
          "name": "_value",
          "type": "uint256"
        },
        {
          "name": "_schemaId",
          "type": "uint256"
        }
      ],
      "name": "tokenFallback",
      "outputs": [],
      "payable": false,
      "stateMutability": "nonpayable",
      "type": "function"
    },
    {
      "constant": false,
      "inputs": [
        {
          "name": "_schemaId",
          "type": "uint256"
        }
      ],
      "name": "invalidateSchema",
      "outputs": [],
      "payable": false,
      "stateMutability": "nonpayable",
      "type": "function"
    },
    {
      "constant": true,
      "inputs": [
        {
          "name": "_target",
          "type": "address"
        },
        {
          "name": "_assetId",
          "type": "uint256"
        },
        {
          "name": "_schemaId",
          "type": "uint256"
        }
      ],
      "name": "checkOwnershipForAddress",
      "outputs": [
        {
          "name": "",
          "type": "bool"
        }
      ],
      "payable": false,
      "stateMutability": "view",
      "type": "function"
    },
    {
      "constant": true,
      "inputs": [
        {
          "name": "owner",
          "type": "address"
        }
      ],
      "name": "balanceOf",
      "outputs": [
        {
          "name": "",
          "type": "uint256"
        }
      ],
      "payable": false,
      "stateMutability": "view",
      "type": "function"
    },
    {
      "constant": false,
      "inputs": [],
      "name": "renounceOwnership",
      "outputs": [],
      "payable": false,
      "stateMutability": "nonpayable",
      "type": "function"
    },
    {
      "constant": false,
      "inputs": [
        {
          "name": "from",
          "type": "address"
        },
        {
          "name": "value",
          "type": "uint256"
        }
      ],
      "name": "burnFrom",
      "outputs": [],
      "payable": false,
      "stateMutability": "nonpayable",
      "type": "function"
    },
    {
      "constant": false,
      "inputs": [
        {
          "name": "_assetId",
          "type": "uint256"
        },
        {
          "name": "_schemaId",
          "type": "uint256"
        },
        {
          "name": "_amount",
          "type": "uint256"
        },
        {
          "name": "_dappId",
          "type": "string"
        }
      ],
      "name": "buy",
      "outputs": [],
      "payable": false,
      "stateMutability": "nonpayable",
      "type": "function"
    },
    {
      "constant": true,
      "inputs": [],
      "name": "owner",
      "outputs": [
        {
          "name": "",
          "type": "address"
        }
      ],
      "payable": false,
      "stateMutability": "view",
      "type": "function"
    },
    {
      "constant": true,
      "inputs": [],
      "name": "isOwner",
      "outputs": [
        {
          "name": "",
          "type": "bool"
        }
      ],
      "payable": false,
      "stateMutability": "view",
      "type": "function"
    },
    {
      "constant": true,
      "inputs": [],
      "name": "getSchemas",
      "outputs": [
        {
          "name": "",
          "type": "uint256[]"
        }
      ],
      "payable": false,
      "stateMutability": "view",
      "type": "function"
    },
    {
      "constant": true,
      "inputs": [],
      "name": "symbol",
      "outputs": [
        {
          "name": "",
          "type": "string"
        }
      ],
      "payable": false,
      "stateMutability": "view",
      "type": "function"
    },
    {
      "constant": false,
      "inputs": [
        {
          "name": "account",
          "type": "address"
        }
      ],
      "name": "addMinter",
      "outputs": [],
      "payable": false,
      "stateMutability": "nonpayable",
      "type": "function"
    },
    {
      "constant": false,
      "inputs": [],
      "name": "renounceMinter",
      "outputs": [],
      "payable": false,
      "stateMutability": "nonpayable",
      "type": "function"
    },
    {
      "constant": false,
      "inputs": [
        {
          "name": "_schemaId",
          "type": "uint256"
        },
        {
          "name": "_data",
          "type": "bytes"
        }
      ],
      "name": "createSchema",
      "outputs": [],
      "payable": false,
      "stateMutability": "nonpayable",
      "type": "function"
    },
    {
      "constant": false,
      "inputs": [
        {
          "name": "spender",
          "type": "address"
        },
        {
          "name": "subtractedValue",
          "type": "uint256"
        }
      ],
      "name": "decreaseAllowance",
      "outputs": [
        {
          "name": "",
          "type": "bool"
        }
      ],
      "payable": false,
      "stateMutability": "nonpayable",
      "type": "function"
    },
    {
      "constant": false,
      "inputs": [
        {
          "name": "_to",
          "type": "address"
        },
        {
          "name": "_value",
          "type": "uint256"
        }
      ],
      "name": "transfer",
      "outputs": [
        {
          "name": "",
          "type": "bool"
        }
      ],
      "payable": false,
      "stateMutability": "nonpayable",
      "type": "function"
    },
    {
      "constant": true,
      "inputs": [
        {
          "name": "account",
          "type": "address"
        }
      ],
      "name": "isMinter",
      "outputs": [
        {
          "name": "",
          "type": "bool"
        }
      ],
      "payable": false,
      "stateMutability": "view",
      "type": "function"
    },
    {
      "constant": true,
      "inputs": [
        {
          "name": "_page",
          "type": "uint256"
        }
      ],
      "name": "getAssets",
      "outputs": [
        {
          "components": [
            {
              "name": "expirationDate",
              "type": "uint256"
            },
            {
              "name": "assetId",
              "type": "uint256"
            },
            {
              "name": "schemaId",
              "type": "uint256"
            },
            {
              "name": "dappId",
              "type": "string"
            },
            {
              "name": "description",
              "type": "string"
            }
          ],
          "name": "",
          "type": "tuple[]"
        }
      ],
      "payable": false,
      "stateMutability": "view",
      "type": "function"
    },
    {
      "constant": true,
      "inputs": [
        {
          "name": "owner",
          "type": "address"
        },
        {
          "name": "spender",
          "type": "address"
        }
      ],
      "name": "allowance",
      "outputs": [
        {
          "name": "",
          "type": "uint256"
        }
      ],
      "payable": false,
      "stateMutability": "view",
      "type": "function"
    },
    {
      "constant": false,
      "inputs": [
        {
          "name": "newOwner",
          "type": "address"
        }
      ],
      "name": "transferOwnership",
      "outputs": [],
      "payable": false,
      "stateMutability": "nonpayable",
      "type": "function"
    },
    {
      "anonymous": false,
      "inputs": [
        {
          "indexed": true,
          "name": "account",
          "type": "address"
        }
      ],
      "name": "MinterAdded",
      "type": "event"
    },
    {
      "anonymous": false,
      "inputs": [
        {
          "indexed": true,
          "name": "account",
          "type": "address"
        }
      ],
      "name": "MinterRemoved",
      "type": "event"
    },
    {
      "anonymous": false,
      "inputs": [
        {
          "indexed": true,
          "name": "from",
          "type": "address"
        },
        {
          "indexed": true,
          "name": "to",
          "type": "address"
        },
        {
          "indexed": false,
          "name": "value",
          "type": "uint256"
        }
      ],
      "name": "Transfer",
      "type": "event"
    },
    {
      "anonymous": false,
      "inputs": [
        {
          "indexed": true,
          "name": "owner",
          "type": "address"
        },
        {
          "indexed": true,
          "name": "spender",
          "type": "address"
        },
        {
          "indexed": false,
          "name": "value",
          "type": "uint256"
        }
      ],
      "name": "Approval",
      "type": "event"
    },
    {
      "anonymous": false,
      "inputs": [
        {
          "indexed": true,
          "name": "previousOwner",
          "type": "address"
        },
        {
          "indexed": true,
          "name": "newOwner",
          "type": "address"
        }
      ],
      "name": "OwnershipTransferred",
      "type": "event"
    },
    {
      "constant": true,
      "inputs": [
        {
          "name": "_deviceHash",
          "type": "bytes32"
        }
      ],
      "name": "isAllowed",
      "outputs": [
        {
          "name": "",
          "type": "bool"
        }
      ],
      "payable": false,
      "stateMutability": "view",
      "type": "function"
    },
    {
      "constant": true,
      "inputs": [
        {
          "name": "_target",
          "type": "address"
        },
        {
          "name": "_deviceHash",
          "type": "bytes32"
        }
      ],
      "name": "isAllowedForAddress",
      "outputs": [
        {
          "name": "",
          "type": "bool"
        }
      ],
      "payable": false,
      "stateMutability": "view",
      "type": "function"
    },
    {
      "constant": true,
      "inputs": [],
      "name": "getDevicesPageCount",
      "outputs": [
        {
          "name": "",
          "type": "uint256"
        }
      ],
      "payable": false,
      "stateMutability": "view",
      "type": "function"
    },
    {
      "constant": true,
      "inputs": [
        {
          "name": "_page",
          "type": "uint256"
        }
      ],
      "name": "getDevices",
      "outputs": [
        {
          "components": [
            {
              "name": "expirationDate",
              "type": "uint256"
            },
            {
              "name": "assetId",
              "type": "uint256"
            },
            {
              "name": "schemaId",
              "type": "uint256"
            },
            {
              "name": "dappId",
              "type": "string"
            },
            {
              "name": "description",
              "type": "string"
            }
          ],
          "name": "",
          "type": "tuple[]"
        }
      ],
      "payable": false,
      "stateMutability": "view",
      "type": "function"
    },
    {
      "constant": true,
      "inputs": [
        {
          "name": "_deviceHash",
          "type": "bytes32"
        }
      ],
      "name": "getAddress",
      "outputs": [
        {
          "name": "",
          "type": "address"
        }
      ],
      "payable": false,
      "stateMutability": "view",
      "type": "function"
    },
    {
      "constant": false,
      "inputs": [
        {
          "name": "_deviceHash",
          "type": "bytes32"
        },
        {
          "name": "_assetId",
          "type": "uint256"
        },
        {
          "name": "_schemaId",
          "type": "uint256"
        },
        {
          "name": "_lifeTime",
          "type": "uint256"
        },
        {
          "name": "_dappId",
          "type": "string"
        }
      ],
      "name": "handshake",
      "outputs": [],
      "payable": false,
      "stateMutability": "nonpayable",
      "type": "function"
    },
    {
      "constant": false,
      "inputs": [
        {
          "name": "_deviceHash",
          "type": "bytes32"
        },
        {
          "name": "_assetId",
          "type": "uint256"
        },
        {
          "name": "_schemaId",
          "type": "uint256"
        },
        {
          "name": "_lifeTime",
          "type": "uint256"
        },
        {
          "name": "_dappId",
          "type": "string"
        },
        {
          "name": "_description",
          "type": "string"
        }
      ],
      "name": "handshake",
      "outputs": [],
      "payable": false,
      "stateMutability": "nonpayable",
      "type": "function"
    },
    {
      "constant": false,
      "inputs": [
        {
          "name": "_deviceHash",
          "type": "bytes32"
        }
      ],
      "name": "removeDevice",
      "outputs": [],
      "payable": false,
      "stateMutability": "nonpayable",
      "type": "function"
    }
  ],
  "bytecode": "0x600b60809081527f426c6f6f6d656e436f696e00000000000000000000000000000000000000000060a0526101006040819052600360c09081527f424c4f000000000000000000000000000000000000000000000000000000000060e052600080546001600160a01b031916331780825591926002928592859285926001600160a01b031691907f8be0079c531659141344cd1fd0a4f28419497f9722a3daafe3b4186f6b6457e0908290a38251620000c0906006906020860190620001e7565b508151620000d6906007906020850190620001e7565b506008805460ff191660ff92909216919091179055506200010090503362000109602090811b901c565b5050506200028c565b620001248160096200015b60201b620021361790919060201c565b6040516001600160a01b038216907f6ae172837ea30b801fbfcdd4108aa1d5bf8ff775444fd70256b44e6bf3dfc3f690600090a250565b6001600160a01b0381166200016f57600080fd5b620001818282620001b160201b60201c565b156200018c57600080fd5b6001600160a01b0316600090815260209190915260409020805460ff19166001179055565b60006001600160a01b038216620001c757600080fd5b506001600160a01b03166000908152602091909152604090205460ff1690565b828054600181600116156101000203166002900490600052602060002090601f016020900481019282601f106200022a57805160ff19168380011785556200025a565b828001600101855582156200025a579182015b828111156200025a5782518255916020019190600101906200023d565b50620002689291506200026c565b5090565b6200028991905b8082111562000268576000815560010162000273565b90565b61337d806200029c6000396000f3fe608060405234801561001057600080fd5b50600436106102695760003560e01c80635a16f5c41161015157806395d89b41116100c3578063a9059cbb11610087578063a9059cbb14610532578063aa271e1a14610545578063c8c2eb6614610558578063d921216414610560578063dd62ed3e14610580578063f2fde38b1461059357610269565b806395d89b41146104e9578063983b2d56146104f15780639865027514610504578063a2086dab1461050c578063a457c2d71461051f57610269565b80637875529511610115578063787552951461048b57806379cc67901461049e5780637de3b0ed146104b15780638da5cb5b146104c45780638f32d59b146104cc57806395ba8d18146104d457610269565b80635a16f5c41461042a5780636d9db7ed1461043d578063700651aa1461045d57806370a0823114610470578063715018a61461048357610269565b806321f8a721116101ea5780634014d468116101ae5780634014d468146103c357806340c10f19146103d657806342966c68146103e957806342b4bed4146103fc5780634aa3bfeb1461040f5780634f4ee3531461041757610269565b806321f8a7211461034857806323b872dd146103685780632b26fb291461037b578063313ce5671461039b57806339509351146103b057610269565b8063132c6aa411610231578063132c6aa4146102e757806318160ddd146102fa5780631d2662001461030f5780631d841899146103225780632133e3b91461033557610269565b806304edae0f1461026e57806306fdde0314610297578063080e6887146102ac578063095bcdb6146102c1578063095ea7b3146102d4575b600080fd5b61028161027c366004612a8f565b6105a6565b60405161028e9190613151565b60405180910390f35b61029f6105bc565b60405161028e919061315f565b6102bf6102ba366004612b27565b610653565b005b6102bf6102cf3660046128b3565b610668565b6102816102e2366004612883565b610684565b6102bf6102f5366004612903565b61069a565b6103026106b8565b60405161028e9190613241565b6102bf61031d3660046128e5565b6106be565b610281610330366004612883565b6106cb565b610302610343366004612a8f565b610702565b61035b6103563660046128e5565b61070a565b60405161028e91906130e8565b610281610376366004612836565b610743565b61038e6103893660046128e5565b61079b565b60405161028e9190613230565b6103a361093a565b60405161028e919061324f565b6102816103be366004612883565b610943565b6102bf6103d13660046128e5565b61097f565b6102816103e4366004612883565b61099b565b6102bf6103f73660046128e5565b6109b9565b6102bf61040a366004612990565b6109c3565b6103026109da565b6102bf6104253660046128b3565b6109f4565b6102bf6104383660046128e5565b610a92565b61045061044b3660046128e5565b610aae565b60405161028e919061312f565b61028161046b3660046128b3565b610d50565b61030261047e3660046127de565b610d5d565b6102bf610d78565b6102816104993660046128e5565b610dd3565b6102bf6104ac366004612883565b610e04565b6102bf6104bf366004612aae565b610e12565b61035b610e35565b610281610e44565b6104dc610e55565b60405161028e9190613140565b61029f610eac565b6102bf6104ff3660046127de565b610f0d565b6102bf610f28565b6102bf61051a366004612a47565b610f33565b61028161052d366004612883565b610f4e565b610281610540366004612883565b610f8a565b6102816105533660046127de565b610fa4565b610302610fb7565b61057361056e3660046128e5565b610fd2565b60405161028e919061311e565b61030261058e3660046127fc565b611248565b6102bf6105a13660046127de565b611273565b60006105b333848461128d565b90505b92915050565b60068054604080516020601f60026000196101006001881615020190951694909404938401819004810282018101909252828152606093909290918301828280156106485780601f1061061d57610100808354040283529160200191610648565b820191906000526020600020905b81548152906001019060200180831161062b57829003601f168201915b505050505090505b90565b610661338686868686611492565b5050505050565b6106733384846115ba565b61067f338484846115c5565b505050565b600061069133848461167b565b50600192915050565b61066133868686868660405180602001604052806000815250611709565b60055490565b6106c833826118a3565b50565b6000818152600e602052604081205481906001600160a01b0385811691161480156106fa57506106fa83610dd3565b949350505050565b606491020490565b60008061071683610dd3565b90506000811561073a57506000838152600e60205260409020546001600160a01b03165b9150505b919050565b60006107508484846115ba565b6001600160a01b03841660009081526004602090815260408083203380855292529091205461079091869161078b908663ffffffff611a9a16565b61167b565b5060015b9392505050565b6107a36125f1565b600082815260016020819052604090912001546107de57604051600160e51b62461bcd0281526004016107d590613180565b60405180910390fd5b6000828152600160208181526040808420815160c081018352815481529381015484840152600281015484830152600381015460608501526004810180548351818602810186019094528084529495919460808701949192909184015b8282101561091b5760008481526020908190206040805160608101825260038602909201805483526001808201546001600160a01b0316848601526002808301805485516101009482161594909402600019011691909104601f81018790048702830187018552808352949592949386019391929091908301828280156109035780601f106108d857610100808354040283529160200191610903565b820191906000526020600020905b8154815290600101906020018083116108e657829003601f168201915b5050505050815250508152602001906001019061083b565b505050908252506005919091015460ff16151560209091015292915050565b60085460ff1690565b3360008181526004602090815260408083206001600160a01b0387168452909152812054909161069191859061078b908663ffffffff611aaf16565b610987610e44565b61099057600080fd5b6106c8816001611ac1565b60006109a633610fa4565b6109af57600080fd5b6106918383611b51565b6106c83382611bec565b6109d233878787878787611709565b505050505050565b336000908152600c6020526040812054600a905b04905090565b6109fc6125f1565b610a058261079b565b90508260005b600183608001515103811015610a77576000610a428685608001518481518110610a3157fe5b602002602001015160000151610702565b9050610a6b84608001518381518110610a5757fe5b602002602001015160200151826000610668565b90910390600101610a0b565b506080820151805161066191906000198101908110610a5757fe5b610a9a610e44565b610aa357600080fd5b6106c8816000611ac1565b60408051600a8082526101608201909252606091829190816020015b610ad2612629565b815260200190600190039081610aca575050336000908152600d60209081526040918290206001018054835181840281018401909452808452939450600a8702600919019360609392830182828015610b4a57602002820191906000526020600020905b815481526020019060010190808311610b36575b50505050509050805160001480610b645750600181510382115b15610b7657506060925061073e915050565b60005b85600a02831015610d46578151831015610d3a57336000908152600d602052604081208351909190849086908110610bad57fe5b602002602001015181526020019081526020016000206040518060a0016040529081600082015481526020016001820154815260200160028201548152602001600382018054600181600116156101000203166002900480601f016020809104026020016040519081016040528092919081815260200182805460018160011615610100020316600290048015610c855780601f10610c5a57610100808354040283529160200191610c85565b820191906000526020600020905b815481529060010190602001808311610c6857829003601f168201915b505050918352505060048201805460408051602060026001851615610100026000190190941693909304601f8101849004840282018401909252818152938201939291830182828015610d195780601f10610cee57610100808354040283529160200191610d19565b820191906000526020600020905b815481529060010190602001808311610cfc57829003601f168201915b505050505081525050848281518110610d2e57fe5b60200260200101819052505b60019283019201610b79565b5091949350505050565b60006106fa84848461128d565b6001600160a01b031660009081526003602052604090205490565b610d80610e44565b610d8957600080fd5b600080546040516001600160a01b03909116907f8be0079c531659141344cd1fd0a4f28419497f9722a3daafe3b4186f6b6457e0908390a3600080546001600160a01b0319169055565b6000818152600e60209081526040808320546001600160a01b03168352600d82528083209383529290522054421090565b610e0e8282611c78565b5050565b610e2f338585858560405180602001604052806000815250611492565b50505050565b6000546001600160a01b031690565b6000546001600160a01b0316331490565b6060600280548060200260200160405190810160405280929190818152602001828054801561064857602002820191906000526020600020905b815481526020019060010190808311610e8f575050505050905090565b60078054604080516020601f60026000196101006001881615020190951694909404938401819004810282018101909252828152606093909290918301828280156106485780601f1061061d57610100808354040283529160200191610648565b610f1633610fa4565b610f1f57600080fd5b6106c881611cbd565b610f3133611d05565b565b610f3b610e44565b610f4457600080fd5b610e0e8282611d4d565b3360008181526004602090815260408083206001600160a01b0387168452909152812054909161069191859061078b908663ffffffff611a9a16565b6000610f973384846115ba565b61069133848460006115c5565b60006105b660098363ffffffff611fdc16565b336000908152600d6020526040812060010154600a906109ee565b336000908152600c602090815260408083208054825181850281018501909352808352606094600919600a8802019486949392919084015b8282101561119057838290600052602060002090600502016040518060a0016040529081600082015481526020016001820154815260200160028201548152602001600382018054600181600116156101000203166002900480601f0160208091040260200160405190810160405280929190818152602001828054600181600116156101000203166002900480156110e45780601f106110b9576101008083540402835291602001916110e4565b820191906000526020600020905b8154815290600101906020018083116110c757829003601f168201915b505050918352505060048201805460408051602060026001851615610100026000190190941693909304601f81018490048402820184019092528181529382019392918301828280156111785780601f1061114d57610100808354040283529160200191611178565b820191906000526020600020905b81548152906001019060200180831161115b57829003601f168201915b5050505050815250508152602001906001019061100a565b5050505090508051600014806111a95750600181510382115b156111ba57506060915061073e9050565b60408051600a8082526101608201909252606091816020015b6111db612629565b8152602001906001900390816111d357905050905060005b85600a0284101561123f5782518410156112335782848151811061121357fe5b602002602001015182828151811061122757fe5b60200260200101819052505b600193840193016111f3565b50949350505050565b6001600160a01b03918216600090815260046020908152604080832093909416825291909152205490565b61127b610e44565b61128457600080fd5b6106c881612011565b6000805b6001600160a01b0385166000908152600c6020526040902054811015611487576112b9612629565b6001600160a01b0386166000908152600c602052604090208054839081106112dd57fe5b90600052602060002090600502016040518060a0016040529081600082015481526020016001820154815260200160028201548152602001600382018054600181600116156101000203166002900480601f0160208091040260200160405190810160405280929190818152602001828054600181600116156101000203166002900480156113ad5780601f10611382576101008083540402835291602001916113ad565b820191906000526020600020905b81548152906001019060200180831161139057829003601f168201915b505050918352505060048201805460408051602060026001851615610100026000190190941693909304601f81018490048402820184019092528181529382019392918301828280156114415780601f1061141657610100808354040283529160200191611441565b820191906000526020600020905b81548152906001019060200180831161142457829003601f168201915b50505050508152505090508481602001511480156114625750838160400151145b801561146e5750805142105b1561147e57600192505050610794565b50600101611291565b506000949350505050565b61149a6125f1565b6114a38561079b565b9050838160400151146114cb57604051600160e51b62461bcd0281526004016107d5906131e0565b6114d687878761128d565b156114f657604051600160e51b62461bcd0281526004016107d590613200565b831561150757611507308587610668565b6001600160a01b0387166000908152600c60209081526040808320815160a081018352606080870151420182528185018c81529382018b815290820189815260808301899052835460018181018087559589529787902084516005909202019081559451968501969096555160028401559351805191949361159192600385019290910190612658565b50608082015180516115ad916004840191602090910190612658565b5050505050505050505050565b61067f83838361207f565b6115ce83612130565b1561163c57604051600160e01b634f4ee35302815283906001600160a01b03821690634f4ee35390611608908890879087906004016130f6565b600060405180830381600087803b15801561162257600080fd5b505af1158015611636573d6000803e3d6000fd5b50505050505b826001600160a01b0316846001600160a01b03166000805160206133248339815191528460405161166d9190613241565b60405180910390a350505050565b6001600160a01b03821661168e57600080fd5b6001600160a01b0383166116a157600080fd5b6001600160a01b0380841660008181526004602090815260408083209487168084529490915290819020849055517f8c5be1e5ebec7d5bd14f71427d1e84f3dd0314c0f7b2291e5b200ac8c7c3b925906116fc908590613241565b60405180910390a3505050565b61171487868661128d565b61173357604051600160e51b62461bcd0281526004016107d590613190565b6000868152600e60205260409020546001600160a01b03161580159061175f575061175d86610dd3565b155b15611786576000868152600e6020526040902054611786906001600160a01b0316876118a3565b6000868152600e60205260409020546001600160a01b0316156117be57604051600160e51b62461bcd0281526004016107d590613220565b6000868152600e6020908152604080832080546001600160a01b0319166001600160a01b038c16908117909155815160a0810183528781528084018a81528184018a81526060830189815260808401899052938752600d86528487208d885286529390952081518155945160018601559151600285015551805191939261184d92600385019290910190612658565b5060808201518051611869916004840191602090910190612658565b5050506001600160a01b039096166000908152600d6020908152604082206001908101805491820181558352912001949094555050505050565b6000818152600e60205260409020546001600160a01b038381169116146118df57604051600160e51b62461bcd0281526004016107d5906131c0565b6000818152600e6020908152604080832080546001600160a01b03191690556001600160a01b0385168352600d8252808320848452909152812081815560018101829055600281018290559061193860038301826126d6565b6119466004830160006126d6565b5060009050805b6001600160a01b0384166000908152600d602052604090206001015460001901811015611a365781156119f5576001600160a01b0384166000908152600d6020526040902060019081018054909183019081106119a657fe5b9060005260206000200154600d6000866001600160a01b03166001600160a01b0316815260200190815260200160002060010182815481106119e457fe5b600091825260209091200155611a2e565b6001600160a01b0384166000908152600d60205260409020600101805484919083908110611a1f57fe5b90600052602060002001541491505b60010161194d565b506001600160a01b0383166000908152600d6020526040902060010180546000198101908110611a6257fe5b600091825260208083209091018290556001600160a01b0385168252600d905260409020600101805490610e2f90600019830161271a565b600082821115611aa957600080fd5b50900390565b6000828201838110156105b357600080fd5b60008281526001602081905260409091200154611af357604051600160e51b62461bcd0281526004016107d5906131a0565b60008281526001602052604090206005015460ff1615158115151415611b2e57604051600160e51b62461bcd0281526004016107d5906131f0565b600091825260016020526040909120600501805460ff1916911515919091179055565b6001600160a01b038216611b6457600080fd5b600554611b77908263ffffffff611aaf16565b6005556001600160a01b038216600090815260036020526040902054611ba3908263ffffffff611aaf16565b6001600160a01b03831660008181526003602052604080822093909355915190919060008051602061332483398151915290611be0908590613241565b60405180910390a35050565b6001600160a01b038216611bff57600080fd5b600554611c12908263ffffffff611a9a16565b6005556001600160a01b038216600090815260036020526040902054611c3e908263ffffffff611a9a16565b6001600160a01b03831660008181526003602052604080822093909355915160008051602061332483398151915290611be0908590613241565b611c828282611bec565b6001600160a01b038216600090815260046020908152604080832033808552925290912054610e0e91849161078b908563ffffffff611a9a16565b611cce60098263ffffffff61213616565b6040516001600160a01b038216907f6ae172837ea30b801fbfcdd4108aa1d5bf8ff775444fd70256b44e6bf3dfc3f690600090a250565b611d1660098263ffffffff61218216565b6040516001600160a01b038216907fe94479a9f7e1952cc78f2d6baab678adc1b772d936c6583def489e524cb6669290600090a250565b6000828152600160208190526040909120015415611d8057604051600160e51b62461bcd0281526004016107d5906131d0565b611d8861273e565b611d91826121ca565b90506060611d9e826121ef565b90506000611dbf82600081518110611db257fe5b60200260200101516122bc565b9050428111611de357604051600160e51b62461bcd0281526004016107d5906131b0565b6000611df583600181518110611db257fe5b90506000611e0984600281518110611db257fe5b90506000611e1d85600381518110611db257fe5b90506060611e3e86600481518110611e3157fe5b60200260200101516121ef565b805190915060005b81811015611f52576060611e5f848381518110611e3157fe5b9050600160008881526020019081526020016000206004016040518060600160405280611e9284600081518110611db257fe5b8152602001611eb484600181518110611ea757fe5b602002602001015161231a565b6001600160a01b03168152602001611edf84600281518110611ed257fe5b6020026020010151612334565b905281546001808201808555600094855260209485902084516003909402019283558385015191830180546001600160a01b0319166001600160a01b0390931692909217909155604083015180519194611f4192600285019290910190612658565b505060019093019250611e46915050565b506000858152600160205260409020611f6d906004016123a4565b50506000838152600160208190526040822095865585810185905560028087019490945560038601929092556005909401805460ff1916821790558154908101825592527f405787fa12a823e0f2b7631cc41b3ba8828b3321ca811111fa75cd3aa3bb5ace9091015550505050565b60006001600160a01b038216611ff157600080fd5b506001600160a01b03166000908152602091909152604090205460ff1690565b6001600160a01b03811661202457600080fd5b600080546040516001600160a01b03808516939216917f8be0079c531659141344cd1fd0a4f28419497f9722a3daafe3b4186f6b6457e091a3600080546001600160a01b0319166001600160a01b0392909216919091179055565b6001600160a01b03821661209257600080fd5b6001600160a01b0383166000908152600360205260409020546120bb908263ffffffff611a9a16565b6001600160a01b0380851660009081526003602052604080822093909355908416815220546120f0908263ffffffff611aaf16565b6001600160a01b038084166000818152600360205260409081902093909355915190851690600080516020613324833981519152906116fc908590613241565b3b151590565b6001600160a01b03811661214957600080fd5b6121538282611fdc565b1561215d57600080fd5b6001600160a01b0316600090815260209190915260409020805460ff19166001179055565b6001600160a01b03811661219557600080fd5b61219f8282611fdc565b6121a857600080fd5b6001600160a01b0316600090815260209190915260409020805460ff19169055565b6121d261273e565b506040805180820190915281518152602082810190820152919050565b60606121fa82612421565b61220357600080fd5b600061220e83612451565b90508060405190808252806020026020018201604052801561224a57816020015b61223761273e565b81526020019060019003908161222f5790505b509150600061225c84602001516124ad565b60208501510190506000805b838110156122b35761227983612516565b915060405180604001604052808381526020018481525085828151811061229c57fe5b602090810291909101015291810191600101612268565b50505050919050565b8051600090158015906122d157508151602110155b6122da57600080fd5b60006122e983602001516124ad565b8351602080860151830180519394509184900392919083101561123f57506020919091036101000a90049392505050565b805160009060151461232b57600080fd5b6105b6826122bc565b805160609061234257600080fd5b600061235183602001516124ad565b83516040805191839003808352601f19601f8201168301602001909152919250606090828015612388576020820181803883390190505b509050600081602001905061123f8487602001510182856125a6565b80546123c557604051600160e51b62461bcd0281526004016107d590613170565b80546000805b828110156123fd578381815481106123df57fe5b600091825260209091206003909102015491909101906001016123cb565b508060641461067f57604051600160e51b62461bcd0281526004016107d590613210565b80516000906124325750600061073e565b6020820151805160001a9060c08210156107905760009250505061073e565b80516000906124625750600061073e565b6000809050600061247684602001516124ad565b602085015185519181019250015b808210156124a45761249582612516565b60019093019290910190612484565b50909392505050565b8051600090811a60808110156124c757600091505061073e565b60b88110806124e2575060c081108015906124e2575060f881105b156124f157600191505061073e565b60c08110156125055760b51901905061073e565b60f51901905061073e565b50919050565b8051600090811a608081101561253057600191505061073e565b60b881101561254457607e1901905061073e565b60c08110156125715760b78103600184019350806020036101000a84510460018201810193505050612510565b60f88110156125855760be1901905061073e565b60019290920151602083900360f7016101000a900490910160f51901919050565b806125b05761067f565b5b602081106125d0578251825260209283019290910190601f19016125b1565b915181516020939093036101000a6000190180199091169216919091179052565b6040518060c0016040528060008152602001600081526020016000815260200160008152602001606081526020016000151581525090565b6040518060a0016040528060008152602001600081526020016000815260200160608152602001606081525090565b828054600181600116156101000203166002900490600052602060002090601f016020900481019282601f1061269957805160ff19168380011785556126c6565b828001600101855582156126c6579182015b828111156126c65782518255916020019190600101906126ab565b506126d2929150612758565b5090565b50805460018160011615610100020316600290046000825580601f106126fc57506106c8565b601f0160209004906000526020600020908101906106c89190612758565b81548183558181111561067f5760008381526020902061067f918101908301612758565b604051806040016040528060008152602001600081525090565b61065091905b808211156126d2576000815560010161275e565b60006105b382356132bf565b60006105b38235610650565b600082601f83011261279b57600080fd5b81356127ae6127a982613284565b61325d565b915080825260208301602083018583830111156127ca57600080fd5b6127d58382846132e1565b50505092915050565b6000602082840312156127f057600080fd5b60006106fa8484612772565b6000806040838503121561280f57600080fd5b600061281b8585612772565b925050602061282c85828601612772565b9150509250929050565b60008060006060848603121561284b57600080fd5b60006128578686612772565b935050602061286886828701612772565b92505060406128798682870161277e565b9150509250925092565b6000806040838503121561289657600080fd5b60006128a28585612772565b925050602061282c8582860161277e565b6000806000606084860312156128c857600080fd5b60006128d48686612772565b93505060206128688682870161277e565b6000602082840312156128f757600080fd5b60006106fa848461277e565b600080600080600060a0868803121561291b57600080fd5b6000612927888861277e565b95505060206129388882890161277e565b94505060406129498882890161277e565b935050606061295a8882890161277e565b925050608086013567ffffffffffffffff81111561297757600080fd5b6129838882890161278a565b9150509295509295909350565b60008060008060008060c087890312156129a957600080fd5b60006129b5898961277e565b96505060206129c689828a0161277e565b95505060406129d789828a0161277e565b94505060606129e889828a0161277e565b935050608087013567ffffffffffffffff811115612a0557600080fd5b612a1189828a0161278a565b92505060a087013567ffffffffffffffff811115612a2e57600080fd5b612a3a89828a0161278a565b9150509295509295509295565b60008060408385031215612a5a57600080fd5b6000612a66858561277e565b925050602083013567ffffffffffffffff811115612a8357600080fd5b61282c8582860161278a565b60008060408385031215612aa257600080fd5b60006128a2858561277e565b60008060008060808587031215612ac457600080fd5b6000612ad0878761277e565b9450506020612ae18782880161277e565b9350506040612af28782880161277e565b925050606085013567ffffffffffffffff811115612b0f57600080fd5b612b1b8782880161278a565b91505092959194509250565b600080600080600060a08688031215612b3f57600080fd5b6000612b4b888861277e565b9550506020612b5c8882890161277e565b9450506040612b6d8882890161277e565b935050606086013567ffffffffffffffff811115612b8a57600080fd5b61295a8882890161278a565b60006105b38383612fa0565b60006105b38383613015565b6000612bba83836130d6565b505060200190565b612bcb816132bf565b82525050565b6000612bdc826132b2565b612be681856132b6565b935083602082028501612bf8856132ac565b60005b84811015612c2f578383038852612c13838351612b96565b9250612c1e826132ac565b602098909801979150600101612bfb565b50909695505050505050565b6000612c46826132b2565b612c5081856132b6565b935083602082028501612c62856132ac565b60005b84811015612c2f578383038852612c7d838351612ba2565b9250612c88826132ac565b602098909801979150600101612c65565b6000612ca4826132b2565b612cae81856132b6565b935083602082028501612cc0856132ac565b60005b84811015612c2f578383038852612cdb838351612b96565b9250612ce6826132ac565b602098909801979150600101612cc3565b6000612d02826132b2565b612d0c81856132b6565b9350612d17836132ac565b60005b82811015612d4257612d2d868351612bae565b9550612d38826132ac565b9150600101612d1a565b5093949350505050565b612bcb816132ca565b6000612d60826132b2565b612d6a81856132b6565b9350612d7a8185602086016132ed565b612d8381613319565b9093019392505050565b6000612d9a6009836132b6565b600160b81b686e6f742072756c657302815260200192915050565b6000612dc26009836132b6565b600160ba1b681b9bdd17d95e1a5cdd02815260200192915050565b6000612dea600b836132b6565b600160aa1b6a1b9bdd08185b1b1bddd95902815260200192915050565b6000612e146009836132b6565b600160ba1b681b9bdd08195e1a5cdd02815260200192915050565b6000612e3c6007836132b6565b600160ca1b66195e1c1a5c995902815260200192915050565b6000612e62600a836132b6565b600160b11b6939b0b6b29037bbb732b902815260200192915050565b6000612e8b6005836132b6565b600160da1b64195e1a5cdd02815260200192915050565b6000612eaf6010836132b6565b7f696e636f727265637420616d6f756e7400000000000000000000000000000000815260200192915050565b6000612ee8600b836132b6565b600160a81b6a73616d652073746174757302815260200192915050565b6000612f12600a836132b6565b600160b21b69191d5c1b1a58d85d195902815260200192915050565b6000612f3b6016836132b6565b7f616c6c20616d6f756e7420646973747269627574656400000000000000000000815260200192915050565b6000612f74600f836132b6565b7f6475706c69636174656420686173680000000000000000000000000000000000815260200192915050565b805160009060a0840190612fb485826130d6565b506020830151612fc760208601826130d6565b506040830151612fda60408601826130d6565b5060608301518482036060860152612ff28282612d55565b9150506080830151848203608086015261300c8282612d55565b95945050505050565b8051600090606084019061302985826130d6565b50602083015161303c6020860182612bc2565b506040830151848203604086015261300c8282612d55565b805160009060c084019061306885826130d6565b50602083015161307b60208601826130d6565b50604083015161308e60408601826130d6565b5060608301516130a160608601826130d6565b50608083015184820360808601526130b98282612c3b565b91505060a08301516130ce60a0860182612d4c565b509392505050565b612bcb81610650565b612bcb816132db565b602081016105b68284612bc2565b606081016131048286612bc2565b61311160208301856130d6565b6106fa60408301846130d6565b602080825281016105b38184612bd1565b602080825281016105b38184612c99565b602080825281016105b38184612cf7565b602081016105b68284612d4c565b602080825281016105b38184612d55565b602080825281016105b681612d8d565b602080825281016105b681612db5565b602080825281016105b681612ddd565b602080825281016105b681612e07565b602080825281016105b681612e2f565b602080825281016105b681612e55565b602080825281016105b681612e7e565b602080825281016105b681612ea2565b602080825281016105b681612edb565b602080825281016105b681612f05565b602080825281016105b681612f2e565b602080825281016105b681612f67565b602080825281016105b38184613054565b602081016105b682846130d6565b602081016105b682846130df565b60405181810167ffffffffffffffff8111828210171561327c57600080fd5b604052919050565b600067ffffffffffffffff82111561329b57600080fd5b506020601f91909101601f19160190565b60200190565b5190565b90815260200190565b60006105b6826132cf565b151590565b6001600160a01b031690565b60ff1690565b82818337506000910152565b60005b838110156133085781810151838201526020016132f0565b83811115610e2f5750506000910152565b601f01601f19169056feddf252ad1be2c89b69c2b068fc378daa952ba7f163c4a11628f55a4df523b3efa265627a7a7230582057ab7fe73bc4168228543c27687fcef158edcb779d383c32784841e02f8bfca16c6578706572696d656e74616cf50037",
  "source": "pragma solidity ^0.5.2;\npragma experimental ABIEncoderV2;\n\nimport \"./Assets.sol\";\n\ncontract Devices  is Assets {\n\n  struct UserDevices {   \n    mapping (bytes32 => Device) devices;\n    bytes32[] deviceArray;\n  } \n\n  struct Device {   \n    uint256 expirationDate;\n    uint256 assetId;\n    uint256 schemaId;\n    string dappId;\n    string description;\n  }\n\n  uint256 constant private PAGE_SIZE = 10;\n\n  mapping (address => UserDevices) private userDevices_;\n\n  mapping (bytes32 => address) private deviceHashes_;\n    \n  function isAllowed(bytes32 _deviceHash) public view returns (bool) {\n    bool allowed = userDevices_[deviceHashes_[_deviceHash]].devices[_deviceHash].expirationDate > now ;\n    return allowed;\n  }\n\n  function isAllowedForAddress(address _target, bytes32 _deviceHash) public view returns (bool) {\n    bool allowed =  (deviceHashes_[_deviceHash] == _target) && (isAllowed(_deviceHash));\n    return allowed;\n  }\n   \n  function getDevicesPageCount() public view returns (uint256) {\n    return userDevices_[msg.sender].deviceArray.length / PAGE_SIZE;\n  }\n\n  function getDevices(uint256 _page) public view returns (Device[] memory) {\n    Device[] memory devicesPage = new Device[](PAGE_SIZE); \n    uint256 transferIndex = PAGE_SIZE * _page - PAGE_SIZE;\n    bytes32[] memory devices = userDevices_[msg.sender].deviceArray;\n\n    if (devices.length == 0 || transferIndex > devices.length - 1) {\n      Device[] memory empty;\n      return empty;\n    }\n   \n    uint256 returnCounter = 0;\n\n    for (transferIndex; transferIndex < PAGE_SIZE * _page; transferIndex++) {\n      if (transferIndex < devices.length) {\n        devicesPage[returnCounter] = userDevices_[msg.sender].devices[devices[transferIndex]];\n      }\n      returnCounter++;\n    }\n    return devicesPage;\n  }\n\n  function getAddress(bytes32 _deviceHash) public view returns (address) {\n    bool allowed = isAllowed(_deviceHash);\n    address ownerAddress;\n    if (allowed) {\n      ownerAddress = deviceHashes_[_deviceHash];\n    } \n    return ownerAddress;\n  }\n\n  function handshake(bytes32 _deviceHash, uint256 _assetId, uint256 _schemaId, uint256 _lifeTime, string memory _dappId) public {\n    _handshake(msg.sender, _deviceHash, _assetId, _schemaId, _lifeTime, _dappId, \"\");\n  }\n\n  function handshake(bytes32 _deviceHash, uint256 _assetId, uint256 _schemaId, uint256 _lifeTime, string memory _dappId, string memory _description) public {\n    _handshake(msg.sender, _deviceHash, _assetId, _schemaId, _lifeTime, _dappId, _description);\n  }\n\n  function removeDevice(bytes32 _deviceHash) public {\n    _removeDevice(msg.sender, _deviceHash);\n  }\n\n    \n  function _handshake(address _owner, bytes32 _deviceHash, uint256 _assetId, uint256 _schemaId, uint256 _lifeTime, string memory _dappId, string memory _description) internal {\n\n    require(Assets._checkOwnership(_owner, _assetId, _schemaId),\"not allowed\");\n\n    if ((deviceHashes_[_deviceHash] != address(0)) && (!isAllowed(_deviceHash))) {\n      _removeDevice(deviceHashes_[_deviceHash], _deviceHash);\n    }\n\n    require(deviceHashes_[_deviceHash] == address(0), \"duplicated hash\");\n    deviceHashes_[_deviceHash] = _owner; \n    userDevices_[_owner].devices[_deviceHash] =  Device(_lifeTime, _assetId, _schemaId, _dappId, _description);\n    userDevices_[_owner].deviceArray.push(_deviceHash);\n  }\n\n  function _removeDevice(address _owner, bytes32 _deviceHash) internal {\n    require(deviceHashes_[_deviceHash] == _owner, \"same owner\");\n    delete deviceHashes_[_deviceHash];\n    delete userDevices_[_owner].devices[_deviceHash];\n    bool found=false;\n    for (uint i = 0; i < userDevices_[_owner].deviceArray.length-1;i++){\n      if(found){\n        userDevices_[_owner].deviceArray[i] = userDevices_[_owner].deviceArray[i+1];\n      } else {\n        found = userDevices_[_owner].deviceArray[i] == _deviceHash;\n      }\n    }\n    delete userDevices_[_owner].deviceArray[userDevices_[_owner].deviceArray.length-1];\n    userDevices_[_owner].deviceArray.length--;\n  }\n\n}",
  "sourcePath": "/home/jordi/ws/jordiescudero/bloomen-wallet/bloomen-wallet-truffle/contracts/bloomen/Devices.sol",
  "compiler": {
    "name": "solc",
    "version": "0.5.7+commit.6da8b019.Emscripten.clang"
  },
  "schemaVersion": "3.0.6",
  "updatedAt": "2019-04-16T09:48:37.236Z",
  "devdoc": {
    "methods": {
      "allowance(address,address)": {
        "details": "Function to check the amount of tokens that an owner allowed to a spender.",
        "params": {
          "owner": "address The address which owns the funds.",
          "spender": "address The address which will spend the funds."
        },
        "return": "A uint256 specifying the amount of tokens still available for the spender."
      },
      "approve(address,uint256)": {
        "details": "Approve the passed address to spend the specified amount of tokens on behalf of msg.sender. Beware that changing an allowance with this method brings the risk that someone may use both the old and the new allowance by unfortunate transaction ordering. One possible solution to mitigate this race condition is to first reduce the spender's allowance to 0 and set the desired value afterwards: https://github.com/ethereum/EIPs/issues/20#issuecomment-263524729",
        "params": {
          "spender": "The address which will spend the funds.",
          "value": "The amount of tokens to be spent."
        }
      },
      "balanceOf(address)": {
        "details": "Gets the balance of the specified address.",
        "params": {
          "owner": "The address to query the balance of."
        },
        "return": "A uint256 representing the amount owned by the passed address."
      },
      "burn(uint256)": {
        "details": "Burns a specific amount of tokens.",
        "params": {
          "value": "The amount of token to be burned."
        }
      },
      "burnFrom(address,uint256)": {
        "details": "Burns a specific amount of tokens from the target address and decrements allowance",
        "params": {
          "from": "address The account whose tokens will be burned.",
          "value": "uint256 The amount of token to be burned."
        }
      },
      "decimals()": {
        "return": "the number of decimals of the token."
      },
      "decreaseAllowance(address,uint256)": {
        "details": "Decrease the amount of tokens that an owner allowed to a spender. approve should be called when _allowed[msg.sender][spender] == 0. To decrement allowed value is better to use this function to avoid 2 calls (and wait until the first transaction is mined) From MonolithDAO Token.sol Emits an Approval event.",
        "params": {
          "spender": "The address which will spend the funds.",
          "subtractedValue": "The amount of tokens to decrease the allowance by."
        }
      },
      "increaseAllowance(address,uint256)": {
        "details": "Increase the amount of tokens that an owner allowed to a spender. approve should be called when _allowed[msg.sender][spender] == 0. To increment allowed value is better to use this function to avoid 2 calls (and wait until the first transaction is mined) From MonolithDAO Token.sol Emits an Approval event.",
        "params": {
          "addedValue": "The amount of tokens to increase the allowance by.",
          "spender": "The address which will spend the funds."
        }
      },
      "isOwner()": {
        "return": "true if `msg.sender` is the owner of the contract."
      },
      "mint(address,uint256)": {
        "details": "Function to mint tokens",
        "params": {
          "to": "The address that will receive the minted tokens.",
          "value": "The amount of tokens to mint."
        },
        "return": "A boolean that indicates if the operation was successful."
      },
      "name()": {
        "return": "the name of the token."
      },
      "owner()": {
        "return": "the address of the owner."
      },
      "renounceOwnership()": {
        "details": "Allows the current owner to relinquish control of the contract. It will not be possible to call the functions with the `onlyOwner` modifier anymore."
      },
      "symbol()": {
        "return": "the symbol of the token."
      },
      "totalSupply()": {
        "details": "Total number of tokens in existence"
      },
      "transferFrom(address,address,uint256)": {
        "details": "Transfer tokens from one address to another. Note that while this function emits an Approval event, this is not required as per the specification, and other compliant implementations may not emit the event.",
        "params": {
          "from": "address The address which you want to send tokens from",
          "to": "address The address which you want to transfer to",
          "value": "uint256 the amount of tokens to be transferred"
        }
      },
      "transferOwnership(address)": {
        "details": "Allows the current owner to transfer control of the contract to a newOwner.",
        "params": {
          "newOwner": "The address to transfer ownership to."
        }
      }
    }
  },
  "userdoc": {
    "methods": {
      "renounceOwnership()": {
        "notice": "Renouncing ownership will leave the contract without an owner, thereby removing any functionality that is only available to the owner."
      }
    }
  }
}