{
  "contractName": "Devices",
  "abi": [
    {
      "constant": true,
      "inputs": [
        {
          "name": "_assetId",
          "type": "uint256"
        },
        {
          "name": "_schemaId",
          "type": "uint256"
        }
      ],
      "name": "checkOwnership",
      "outputs": [
        {
          "name": "",
          "type": "bool"
        }
      ],
      "payable": false,
      "stateMutability": "view",
      "type": "function"
    },
    {
      "constant": true,
      "inputs": [],
      "name": "name",
      "outputs": [
        {
          "name": "",
          "type": "string"
        }
      ],
      "payable": false,
      "stateMutability": "view",
      "type": "function"
    },
    {
      "constant": false,
      "inputs": [
        {
          "name": "_assetId",
          "type": "uint256"
        },
        {
          "name": "_schemaId",
          "type": "uint256"
        },
        {
          "name": "_amount",
          "type": "uint256"
        },
        {
          "name": "_dappId",
          "type": "string"
        },
        {
          "name": "_description",
          "type": "string"
        }
      ],
      "name": "buy",
      "outputs": [],
      "payable": false,
      "stateMutability": "nonpayable",
      "type": "function"
    },
    {
      "constant": false,
      "inputs": [
        {
          "name": "_to",
          "type": "address"
        },
        {
          "name": "_value",
          "type": "uint256"
        },
        {
          "name": "_data",
          "type": "uint256"
        }
      ],
      "name": "transfer",
      "outputs": [],
      "payable": false,
      "stateMutability": "nonpayable",
      "type": "function"
    },
    {
      "constant": false,
      "inputs": [
        {
          "name": "spender",
          "type": "address"
        },
        {
          "name": "value",
          "type": "uint256"
        }
      ],
      "name": "approve",
      "outputs": [
        {
          "name": "",
          "type": "bool"
        }
      ],
      "payable": false,
      "stateMutability": "nonpayable",
      "type": "function"
    },
    {
      "constant": true,
      "inputs": [],
      "name": "totalSupply",
      "outputs": [
        {
          "name": "",
          "type": "uint256"
        }
      ],
      "payable": false,
      "stateMutability": "view",
      "type": "function"
    },
    {
      "constant": true,
      "inputs": [
        {
          "name": "theNumber",
          "type": "uint256"
        },
        {
          "name": "percentage",
          "type": "uint256"
        }
      ],
      "name": "calculatePercentage",
      "outputs": [
        {
          "name": "",
          "type": "uint256"
        }
      ],
      "payable": false,
      "stateMutability": "view",
      "type": "function"
    },
    {
      "constant": false,
      "inputs": [
        {
          "name": "from",
          "type": "address"
        },
        {
          "name": "to",
          "type": "address"
        },
        {
          "name": "value",
          "type": "uint256"
        }
      ],
      "name": "transferFrom",
      "outputs": [
        {
          "name": "",
          "type": "bool"
        }
      ],
      "payable": false,
      "stateMutability": "nonpayable",
      "type": "function"
    },
    {
      "constant": true,
      "inputs": [
        {
          "name": "_schemaId",
          "type": "uint256"
        }
      ],
      "name": "getSchema",
      "outputs": [
        {
          "components": [
            {
              "name": "expirationDate",
              "type": "uint256"
            },
            {
              "name": "schemaId",
              "type": "uint256"
            },
            {
              "name": "amount",
              "type": "uint256"
            },
            {
              "name": "assetLifeTime",
              "type": "uint256"
            },
            {
              "components": [
                {
                  "name": "percent",
                  "type": "uint256"
                },
                {
                  "name": "receptor",
                  "type": "address"
                },
                {
                  "name": "description",
                  "type": "string"
                }
              ],
              "name": "clearingHouseRules",
              "type": "tuple[]"
            },
            {
              "name": "valid",
              "type": "bool"
            }
          ],
          "name": "",
          "type": "tuple"
        }
      ],
      "payable": false,
      "stateMutability": "view",
      "type": "function"
    },
    {
      "constant": true,
      "inputs": [],
      "name": "decimals",
      "outputs": [
        {
          "name": "",
          "type": "uint8"
        }
      ],
      "payable": false,
      "stateMutability": "view",
      "type": "function"
    },
    {
      "constant": false,
      "inputs": [
        {
          "name": "spender",
          "type": "address"
        },
        {
          "name": "addedValue",
          "type": "uint256"
        }
      ],
      "name": "increaseAllowance",
      "outputs": [
        {
          "name": "",
          "type": "bool"
        }
      ],
      "payable": false,
      "stateMutability": "nonpayable",
      "type": "function"
    },
    {
      "constant": false,
      "inputs": [
        {
          "name": "_schemaId",
          "type": "uint256"
        }
      ],
      "name": "validateSchema",
      "outputs": [],
      "payable": false,
      "stateMutability": "nonpayable",
      "type": "function"
    },
    {
      "constant": false,
      "inputs": [
        {
          "name": "to",
          "type": "address"
        },
        {
          "name": "value",
          "type": "uint256"
        }
      ],
      "name": "mint",
      "outputs": [
        {
          "name": "",
          "type": "bool"
        }
      ],
      "payable": false,
      "stateMutability": "nonpayable",
      "type": "function"
    },
    {
      "constant": false,
      "inputs": [
        {
          "name": "value",
          "type": "uint256"
        }
      ],
      "name": "burn",
      "outputs": [],
      "payable": false,
      "stateMutability": "nonpayable",
      "type": "function"
    },
    {
      "constant": true,
      "inputs": [],
      "name": "getAssetsPageCount",
      "outputs": [
        {
          "name": "",
          "type": "uint256"
        }
      ],
      "payable": false,
      "stateMutability": "view",
      "type": "function"
    },
    {
      "constant": false,
      "inputs": [
        {
          "name": "_from",
          "type": "address"
        },
        {
          "name": "_value",
          "type": "uint256"
        },
        {
          "name": "_schemaId",
          "type": "uint256"
        }
      ],
      "name": "tokenFallback",
      "outputs": [],
      "payable": false,
      "stateMutability": "nonpayable",
      "type": "function"
    },
    {
      "constant": false,
      "inputs": [
        {
          "name": "_schemaId",
          "type": "uint256"
        }
      ],
      "name": "invalidateSchema",
      "outputs": [],
      "payable": false,
      "stateMutability": "nonpayable",
      "type": "function"
    },
    {
      "constant": true,
      "inputs": [
        {
          "name": "_target",
          "type": "address"
        },
        {
          "name": "_assetId",
          "type": "uint256"
        },
        {
          "name": "_schemaId",
          "type": "uint256"
        }
      ],
      "name": "checkOwnershipForAddress",
      "outputs": [
        {
          "name": "",
          "type": "bool"
        }
      ],
      "payable": false,
      "stateMutability": "view",
      "type": "function"
    },
    {
      "constant": true,
      "inputs": [
        {
          "name": "owner",
          "type": "address"
        }
      ],
      "name": "balanceOf",
      "outputs": [
        {
          "name": "",
          "type": "uint256"
        }
      ],
      "payable": false,
      "stateMutability": "view",
      "type": "function"
    },
    {
      "constant": false,
      "inputs": [],
      "name": "renounceOwnership",
      "outputs": [],
      "payable": false,
      "stateMutability": "nonpayable",
      "type": "function"
    },
    {
      "constant": false,
      "inputs": [
        {
          "name": "from",
          "type": "address"
        },
        {
          "name": "value",
          "type": "uint256"
        }
      ],
      "name": "burnFrom",
      "outputs": [],
      "payable": false,
      "stateMutability": "nonpayable",
      "type": "function"
    },
    {
      "constant": false,
      "inputs": [
        {
          "name": "_assetId",
          "type": "uint256"
        },
        {
          "name": "_schemaId",
          "type": "uint256"
        },
        {
          "name": "_amount",
          "type": "uint256"
        },
        {
          "name": "_dappId",
          "type": "string"
        }
      ],
      "name": "buy",
      "outputs": [],
      "payable": false,
      "stateMutability": "nonpayable",
      "type": "function"
    },
    {
      "constant": true,
      "inputs": [],
      "name": "owner",
      "outputs": [
        {
          "name": "",
          "type": "address"
        }
      ],
      "payable": false,
      "stateMutability": "view",
      "type": "function"
    },
    {
      "constant": true,
      "inputs": [],
      "name": "isOwner",
      "outputs": [
        {
          "name": "",
          "type": "bool"
        }
      ],
      "payable": false,
      "stateMutability": "view",
      "type": "function"
    },
    {
      "constant": true,
      "inputs": [],
      "name": "getSchemas",
      "outputs": [
        {
          "name": "",
          "type": "uint256[]"
        }
      ],
      "payable": false,
      "stateMutability": "view",
      "type": "function"
    },
    {
      "constant": true,
      "inputs": [],
      "name": "symbol",
      "outputs": [
        {
          "name": "",
          "type": "string"
        }
      ],
      "payable": false,
      "stateMutability": "view",
      "type": "function"
    },
    {
      "constant": false,
      "inputs": [
        {
          "name": "account",
          "type": "address"
        }
      ],
      "name": "addMinter",
      "outputs": [],
      "payable": false,
      "stateMutability": "nonpayable",
      "type": "function"
    },
    {
      "constant": false,
      "inputs": [],
      "name": "renounceMinter",
      "outputs": [],
      "payable": false,
      "stateMutability": "nonpayable",
      "type": "function"
    },
    {
      "constant": false,
      "inputs": [
        {
          "name": "_schemaId",
          "type": "uint256"
        },
        {
          "name": "_data",
          "type": "bytes"
        }
      ],
      "name": "createSchema",
      "outputs": [],
      "payable": false,
      "stateMutability": "nonpayable",
      "type": "function"
    },
    {
      "constant": false,
      "inputs": [
        {
          "name": "spender",
          "type": "address"
        },
        {
          "name": "subtractedValue",
          "type": "uint256"
        }
      ],
      "name": "decreaseAllowance",
      "outputs": [
        {
          "name": "",
          "type": "bool"
        }
      ],
      "payable": false,
      "stateMutability": "nonpayable",
      "type": "function"
    },
    {
      "constant": false,
      "inputs": [
        {
          "name": "_to",
          "type": "address"
        },
        {
          "name": "_value",
          "type": "uint256"
        }
      ],
      "name": "transfer",
      "outputs": [
        {
          "name": "",
          "type": "bool"
        }
      ],
      "payable": false,
      "stateMutability": "nonpayable",
      "type": "function"
    },
    {
      "constant": true,
      "inputs": [
        {
          "name": "account",
          "type": "address"
        }
      ],
      "name": "isMinter",
      "outputs": [
        {
          "name": "",
          "type": "bool"
        }
      ],
      "payable": false,
      "stateMutability": "view",
      "type": "function"
    },
    {
      "constant": true,
      "inputs": [
        {
          "name": "_page",
          "type": "uint256"
        }
      ],
      "name": "getAssets",
      "outputs": [
        {
          "components": [
            {
              "name": "expirationDate",
              "type": "uint256"
            },
            {
              "name": "assetId",
              "type": "uint256"
            },
            {
              "name": "schemaId",
              "type": "uint256"
            },
            {
              "name": "dappId",
              "type": "string"
            },
            {
              "name": "description",
              "type": "string"
            }
          ],
          "name": "",
          "type": "tuple[]"
        }
      ],
      "payable": false,
      "stateMutability": "view",
      "type": "function"
    },
    {
      "constant": true,
      "inputs": [
        {
          "name": "owner",
          "type": "address"
        },
        {
          "name": "spender",
          "type": "address"
        }
      ],
      "name": "allowance",
      "outputs": [
        {
          "name": "",
          "type": "uint256"
        }
      ],
      "payable": false,
      "stateMutability": "view",
      "type": "function"
    },
    {
      "constant": false,
      "inputs": [
        {
          "name": "newOwner",
          "type": "address"
        }
      ],
      "name": "transferOwnership",
      "outputs": [],
      "payable": false,
      "stateMutability": "nonpayable",
      "type": "function"
    },
    {
      "anonymous": false,
      "inputs": [
        {
          "indexed": true,
          "name": "account",
          "type": "address"
        }
      ],
      "name": "MinterAdded",
      "type": "event"
    },
    {
      "anonymous": false,
      "inputs": [
        {
          "indexed": true,
          "name": "account",
          "type": "address"
        }
      ],
      "name": "MinterRemoved",
      "type": "event"
    },
    {
      "anonymous": false,
      "inputs": [
        {
          "indexed": true,
          "name": "from",
          "type": "address"
        },
        {
          "indexed": true,
          "name": "to",
          "type": "address"
        },
        {
          "indexed": false,
          "name": "value",
          "type": "uint256"
        }
      ],
      "name": "Transfer",
      "type": "event"
    },
    {
      "anonymous": false,
      "inputs": [
        {
          "indexed": true,
          "name": "owner",
          "type": "address"
        },
        {
          "indexed": true,
          "name": "spender",
          "type": "address"
        },
        {
          "indexed": false,
          "name": "value",
          "type": "uint256"
        }
      ],
      "name": "Approval",
      "type": "event"
    },
    {
      "anonymous": false,
      "inputs": [
        {
          "indexed": true,
          "name": "previousOwner",
          "type": "address"
        },
        {
          "indexed": true,
          "name": "newOwner",
          "type": "address"
        }
      ],
      "name": "OwnershipTransferred",
      "type": "event"
    },
    {
      "constant": true,
      "inputs": [
        {
          "name": "_deviceHash",
          "type": "bytes32"
        }
      ],
      "name": "isAllowed",
      "outputs": [
        {
          "name": "",
          "type": "bool"
        }
      ],
      "payable": false,
      "stateMutability": "view",
      "type": "function"
    },
    {
      "constant": true,
      "inputs": [
        {
          "name": "_target",
          "type": "address"
        },
        {
          "name": "_deviceHash",
          "type": "bytes32"
        }
      ],
      "name": "isAllowedForAddress",
      "outputs": [
        {
          "name": "",
          "type": "bool"
        }
      ],
      "payable": false,
      "stateMutability": "view",
      "type": "function"
    },
    {
      "constant": true,
      "inputs": [],
      "name": "getDevicesPageCount",
      "outputs": [
        {
          "name": "",
          "type": "uint256"
        }
      ],
      "payable": false,
      "stateMutability": "view",
      "type": "function"
    },
    {
      "constant": true,
      "inputs": [
        {
          "name": "_page",
          "type": "uint256"
        }
      ],
      "name": "getDevices",
      "outputs": [
        {
          "components": [
            {
              "name": "expirationDate",
              "type": "uint256"
            },
            {
              "name": "assetId",
              "type": "uint256"
            },
            {
              "name": "schemaId",
              "type": "uint256"
            },
            {
              "name": "dappId",
              "type": "string"
            },
            {
              "name": "description",
              "type": "string"
            }
          ],
          "name": "",
          "type": "tuple[]"
        }
      ],
      "payable": false,
      "stateMutability": "view",
      "type": "function"
    },
    {
      "constant": true,
      "inputs": [
        {
          "name": "_deviceHash",
          "type": "bytes32"
        }
      ],
      "name": "getAddress",
      "outputs": [
        {
          "name": "",
          "type": "address"
        }
      ],
      "payable": false,
      "stateMutability": "view",
      "type": "function"
    },
    {
      "constant": false,
      "inputs": [
        {
          "name": "_deviceHash",
          "type": "bytes32"
        },
        {
          "name": "_assetId",
          "type": "uint256"
        },
        {
          "name": "_schemaId",
          "type": "uint256"
        },
        {
          "name": "_lifeTime",
          "type": "uint256"
        },
        {
          "name": "_dappId",
          "type": "string"
        }
      ],
      "name": "handshake",
      "outputs": [],
      "payable": false,
      "stateMutability": "nonpayable",
      "type": "function"
    },
    {
      "constant": false,
      "inputs": [
        {
          "name": "_deviceHash",
          "type": "bytes32"
        },
        {
          "name": "_assetId",
          "type": "uint256"
        },
        {
          "name": "_schemaId",
          "type": "uint256"
        },
        {
          "name": "_lifeTime",
          "type": "uint256"
        },
        {
          "name": "_dappId",
          "type": "string"
        },
        {
          "name": "_description",
          "type": "string"
        }
      ],
      "name": "handshake",
      "outputs": [],
      "payable": false,
      "stateMutability": "nonpayable",
      "type": "function"
    },
    {
      "constant": false,
      "inputs": [
        {
          "name": "_deviceHash",
          "type": "bytes32"
        }
      ],
      "name": "removeDevice",
      "outputs": [],
      "payable": false,
      "stateMutability": "nonpayable",
      "type": "function"
    }
  ],
  "bytecode": "0x60806040526040518060400160405280600b81526020017f426c6f6f6d656e436f696e0000000000000000000000000000000000000000008152506040518060400160405280600381526020017f424c4f00000000000000000000000000000000000000000000000000000000008152506002828282336000806101000a81548173ffffffffffffffffffffffffffffffffffffffff021916908373ffffffffffffffffffffffffffffffffffffffff1602179055506000809054906101000a900473ffffffffffffffffffffffffffffffffffffffff1673ffffffffffffffffffffffffffffffffffffffff16600073ffffffffffffffffffffffffffffffffffffffff167f8be0079c531659141344cd1fd0a4f28419497f9722a3daafe3b4186f6b6457e060405160405180910390a382600690805190602001906200014992919062000360565b5081600790805190602001906200016292919062000360565b5080600860006101000a81548160ff021916908360ff1602179055505050506200019b33620001a4640100000000026401000000009004565b5050506200040f565b620001c88160096200020e64010000000002620035e2179091906401000000009004565b8073ffffffffffffffffffffffffffffffffffffffff167f6ae172837ea30b801fbfcdd4108aa1d5bf8ff775444fd70256b44e6bf3dfc3f660405160405180910390a250565b600073ffffffffffffffffffffffffffffffffffffffff168173ffffffffffffffffffffffffffffffffffffffff1614156200024957600080fd5b620002648282620002cd640100000000026401000000009004565b156200026f57600080fd5b60018260000160008373ffffffffffffffffffffffffffffffffffffffff1673ffffffffffffffffffffffffffffffffffffffff16815260200190815260200160002060006101000a81548160ff0219169083151502179055505050565b60008073ffffffffffffffffffffffffffffffffffffffff168273ffffffffffffffffffffffffffffffffffffffff1614156200030957600080fd5b8260000160008373ffffffffffffffffffffffffffffffffffffffff1673ffffffffffffffffffffffffffffffffffffffff16815260200190815260200160002060009054906101000a900460ff16905092915050565b828054600181600116156101000203166002900490600052602060002090601f016020900481019282601f10620003a357805160ff1916838001178555620003d4565b82800160010185558215620003d4579182015b82811115620003d3578251825591602001919060010190620003b6565b5b509050620003e39190620003e7565b5090565b6200040c91905b8082111562000408576000816000905550600101620003ee565b5090565b90565b6151b6806200041f6000396000f3fe608060405234801561001057600080fd5b5060043610610286576000357c0100000000000000000000000000000000000000000000000000000000900480635a16f5c41161016e57806395d89b41116100e0578063a9059cbb116100a4578063a9059cbb1461079b578063aa271e1a146107cb578063c8c2eb66146107fb578063d921216414610819578063dd62ed3e14610849578063f2fde38b1461087957610286565b806395d89b411461070b578063983b2d56146107295780639865027514610745578063a2086dab1461074f578063a457c2d71461076b57610286565b80637875529511610132578063787552951461064957806379cc6790146106795780637de3b0ed146106955780638da5cb5b146106b15780638f32d59b146106cf57806395ba8d18146106ed57610286565b80635a16f5c4146105935780636d9db7ed146105af578063700651aa146105df57806370a082311461060f578063715018a61461063f57610286565b806321f8a721116102075780634014d468116101cb5780634014d468146104d557806340c10f19146104f157806342966c681461052157806342b4bed41461053d5780634aa3bfeb146105595780634f4ee3531461057757610286565b806321f8a721146103f757806323b872dd146104275780632b26fb2914610457578063313ce5671461048757806339509351146104a557610286565b8063132c6aa41161024e578063132c6aa41461034157806318160ddd1461035d5780631d2662001461037b5780631d841899146103975780632133e3b9146103c757610286565b806304edae0f1461028b57806306fdde03146102bb578063080e6887146102d9578063095bcdb6146102f5578063095ea7b314610311575b600080fd5b6102a560048036036102a0919081019061431f565b610895565b6040516102b29190614ce4565b60405180910390f35b6102c36108aa565b6040516102d09190614cff565b60405180910390f35b6102f360048036036102ee91908101906143d6565b61094c565b005b61030f600480360361030a91908101906140e2565b610961565b005b61032b600480360361032691908101906140a6565b61097d565b6040516103389190614ce4565b60405180910390f35b61035b6004803603610356919081019061415a565b610994565b005b6103656109b9565b6040516103729190614ec3565b60405180910390f35b61039560048036036103909190810190614131565b6109c3565b005b6103b160048036036103ac919081019061406a565b6109d0565b6040516103be9190614ce4565b60405180910390f35b6103e160048036036103dc919081019061431f565b610a52565b6040516103ee9190614ec3565b60405180910390f35b610411600480360361040c9190810190614131565b610a69565b60405161041e9190614c2c565b60405180910390f35b610441600480360361043c919081019061401b565b610ac0565b60405161044e9190614ce4565b60405180910390f35b610471600480360361046c91908101906142a2565b610b71565b60405161047e9190614ea1565b60405180910390f35b61048f610d9b565b60405161049c9190614ede565b60405180910390f35b6104bf60048036036104ba91908101906140a6565b610db2565b6040516104cc9190614ce4565b60405180910390f35b6104ef60048036036104ea91908101906142a2565b610e57565b005b61050b600480360361050691908101906140a6565b610e76565b6040516105189190614ce4565b60405180910390f35b61053b600480360361053691908101906142a2565b610e9e565b005b610557600480360361055291908101906141e9565b610eab565b005b610561610ec2565b60405161056e9190614ec3565b60405180910390f35b610591600480360361058c91908101906140e2565b610f18565b005b6105ad60048036036105a891908101906142a2565b610fe0565b005b6105c960048036036105c491908101906142a2565b610fff565b6040516105d69190614ca0565b60405180910390f35b6105f960048036036105f491908101906140e2565b61132d565b6040516106069190614ce4565b60405180910390f35b61062960048036036106249190810190613fb6565b611343565b6040516106369190614ec3565b60405180910390f35b61064761138c565b005b610663600480360361065e9190810190614131565b61145c565b6040516106709190614ce4565b60405180910390f35b610693600480360361068e91908101906140a6565b6114f6565b005b6106af60048036036106aa919081019061435b565b611504565b005b6106b9611527565b6040516106c69190614c2c565b60405180910390f35b6106d7611550565b6040516106e49190614ce4565b60405180910390f35b6106f56115a7565b6040516107029190614cc2565b60405180910390f35b6107136115ff565b6040516107209190614cff565b60405180910390f35b610743600480360361073e9190810190613fb6565b6116a1565b005b61074d6116bf565b005b610769600480360361076491908101906142cb565b6116ca565b005b610785600480360361078091908101906140a6565b6116e9565b6040516107929190614ce4565b60405180910390f35b6107b560048036036107b091908101906140a6565b61178e565b6040516107c29190614ce4565b60405180910390f35b6107e560048036036107e09190810190613fb6565b6117b2565b6040516107f29190614ce4565b60405180910390f35b6108036117cf565b6040516108109190614ec3565b60405180910390f35b610833600480360361082e91908101906142a2565b611826565b6040516108409190614c7e565b60405180910390f35b610863600480360361085e9190810190613fdf565b611afe565b6040516108709190614ec3565b60405180910390f35b610893600480360361088e9190810190613fb6565b611b85565b005b60006108a2338484611ba2565b905092915050565b606060068054600181600116156101000203166002900480601f0160208091040260200160405190810160405280929190818152602001828054600181600116156101000203166002900480156109425780601f1061091757610100808354040283529160200191610942565b820191906000526020600020905b81548152906001019060200180831161092557829003601f168201915b5050505050905090565b61095a338686868686611e19565b5050505050565b61096c338484611fd0565b61097833848484611fe0565b505050565b600061098a3384846120eb565b6001905092915050565b6109b23386868686866040518060200160405280600081525061224a565b5050505050565b6000600554905090565b6109cd338261258b565b50565b6000808373ffffffffffffffffffffffffffffffffffffffff16600c600085815260200190815260200160002060009054906101000a900473ffffffffffffffffffffffffffffffffffffffff1673ffffffffffffffffffffffffffffffffffffffff16148015610a465750610a458361145c565b5b90508091505092915050565b6000606482840281610a6057fe5b04905092915050565b600080610a758361145c565b905060008115610ab657600c600085815260200190815260200160002060009054906101000a900473ffffffffffffffffffffffffffffffffffffffff1690505b8092505050919050565b6000610acd848484611fd0565b610b668433610b6185600460008a73ffffffffffffffffffffffffffffffffffffffff1673ffffffffffffffffffffffffffffffffffffffff16815260200190815260200160002060003373ffffffffffffffffffffffffffffffffffffffff1673ffffffffffffffffffffffffffffffffffffffff1681526020019081526020016000205461297590919063ffffffff16565b6120eb565b600190509392505050565b610b79613c9b565b6000600160008481526020019081526020016000206001015411610bd2576040517f08c379a0000000000000000000000000000000000000000000000000000000008152600401610bc990614d41565b60405180910390fd5b600160008381526020019081526020016000206040518060c00160405290816000820154815260200160018201548152602001600282015481526020016003820154815260200160048201805480602002602001604051908101604052809291908181526020016000905b82821015610d715783829060005260206000209060030201604051806060016040529081600082015481526020016001820160009054906101000a900473ffffffffffffffffffffffffffffffffffffffff1673ffffffffffffffffffffffffffffffffffffffff1673ffffffffffffffffffffffffffffffffffffffff168152602001600282018054600181600116156101000203166002900480601f016020809104026020016040519081016040528092919081815260200182805460018160011615610100020316600290048015610d595780601f10610d2e57610100808354040283529160200191610d59565b820191906000526020600020905b815481529060010190602001808311610d3c57829003601f168201915b50505050508152505081526020019060010190610c3d565b5050505081526020016005820160009054906101000a900460ff1615151515815250509050919050565b6000600860009054906101000a900460ff16905090565b6000610e4d3384610e4885600460003373ffffffffffffffffffffffffffffffffffffffff1673ffffffffffffffffffffffffffffffffffffffff16815260200190815260200160002060008973ffffffffffffffffffffffffffffffffffffffff1673ffffffffffffffffffffffffffffffffffffffff1681526020019081526020016000205461299590919063ffffffff16565b6120eb565b6001905092915050565b610e5f611550565b610e6857600080fd5b610e738160016129b4565b50565b6000610e81336117b2565b610e8a57600080fd5b610e948383612aaa565b6001905092915050565b610ea83382612bfe565b50565b610eba3387878787878761224a565b505050505050565b6000600a8060003373ffffffffffffffffffffffffffffffffffffffff1673ffffffffffffffffffffffffffffffffffffffff1681526020019081526020016000206000018054905081610f1257fe5b04905090565b610f20613c9b565b610f2982610b71565b9050600083905060008090505b600183608001515103811015610fa9576000610f6d8685608001518481518110610f5c57fe5b602002602001015160000151610a52565b9050610f9684608001518381518110610f8257fe5b602002602001015160200151826000610961565b8083039250508080600101915050610f36565b50610fd9826080015160018460800151510381518110610fc557fe5b602002602001015160200151826000610961565b5050505050565b610fe8611550565b610ff157600080fd5b610ffc8160006129b4565b50565b606080600a60405190808252806020026020018201604052801561103d57816020015b61102a613cd3565b8152602001906001900390816110225790505b5090506000600a84600a020390506060600b60003373ffffffffffffffffffffffffffffffffffffffff1673ffffffffffffffffffffffffffffffffffffffff1681526020019081526020016000206001018054806020026020016040519081016040528092919081815260200182805480156110d957602002820191906000526020600020905b8154815260200190600101908083116110c5575b505050505090506000815114806110f35750600181510382115b1561110657606080945050505050611328565b60008090505b85600a0283101561132057815183101561130b57600b60003373ffffffffffffffffffffffffffffffffffffffff1673ffffffffffffffffffffffffffffffffffffffff168152602001908152602001600020600001600083858151811061117057fe5b602002602001015181526020019081526020016000206040518060a0016040529081600082015481526020016001820154815260200160028201548152602001600382018054600181600116156101000203166002900480601f0160208091040260200160405190810160405280929190818152602001828054600181600116156101000203166002900480156112485780601f1061121d57610100808354040283529160200191611248565b820191906000526020600020905b81548152906001019060200180831161122b57829003601f168201915b50505050508152602001600482018054600181600116156101000203166002900480601f0160208091040260200160405190810160405280929190818152602001828054600181600116156101000203166002900480156112ea5780601f106112bf576101008083540402835291602001916112ea565b820191906000526020600020905b8154815290600101906020018083116112cd57829003601f168201915b5050505050815250508482815181106112ff57fe5b60200260200101819052505b8080600101915050828060010193505061110c565b839450505050505b919050565b600061133a848484611ba2565b90509392505050565b6000600360008373ffffffffffffffffffffffffffffffffffffffff1673ffffffffffffffffffffffffffffffffffffffff168152602001908152602001600020549050919050565b611394611550565b61139d57600080fd5b600073ffffffffffffffffffffffffffffffffffffffff166000809054906101000a900473ffffffffffffffffffffffffffffffffffffffff1673ffffffffffffffffffffffffffffffffffffffff167f8be0079c531659141344cd1fd0a4f28419497f9722a3daafe3b4186f6b6457e060405160405180910390a360008060006101000a81548173ffffffffffffffffffffffffffffffffffffffff021916908373ffffffffffffffffffffffffffffffffffffffff160217905550565b60008042600b6000600c600087815260200190815260200160002060009054906101000a900473ffffffffffffffffffffffffffffffffffffffff1673ffffffffffffffffffffffffffffffffffffffff1673ffffffffffffffffffffffffffffffffffffffff16815260200190815260200160002060000160008581526020019081526020016000206000015411905080915050919050565b6115008282612d52565b5050565b611521338585858560405180602001604052806000815250611e19565b50505050565b60008060009054906101000a900473ffffffffffffffffffffffffffffffffffffffff16905090565b60008060009054906101000a900473ffffffffffffffffffffffffffffffffffffffff1673ffffffffffffffffffffffffffffffffffffffff163373ffffffffffffffffffffffffffffffffffffffff1614905090565b606060028054806020026020016040519081016040528092919081815260200182805480156115f557602002820191906000526020600020905b8154815260200190600101908083116115e1575b5050505050905090565b606060078054600181600116156101000203166002900480601f0160208091040260200160405190810160405280929190818152602001828054600181600116156101000203166002900480156116975780601f1061166c57610100808354040283529160200191611697565b820191906000526020600020905b81548152906001019060200180831161167a57829003601f168201915b5050505050905090565b6116aa336117b2565b6116b357600080fd5b6116bc81612df9565b50565b6116c833612e53565b565b6116d2611550565b6116db57600080fd5b6116e58282612ead565b5050565b6000611784338461177f85600460003373ffffffffffffffffffffffffffffffffffffffff1673ffffffffffffffffffffffffffffffffffffffff16815260200190815260200160002060008973ffffffffffffffffffffffffffffffffffffffff1673ffffffffffffffffffffffffffffffffffffffff1681526020019081526020016000205461297590919063ffffffff16565b6120eb565b6001905092915050565b600061179b338484611fd0565b6117a83384846000611fe0565b6001905092915050565b60006117c882600961327790919063ffffffff16565b9050919050565b6000600a600b60003373ffffffffffffffffffffffffffffffffffffffff1673ffffffffffffffffffffffffffffffffffffffff168152602001908152602001600020600101805490508161182057fe5b04905090565b60606000600a83600a020390506060600a60003373ffffffffffffffffffffffffffffffffffffffff1673ffffffffffffffffffffffffffffffffffffffff168152602001908152602001600020600001805480602002602001604051908101604052809291908181526020016000905b82821015611a2b57838290600052602060002090600502016040518060a0016040529081600082015481526020016001820154815260200160028201548152602001600382018054600181600116156101000203166002900480601f0160208091040260200160405190810160405280929190818152602001828054600181600116156101000203166002900480156119715780601f1061194657610100808354040283529160200191611971565b820191906000526020600020905b81548152906001019060200180831161195457829003601f168201915b50505050508152602001600482018054600181600116156101000203166002900480601f016020809104026020016040519081016040528092919081815260200182805460018160011615610100020316600290048015611a135780601f106119e857610100808354040283529160200191611a13565b820191906000526020600020905b8154815290600101906020018083116119f657829003601f168201915b50505050508152505081526020019060010190611897565b505050509050600081511480611a445750600181510382115b15611a56576060809350505050611af9565b6060600a604051908082528060200260200182016040528015611a9357816020015b611a80613d02565b815260200190600190039081611a785790505b50905060008090505b85600a02841015611af1578251841015611adc57828481518110611abc57fe5b6020026020010151828281518110611ad057fe5b60200260200101819052505b80806001019150508380600101945050611a9c565b819450505050505b919050565b6000600460008473ffffffffffffffffffffffffffffffffffffffff1673ffffffffffffffffffffffffffffffffffffffff16815260200190815260200160002060008373ffffffffffffffffffffffffffffffffffffffff1673ffffffffffffffffffffffffffffffffffffffff16815260200190815260200160002054905092915050565b611b8d611550565b611b9657600080fd5b611b9f81613309565b50565b600080600090505b600a60008673ffffffffffffffffffffffffffffffffffffffff1673ffffffffffffffffffffffffffffffffffffffff16815260200190815260200160002060000180549050811015611e0c57611bff613d31565b600a60008773ffffffffffffffffffffffffffffffffffffffff1673ffffffffffffffffffffffffffffffffffffffff1681526020019081526020016000206000018281548110611c4c57fe5b90600052602060002090600502016040518060a0016040529081600082015481526020016001820154815260200160028201548152602001600382018054600181600116156101000203166002900480601f016020809104026020016040519081016040528092919081815260200182805460018160011615610100020316600290048015611d1c5780601f10611cf157610100808354040283529160200191611d1c565b820191906000526020600020905b815481529060010190602001808311611cff57829003601f168201915b50505050508152602001600482018054600181600116156101000203166002900480601f016020809104026020016040519081016040528092919081815260200182805460018160011615610100020316600290048015611dbe5780601f10611d9357610100808354040283529160200191611dbe565b820191906000526020600020905b815481529060010190602001808311611da157829003601f168201915b5050505050815250509050848160200151148015611ddf5750838160400151145b8015611dee5750428160000151115b15611dfe57600192505050611e12565b508080600101915050611baa565b50600090505b9392505050565b611e21613c9b565b611e2a85610b71565b905083816040015114611e72576040517f08c379a0000000000000000000000000000000000000000000000000000000008152600401611e6990614e01565b60405180910390fd5b611e7d878787611ba2565b15611ebd576040517f08c379a0000000000000000000000000000000000000000000000000000000008152600401611eb490614e41565b60405180910390fd5b6000841115611ed257611ed1308587610961565b5b600a60008873ffffffffffffffffffffffffffffffffffffffff1673ffffffffffffffffffffffffffffffffffffffff1681526020019081526020016000206000016040518060a0016040528083606001514201815260200188815260200187815260200185815260200184815250908060018154018082558091505090600182039060005260206000209060050201600090919290919091506000820151816000015560208201518160010155604082015181600201556060820151816003019080519060200190611fa6929190613d60565b506080820151816004019080519060200190611fc3929190613d60565b5050505050505050505050565b611fdb838383613401565b505050565b611fe9836135cf565b156120805760008390508073ffffffffffffffffffffffffffffffffffffffff16634f4ee3538685856040518463ffffffff167c010000000000000000000000000000000000000000000000000000000002815260040161204c93929190614c47565b600060405180830381600087803b15801561206657600080fd5b505af115801561207a573d6000803e3d6000fd5b50505050505b8273ffffffffffffffffffffffffffffffffffffffff168473ffffffffffffffffffffffffffffffffffffffff167fddf252ad1be2c89b69c2b068fc378daa952ba7f163c4a11628f55a4df523b3ef846040516120dd9190614ec3565b60405180910390a350505050565b600073ffffffffffffffffffffffffffffffffffffffff168273ffffffffffffffffffffffffffffffffffffffff16141561212557600080fd5b600073ffffffffffffffffffffffffffffffffffffffff168373ffffffffffffffffffffffffffffffffffffffff16141561215f57600080fd5b80600460008573ffffffffffffffffffffffffffffffffffffffff1673ffffffffffffffffffffffffffffffffffffffff16815260200190815260200160002060008473ffffffffffffffffffffffffffffffffffffffff1673ffffffffffffffffffffffffffffffffffffffff168152602001908152602001600020819055508173ffffffffffffffffffffffffffffffffffffffff168373ffffffffffffffffffffffffffffffffffffffff167f8c5be1e5ebec7d5bd14f71427d1e84f3dd0314c0f7b2291e5b200ac8c7c3b9258360405161223d9190614ec3565b60405180910390a3505050565b612255878686611ba2565b612294576040517f08c379a000000000000000000000000000000000000000000000000000000000815260040161228b90614d61565b60405180910390fd5b600073ffffffffffffffffffffffffffffffffffffffff16600c600088815260200190815260200160002060009054906101000a900473ffffffffffffffffffffffffffffffffffffffff1673ffffffffffffffffffffffffffffffffffffffff161415801561230a57506123088661145c565b155b1561234d5761234c600c600088815260200190815260200160002060009054906101000a900473ffffffffffffffffffffffffffffffffffffffff168761258b565b5b600073ffffffffffffffffffffffffffffffffffffffff16600c600088815260200190815260200160002060009054906101000a900473ffffffffffffffffffffffffffffffffffffffff1673ffffffffffffffffffffffffffffffffffffffff16146123ef576040517f08c379a00000000000000000000000000000000000000000000000000000000081526004016123e690614e81565b60405180910390fd5b86600c600088815260200190815260200160002060006101000a81548173ffffffffffffffffffffffffffffffffffffffff021916908373ffffffffffffffffffffffffffffffffffffffff1602179055506040518060a0016040528084815260200186815260200185815260200183815260200182815250600b60008973ffffffffffffffffffffffffffffffffffffffff1673ffffffffffffffffffffffffffffffffffffffff168152602001908152602001600020600001600088815260200190815260200160002060008201518160000155602082015181600101556040820151816002015560608201518160030190805190602001906124f5929190613d60565b506080820151816004019080519060200190612512929190613d60565b50905050600b60008873ffffffffffffffffffffffffffffffffffffffff1673ffffffffffffffffffffffffffffffffffffffff16815260200190815260200160002060010186908060018154018082558091505090600182039060005260206000200160009091929091909150555050505050505050565b8173ffffffffffffffffffffffffffffffffffffffff16600c600083815260200190815260200160002060009054906101000a900473ffffffffffffffffffffffffffffffffffffffff1673ffffffffffffffffffffffffffffffffffffffff161461262c576040517f08c379a000000000000000000000000000000000000000000000000000000000815260040161262390614dc1565b60405180910390fd5b600c600082815260200190815260200160002060006101000a81549073ffffffffffffffffffffffffffffffffffffffff0219169055600b60008373ffffffffffffffffffffffffffffffffffffffff1673ffffffffffffffffffffffffffffffffffffffff1681526020019081526020016000206000016000828152602001908152602001600020600080820160009055600182016000905560028201600090556003820160006126de9190613de0565b6004820160006126ee9190613de0565b5050600080905060008090505b6001600b60008673ffffffffffffffffffffffffffffffffffffffff1673ffffffffffffffffffffffffffffffffffffffff168152602001908152602001600020600101805490500381101561287657811561280c57600b60008573ffffffffffffffffffffffffffffffffffffffff1673ffffffffffffffffffffffffffffffffffffffff16815260200190815260200160002060010160018201815481106127a157fe5b9060005260206000200154600b60008673ffffffffffffffffffffffffffffffffffffffff1673ffffffffffffffffffffffffffffffffffffffff16815260200190815260200160002060010182815481106127f957fe5b9060005260206000200181905550612869565b82600b60008673ffffffffffffffffffffffffffffffffffffffff1673ffffffffffffffffffffffffffffffffffffffff168152602001908152602001600020600101828154811061285a57fe5b90600052602060002001541491505b80806001019150506126fb565b50600b60008473ffffffffffffffffffffffffffffffffffffffff1673ffffffffffffffffffffffffffffffffffffffff1681526020019081526020016000206001016001600b60008673ffffffffffffffffffffffffffffffffffffffff1673ffffffffffffffffffffffffffffffffffffffff16815260200190815260200160002060010180549050038154811061290c57fe5b9060005260206000200160009055600b60008473ffffffffffffffffffffffffffffffffffffffff1673ffffffffffffffffffffffffffffffffffffffff16815260200190815260200160002060010180548091906001900361296f9190613e28565b50505050565b60008282111561298457600080fd5b600082840390508091505092915050565b6000808284019050838110156129aa57600080fd5b8091505092915050565b600060016000848152602001908152602001600020600101541415612a0e576040517f08c379a0000000000000000000000000000000000000000000000000000000008152600401612a0590614d81565b60405180910390fd5b8015156001600084815260200190815260200160002060050160009054906101000a900460ff1615151415612a78576040517f08c379a0000000000000000000000000000000000000000000000000000000008152600401612a6f90614e21565b60405180910390fd5b806001600084815260200190815260200160002060050160006101000a81548160ff0219169083151502179055505050565b600073ffffffffffffffffffffffffffffffffffffffff168273ffffffffffffffffffffffffffffffffffffffff161415612ae457600080fd5b612af98160055461299590919063ffffffff16565b600581905550612b5181600360008573ffffffffffffffffffffffffffffffffffffffff1673ffffffffffffffffffffffffffffffffffffffff1681526020019081526020016000205461299590919063ffffffff16565b600360008473ffffffffffffffffffffffffffffffffffffffff1673ffffffffffffffffffffffffffffffffffffffff168152602001908152602001600020819055508173ffffffffffffffffffffffffffffffffffffffff16600073ffffffffffffffffffffffffffffffffffffffff167fddf252ad1be2c89b69c2b068fc378daa952ba7f163c4a11628f55a4df523b3ef83604051612bf29190614ec3565b60405180910390a35050565b600073ffffffffffffffffffffffffffffffffffffffff168273ffffffffffffffffffffffffffffffffffffffff161415612c3857600080fd5b612c4d8160055461297590919063ffffffff16565b600581905550612ca581600360008573ffffffffffffffffffffffffffffffffffffffff1673ffffffffffffffffffffffffffffffffffffffff1681526020019081526020016000205461297590919063ffffffff16565b600360008473ffffffffffffffffffffffffffffffffffffffff1673ffffffffffffffffffffffffffffffffffffffff16815260200190815260200160002081905550600073ffffffffffffffffffffffffffffffffffffffff168273ffffffffffffffffffffffffffffffffffffffff167fddf252ad1be2c89b69c2b068fc378daa952ba7f163c4a11628f55a4df523b3ef83604051612d469190614ec3565b60405180910390a35050565b612d5c8282612bfe565b612df58233612df084600460008873ffffffffffffffffffffffffffffffffffffffff1673ffffffffffffffffffffffffffffffffffffffff16815260200190815260200160002060003373ffffffffffffffffffffffffffffffffffffffff1673ffffffffffffffffffffffffffffffffffffffff1681526020019081526020016000205461297590919063ffffffff16565b6120eb565b5050565b612e0d8160096135e290919063ffffffff16565b8073ffffffffffffffffffffffffffffffffffffffff167f6ae172837ea30b801fbfcdd4108aa1d5bf8ff775444fd70256b44e6bf3dfc3f660405160405180910390a250565b612e6781600961368e90919063ffffffff16565b8073ffffffffffffffffffffffffffffffffffffffff167fe94479a9f7e1952cc78f2d6baab678adc1b772d936c6583def489e524cb6669260405160405180910390a250565b6000600160008481526020019081526020016000206001015414612f06576040517f08c379a0000000000000000000000000000000000000000000000000000000008152600401612efd90614de1565b60405180910390fd5b612f0e613e54565b612f1782613739565b90506060612f2482613767565b90506000612f4582600081518110612f3857fe5b602002602001015161383e565b9050428111612f89576040517f08c379a0000000000000000000000000000000000000000000000000000000008152600401612f8090614da1565b60405180910390fd5b6000612fa883600181518110612f9b57fe5b602002602001015161383e565b90506000612fc984600281518110612fbc57fe5b602002602001015161383e565b90506000612fea85600381518110612fdd57fe5b602002602001015161383e565b9050606061300b86600481518110612ffe57fe5b6020026020010151613767565b905060008151905060008090505b8181101561318657606061303f84838151811061303257fe5b6020026020010151613767565b905060016000888152602001908152602001600020600401604051806060016040528061307f8460008151811061307257fe5b602002602001015161383e565b81526020016130a18460018151811061309457fe5b60200260200101516138af565b73ffffffffffffffffffffffffffffffffffffffff1681526020016130d9846002815181106130cc57fe5b60200260200101516138d2565b815250908060018154018082558091505090600182039060005260206000209060030201600090919290919091506000820151816000015560208201518160010160006101000a81548173ffffffffffffffffffffffffffffffffffffffff021916908373ffffffffffffffffffffffffffffffffffffffff1602179055506040820151816002019080519060200190613174929190613d60565b50505050508080600101915050613019565b506131a56001600087815260200190815260200160002060040161395e565b856001600087815260200190815260200160002060000181905550846001600087815260200190815260200160002060010181905550836001600087815260200190815260200160002060020181905550826001600087815260200190815260200160002060030181905550600180600087815260200190815260200160002060050160006101000a81548160ff021916908315150217905550600285908060018154018082558091505090600182039060005260206000200160009091929091909150555050505050505050505050565b60008073ffffffffffffffffffffffffffffffffffffffff168273ffffffffffffffffffffffffffffffffffffffff1614156132b257600080fd5b8260000160008373ffffffffffffffffffffffffffffffffffffffff1673ffffffffffffffffffffffffffffffffffffffff16815260200190815260200160002060009054906101000a900460ff16905092915050565b600073ffffffffffffffffffffffffffffffffffffffff168173ffffffffffffffffffffffffffffffffffffffff16141561334357600080fd5b8073ffffffffffffffffffffffffffffffffffffffff166000809054906101000a900473ffffffffffffffffffffffffffffffffffffffff1673ffffffffffffffffffffffffffffffffffffffff167f8be0079c531659141344cd1fd0a4f28419497f9722a3daafe3b4186f6b6457e060405160405180910390a3806000806101000a81548173ffffffffffffffffffffffffffffffffffffffff021916908373ffffffffffffffffffffffffffffffffffffffff16021790555050565b600073ffffffffffffffffffffffffffffffffffffffff168273ffffffffffffffffffffffffffffffffffffffff16141561343b57600080fd5b61348d81600360008673ffffffffffffffffffffffffffffffffffffffff1673ffffffffffffffffffffffffffffffffffffffff1681526020019081526020016000205461297590919063ffffffff16565b600360008573ffffffffffffffffffffffffffffffffffffffff1673ffffffffffffffffffffffffffffffffffffffff1681526020019081526020016000208190555061352281600360008573ffffffffffffffffffffffffffffffffffffffff1673ffffffffffffffffffffffffffffffffffffffff1681526020019081526020016000205461299590919063ffffffff16565b600360008473ffffffffffffffffffffffffffffffffffffffff1673ffffffffffffffffffffffffffffffffffffffff168152602001908152602001600020819055508173ffffffffffffffffffffffffffffffffffffffff168373ffffffffffffffffffffffffffffffffffffffff167fddf252ad1be2c89b69c2b068fc378daa952ba7f163c4a11628f55a4df523b3ef836040516135c29190614ec3565b60405180910390a3505050565b600080823b905060008111915050919050565b600073ffffffffffffffffffffffffffffffffffffffff168173ffffffffffffffffffffffffffffffffffffffff16141561361c57600080fd5b6136268282613277565b1561363057600080fd5b60018260000160008373ffffffffffffffffffffffffffffffffffffffff1673ffffffffffffffffffffffffffffffffffffffff16815260200190815260200160002060006101000a81548160ff0219169083151502179055505050565b600073ffffffffffffffffffffffffffffffffffffffff168173ffffffffffffffffffffffffffffffffffffffff1614156136c857600080fd5b6136d28282613277565b6136db57600080fd5b60008260000160008373ffffffffffffffffffffffffffffffffffffffff1673ffffffffffffffffffffffffffffffffffffffff16815260200190815260200160002060006101000a81548160ff0219169083151502179055505050565b613741613e54565b600060208301905060405180604001604052808451815260200182815250915050919050565b606061377282613a39565b61377b57600080fd5b600061378683613a87565b9050806040519080825280602002602001820160405280156137c257816020015b6137af613e6e565b8152602001906001900390816137a75790505b50915060006137d48460200151613af8565b8460200151019050600080600090505b83811015613835576137f583613b81565b915060405180604001604052808381526020018481525085828151811061381857fe5b6020026020010181905250818301925080806001019150506137e4565b50505050919050565b600080826000015111801561385857506021826000015111155b61386157600080fd5b60006138708360200151613af8565b905060008184600001510390506000808386602001510190508051915060208310156138a357826020036101000a820491505b81945050505050919050565b600060158260000151146138c257600080fd5b6138cb8261383e565b9050919050565b606060008260000151116138e557600080fd5b60006138f48360200151613af8565b905060008184600001510390506060816040519080825280601f01601f1916602001820160405280156139365781602001600182028038833980820191505090505b5090506000816020019050613952848760200151018285613c34565b81945050505050919050565b60008180549050116139a5576040517f08c379a000000000000000000000000000000000000000000000000000000000815260040161399c90614d21565b60405180910390fd5b600081805490509050600080905060008090505b828110156139f0578381815481106139cd57fe5b9060005260206000209060030201600001548201915080806001019150506139b9565b5060648114613a34576040517f08c379a0000000000000000000000000000000000000000000000000000000008152600401613a2b90614e61565b60405180910390fd5b505050565b60008082600001511415613a505760009050613a82565b60008083602001519050805160001a915060c060ff168260ff161015613a7b57600092505050613a82565b6001925050505b919050565b60008082600001511415613a9e5760009050613af3565b60008090506000613ab28460200151613af8565b84602001510190506000846000015185602001510190505b80821015613aec57613adb82613b81565b820191508280600101935050613aca565b8293505050505b919050565b600080825160001a9050608060ff16811015613b18576000915050613b7c565b60b860ff16811080613b3d575060c060ff168110158015613b3c575060f860ff1681105b5b15613b4c576001915050613b7c565b60c060ff16811015613b6c5760018060b80360ff16820301915050613b7c565b60018060f80360ff168203019150505b919050565b600080825160001a9050608060ff16811015613ba1576001915050613c2f565b60b860ff16811015613bbf576001608060ff16820301915050613c2f565b60c060ff16811015613bef5760b78103600184019350806020036101000a84510460018201810193505050613c2d565b60f860ff16811015613c0d57600160c060ff16820301915050613c2f565b60f78103600184019350806020036101000a845104600182018101935050505b505b919050565b6000811415613c4257613c96565b5b602060ff168110613c725782518252602060ff1683019250602060ff1682019150602060ff1681039050613c43565b6000600182602060ff16036101000a03905080198451168184511681811785525050505b505050565b6040518060c0016040528060008152602001600081526020016000815260200160008152602001606081526020016000151581525090565b6040518060a0016040528060008152602001600081526020016000815260200160608152602001606081525090565b6040518060a0016040528060008152602001600081526020016000815260200160608152602001606081525090565b6040518060a0016040528060008152602001600081526020016000815260200160608152602001606081525090565b828054600181600116156101000203166002900490600052602060002090601f016020900481019282601f10613da157805160ff1916838001178555613dcf565b82800160010185558215613dcf579182015b82811115613dce578251825591602001919060010190613db3565b5b509050613ddc9190613e88565b5090565b50805460018160011615610100020316600290046000825580601f10613e065750613e25565b601f016020900490600052602060002090810190613e249190613e88565b5b50565b815481835581811115613e4f57818360005260206000209182019101613e4e9190613ead565b5b505050565b604051806040016040528060008152602001600081525090565b604051806040016040528060008152602001600081525090565b613eaa91905b80821115613ea6576000816000905550600101613e8e565b5090565b90565b613ecf91905b80821115613ecb576000816000905550600101613eb3565b5090565b90565b6000613ede82356150e3565b905092915050565b6000613ef282356150f5565b905092915050565b600082601f830112613f0b57600080fd5b8135613f1e613f1982614f26565b614ef9565b91508082526020830160208301858383011115613f3a57600080fd5b613f45838284615129565b50505092915050565b600082601f830112613f5f57600080fd5b8135613f72613f6d82614f52565b614ef9565b91508082526020830160208301858383011115613f8e57600080fd5b613f99838284615129565b50505092915050565b6000613fae823561511f565b905092915050565b600060208284031215613fc857600080fd5b6000613fd684828501613ed2565b91505092915050565b60008060408385031215613ff257600080fd5b600061400085828601613ed2565b925050602061401185828601613ed2565b9150509250929050565b60008060006060848603121561403057600080fd5b600061403e86828701613ed2565b935050602061404f86828701613ed2565b925050604061406086828701613fa2565b9150509250925092565b6000806040838503121561407d57600080fd5b600061408b85828601613ed2565b925050602061409c85828601613ee6565b9150509250929050565b600080604083850312156140b957600080fd5b60006140c785828601613ed2565b92505060206140d885828601613fa2565b9150509250929050565b6000806000606084860312156140f757600080fd5b600061410586828701613ed2565b935050602061411686828701613fa2565b925050604061412786828701613fa2565b9150509250925092565b60006020828403121561414357600080fd5b600061415184828501613ee6565b91505092915050565b600080600080600060a0868803121561417257600080fd5b600061418088828901613ee6565b955050602061419188828901613fa2565b94505060406141a288828901613fa2565b93505060606141b388828901613fa2565b925050608086013567ffffffffffffffff8111156141d057600080fd5b6141dc88828901613f4e565b9150509295509295909350565b60008060008060008060c0878903121561420257600080fd5b600061421089828a01613ee6565b965050602061422189828a01613fa2565b955050604061423289828a01613fa2565b945050606061424389828a01613fa2565b935050608087013567ffffffffffffffff81111561426057600080fd5b61426c89828a01613f4e565b92505060a087013567ffffffffffffffff81111561428957600080fd5b61429589828a01613f4e565b9150509295509295509295565b6000602082840312156142b457600080fd5b60006142c284828501613fa2565b91505092915050565b600080604083850312156142de57600080fd5b60006142ec85828601613fa2565b925050602083013567ffffffffffffffff81111561430957600080fd5b61431585828601613efa565b9150509250929050565b6000806040838503121561433257600080fd5b600061434085828601613fa2565b925050602061435185828601613fa2565b9150509250929050565b6000806000806080858703121561437157600080fd5b600061437f87828801613fa2565b945050602061439087828801613fa2565b93505060406143a187828801613fa2565b925050606085013567ffffffffffffffff8111156143be57600080fd5b6143ca87828801613f4e565b91505092959194509250565b600080600080600060a086880312156143ee57600080fd5b60006143fc88828901613fa2565b955050602061440d88828901613fa2565b945050604061441e88828901613fa2565b935050606086013567ffffffffffffffff81111561443b57600080fd5b61444788828901613f4e565b925050608086013567ffffffffffffffff81111561446457600080fd5b61447088828901613f4e565b9150509295509295909350565b60006144898383614a2c565b905092915050565b600061449d8383614aa9565b905092915050565b60006144b18383614af9565b905092915050565b60006144c58383614bff565b60208301905092915050565b6144da8161508e565b82525050565b6144e98161508e565b82525050565b60006144fa82614fb2565b6145048185615028565b93508360208202850161451685614f7e565b60005b8481101561454f57838303885261453183835161447d565b925061453c82614ff4565b9150602088019750600181019050614519565b508196508694505050505092915050565b600061456b82614fbd565b6145758185615039565b93508360208202850161458785614f8b565b60005b848110156145c05783830388526145a2838351614491565b92506145ad82615001565b915060208801975060018101905061458a565b508196508694505050505092915050565b60006145dc82614fc8565b6145e6818561504a565b9350836020820285016145f885614f98565b60005b848110156146315783830388526146138383516144a5565b925061461e8261500e565b91506020880197506001810190506145fb565b508196508694505050505092915050565b600061464d82614fd3565b614657818561505b565b935061466283614fa5565b60005b82811015614690576146788683516144b9565b95506146838261501b565b9150600181019050614665565b50849250505092915050565b6146a5816150a0565b82525050565b6146b4816150a0565b82525050565b60006146c582614fe9565b6146cf818561507d565b93506146df818560208601615138565b6146e88161516b565b840191505092915050565b60006146fe82614fde565b614708818561506c565b9350614718818560208601615138565b6147218161516b565b840191505092915050565b600061473960098361507d565b91507f6e6f742072756c657300000000000000000000000000000000000000000000006000830152602082019050919050565b600061477960098361507d565b91507f6e6f745f657869737400000000000000000000000000000000000000000000006000830152602082019050919050565b60006147b9600b8361507d565b91507f6e6f7420616c6c6f7765640000000000000000000000000000000000000000006000830152602082019050919050565b60006147f960098361507d565b91507f6e6f7420657869737400000000000000000000000000000000000000000000006000830152602082019050919050565b600061483960078361507d565b91507f65787069726564000000000000000000000000000000000000000000000000006000830152602082019050919050565b6000614879600a8361507d565b91507f73616d65206f776e6572000000000000000000000000000000000000000000006000830152602082019050919050565b60006148b960058361507d565b91507f65786973740000000000000000000000000000000000000000000000000000006000830152602082019050919050565b60006148f960108361507d565b91507f696e636f727265637420616d6f756e74000000000000000000000000000000006000830152602082019050919050565b6000614939600b8361507d565b91507f73616d65207374617475730000000000000000000000000000000000000000006000830152602082019050919050565b6000614979600a8361507d565b91507f6475706c696361746564000000000000000000000000000000000000000000006000830152602082019050919050565b60006149b960168361507d565b91507f616c6c20616d6f756e74206469737472696275746564000000000000000000006000830152602082019050919050565b60006149f9600f8361507d565b91507f6475706c696361746564206861736800000000000000000000000000000000006000830152602082019050919050565b600060a083016000830151614a446000860182614bff565b506020830151614a576020860182614bff565b506040830151614a6a6040860182614bff565b5060608301518482036060860152614a8282826146f3565b91505060808301518482036080860152614a9c82826146f3565b9150508091505092915050565b6000606083016000830151614ac16000860182614bff565b506020830151614ad460208601826144d1565b5060408301518482036040860152614aec82826146f3565b9150508091505092915050565b600060a083016000830151614b116000860182614bff565b506020830151614b246020860182614bff565b506040830151614b376040860182614bff565b5060608301518482036060860152614b4f82826146f3565b91505060808301518482036080860152614b6982826146f3565b9150508091505092915050565b600060c083016000830151614b8e6000860182614bff565b506020830151614ba16020860182614bff565b506040830151614bb46040860182614bff565b506060830151614bc76060860182614bff565b5060808301518482036080860152614bdf8282614560565b91505060a0830151614bf460a086018261469c565b508091505092915050565b614c08816150cc565b82525050565b614c17816150cc565b82525050565b614c26816150d6565b82525050565b6000602082019050614c4160008301846144e0565b92915050565b6000606082019050614c5c60008301866144e0565b614c696020830185614c0e565b614c766040830184614c0e565b949350505050565b60006020820190508181036000830152614c9881846144ef565b905092915050565b60006020820190508181036000830152614cba81846145d1565b905092915050565b60006020820190508181036000830152614cdc8184614642565b905092915050565b6000602082019050614cf960008301846146ab565b92915050565b60006020820190508181036000830152614d1981846146ba565b905092915050565b60006020820190508181036000830152614d3a8161472c565b9050919050565b60006020820190508181036000830152614d5a8161476c565b9050919050565b60006020820190508181036000830152614d7a816147ac565b9050919050565b60006020820190508181036000830152614d9a816147ec565b9050919050565b60006020820190508181036000830152614dba8161482c565b9050919050565b60006020820190508181036000830152614dda8161486c565b9050919050565b60006020820190508181036000830152614dfa816148ac565b9050919050565b60006020820190508181036000830152614e1a816148ec565b9050919050565b60006020820190508181036000830152614e3a8161492c565b9050919050565b60006020820190508181036000830152614e5a8161496c565b9050919050565b60006020820190508181036000830152614e7a816149ac565b9050919050565b60006020820190508181036000830152614e9a816149ec565b9050919050565b60006020820190508181036000830152614ebb8184614b76565b905092915050565b6000602082019050614ed86000830184614c0e565b92915050565b6000602082019050614ef36000830184614c1d565b92915050565b6000604051905081810181811067ffffffffffffffff82111715614f1c57600080fd5b8060405250919050565b600067ffffffffffffffff821115614f3d57600080fd5b601f19601f8301169050602081019050919050565b600067ffffffffffffffff821115614f6957600080fd5b601f19601f8301169050602081019050919050565b6000602082019050919050565b6000602082019050919050565b6000602082019050919050565b6000602082019050919050565b600081519050919050565b600081519050919050565b600081519050919050565b600081519050919050565b600081519050919050565b600081519050919050565b6000602082019050919050565b6000602082019050919050565b6000602082019050919050565b6000602082019050919050565b600082825260208201905092915050565b600082825260208201905092915050565b600082825260208201905092915050565b600082825260208201905092915050565b600082825260208201905092915050565b600082825260208201905092915050565b6000615099826150ac565b9050919050565b60008115159050919050565b600073ffffffffffffffffffffffffffffffffffffffff82169050919050565b6000819050919050565b600060ff82169050919050565b60006150ee826150ff565b9050919050565b6000819050919050565b600073ffffffffffffffffffffffffffffffffffffffff82169050919050565b6000819050919050565b82818337600083830152505050565b60005b8381101561515657808201518184015260208101905061513b565b83811115615165576000848401525b50505050565b6000601f19601f830116905091905056fea265627a7a72305820eb94b836ebefdd6e870a01f4a3d66d939acbfc08434a329c7d6ab21a162272216c6578706572696d656e74616cf50037",
  "source": "pragma solidity ^0.5.2;\npragma experimental ABIEncoderV2;\n\nimport \"./Assets.sol\";\n\ncontract Devices  is Assets {\n\n  struct UserDevices {   \n    mapping (bytes32 => Device) devices;\n    bytes32[] deviceArray;\n  } \n\n  struct Device {   \n    uint256 expirationDate;\n    uint256 assetId;\n    uint256 schemaId;\n    string dappId;\n    string description;\n  }\n\n  uint256 constant private PAGE_SIZE = 10;\n\n  mapping (address => UserDevices) private userDevices_;\n\n  mapping (bytes32 => address) private deviceHashes_;\n    \n  function isAllowed(bytes32 _deviceHash) public view returns (bool) {\n    bool allowed = userDevices_[deviceHashes_[_deviceHash]].devices[_deviceHash].expirationDate > now ;\n    return allowed;\n  }\n\n  function isAllowedForAddress(address _target, bytes32 _deviceHash) public view returns (bool) {\n    bool allowed =  (deviceHashes_[_deviceHash] == _target) && (isAllowed(_deviceHash));\n    return allowed;\n  }\n   \n  function getDevicesPageCount() public view returns (uint256) {\n    return userDevices_[msg.sender].deviceArray.length / PAGE_SIZE;\n  }\n\n  function getDevices(uint256 _page) public view returns (Device[] memory) {\n    Device[] memory devicesPage = new Device[](PAGE_SIZE); \n    uint256 transferIndex = PAGE_SIZE * _page - PAGE_SIZE;\n    bytes32[] memory devices = userDevices_[msg.sender].deviceArray;\n\n    if (devices.length == 0 || transferIndex > devices.length - 1) {\n      Device[] memory empty;\n      return empty;\n    }\n   \n    uint256 returnCounter = 0;\n\n    for (transferIndex; transferIndex < PAGE_SIZE * _page; transferIndex++) {\n      if (transferIndex < devices.length) {\n        devicesPage[returnCounter] = userDevices_[msg.sender].devices[devices[transferIndex]];\n      }\n      returnCounter++;\n    }\n    return devicesPage;\n  }\n\n  function getAddress(bytes32 _deviceHash) public view returns (address) {\n    bool allowed = isAllowed(_deviceHash);\n    address ownerAddress;\n    if (allowed) {\n      ownerAddress = deviceHashes_[_deviceHash];\n    } \n    return ownerAddress;\n  }\n\n  function handshake(bytes32 _deviceHash, uint256 _assetId, uint256 _schemaId, uint256 _lifeTime, string memory _dappId) public {\n    _handshake(msg.sender, _deviceHash, _assetId, _schemaId, _lifeTime, _dappId, \"\");\n  }\n\n  function handshake(bytes32 _deviceHash, uint256 _assetId, uint256 _schemaId, uint256 _lifeTime, string memory _dappId, string memory _description) public {\n    _handshake(msg.sender, _deviceHash, _assetId, _schemaId, _lifeTime, _dappId, _description);\n  }\n\n  function removeDevice(bytes32 _deviceHash) public {\n    _removeDevice(msg.sender, _deviceHash);\n  }\n\n    \n  function _handshake(address _owner, bytes32 _deviceHash, uint256 _assetId, uint256 _schemaId, uint256 _lifeTime, string memory _dappId, string memory _description) internal {\n\n    require(Assets._checkOwnership(_owner, _assetId, _schemaId),\"not allowed\");\n\n    if ((deviceHashes_[_deviceHash] != address(0)) && (!isAllowed(_deviceHash))) {\n      _removeDevice(deviceHashes_[_deviceHash], _deviceHash);\n    }\n\n    require(deviceHashes_[_deviceHash] == address(0), \"duplicated hash\");\n    deviceHashes_[_deviceHash] = _owner; \n    userDevices_[_owner].devices[_deviceHash] =  Device(_lifeTime, _assetId, _schemaId, _dappId, _description);\n    userDevices_[_owner].deviceArray.push(_deviceHash);\n  }\n\n  function _removeDevice(address _owner, bytes32 _deviceHash) internal {\n    require(deviceHashes_[_deviceHash] == _owner, \"same owner\");\n    delete deviceHashes_[_deviceHash];\n    delete userDevices_[_owner].devices[_deviceHash];\n    bool found=false;\n    for (uint i = 0; i < userDevices_[_owner].deviceArray.length-1;i++){\n      if(found){\n        userDevices_[_owner].deviceArray[i] = userDevices_[_owner].deviceArray[i+1];\n      } else {\n        found = userDevices_[_owner].deviceArray[i] == _deviceHash;\n      }\n    }\n    delete userDevices_[_owner].deviceArray[userDevices_[_owner].deviceArray.length-1];\n    userDevices_[_owner].deviceArray.length--;\n  }\n\n}",
  "sourcePath": "/home/jordi/ws/jordiescudero/bloomen-wallet/bloomen-wallet-truffle/contracts/bloomen/Devices.sol",
  "compiler": {
    "name": "solc",
    "version": "0.5.7+commit.6da8b019.Emscripten.clang"
  },
  "schemaVersion": "3.0.6",
  "updatedAt": "2019-04-16T14:50:38.977Z",
  "devdoc": {
    "methods": {
      "allowance(address,address)": {
        "details": "Function to check the amount of tokens that an owner allowed to a spender.",
        "params": {
          "owner": "address The address which owns the funds.",
          "spender": "address The address which will spend the funds."
        },
        "return": "A uint256 specifying the amount of tokens still available for the spender."
      },
      "approve(address,uint256)": {
        "details": "Approve the passed address to spend the specified amount of tokens on behalf of msg.sender. Beware that changing an allowance with this method brings the risk that someone may use both the old and the new allowance by unfortunate transaction ordering. One possible solution to mitigate this race condition is to first reduce the spender's allowance to 0 and set the desired value afterwards: https://github.com/ethereum/EIPs/issues/20#issuecomment-263524729",
        "params": {
          "spender": "The address which will spend the funds.",
          "value": "The amount of tokens to be spent."
        }
      },
      "balanceOf(address)": {
        "details": "Gets the balance of the specified address.",
        "params": {
          "owner": "The address to query the balance of."
        },
        "return": "A uint256 representing the amount owned by the passed address."
      },
      "burn(uint256)": {
        "details": "Burns a specific amount of tokens.",
        "params": {
          "value": "The amount of token to be burned."
        }
      },
      "burnFrom(address,uint256)": {
        "details": "Burns a specific amount of tokens from the target address and decrements allowance",
        "params": {
          "from": "address The account whose tokens will be burned.",
          "value": "uint256 The amount of token to be burned."
        }
      },
      "decimals()": {
        "return": "the number of decimals of the token."
      },
      "decreaseAllowance(address,uint256)": {
        "details": "Decrease the amount of tokens that an owner allowed to a spender. approve should be called when _allowed[msg.sender][spender] == 0. To decrement allowed value is better to use this function to avoid 2 calls (and wait until the first transaction is mined) From MonolithDAO Token.sol Emits an Approval event.",
        "params": {
          "spender": "The address which will spend the funds.",
          "subtractedValue": "The amount of tokens to decrease the allowance by."
        }
      },
      "increaseAllowance(address,uint256)": {
        "details": "Increase the amount of tokens that an owner allowed to a spender. approve should be called when _allowed[msg.sender][spender] == 0. To increment allowed value is better to use this function to avoid 2 calls (and wait until the first transaction is mined) From MonolithDAO Token.sol Emits an Approval event.",
        "params": {
          "addedValue": "The amount of tokens to increase the allowance by.",
          "spender": "The address which will spend the funds."
        }
      },
      "isOwner()": {
        "return": "true if `msg.sender` is the owner of the contract."
      },
      "mint(address,uint256)": {
        "details": "Function to mint tokens",
        "params": {
          "to": "The address that will receive the minted tokens.",
          "value": "The amount of tokens to mint."
        },
        "return": "A boolean that indicates if the operation was successful."
      },
      "name()": {
        "return": "the name of the token."
      },
      "owner()": {
        "return": "the address of the owner."
      },
      "renounceOwnership()": {
        "details": "Allows the current owner to relinquish control of the contract. It will not be possible to call the functions with the `onlyOwner` modifier anymore."
      },
      "symbol()": {
        "return": "the symbol of the token."
      },
      "totalSupply()": {
        "details": "Total number of tokens in existence"
      },
      "transferFrom(address,address,uint256)": {
        "details": "Transfer tokens from one address to another. Note that while this function emits an Approval event, this is not required as per the specification, and other compliant implementations may not emit the event.",
        "params": {
          "from": "address The address which you want to send tokens from",
          "to": "address The address which you want to transfer to",
          "value": "uint256 the amount of tokens to be transferred"
        }
      },
      "transferOwnership(address)": {
        "details": "Allows the current owner to transfer control of the contract to a newOwner.",
        "params": {
          "newOwner": "The address to transfer ownership to."
        }
      }
    }
  },
  "userdoc": {
    "methods": {
      "renounceOwnership()": {
        "notice": "Renouncing ownership will leave the contract without an owner, thereby removing any functionality that is only available to the owner."
      }
    }
  }
}