{
  "contractName": "Devices",
  "abi": [
    {
      "constant": false,
      "inputs": [],
      "name": "renounceOwnership",
      "outputs": [],
      "payable": false,
      "stateMutability": "nonpayable",
      "type": "function",
      "signature": "0x715018a6"
    },
    {
      "constant": true,
      "inputs": [],
      "name": "owner",
      "outputs": [
        {
          "name": "",
          "type": "address"
        }
      ],
      "payable": false,
      "stateMutability": "view",
      "type": "function",
      "signature": "0x8da5cb5b"
    },
    {
      "constant": true,
      "inputs": [],
      "name": "isOwner",
      "outputs": [
        {
          "name": "",
          "type": "bool"
        }
      ],
      "payable": false,
      "stateMutability": "view",
      "type": "function",
      "signature": "0x8f32d59b"
    },
    {
      "constant": false,
      "inputs": [
        {
          "name": "newOwner",
          "type": "address"
        }
      ],
      "name": "transferOwnership",
      "outputs": [],
      "payable": false,
      "stateMutability": "nonpayable",
      "type": "function",
      "signature": "0xf2fde38b"
    },
    {
      "inputs": [
        {
          "name": "_assetsAddr",
          "type": "address"
        }
      ],
      "payable": false,
      "stateMutability": "nonpayable",
      "type": "constructor",
      "signature": "constructor"
    },
    {
      "anonymous": false,
      "inputs": [
        {
          "indexed": true,
          "name": "previousOwner",
          "type": "address"
        },
        {
          "indexed": true,
          "name": "newOwner",
          "type": "address"
        }
      ],
      "name": "OwnershipTransferred",
      "type": "event",
      "signature": "0x8be0079c531659141344cd1fd0a4f28419497f9722a3daafe3b4186f6b6457e0"
    },
    {
      "constant": true,
      "inputs": [
        {
          "name": "_deviceHash",
          "type": "bytes32"
        }
      ],
      "name": "isAllowed",
      "outputs": [
        {
          "name": "",
          "type": "bool"
        }
      ],
      "payable": false,
      "stateMutability": "view",
      "type": "function",
      "signature": "0x78755295"
    },
    {
      "constant": true,
      "inputs": [
        {
          "name": "_target",
          "type": "address"
        },
        {
          "name": "_deviceHash",
          "type": "bytes32"
        }
      ],
      "name": "isAllowedForAddress",
      "outputs": [
        {
          "name": "",
          "type": "bool"
        }
      ],
      "payable": false,
      "stateMutability": "view",
      "type": "function",
      "signature": "0x1d841899"
    },
    {
      "constant": true,
      "inputs": [],
      "name": "getDevicesPageCount",
      "outputs": [
        {
          "name": "",
          "type": "uint256"
        }
      ],
      "payable": false,
      "stateMutability": "view",
      "type": "function",
      "signature": "0xc8c2eb66"
    },
    {
      "constant": true,
      "inputs": [
        {
          "name": "_page",
          "type": "uint256"
        }
      ],
      "name": "getDevices",
      "outputs": [
        {
          "components": [
            {
              "name": "expirationDate",
              "type": "uint256"
            },
            {
              "name": "assetId",
              "type": "uint256"
            },
            {
              "name": "schemaId",
              "type": "uint256"
            },
            {
              "name": "dappId",
              "type": "string"
            },
            {
              "name": "description",
              "type": "string"
            }
          ],
          "name": "",
          "type": "tuple[]"
        }
      ],
      "payable": false,
      "stateMutability": "view",
      "type": "function",
      "signature": "0x6d9db7ed"
    },
    {
      "constant": true,
      "inputs": [
        {
          "name": "_deviceHash",
          "type": "bytes32"
        }
      ],
      "name": "getAddress",
      "outputs": [
        {
          "name": "",
          "type": "address"
        }
      ],
      "payable": false,
      "stateMutability": "view",
      "type": "function",
      "signature": "0x21f8a721"
    },
    {
      "constant": false,
      "inputs": [
        {
          "name": "_deviceHash",
          "type": "bytes32"
        },
        {
          "name": "_assetId",
          "type": "uint256"
        },
        {
          "name": "_schemaId",
          "type": "uint256"
        },
        {
          "name": "_lifeTime",
          "type": "uint256"
        },
        {
          "name": "_dappId",
          "type": "string"
        }
      ],
      "name": "handshake",
      "outputs": [],
      "payable": false,
      "stateMutability": "nonpayable",
      "type": "function",
      "signature": "0x132c6aa4"
    },
    {
      "constant": false,
      "inputs": [
        {
          "name": "_deviceHash",
          "type": "bytes32"
        },
        {
          "name": "_assetId",
          "type": "uint256"
        },
        {
          "name": "_schemaId",
          "type": "uint256"
        },
        {
          "name": "_lifeTime",
          "type": "uint256"
        },
        {
          "name": "_dappId",
          "type": "string"
        },
        {
          "name": "_description",
          "type": "string"
        }
      ],
      "name": "handshake",
      "outputs": [],
      "payable": false,
      "stateMutability": "nonpayable",
      "type": "function",
      "signature": "0x42b4bed4"
    },
    {
      "constant": false,
      "inputs": [
        {
          "name": "_deviceHash",
          "type": "bytes32"
        }
      ],
      "name": "removeDevice",
      "outputs": [],
      "payable": false,
      "stateMutability": "nonpayable",
      "type": "function",
      "signature": "0x1d266200"
    }
  ],
  "bytecode": "0x60806040523480156200001157600080fd5b5060405160208062001d1383398101806040526200003391908101906200014d565b336000806101000a81548173ffffffffffffffffffffffffffffffffffffffff021916908373ffffffffffffffffffffffffffffffffffffffff1602179055506000809054906101000a900473ffffffffffffffffffffffffffffffffffffffff1673ffffffffffffffffffffffffffffffffffffffff16600073ffffffffffffffffffffffffffffffffffffffff167f8be0079c531659141344cd1fd0a4f28419497f9722a3daafe3b4186f6b6457e060405160405180910390a380600360006101000a81548173ffffffffffffffffffffffffffffffffffffffff021916908373ffffffffffffffffffffffffffffffffffffffff16021790555050620001ad565b600062000145825162000179565b905092915050565b6000602082840312156200016057600080fd5b6000620001708482850162000137565b91505092915050565b600062000186826200018d565b9050919050565b600073ffffffffffffffffffffffffffffffffffffffff82169050919050565b611b5680620001bd6000396000f3fe608060405234801561001057600080fd5b50600436106100d1576000357c010000000000000000000000000000000000000000000000000000000090048063715018a61161008e578063715018a6146101ba57806378755295146101c45780638da5cb5b146101f45780638f32d59b14610212578063c8c2eb6614610230578063f2fde38b1461024e576100d1565b8063132c6aa4146100d65780631d266200146100f25780631d8418991461010e57806321f8a7211461013e57806342b4bed41461016e5780636d9db7ed1461018a575b600080fd5b6100f060048036036100eb91908101906114c1565b61026a565b005b61010c60048036036101079190810190611498565b61028f565b005b61012860048036036101239190810190611433565b61029c565b60405161013591906118dd565b60405180910390f35b61015860048036036101539190810190611498565b61031e565b6040516101659190611869565b60405180910390f35b61018860048036036101839190810190611550565b610375565b005b6101a4600480360361019f9190810190611609565b61038c565b6040516101b191906118bb565b60405180910390f35b6101c26106ba565b005b6101de60048036036101d99190810190611498565b61078a565b6040516101eb91906118dd565b60405180910390f35b6101fc610824565b6040516102099190611869565b60405180910390f35b61021a61084d565b60405161022791906118dd565b60405180910390f35b6102386108a4565b6040516102459190611958565b60405180910390f35b6102686004803603610263919081019061140a565b6108fb565b005b61028833868686868660405180602001604052806000815250610918565b5050505050565b6102993382610d19565b50565b6000808373ffffffffffffffffffffffffffffffffffffffff166002600085815260200190815260200160002060009054906101000a900473ffffffffffffffffffffffffffffffffffffffff1673ffffffffffffffffffffffffffffffffffffffff1614801561031257506103118361078a565b5b90508091505092915050565b60008061032a8361078a565b90506000811561036b576002600085815260200190815260200160002060009054906101000a900473ffffffffffffffffffffffffffffffffffffffff1690505b8092505050919050565b61038433878787878787610918565b505050505050565b606080600a6040519080825280602002602001820160405280156103ca57816020015b6103b76111f9565b8152602001906001900390816103af5790505b5090506000600a84600a020390506060600160003373ffffffffffffffffffffffffffffffffffffffff1673ffffffffffffffffffffffffffffffffffffffff16815260200190815260200160002060010180548060200260200160405190810160405280929190818152602001828054801561046657602002820191906000526020600020905b815481526020019060010190808311610452575b505050505090506000815114806104805750600181510382115b15610493576060809450505050506106b5565b60008090505b85600a028310156106ad57815183101561069857600160003373ffffffffffffffffffffffffffffffffffffffff1673ffffffffffffffffffffffffffffffffffffffff16815260200190815260200160002060000160008385815181106104fd57fe5b602002602001015181526020019081526020016000206040518060a0016040529081600082015481526020016001820154815260200160028201548152602001600382018054600181600116156101000203166002900480601f0160208091040260200160405190810160405280929190818152602001828054600181600116156101000203166002900480156105d55780601f106105aa576101008083540402835291602001916105d5565b820191906000526020600020905b8154815290600101906020018083116105b857829003601f168201915b50505050508152602001600482018054600181600116156101000203166002900480601f0160208091040260200160405190810160405280929190818152602001828054600181600116156101000203166002900480156106775780601f1061064c57610100808354040283529160200191610677565b820191906000526020600020905b81548152906001019060200180831161065a57829003601f168201915b50505050508152505084828151811061068c57fe5b60200260200101819052505b80806001019150508280600101935050610499565b839450505050505b919050565b6106c261084d565b6106cb57600080fd5b600073ffffffffffffffffffffffffffffffffffffffff166000809054906101000a900473ffffffffffffffffffffffffffffffffffffffff1673ffffffffffffffffffffffffffffffffffffffff167f8be0079c531659141344cd1fd0a4f28419497f9722a3daafe3b4186f6b6457e060405160405180910390a360008060006101000a81548173ffffffffffffffffffffffffffffffffffffffff021916908373ffffffffffffffffffffffffffffffffffffffff160217905550565b60008042600160006002600087815260200190815260200160002060009054906101000a900473ffffffffffffffffffffffffffffffffffffffff1673ffffffffffffffffffffffffffffffffffffffff1673ffffffffffffffffffffffffffffffffffffffff16815260200190815260200160002060000160008581526020019081526020016000206000015411905080915050919050565b60008060009054906101000a900473ffffffffffffffffffffffffffffffffffffffff16905090565b60008060009054906101000a900473ffffffffffffffffffffffffffffffffffffffff1673ffffffffffffffffffffffffffffffffffffffff163373ffffffffffffffffffffffffffffffffffffffff1614905090565b6000600a600160003373ffffffffffffffffffffffffffffffffffffffff1673ffffffffffffffffffffffffffffffffffffffff16815260200190815260200160002060010180549050816108f557fe5b04905090565b61090361084d565b61090c57600080fd5b61091581611101565b50565b600360009054906101000a900473ffffffffffffffffffffffffffffffffffffffff1673ffffffffffffffffffffffffffffffffffffffff1663700651aa8887876040518463ffffffff167c010000000000000000000000000000000000000000000000000000000002815260040161099393929190611884565b60206040518083038186803b1580156109ab57600080fd5b505afa1580156109bf573d6000803e3d6000fd5b505050506040513d601f19601f820116820180604052506109e3919081019061146f565b610a22576040517f08c379a0000000000000000000000000000000000000000000000000000000008152600401610a19906118f8565b60405180910390fd5b600073ffffffffffffffffffffffffffffffffffffffff166002600088815260200190815260200160002060009054906101000a900473ffffffffffffffffffffffffffffffffffffffff1673ffffffffffffffffffffffffffffffffffffffff1614158015610a985750610a968661078a565b155b15610adb57610ada6002600088815260200190815260200160002060009054906101000a900473ffffffffffffffffffffffffffffffffffffffff1687610d19565b5b600073ffffffffffffffffffffffffffffffffffffffff166002600088815260200190815260200160002060009054906101000a900473ffffffffffffffffffffffffffffffffffffffff1673ffffffffffffffffffffffffffffffffffffffff1614610b7d576040517f08c379a0000000000000000000000000000000000000000000000000000000008152600401610b7490611938565b60405180910390fd5b866002600088815260200190815260200160002060006101000a81548173ffffffffffffffffffffffffffffffffffffffff021916908373ffffffffffffffffffffffffffffffffffffffff1602179055506040518060a0016040528084815260200186815260200185815260200183815260200182815250600160008973ffffffffffffffffffffffffffffffffffffffff1673ffffffffffffffffffffffffffffffffffffffff16815260200190815260200160002060000160008881526020019081526020016000206000820151816000015560208201518160010155604082015181600201556060820151816003019080519060200190610c83929190611228565b506080820151816004019080519060200190610ca0929190611228565b50905050600160008873ffffffffffffffffffffffffffffffffffffffff1673ffffffffffffffffffffffffffffffffffffffff16815260200190815260200160002060010186908060018154018082558091505090600182039060005260206000200160009091929091909150555050505050505050565b8173ffffffffffffffffffffffffffffffffffffffff166002600083815260200190815260200160002060009054906101000a900473ffffffffffffffffffffffffffffffffffffffff1673ffffffffffffffffffffffffffffffffffffffff1614610dba576040517f08c379a0000000000000000000000000000000000000000000000000000000008152600401610db190611918565b60405180910390fd5b6002600082815260200190815260200160002060006101000a81549073ffffffffffffffffffffffffffffffffffffffff0219169055600160008373ffffffffffffffffffffffffffffffffffffffff1673ffffffffffffffffffffffffffffffffffffffff168152602001908152602001600020600001600082815260200190815260200160002060008082016000905560018201600090556002820160009055600382016000610e6c91906112a8565b600482016000610e7c91906112a8565b5050600080905060008090505b60018060008673ffffffffffffffffffffffffffffffffffffffff1673ffffffffffffffffffffffffffffffffffffffff1681526020019081526020016000206001018054905003811015611003578115610f9957600160008573ffffffffffffffffffffffffffffffffffffffff1673ffffffffffffffffffffffffffffffffffffffff1681526020019081526020016000206001016001820181548110610f2e57fe5b9060005260206000200154600160008673ffffffffffffffffffffffffffffffffffffffff1673ffffffffffffffffffffffffffffffffffffffff1681526020019081526020016000206001018281548110610f8657fe5b9060005260206000200181905550610ff6565b82600160008673ffffffffffffffffffffffffffffffffffffffff1673ffffffffffffffffffffffffffffffffffffffff1681526020019081526020016000206001018281548110610fe757fe5b90600052602060002001541491505b8080600101915050610e89565b50600160008473ffffffffffffffffffffffffffffffffffffffff1673ffffffffffffffffffffffffffffffffffffffff16815260200190815260200160002060010160018060008673ffffffffffffffffffffffffffffffffffffffff1673ffffffffffffffffffffffffffffffffffffffff16815260200190815260200160002060010180549050038154811061109857fe5b9060005260206000200160009055600160008473ffffffffffffffffffffffffffffffffffffffff1673ffffffffffffffffffffffffffffffffffffffff1681526020019081526020016000206001018054809190600190036110fb91906112f0565b50505050565b600073ffffffffffffffffffffffffffffffffffffffff168173ffffffffffffffffffffffffffffffffffffffff16141561113b57600080fd5b8073ffffffffffffffffffffffffffffffffffffffff166000809054906101000a900473ffffffffffffffffffffffffffffffffffffffff1673ffffffffffffffffffffffffffffffffffffffff167f8be0079c531659141344cd1fd0a4f28419497f9722a3daafe3b4186f6b6457e060405160405180910390a3806000806101000a81548173ffffffffffffffffffffffffffffffffffffffff021916908373ffffffffffffffffffffffffffffffffffffffff16021790555050565b6040518060a0016040528060008152602001600081526020016000815260200160608152602001606081525090565b828054600181600116156101000203166002900490600052602060002090601f016020900481019282601f1061126957805160ff1916838001178555611297565b82800160010185558215611297579182015b8281111561129657825182559160200191906001019061127b565b5b5090506112a4919061131c565b5090565b50805460018160011615610100020316600290046000825580601f106112ce57506112ed565b601f0160209004906000526020600020908101906112ec919061131c565b5b50565b815481835581811115611317578183600052602060002091820191016113169190611341565b5b505050565b61133e91905b8082111561133a576000816000905550600101611322565b5090565b90565b61136391905b8082111561135f576000816000905550600101611347565b5090565b90565b60006113728235611a77565b905092915050565b60006113868251611a89565b905092915050565b600061139a8235611a95565b905092915050565b600082601f8301126113b357600080fd5b81356113c66113c1826119a0565b611973565b915080825260208301602083018583830111156113e257600080fd5b6113ed838284611ac9565b50505092915050565b60006114028235611abf565b905092915050565b60006020828403121561141c57600080fd5b600061142a84828501611366565b91505092915050565b6000806040838503121561144657600080fd5b600061145485828601611366565b92505060206114658582860161138e565b9150509250929050565b60006020828403121561148157600080fd5b600061148f8482850161137a565b91505092915050565b6000602082840312156114aa57600080fd5b60006114b88482850161138e565b91505092915050565b600080600080600060a086880312156114d957600080fd5b60006114e78882890161138e565b95505060206114f8888289016113f6565b9450506040611509888289016113f6565b935050606061151a888289016113f6565b925050608086013567ffffffffffffffff81111561153757600080fd5b611543888289016113a2565b9150509295509295909350565b60008060008060008060c0878903121561156957600080fd5b600061157789828a0161138e565b965050602061158889828a016113f6565b955050604061159989828a016113f6565b94505060606115aa89828a016113f6565b935050608087013567ffffffffffffffff8111156115c757600080fd5b6115d389828a016113a2565b92505060a087013567ffffffffffffffff8111156115f057600080fd5b6115fc89828a016113a2565b9150509295509295509295565b60006020828403121561161b57600080fd5b6000611629848285016113f6565b91505092915050565b600061163e83836117ce565b905092915050565b61164f81611a2f565b82525050565b6000611660826119d9565b61166a81856119fc565b93508360208202850161167c856119cc565b60005b848110156116b5578383038852611697838351611632565b92506116a2826119ef565b915060208801975060018101905061167f565b508196508694505050505092915050565b6116cf81611a41565b82525050565b60006116e0826119e4565b6116ea8185611a0d565b93506116fa818560208601611ad8565b61170381611b0b565b840191505092915050565b600061171b600b83611a1e565b91507f6e6f7420616c6c6f7765640000000000000000000000000000000000000000006000830152602082019050919050565b600061175b600a83611a1e565b91507f73616d65206f776e6572000000000000000000000000000000000000000000006000830152602082019050919050565b600061179b600f83611a1e565b91507f6475706c696361746564206861736800000000000000000000000000000000006000830152602082019050919050565b600060a0830160008301516117e6600086018261184b565b5060208301516117f9602086018261184b565b50604083015161180c604086018261184b565b506060830151848203606086015261182482826116d5565b9150506080830151848203608086015261183e82826116d5565b9150508091505092915050565b61185481611a6d565b82525050565b61186381611a6d565b82525050565b600060208201905061187e6000830184611646565b92915050565b60006060820190506118996000830186611646565b6118a6602083018561185a565b6118b3604083018461185a565b949350505050565b600060208201905081810360008301526118d58184611655565b905092915050565b60006020820190506118f260008301846116c6565b92915050565b600060208201905081810360008301526119118161170e565b9050919050565b600060208201905081810360008301526119318161174e565b9050919050565b600060208201905081810360008301526119518161178e565b9050919050565b600060208201905061196d600083018461185a565b92915050565b6000604051905081810181811067ffffffffffffffff8211171561199657600080fd5b8060405250919050565b600067ffffffffffffffff8211156119b757600080fd5b601f19601f8301169050602081019050919050565b6000602082019050919050565b600081519050919050565b600081519050919050565b6000602082019050919050565b600082825260208201905092915050565b600082825260208201905092915050565b600082825260208201905092915050565b6000611a3a82611a4d565b9050919050565b60008115159050919050565b600073ffffffffffffffffffffffffffffffffffffffff82169050919050565b6000819050919050565b6000611a8282611a9f565b9050919050565b60008115159050919050565b6000819050919050565b600073ffffffffffffffffffffffffffffffffffffffff82169050919050565b6000819050919050565b82818337600083830152505050565b60005b83811015611af6578082015181840152602081019050611adb565b83811115611b05576000848401525b50505050565b6000601f19601f830116905091905056fea265627a7a72305820ada9a04eedb6ccfb403982423fa480c76f6e6de5d4eee0e4e051a67664bd1f3f6c6578706572696d656e74616cf50037",
  "source": "pragma solidity ^0.5.2;\npragma experimental ABIEncoderV2;\n\nimport \"../../node_modules/openzeppelin-solidity/contracts/ownership/Ownable.sol\";\nimport \"./Assets.sol\";\n\ncontract Devices is Ownable {\n\n  struct UserDevices {   \n    mapping (bytes32 => Device) devices;\n    bytes32[] deviceArray;\n  } \n\n  struct Device {   \n    uint256 expirationDate;\n    uint256 assetId;\n    uint256 schemaId;\n    string dappId;\n    string description;\n  }\n\n  uint256 constant private PAGE_SIZE = 10;\n\n  mapping (address => UserDevices) private userDevices_;\n\n  mapping (bytes32 => address) private deviceHashes_;\n \n  Assets private _assets;\n  \n  constructor (address _assetsAddr) public{\n    _assets = Assets(_assetsAddr);    \n  }\n    \n  function isAllowed(bytes32 _deviceHash) public view returns (bool) {\n    bool allowed = userDevices_[deviceHashes_[_deviceHash]].devices[_deviceHash].expirationDate > now ;\n    return allowed;\n  }\n\n  function isAllowedForAddress(address _target, bytes32 _deviceHash) public view returns (bool) {\n    bool allowed =  (deviceHashes_[_deviceHash] == _target) && (isAllowed(_deviceHash));\n    return allowed;\n  }\n   \n  function getDevicesPageCount() public view returns (uint256) {\n    // TODO: si el length es 0 hay 0 paginas si no +1\n    return userDevices_[msg.sender].deviceArray.length / PAGE_SIZE;\n  }\n\n  function getDevices(uint256 _page) public view returns (Device[] memory) {\n    Device[] memory devicesPage = new Device[](PAGE_SIZE); \n    uint256 transferIndex = PAGE_SIZE * _page - PAGE_SIZE;\n    bytes32[] memory devices = userDevices_[msg.sender].deviceArray;\n\n    if (devices.length == 0 || transferIndex > devices.length - 1) {\n      Device[] memory empty;\n      return empty;\n    }\n   \n    uint256 returnCounter = 0;\n\n    for (transferIndex; transferIndex < PAGE_SIZE * _page; transferIndex++) {\n      if (transferIndex < devices.length) {\n        devicesPage[returnCounter] = userDevices_[msg.sender].devices[devices[transferIndex]];\n      }\n      returnCounter++;\n    }\n    return devicesPage;\n  }\n\n  function getAddress(bytes32 _deviceHash) public view returns (address) {\n    bool allowed = isAllowed(_deviceHash);\n    address ownerAddress;\n    if (allowed) {\n      ownerAddress = deviceHashes_[_deviceHash];\n    } \n    return ownerAddress;\n  }\n\n  function handshake(bytes32 _deviceHash, uint256 _assetId, uint256 _schemaId, uint256 _lifeTime, string memory _dappId) public {\n    _handshake(msg.sender, _deviceHash, _assetId, _schemaId, _lifeTime, _dappId, \"\");\n  }\n\n  function handshake(bytes32 _deviceHash, uint256 _assetId, uint256 _schemaId, uint256 _lifeTime, string memory _dappId, string memory _description) public {\n    _handshake(msg.sender, _deviceHash, _assetId, _schemaId, _lifeTime, _dappId, _description);\n  }\n\n  function removeDevice(bytes32 _deviceHash) public {\n    _removeDevice(msg.sender, _deviceHash);\n  }\n\n    \n  function _handshake(address _owner, bytes32 _deviceHash, uint256 _assetId, uint256 _schemaId, uint256 _lifeTime, string memory _dappId, string memory _description) internal {\n\n    require(_assets.checkOwnershipForAddress(_owner, _assetId, _schemaId),\"not allowed\");\n\n    if ((deviceHashes_[_deviceHash] != address(0)) && (!isAllowed(_deviceHash))) {\n      _removeDevice(deviceHashes_[_deviceHash], _deviceHash);\n    }\n\n    require(deviceHashes_[_deviceHash] == address(0), \"duplicated hash\");\n    deviceHashes_[_deviceHash] = _owner; \n    userDevices_[_owner].devices[_deviceHash] =  Device(_lifeTime, _assetId, _schemaId, _dappId, _description);\n    userDevices_[_owner].deviceArray.push(_deviceHash);\n  }\n\n  function _removeDevice(address _owner, bytes32 _deviceHash) internal {\n    require(deviceHashes_[_deviceHash] == _owner, \"same owner\");\n    delete deviceHashes_[_deviceHash];\n    delete userDevices_[_owner].devices[_deviceHash];\n    bool found=false;\n    for (uint i = 0; i < userDevices_[_owner].deviceArray.length-1;i++){\n      if(found){\n        userDevices_[_owner].deviceArray[i] = userDevices_[_owner].deviceArray[i+1];\n      } else {\n        found = userDevices_[_owner].deviceArray[i] == _deviceHash;\n      }\n    }\n    delete userDevices_[_owner].deviceArray[userDevices_[_owner].deviceArray.length-1];\n    userDevices_[_owner].deviceArray.length--;\n  }\n\n}",
  "sourcePath": "/home/jordi/ws/jordiescudero/bloomen-wallet/bloomen-wallet-truffle/contracts/bloomen/Devices.sol",
  "compiler": {
    "name": "solc",
    "version": "0.5.7+commit.6da8b019.Emscripten.clang"
  },
  "schemaVersion": "3.0.6",
  "updatedAt": "2019-04-18T10:25:26.024Z",
  "devdoc": {
    "methods": {
      "isOwner()": {
        "return": "true if `msg.sender` is the owner of the contract."
      },
      "owner()": {
        "return": "the address of the owner."
      },
      "renounceOwnership()": {
        "details": "Allows the current owner to relinquish control of the contract. It will not be possible to call the functions with the `onlyOwner` modifier anymore."
      },
      "transferOwnership(address)": {
        "details": "Allows the current owner to transfer control of the contract to a newOwner.",
        "params": {
          "newOwner": "The address to transfer ownership to."
        }
      }
    }
  },
  "userdoc": {
    "methods": {
      "renounceOwnership()": {
        "notice": "Renouncing ownership will leave the contract without an owner, thereby removing any functionality that is only available to the owner."
      }
    }
  }
}