{
  "contractName": "JsonContainer",
  "abi": [
    {
      "inputs": [],
      "payable": false,
      "stateMutability": "nonpayable",
      "type": "constructor"
    },
    {
      "constant": true,
      "inputs": [],
      "name": "isOwner",
      "outputs": [
        {
          "name": "",
          "type": "bool"
        }
      ],
      "payable": false,
      "stateMutability": "view",
      "type": "function"
    },
    {
      "constant": true,
      "inputs": [],
      "name": "getData",
      "outputs": [
        {
          "components": [
            {
              "name": "path",
              "type": "string"
            },
            {
              "name": "value",
              "type": "string"
            },
            {
              "name": "valueType",
              "type": "string"
            }
          ],
          "name": "",
          "type": "tuple[]"
        }
      ],
      "payable": false,
      "stateMutability": "view",
      "type": "function"
    },
    {
      "constant": false,
      "inputs": [
        {
          "name": "_in",
          "type": "bytes"
        }
      ],
      "name": "update",
      "outputs": [],
      "payable": false,
      "stateMutability": "nonpayable",
      "type": "function"
    },
    {
      "constant": false,
      "inputs": [
        {
          "components": [
            {
              "name": "path",
              "type": "string"
            },
            {
              "name": "value",
              "type": "string"
            },
            {
              "name": "valueType",
              "type": "string"
            }
          ],
          "name": "_data",
          "type": "tuple[]"
        }
      ],
      "name": "initialize",
      "outputs": [],
      "payable": false,
      "stateMutability": "nonpayable",
      "type": "function"
    }
  ],
  "bytecode": "0x608060405234801561001057600080fd5b50600280546001600160a01b031916321790556116a4806100326000396000f3fe608060405234801561001057600080fd5b506004361061004c5760003560e01c806309d2213a146100515780633bc5de30146100665780638f32d59b14610084578063c43ed2c814610099575b600080fd5b61006461005f366004611360565b6100ac565b005b61006e61010d565b60405161007b919061155d565b60405180910390f35b61008c610330565b60405161007b919061156e565b6100646100a736600461139d565b610341565b6100b4610330565b6100bd57600080fd5b805160005b81811015610108576100d26110cf565b8382815181106100de57fe5b602002602001015190506100ff8160000151826020015183604001516104a6565b506001016100c2565b505050565b60606001805480602002602001604051908101604052809291908181526020016000905b828210156103265760008481526020908190206040805160038602909201805460026001821615610100026000190190911604601f81018590049094028301608090810190925260608301848152929390928492909184918401828280156101da5780601f106101af576101008083540402835291602001916101da565b820191906000526020600020905b8154815290600101906020018083116101bd57829003601f168201915b50505050508152602001600182018054600181600116156101000203166002900480601f01602080910402602001604051908101604052809291908181526020018280546001816001161561010002031660029004801561027c5780601f106102515761010080835404028352916020019161027c565b820191906000526020600020905b81548152906001019060200180831161025f57829003601f168201915b5050509183525050600282810180546040805160206001841615610100026000190190931694909404601f8101839004830285018301909152808452938101939083018282801561030e5780601f106102e35761010080835404028352916020019161030e565b820191906000526020600020905b8154815290600101906020018083116102f157829003601f168201915b50505050508152505081526020019060010190610131565b5050505090505b90565b6002546001600160a01b0316321490565b610349610330565b61035257600080fd5b61035a6110f0565b61036382610889565b90506060610370826108af565b805190915060005b8181101561049f5760006103ba6103a185848151811061039457fe5b60200260200101516108af565b6003815181106103ad57fe5b602002602001015161097c565b905080610435576104306103ef6103d686858151811061039457fe5b6000815181106103e257fe5b60200260200101516109dc565b61040d61040187868151811061039457fe5b6001815181106103e257fe5b61042b61041f88878151811061039457fe5b6002815181106103e257fe5b6104a6565b610496565b8060011415610458576104306104536103d686858151811061039457fe5b610a4c565b61049661046d6103d686858151811061039457fe5b61047f61040187868151811061039457fe5b61049161041f88878151811061039457fe5b610c28565b50600101610378565b5050505050565b82516020808501919091206000818152808352604090819020805482518186028101860190935280835292936060939083018282801561050557602002820191906000526020600020905b8154815260200190600101908083116104f1575b5050505050905060008151111561063557805160005b81811015610632576060600184838151811061053357fe5b60200260200101518154811061054557fe5b6000918252602091829020600390910201805460408051601f60026000196101006001871615020190941693909304928301859004850281018501909152818152928301828280156105d85780601f106105ad576101008083540402835291602001916105d8565b820191906000526020600020905b8154815290600101906020018083116105bb57829003601f168201915b505050505090506106006105eb89610889565b6105f483610889565b9063ffffffff610e4616565b1561062957604051600160e51b62461bcd0281526004016106209061157c565b60405180910390fd5b5060010161051b565b50505b61063d6110cf565b50604080516060810182528681526020810186905290810184905260015460005b818160ff1610156107d05761072161071c60018360ff168154811061067f57fe5b6000918252602091829020600390910201805460408051601f60026000196101006001871615020190941693909304928301859004850281018501909152818152928301828280156107125780601f106106e757610100808354040283529160200191610712565b820191906000526020600020905b8154815290600101906020018083116106f557829003601f168201915b5050505050610889565b610e5c565b156107c8578260018260ff168154811061073757fe5b9060005260206000209060030201600082015181600001908051906020019061076192919061110a565b50602082810151805161077a926001850192019061110a565b506040820151805161079691600284019160209091019061110a565b50505060009485526020858152604086208054600181018255908752952060ff90911694019390935550610108915050565b60010161065e565b50600180548082018083556000929092528351805185926003027fb10e2d527612073b26eecdfd717e6a320cf44b4afac2b0732d9fcbe2b7fa0cf6019161081c9183916020019061110a565b506020828101518051610835926001850192019061110a565b506040820151805161085191600284019160209091019061110a565b505050600094855250505060208281526040832060018054825491820183559185529190932060001990930192019190915550505050565b6108916110f0565b5060408051808201909152815181526020828101908201525b919050565b60606108ba82610e61565b6108c357600080fd5b60006108ce83610e9b565b90508060405190808252806020026020018201604052801561090a57816020015b6108f76110f0565b8152602001906001900390816108ef5790505b509150600061091c8460200151610ef7565b60208501510190506000805b838110156109735761093983610f60565b915060405180604001604052808381526020018481525085828151811061095c57fe5b602090810291909101015291810191600101610928565b50505050919050565b80516000901580159061099157508151602110155b61099a57600080fd5b60006109a98360200151610ef7565b835160208086015183018051939450918490039291908310156109d357826020036101000a820491505b50949350505050565b80516060906109ea57600080fd5b60006109f98360200151610ef7565b83516040805191839003808352601f19601f8201168301602001909152919250606090828015610a30576020820181803883390190505b50905060008160200190506109d3848760200151018285610ff0565b805160208083019190912060008181528083526040908190208054825181860281018601909352808352929360609390830182828015610aab57602002820191906000526020600020905b815481526020019060010190808311610a97575b505050505090506000815111610ad657604051600160e51b62461bcd0281526004016106209061158c565b805160005b8181101561049f5760606001848381518110610af357fe5b602002602001015181548110610b0557fe5b6000918252602091829020600390910201805460408051601f6002600019610100600187161502019094169390930492830185900485028101850190915281815292830182828015610b985780601f10610b6d57610100808354040283529160200191610b98565b820191906000526020600020905b815481529060010190602001808311610b7b57829003601f168201915b50505050509050610bab6105eb87610889565b15610c1f576001848381518110610bbe57fe5b602002602001015181548110610bd057fe5b60009182526020822060039091020190610bea8282611188565b610bf8600183016000611188565b610c06600283016000611188565b50506000858152602081905260408120610c1f916111cf565b50600101610adb565b825160208085019190912060008181528083526040908190208054825181860281018601909352808352929360609390830182828015610c8757602002820191906000526020600020905b815481526020019060010190808311610c73575b505050505090506000815111610cb257604051600160e51b62461bcd0281526004016106209061158c565b805160005b81811015610e3d5760606001848381518110610ccf57fe5b602002602001015181548110610ce157fe5b6000918252602091829020600390910201805460408051601f6002600019610100600187161502019094169390930492830185900485028101850190915281815292830182828015610d745780601f10610d4957610100808354040283529160200191610d74565b820191906000526020600020905b815481529060010190602001808311610d5757829003601f168201915b50505050509050610d876105eb89610889565b15610e34576040518060600160405280898152602001888152602001878152506001858481518110610db557fe5b602002602001015181548110610dc757fe5b90600052602060002090600302016000820151816000019080519060200190610df192919061110a565b506020828101518051610e0a926001850192019061110a565b5060408201518051610e2691600284019160209091019061110a565b509050505050505050610108565b50600101610cb7565b50505050505050565b6000610e52838361103b565b1590505b92915050565b511590565b8051600090610e72575060006108aa565b6020820151805160001a9060c0821015610e91576000925050506108aa565b5060019392505050565b8051600090610eac575060006108aa565b60008090506000610ec08460200151610ef7565b602085015185519181019250015b80821015610eee57610edf82610f60565b60019093019290910190610ece565b50909392505050565b8051600090811a6080811015610f115760009150506108aa565b60b8811080610f2c575060c08110801590610f2c575060f881105b15610f3b5760019150506108aa565b60c0811015610f4f5760b5190190506108aa565b60f5190190506108aa565b50919050565b8051600090811a6080811015610f7a5760019150506108aa565b60b8811015610f8e57607e190190506108aa565b60c0811015610fbb5760b78103600184019350806020036101000a84510460018201810193505050610f5a565b60f8811015610fcf5760be190190506108aa565b60019290920151602083900360f7016101000a900490910160f51901919050565b80610ffa57610108565b5b6020811061101a578251825260209283019290910190601f1901610ffb565b915181516020939093036101000a6000190180199091169216919091179052565b815181516000919081111561104e575081515b6020808501519084015160005b838110156110be57825182518082146110ac57600019602087101561108d57600184886020030160080260020a031990505b8181168382160380156110a9579750610e569650505050505050565b50505b5050602092830192918201910161105b565b505083518551039250505092915050565b60405180606001604052806060815260200160608152602001606081525090565b604051806040016040528060008152602001600081525090565b828054600181600116156101000203166002900490600052602060002090601f016020900481019282601f1061114b57805160ff1916838001178555611178565b82800160010185558215611178579182015b8281111561117857825182559160200191906001019061115d565b506111849291506111e9565b5090565b50805460018160011615610100020316600290046000825580601f106111ae57506111cc565b601f0160209004906000526020600020908101906111cc91906111e9565b50565b50805460008255906000526020600020908101906111cc91905b61032d91905b8082111561118457600081556001016111ef565b600082601f83011261121457600080fd5b8135611227611222826115c3565b61159c565b81815260209384019390925082018360005b83811015611265578135860161124f88826112be565b8452506020928301929190910190600101611239565b5050505092915050565b600082601f83011261128057600080fd5b813561128e611222826115e4565b915080825260208301602083018583830111156112aa57600080fd5b6112b5838284611624565b50505092915050565b6000606082840312156112d057600080fd5b6112da606061159c565b9050813567ffffffffffffffff8111156112f357600080fd5b6112ff8482850161126f565b825250602082013567ffffffffffffffff81111561131c57600080fd5b6113288482850161126f565b602083015250604082013567ffffffffffffffff81111561134857600080fd5b6113548482850161126f565b60408301525092915050565b60006020828403121561137257600080fd5b813567ffffffffffffffff81111561138957600080fd5b61139584828501611203565b949350505050565b6000602082840312156113af57600080fd5b813567ffffffffffffffff8111156113c657600080fd5b6113958482850161126f565b60006113de8383611508565b9392505050565b60006113f082611612565b6113fa8185611616565b93508360208202850161140c8561160c565b60005b848110156114435783830388526114278383516113d2565b92506114328261160c565b60209890980197915060010161140f565b50909695505050505050565b6114588161161f565b82525050565b600061146982611612565b6114738185611616565b9350611483818560208601611630565b61148c81611660565b9093019392505050565b60006114a3601b83611616565b7f4572726f723a207061746820616c7265616479206578697374732e0000000000815260200192915050565b60006114dc601c83611616565b7f4572726f723a207061746820646f6573206e6f74206578697374732e00000000815260200192915050565b8051606080845260009190840190611520828261145e565b9150506020830151848203602086015261153a828261145e565b91505060408301518482036040860152611554828261145e565b95945050505050565b602080825281016113de81846113e5565b60208101610e56828461144f565b60208082528101610e5681611496565b60208082528101610e56816114cf565b60405181810167ffffffffffffffff811182821017156115bb57600080fd5b604052919050565b600067ffffffffffffffff8211156115da57600080fd5b5060209081020190565b600067ffffffffffffffff8211156115fb57600080fd5b506020601f91909101601f19160190565b60200190565b5190565b90815260200190565b151590565b82818337506000910152565b60005b8381101561164b578181015183820152602001611633565b8381111561165a576000848401525b50505050565b601f01601f19169056fea265627a7a72305820b9948a1d7120a445f6d139be49edf7271b667fffe65279e2cef63212a904d99c6c6578706572696d656e74616cf50037",
  "source": "pragma solidity ^0.5.2;\npragma experimental ABIEncoderV2;\n\nimport \"./lib/Strings.sol\";\nimport \"./lib/Structs.sol\";\nimport \"../../node_modules/solidity-rlp/contracts/RLPReader.sol\";\n\n\ncontract JsonContainer is Structs {\n\n  using Strings for *;\n  using RLPReader for bytes;\n  using RLPReader for uint;\n  using RLPReader for RLPReader.RLPItem;\n\n  mapping (bytes32 => uint[]) private hashIndexMap_;\n\n  PathValue[] private data_;\n\n  address private _owner;\n\n  constructor() public {\n    _owner = tx.origin;\n  }\n\n  modifier onlyOwner() {\n    require(isOwner());\n    _;\n  }\n\n  function isOwner() public view returns(bool) {\n    return tx.origin == _owner;\n  }\n\n  function getData() public view returns (PathValue[] memory) {\n    return data_;\n  }\n\n  function update(bytes memory _in) onlyOwner public {\n    RLPReader.RLPItem memory item = _in.toRlpItem();\n    RLPReader.RLPItem[] memory itemList = item.toList();\n    uint listLength = itemList.length;\n    for (uint i = 0; i < listLength; i++) {\n      uint difference = itemList[i].toList()[3].toUint();\n      if (difference == 0) { //addition\n        _addPath(string(itemList[i].toList()[0].toBytes()), string(itemList[i].toList()[1].toBytes()), string(itemList[i].toList()[2].toBytes()));\n      } else if (difference == 1) { //deletion\n        _deletePath(string(itemList[i].toList()[0].toBytes()));\n      } else { //modification\n        _modifyPath(string(itemList[i].toList()[0].toBytes()), string(itemList[i].toList()[1].toBytes()), string(itemList[i].toList()[2].toBytes()));\n      }\n    }\n  }\n\n  function initialize(PathValue[] memory _data) onlyOwner  public {\n    uint dataLength = _data.length;\n    for (uint i = 0;i < dataLength; i++) {\n      PathValue memory pathValue = _data[i];\n      _addPath(pathValue.path, pathValue.value, pathValue.valueType);\n    }\n  }\n\n  function _addPath(string memory _path, string memory _value, string memory _valueType) internal {\n    bytes32 pathHash = keccak256(bytes(_path));\n    uint[] memory indexArray = hashIndexMap_[pathHash];\n    if (indexArray.length > 0) {\n      uint indexLength = indexArray.length;\n      for (uint i = 0; i < indexLength; i++) {\n        string memory storedPath = data_[indexArray[i]].path;\n        require(!storedPath.toSlice().equals(_path.toSlice()), \"Error: path already exists.\");\n      }\n    }\n    PathValue memory pathValue = PathValue(_path, _value, _valueType);\n    uint dataLength = data_.length;\n    for (uint8 i = 0; i < dataLength; i++) {\n      if (data_[i].path.toSlice().empty()) {\n        data_[i] = pathValue;\n        hashIndexMap_[pathHash].push(i);\n        return;\n      }\n    }\n    data_.push(pathValue);\n    hashIndexMap_[pathHash].push(data_.length - 1); \n  }\n\n  function _deletePath(string memory _path) internal {\n    bytes32 pathHash = keccak256(bytes(_path));\n    uint[] memory indexArray = hashIndexMap_[pathHash];\n    require(indexArray.length > 0, \"Error: path does not exists.\");\n    uint indexLength = indexArray.length;\n    for (uint i = 0; i < indexLength; i++) {\n      string memory storedPath = data_[indexArray[i]].path;\n      if (storedPath.toSlice().equals(_path.toSlice())) {\n        delete data_[indexArray[i]];\n        delete hashIndexMap_[pathHash];\n      }\n    }\n  }\n\n  function _modifyPath(string memory _path, string memory _value, string memory _valueType) internal {\n    bytes32 pathHash = keccak256(bytes(_path));\n    uint[] memory indexArray = hashIndexMap_[pathHash];\n    require(indexArray.length > 0, \"Error: path does not exists.\");\n    uint indexLength = indexArray.length;\n    for (uint i = 0; i < indexLength; i++) {\n      string memory storedPath = data_[indexArray[i]].path;\n      if (storedPath.toSlice().equals(_path.toSlice())) {\n        data_[indexArray[i]] = PathValue(_path, _value, _valueType);\n        return;\n      }\n    }\n  }\n\n}",
  "sourcePath": "/home/jordi/ws/jordiescudero/bloomen-wallet/bloomen-wallet-truffle/contracts/jsw/JsonContainer.sol",
  "compiler": {
    "name": "solc",
    "version": "0.5.7+commit.6da8b019.Emscripten.clang"
  },
  "schemaVersion": "3.0.6",
  "updatedAt": "2019-04-16T09:48:37.242Z",
  "devdoc": {
    "methods": {}
  },
  "userdoc": {
    "methods": {}
  }
}