{
  "contractName": "JsonContainerFactory",
  "abi": [
    {
      "inputs": [],
      "payable": false,
      "stateMutability": "nonpayable",
      "type": "constructor"
    },
    {
      "constant": true,
      "inputs": [],
      "name": "isOwner",
      "outputs": [
        {
          "name": "",
          "type": "bool"
        }
      ],
      "payable": false,
      "stateMutability": "view",
      "type": "function"
    },
    {
      "constant": false,
      "inputs": [
        {
          "name": "_in",
          "type": "bytes"
        },
        {
          "name": "_name",
          "type": "string"
        }
      ],
      "name": "createContainer",
      "outputs": [],
      "payable": false,
      "stateMutability": "nonpayable",
      "type": "function"
    },
    {
      "constant": true,
      "inputs": [],
      "name": "getContainers",
      "outputs": [
        {
          "components": [
            {
              "name": "addr",
              "type": "address"
            },
            {
              "name": "name",
              "type": "string"
            }
          ],
          "name": "",
          "type": "tuple[]"
        }
      ],
      "payable": false,
      "stateMutability": "view",
      "type": "function"
    }
  ],
  "bytecode": "0x608060405234801561001057600080fd5b50600180546001600160a01b031916321790556122c0806100326000396000f3fe608060405234801561001057600080fd5b50600436106100415760003560e01c80636416e44d146100465780638f32d59b1461005b578063959a17f814610079575b600080fd5b610059610054366004610895565b61008e565b005b610063610308565b6040516100709190610ad8565b60405180910390f35b61008161031a565b6040516100709190610ab6565b610096610308565b61009f57600080fd5b6100a7610761565b6100b08361041b565b905060606100bd82610441565b905060008151905060608160405190808252806020026020018201604052801561010157816020015b6100ee61077b565b8152602001906001900390816100e65790505b50905060005b828110156101c65761011761077b565b604051806060016040528061015a61014188868151811061013457fe5b6020026020010151610441565b60008151811061014d57fe5b602002602001015161050e565b815260200161017d61017188868151811061013457fe5b60018151811061014d57fe5b81526020016101a061019488868151811061013457fe5b60028151811061014d57fe5b8152509050808383815181106101b257fe5b602090810291909101015250600101610107565b5060006040516101d59061079c565b604051809103906000f0801580156101f1573d6000803e3d6000fd5b50604051600160e11b6304e9109d0281529091506001600160a01b038216906309d2213a90610224908590600401610ac7565b600060405180830381600087803b15801561023e57600080fd5b505af1158015610252573d6000803e3d6000fd5b5050604080518082019091526001600160a01b03848116825260208083018b8152600080546001810180835591805285517f290decd9548b62a8d60345a988386fc84ba6bc95484008f6362f93160ef3e563600290920291820180546001600160a01b031916919096161785559151805191975094955092936102fb937f290decd9548b62a8d60345a988386fc84ba6bc95484008f6362f93160ef3e5649092019201906107a9565b5050505050505050505050565b6001546001600160a01b031632145b90565b60606000805480602002602001604051908101604052809291908181526020016000905b82821015610412576000848152602090819020604080518082018252600286810290930180546001600160a01b031682526001808201805485516101009382161593909302600019011695909504601f8101879004870282018701909452838152919490938582019390918301828280156103fa5780601f106103cf576101008083540402835291602001916103fa565b820191906000526020600020905b8154815290600101906020018083116103dd57829003601f168201915b5050505050815250508152602001906001019061033e565b50505050905090565b610423610761565b5060408051808201909152815181526020828101908201525b919050565b606061044c82610587565b61045557600080fd5b6000610460836105c1565b90508060405190808252806020026020018201604052801561049c57816020015b610489610761565b8152602001906001900390816104815790505b50915060006104ae846020015161061d565b60208501510190506000805b83811015610505576104cb83610686565b91506040518060400160405280838152602001848152508582815181106104ee57fe5b6020908102919091010152918101916001016104ba565b50505050919050565b805160609061051c57600080fd5b600061052b836020015161061d565b83516040805191839003808352601f19601f8201168301602001909152919250606090828015610562576020820181803883390190505b509050600081602001905061057e848760200151018285610716565b50949350505050565b80516000906105985750600061043c565b6020820151805160001a9060c08210156105b75760009250505061043c565b5060019392505050565b80516000906105d25750600061043c565b600080905060006105e6846020015161061d565b602085015185519181019250015b808210156106145761060582610686565b600190930192909101906105f4565b50909392505050565b8051600090811a608081101561063757600091505061043c565b60b8811080610652575060c08110801590610652575060f881105b1561066157600191505061043c565b60c08110156106755760b51901905061043c565b60f51901905061043c565b50919050565b8051600090811a60808110156106a057600191505061043c565b60b88110156106b457607e1901905061043c565b60c08110156106e15760b78103600184019350806020036101000a84510460018201810193505050610680565b60f88110156106f55760be1901905061043c565b60019290920151602083900360f7016101000a900490910160f51901919050565b806107205761075c565b5b60208110610740578251825260209283019290910190601f1901610721565b8251825160208390036101000a60001901801990921691161782525b505050565b604051806040016040528060008152602001600081525090565b60405180606001604052806060815260200160608152602001606081525090565b6116d680610bb183390190565b828054600181600116156101000203166002900490600052602060002090601f016020900481019282601f106107ea57805160ff1916838001178555610817565b82800160010185558215610817579182015b828111156108175782518255916020019190600101906107fc565b50610823929150610827565b5090565b61031791905b80821115610823576000815560010161082d565b600082601f83011261085257600080fd5b813561086561086082610b13565b610aec565b9150808252602083016020830185838301111561088157600080fd5b61088c838284610b6a565b50505092915050565b600080604083850312156108a857600080fd5b823567ffffffffffffffff8111156108bf57600080fd5b6108cb85828601610841565b925050602083013567ffffffffffffffff8111156108e857600080fd5b6108f485828601610841565b9150509250929050565b600061090a8383610a35565b9392505050565b600061090a8383610a6a565b61092681610b4e565b82525050565b600061093782610b41565b6109418185610b45565b93508360208202850161095385610b3b565b60005b8481101561098a57838303885261096e8383516108fe565b925061097982610b3b565b602098909801979150600101610956565b50909695505050505050565b60006109a182610b41565b6109ab8185610b45565b9350836020820285016109bd85610b3b565b60005b8481101561098a5783830388526109d8838351610911565b92506109e382610b3b565b6020989098019791506001016109c0565b61092681610b59565b6000610a0882610b41565b610a128185610b45565b9350610a22818560208601610b76565b610a2b81610ba6565b9093019392505050565b80516000906040840190610a49858261091d565b5060208301518482036020860152610a6182826109fd565b95945050505050565b8051606080845260009190840190610a8282826109fd565b91505060208301518482036020860152610a9c82826109fd565b91505060408301518482036040860152610a6182826109fd565b6020808252810161090a818461092c565b6020808252810161090a8184610996565b60208101610ae682846109f4565b92915050565b60405181810167ffffffffffffffff81118282101715610b0b57600080fd5b604052919050565b600067ffffffffffffffff821115610b2a57600080fd5b506020601f91909101601f19160190565b60200190565b5190565b90815260200190565b6000610ae682610b5e565b151590565b6001600160a01b031690565b82818337506000910152565b60005b83811015610b91578181015183820152602001610b79565b83811115610ba0576000848401525b50505050565b601f01601f19169056fe608060405234801561001057600080fd5b50600280546001600160a01b031916321790556116a4806100326000396000f3fe608060405234801561001057600080fd5b506004361061004c5760003560e01c806309d2213a146100515780633bc5de30146100665780638f32d59b14610084578063c43ed2c814610099575b600080fd5b61006461005f366004611360565b6100ac565b005b61006e61010d565b60405161007b919061155d565b60405180910390f35b61008c610330565b60405161007b919061156e565b6100646100a736600461139d565b610341565b6100b4610330565b6100bd57600080fd5b805160005b81811015610108576100d26110cf565b8382815181106100de57fe5b602002602001015190506100ff8160000151826020015183604001516104a6565b506001016100c2565b505050565b60606001805480602002602001604051908101604052809291908181526020016000905b828210156103265760008481526020908190206040805160038602909201805460026001821615610100026000190190911604601f81018590049094028301608090810190925260608301848152929390928492909184918401828280156101da5780601f106101af576101008083540402835291602001916101da565b820191906000526020600020905b8154815290600101906020018083116101bd57829003601f168201915b50505050508152602001600182018054600181600116156101000203166002900480601f01602080910402602001604051908101604052809291908181526020018280546001816001161561010002031660029004801561027c5780601f106102515761010080835404028352916020019161027c565b820191906000526020600020905b81548152906001019060200180831161025f57829003601f168201915b5050509183525050600282810180546040805160206001841615610100026000190190931694909404601f8101839004830285018301909152808452938101939083018282801561030e5780601f106102e35761010080835404028352916020019161030e565b820191906000526020600020905b8154815290600101906020018083116102f157829003601f168201915b50505050508152505081526020019060010190610131565b5050505090505b90565b6002546001600160a01b0316321490565b610349610330565b61035257600080fd5b61035a6110f0565b61036382610889565b90506060610370826108af565b805190915060005b8181101561049f5760006103ba6103a185848151811061039457fe5b60200260200101516108af565b6003815181106103ad57fe5b602002602001015161097c565b905080610435576104306103ef6103d686858151811061039457fe5b6000815181106103e257fe5b60200260200101516109dc565b61040d61040187868151811061039457fe5b6001815181106103e257fe5b61042b61041f88878151811061039457fe5b6002815181106103e257fe5b6104a6565b610496565b8060011415610458576104306104536103d686858151811061039457fe5b610a4c565b61049661046d6103d686858151811061039457fe5b61047f61040187868151811061039457fe5b61049161041f88878151811061039457fe5b610c28565b50600101610378565b5050505050565b82516020808501919091206000818152808352604090819020805482518186028101860190935280835292936060939083018282801561050557602002820191906000526020600020905b8154815260200190600101908083116104f1575b5050505050905060008151111561063557805160005b81811015610632576060600184838151811061053357fe5b60200260200101518154811061054557fe5b6000918252602091829020600390910201805460408051601f60026000196101006001871615020190941693909304928301859004850281018501909152818152928301828280156105d85780601f106105ad576101008083540402835291602001916105d8565b820191906000526020600020905b8154815290600101906020018083116105bb57829003601f168201915b505050505090506106006105eb89610889565b6105f483610889565b9063ffffffff610e4616565b1561062957604051600160e51b62461bcd0281526004016106209061157c565b60405180910390fd5b5060010161051b565b50505b61063d6110cf565b50604080516060810182528681526020810186905290810184905260015460005b818160ff1610156107d05761072161071c60018360ff168154811061067f57fe5b6000918252602091829020600390910201805460408051601f60026000196101006001871615020190941693909304928301859004850281018501909152818152928301828280156107125780601f106106e757610100808354040283529160200191610712565b820191906000526020600020905b8154815290600101906020018083116106f557829003601f168201915b5050505050610889565b610e5c565b156107c8578260018260ff168154811061073757fe5b9060005260206000209060030201600082015181600001908051906020019061076192919061110a565b50602082810151805161077a926001850192019061110a565b506040820151805161079691600284019160209091019061110a565b50505060009485526020858152604086208054600181018255908752952060ff90911694019390935550610108915050565b60010161065e565b50600180548082018083556000929092528351805185926003027fb10e2d527612073b26eecdfd717e6a320cf44b4afac2b0732d9fcbe2b7fa0cf6019161081c9183916020019061110a565b506020828101518051610835926001850192019061110a565b506040820151805161085191600284019160209091019061110a565b505050600094855250505060208281526040832060018054825491820183559185529190932060001990930192019190915550505050565b6108916110f0565b5060408051808201909152815181526020828101908201525b919050565b60606108ba82610e61565b6108c357600080fd5b60006108ce83610e9b565b90508060405190808252806020026020018201604052801561090a57816020015b6108f76110f0565b8152602001906001900390816108ef5790505b509150600061091c8460200151610ef7565b60208501510190506000805b838110156109735761093983610f60565b915060405180604001604052808381526020018481525085828151811061095c57fe5b602090810291909101015291810191600101610928565b50505050919050565b80516000901580159061099157508151602110155b61099a57600080fd5b60006109a98360200151610ef7565b835160208086015183018051939450918490039291908310156109d357826020036101000a820491505b50949350505050565b80516060906109ea57600080fd5b60006109f98360200151610ef7565b83516040805191839003808352601f19601f8201168301602001909152919250606090828015610a30576020820181803883390190505b50905060008160200190506109d3848760200151018285610ff0565b805160208083019190912060008181528083526040908190208054825181860281018601909352808352929360609390830182828015610aab57602002820191906000526020600020905b815481526020019060010190808311610a97575b505050505090506000815111610ad657604051600160e51b62461bcd0281526004016106209061158c565b805160005b8181101561049f5760606001848381518110610af357fe5b602002602001015181548110610b0557fe5b6000918252602091829020600390910201805460408051601f6002600019610100600187161502019094169390930492830185900485028101850190915281815292830182828015610b985780601f10610b6d57610100808354040283529160200191610b98565b820191906000526020600020905b815481529060010190602001808311610b7b57829003601f168201915b50505050509050610bab6105eb87610889565b15610c1f576001848381518110610bbe57fe5b602002602001015181548110610bd057fe5b60009182526020822060039091020190610bea8282611188565b610bf8600183016000611188565b610c06600283016000611188565b50506000858152602081905260408120610c1f916111cf565b50600101610adb565b825160208085019190912060008181528083526040908190208054825181860281018601909352808352929360609390830182828015610c8757602002820191906000526020600020905b815481526020019060010190808311610c73575b505050505090506000815111610cb257604051600160e51b62461bcd0281526004016106209061158c565b805160005b81811015610e3d5760606001848381518110610ccf57fe5b602002602001015181548110610ce157fe5b6000918252602091829020600390910201805460408051601f6002600019610100600187161502019094169390930492830185900485028101850190915281815292830182828015610d745780601f10610d4957610100808354040283529160200191610d74565b820191906000526020600020905b815481529060010190602001808311610d5757829003601f168201915b50505050509050610d876105eb89610889565b15610e34576040518060600160405280898152602001888152602001878152506001858481518110610db557fe5b602002602001015181548110610dc757fe5b90600052602060002090600302016000820151816000019080519060200190610df192919061110a565b506020828101518051610e0a926001850192019061110a565b5060408201518051610e2691600284019160209091019061110a565b509050505050505050610108565b50600101610cb7565b50505050505050565b6000610e52838361103b565b1590505b92915050565b511590565b8051600090610e72575060006108aa565b6020820151805160001a9060c0821015610e91576000925050506108aa565b5060019392505050565b8051600090610eac575060006108aa565b60008090506000610ec08460200151610ef7565b602085015185519181019250015b80821015610eee57610edf82610f60565b60019093019290910190610ece565b50909392505050565b8051600090811a6080811015610f115760009150506108aa565b60b8811080610f2c575060c08110801590610f2c575060f881105b15610f3b5760019150506108aa565b60c0811015610f4f5760b5190190506108aa565b60f5190190506108aa565b50919050565b8051600090811a6080811015610f7a5760019150506108aa565b60b8811015610f8e57607e190190506108aa565b60c0811015610fbb5760b78103600184019350806020036101000a84510460018201810193505050610f5a565b60f8811015610fcf5760be190190506108aa565b60019290920151602083900360f7016101000a900490910160f51901919050565b80610ffa57610108565b5b6020811061101a578251825260209283019290910190601f1901610ffb565b915181516020939093036101000a6000190180199091169216919091179052565b815181516000919081111561104e575081515b6020808501519084015160005b838110156110be57825182518082146110ac57600019602087101561108d57600184886020030160080260020a031990505b8181168382160380156110a9579750610e569650505050505050565b50505b5050602092830192918201910161105b565b505083518551039250505092915050565b60405180606001604052806060815260200160608152602001606081525090565b604051806040016040528060008152602001600081525090565b828054600181600116156101000203166002900490600052602060002090601f016020900481019282601f1061114b57805160ff1916838001178555611178565b82800160010185558215611178579182015b8281111561117857825182559160200191906001019061115d565b506111849291506111e9565b5090565b50805460018160011615610100020316600290046000825580601f106111ae57506111cc565b601f0160209004906000526020600020908101906111cc91906111e9565b50565b50805460008255906000526020600020908101906111cc91905b61032d91905b8082111561118457600081556001016111ef565b600082601f83011261121457600080fd5b8135611227611222826115c3565b61159c565b81815260209384019390925082018360005b83811015611265578135860161124f88826112be565b8452506020928301929190910190600101611239565b5050505092915050565b600082601f83011261128057600080fd5b813561128e611222826115e4565b915080825260208301602083018583830111156112aa57600080fd5b6112b5838284611624565b50505092915050565b6000606082840312156112d057600080fd5b6112da606061159c565b9050813567ffffffffffffffff8111156112f357600080fd5b6112ff8482850161126f565b825250602082013567ffffffffffffffff81111561131c57600080fd5b6113288482850161126f565b602083015250604082013567ffffffffffffffff81111561134857600080fd5b6113548482850161126f565b60408301525092915050565b60006020828403121561137257600080fd5b813567ffffffffffffffff81111561138957600080fd5b61139584828501611203565b949350505050565b6000602082840312156113af57600080fd5b813567ffffffffffffffff8111156113c657600080fd5b6113958482850161126f565b60006113de8383611508565b9392505050565b60006113f082611612565b6113fa8185611616565b93508360208202850161140c8561160c565b60005b848110156114435783830388526114278383516113d2565b92506114328261160c565b60209890980197915060010161140f565b50909695505050505050565b6114588161161f565b82525050565b600061146982611612565b6114738185611616565b9350611483818560208601611630565b61148c81611660565b9093019392505050565b60006114a3601b83611616565b7f4572726f723a207061746820616c7265616479206578697374732e0000000000815260200192915050565b60006114dc601c83611616565b7f4572726f723a207061746820646f6573206e6f74206578697374732e00000000815260200192915050565b8051606080845260009190840190611520828261145e565b9150506020830151848203602086015261153a828261145e565b91505060408301518482036040860152611554828261145e565b95945050505050565b602080825281016113de81846113e5565b60208101610e56828461144f565b60208082528101610e5681611496565b60208082528101610e56816114cf565b60405181810167ffffffffffffffff811182821017156115bb57600080fd5b604052919050565b600067ffffffffffffffff8211156115da57600080fd5b5060209081020190565b600067ffffffffffffffff8211156115fb57600080fd5b506020601f91909101601f19160190565b60200190565b5190565b90815260200190565b151590565b82818337506000910152565b60005b8381101561164b578181015183820152602001611633565b8381111561165a576000848401525b50505050565b601f01601f19169056fea265627a7a72305820b9948a1d7120a445f6d139be49edf7271b667fffe65279e2cef63212a904d99c6c6578706572696d656e74616cf50037a265627a7a7230582053351197a8fe0b2788fb903111c6661d71b8b52652c7e1bc8a0edcce10eef2886c6578706572696d656e74616cf50037",
  "source": "pragma solidity ^0.5.2;\npragma experimental ABIEncoderV2;\n\nimport \"./lib/Structs.sol\";\nimport \"./JsonContainer.sol\";\nimport \"../../node_modules/solidity-rlp/contracts/RLPReader.sol\";\n\n\ncontract JsonContainerFactory is Structs {\n\n  using RLPReader for bytes;\n  using RLPReader for uint;\n  using RLPReader for RLPReader.RLPItem;\n\n\n\n  Container[] private containers_;\n\n\n  address private _owner;\n\n  constructor() public {\n    _owner = tx.origin;\n  }\n\n  modifier onlyOwner() {\n    require(isOwner());\n    _;\n  }\n\n  function isOwner() public view returns(bool) {\n    return tx.origin == _owner;\n  }\n\n  function createContainer(bytes memory _in, string memory _name) onlyOwner public {\n    RLPReader.RLPItem memory item = _in.toRlpItem();\n    RLPReader.RLPItem[] memory itemList = item.toList();\n\n    uint listLength = itemList.length;\n    PathValue[] memory data = new PathValue[](listLength);\n    for (uint i = 0; i < listLength; i++) {\n      PathValue memory pathValue = PathValue(\n        string(itemList[i].toList()[0].toBytes()),\n        string(itemList[i].toList()[1].toBytes()),\n        string(itemList[i].toList()[2].toBytes())\n      );\n      data[i] = pathValue;\n    } \n\n    JsonContainer container = new JsonContainer();\n    container.initialize(data);\n    containers_.push(Container(address(container), _name));\n    \n  }\n\n  function getContainers() public view returns (Container[] memory) {\n    return containers_;\n  }\n\n    \n}",
  "sourcePath": "/home/jordi/ws/jordiescudero/bloomen-wallet/bloomen-wallet-truffle/contracts/jsw/JsonContainerFactory.sol",
  "compiler": {
    "name": "solc",
    "version": "0.5.7+commit.6da8b019.Emscripten.clang"
  },
  "schemaVersion": "3.0.6",
  "updatedAt": "2019-04-16T09:48:37.245Z",
  "devdoc": {
    "methods": {}
  },
  "userdoc": {
    "methods": {}
  }
}