{
  "contractName": "MovementHistory",
  "abi": [
    {
      "constant": false,
      "inputs": [
        {
          "name": "_amount",
          "type": "int256"
        },
        {
          "name": "_description",
          "type": "string"
        },
        {
          "name": "_from",
          "type": "address"
        },
        {
          "name": "_to",
          "type": "address"
        }
      ],
      "name": "addMovement",
      "outputs": [],
      "payable": false,
      "stateMutability": "nonpayable",
      "type": "function",
      "signature": "0x50f38048"
    },
    {
      "constant": false,
      "inputs": [
        {
          "name": "_amount",
          "type": "int256"
        },
        {
          "name": "_description",
          "type": "string"
        },
        {
          "name": "_to",
          "type": "address"
        }
      ],
      "name": "addMovement",
      "outputs": [],
      "payable": false,
      "stateMutability": "nonpayable",
      "type": "function",
      "signature": "0x86b00ad5"
    },
    {
      "constant": true,
      "inputs": [
        {
          "name": "_page",
          "type": "int256"
        }
      ],
      "name": "getMovements",
      "outputs": [
        {
          "components": [
            {
              "name": "amount",
              "type": "int256"
            },
            {
              "name": "description",
              "type": "string"
            },
            {
              "name": "date",
              "type": "uint256"
            },
            {
              "name": "to",
              "type": "address"
            }
          ],
          "name": "",
          "type": "tuple[]"
        }
      ],
      "payable": false,
      "stateMutability": "view",
      "type": "function",
      "signature": "0x17b1b498"
    }
  ],
  "bytecode": "0x608060405234801561001057600080fd5b50610f47806100206000396000f3fe608060405234801561001057600080fd5b506004361061005e576000357c01000000000000000000000000000000000000000000000000000000009004806317b1b4981461006357806350f380481461009357806386b00ad5146100af575b600080fd5b61007d60048036036100789190810190610aa1565b6100cb565b60405161008a9190610d3a565b60405180910390f35b6100ad60048036036100a89190810190610b31565b6103ef565b005b6100c960048036036100c49190810190610aca565b610401565b005b60606000821380156100e85750600a6064816100e357fe5b058213155b610127576040517f08c379a000000000000000000000000000000000000000000000000000000000815260040161011e90610d5c565b60405180910390fd5b600060018303600a02905060606000803373ffffffffffffffffffffffffffffffffffffffff1673ffffffffffffffffffffffffffffffffffffffff168152602001908152602001600020805480602002602001604051908101604052809291908181526020016000905b828210156102d0578382906000526020600020906004020160405180608001604052908160008201548152602001600182018054600181600116156101000203166002900480601f0160208091040260200160405190810160405280929190818152602001828054600181600116156101000203166002900480156102585780601f1061022d57610100808354040283529160200191610258565b820191906000526020600020905b81548152906001019060200180831161023b57829003601f168201915b50505050508152602001600282015481526020016003820160009054906101000a900473ffffffffffffffffffffffffffffffffffffffff1673ffffffffffffffffffffffffffffffffffffffff1673ffffffffffffffffffffffffffffffffffffffff168152505081526020019060010190610192565b505050509050818151116102eb5760608093505050506103ea565b6060600a60405190808252806020026020018201604052801561032857816020015b610315610942565b81526020019060019003908161030d5790505b50905060008090505b600a8112156103e25760008185600160003373ffffffffffffffffffffffffffffffffffffffff1673ffffffffffffffffffffffffffffffffffffffff168152602001908152602001600020540303905060008112156103a9576064845110156103a25782955050505050506103ea565b6064810190505b8381815181106103b557fe5b60200260200101518383815181106103c957fe5b6020026020010181905250508080600101915050610331565b508093505050505b919050565b6103fb84848484610412565b50505050565b61040d83833384610412565b505050565b60646000808473ffffffffffffffffffffffffffffffffffffffff1673ffffffffffffffffffffffffffffffffffffffff168152602001908152602001600020805490501015610604576000808373ffffffffffffffffffffffffffffffffffffffff1673ffffffffffffffffffffffffffffffffffffffff16815260200190815260200160002060405180608001604052808681526020018581526020014281526020018373ffffffffffffffffffffffffffffffffffffffff1681525090806001815401808255809150509060018203906000526020600020906004020160009091929091909150600082015181600001556020820151816001019080519060200190610522929190610980565b506040820151816002015560608201518160030160006101000a81548173ffffffffffffffffffffffffffffffffffffffff021916908373ffffffffffffffffffffffffffffffffffffffff16021790555050505060016000808473ffffffffffffffffffffffffffffffffffffffff1673ffffffffffffffffffffffffffffffffffffffff1681526020019081526020016000208054905003600160008473ffffffffffffffffffffffffffffffffffffffff1673ffffffffffffffffffffffffffffffffffffffff1681526020019081526020016000208190555061093c565b6001606403600160008473ffffffffffffffffffffffffffffffffffffffff1673ffffffffffffffffffffffffffffffffffffffff1681526020019081526020016000205414156107a3576000600160008473ffffffffffffffffffffffffffffffffffffffff1673ffffffffffffffffffffffffffffffffffffffff1681526020019081526020016000208190555060405180608001604052808581526020018481526020014281526020018273ffffffffffffffffffffffffffffffffffffffff168152506000808473ffffffffffffffffffffffffffffffffffffffff1673ffffffffffffffffffffffffffffffffffffffff16815260200190815260200160002060008154811061071557fe5b9060005260206000209060040201600082015181600001556020820151816001019080519060200190610749929190610980565b506040820151816002015560608201518160030160006101000a81548173ffffffffffffffffffffffffffffffffffffffff021916908373ffffffffffffffffffffffffffffffffffffffff16021790555090505061093b565b600160008373ffffffffffffffffffffffffffffffffffffffff1673ffffffffffffffffffffffffffffffffffffffff1681526020019081526020016000206000815480929190600101919050555060405180608001604052808581526020018481526020014281526020018273ffffffffffffffffffffffffffffffffffffffff168152506000808473ffffffffffffffffffffffffffffffffffffffff1673ffffffffffffffffffffffffffffffffffffffff168152602001908152602001600020600160008573ffffffffffffffffffffffffffffffffffffffff1673ffffffffffffffffffffffffffffffffffffffff16815260200190815260200160002054815481106108b157fe5b90600052602060002090600402016000820151816000015560208201518160010190805190602001906108e5929190610980565b506040820151816002015560608201518160030160006101000a81548173ffffffffffffffffffffffffffffffffffffffff021916908373ffffffffffffffffffffffffffffffffffffffff1602179055509050505b5b50505050565b6040518060800160405280600081526020016060815260200160008152602001600073ffffffffffffffffffffffffffffffffffffffff1681525090565b828054600181600116156101000203166002900490600052602060002090601f016020900481019282601f106109c157805160ff19168380011785556109ef565b828001600101855582156109ef579182015b828111156109ee5782518255916020019190600101906109d3565b5b5090506109fc9190610a00565b5090565b610a2291905b80821115610a1e576000816000905550600101610a06565b5090565b90565b6000610a318235610e7e565b905092915050565b6000610a458235610e90565b905092915050565b600082601f830112610a5e57600080fd5b8135610a71610a6c82610da9565b610d7c565b91508082526020830160208301858383011115610a8d57600080fd5b610a98838284610eba565b50505092915050565b600060208284031215610ab357600080fd5b6000610ac184828501610a39565b91505092915050565b600080600060608486031215610adf57600080fd5b6000610aed86828701610a39565b935050602084013567ffffffffffffffff811115610b0a57600080fd5b610b1686828701610a4d565b9250506040610b2786828701610a25565b9150509250925092565b60008060008060808587031215610b4757600080fd5b6000610b5587828801610a39565b945050602085013567ffffffffffffffff811115610b7257600080fd5b610b7e87828801610a4d565b9350506040610b8f87828801610a25565b9250506060610ba087828801610a25565b91505092959194509250565b6000610bb88383610cc8565b905092915050565b610bc981610e38565b82525050565b6000610bda82610de2565b610be48185610e05565b935083602082028501610bf685610dd5565b60005b84811015610c2f578383038852610c11838351610bac565b9250610c1c82610df8565b9150602088019750600181019050610bf9565b508196508694505050505092915050565b610c4981610e4a565b82525050565b6000610c5a82610ded565b610c648185610e16565b9350610c74818560208601610ec9565b610c7d81610efc565b840191505092915050565b6000610c95600d83610e27565b91507f496e76616c696420706167652e000000000000000000000000000000000000006000830152602082019050919050565b6000608083016000830151610ce06000860182610c40565b5060208301518482036020860152610cf88282610c4f565b9150506040830151610d0d6040860182610d2b565b506060830151610d206060860182610bc0565b508091505092915050565b610d3481610e74565b82525050565b60006020820190508181036000830152610d548184610bcf565b905092915050565b60006020820190508181036000830152610d7581610c88565b9050919050565b6000604051905081810181811067ffffffffffffffff82111715610d9f57600080fd5b8060405250919050565b600067ffffffffffffffff821115610dc057600080fd5b601f19601f8301169050602081019050919050565b6000602082019050919050565b600081519050919050565b600081519050919050565b6000602082019050919050565b600082825260208201905092915050565b600082825260208201905092915050565b600082825260208201905092915050565b6000610e4382610e54565b9050919050565b6000819050919050565b600073ffffffffffffffffffffffffffffffffffffffff82169050919050565b6000819050919050565b6000610e8982610e9a565b9050919050565b6000819050919050565b600073ffffffffffffffffffffffffffffffffffffffff82169050919050565b82818337600083830152505050565b60005b83811015610ee7578082015181840152602081019050610ecc565b83811115610ef6576000848401525b50505050565b6000601f19601f830116905091905056fea265627a7a72305820a72ba819a71a6f9ed9d33577d5226779cab468b9e52ea0efb4c1a9b56e5081176c6578706572696d656e74616cf50037",
  "source": "pragma solidity ^0.5.2;\npragma experimental ABIEncoderV2;\n\ncontract MovementHistory {\n\n    struct Movement {\n        int256 amount;\n        string description;\n        uint date;\n        address to;\n    }\n  \n    mapping (address => Movement[]) private transfersMap_;\n    mapping (address => int256) private currentIndexMap_;\n\n \n    int256 constant private MAX = 100;\n    int256 constant private PAGE_SIZE = 10;\n    int256 constant private MAX_PAGE_NUMBER = MAX/PAGE_SIZE;\n\n    function addMovement(int256 _amount, string memory _description,  address _to) public {\n        _addMovement(_amount, _description, msg.sender, _to);\n    }\n\n    // TODO: Proteger el _addMovement solo para el ERC223 Role o algo asi\n    function addMovement(int256 _amount, string memory _description, address _from, address _to) public {\n        _addMovement(_amount, _description, _from, _to);\n    }\n    \n    function _addMovement(int256 _amount, string memory _description,  address _from, address _to) internal {\n        if (transfersMap_[_from].length < uint256(MAX)) {\n            transfersMap_[_from].push(Movement(_amount, _description, now, _to));\n            currentIndexMap_[_from] = int256(transfersMap_[_from].length - 1);\n        } else if (currentIndexMap_[_from] == MAX - 1) {\n            currentIndexMap_[_from] = 0;\n            transfersMap_[_from][0] = Movement(_amount, _description, now, _to);\n        } else {\n            currentIndexMap_[_from]++;\n            transfersMap_[_from][uint256(currentIndexMap_[_from])] = Movement(_amount, _description, now, _to);\n        }\n    }\n\n    function getMovements( int256 _page) public view returns (Movement[] memory) {\n        require(_page > 0 && _page <= MAX_PAGE_NUMBER, \"Invalid page.\");\n\n        uint256 _reqIndexOffset = uint256(PAGE_SIZE * (_page - 1));\n        Movement[] memory transfers = transfersMap_[msg.sender];\n        if (transfers.length <= _reqIndexOffset) {\n            Movement[] memory empty;\n            return empty;\n        }\n\n        Movement[] memory _transfersPage = new Movement[](uint256(PAGE_SIZE));\n\n        for (int256 i = 0; i < int(PAGE_SIZE); i++) {\n            int256 _transferIndex = currentIndexMap_[msg.sender] - int256(_reqIndexOffset) - i;\n            if (_transferIndex < 0) {\n                if (transfers.length < uint256(MAX) ) {\n                    return _transfersPage;\n                } else {\n                    _transferIndex += MAX;\n                }\n            }\n            _transfersPage[uint256(i)]= transfers[uint256(_transferIndex)];\n        }\n\n        return _transfersPage;\n    }\n}",
  "sourcePath": "/home/jordi/ws/jordiescudero/bloomen-wallet/bloomen-wallet-truffle/contracts/bloomen/token/MovementHistory.sol",
  "compiler": {
    "name": "solc",
    "version": "0.5.7+commit.6da8b019.Emscripten.clang"
  },
  "schemaVersion": "3.0.6",
  "updatedAt": "2019-04-18T10:24:58.852Z",
  "devdoc": {
    "methods": {}
  },
  "userdoc": {
    "methods": {}
  }
}