{
  "contractName": "PrepaidCardManager",
  "abi": [
    {
      "constant": false,
      "inputs": [],
      "name": "renounceOwnership",
      "outputs": [],
      "payable": false,
      "stateMutability": "nonpayable",
      "type": "function",
      "signature": "0x715018a6"
    },
    {
      "constant": true,
      "inputs": [
        {
          "name": "account",
          "type": "address"
        }
      ],
      "name": "isSigner",
      "outputs": [
        {
          "name": "",
          "type": "bool"
        }
      ],
      "payable": false,
      "stateMutability": "view",
      "type": "function",
      "signature": "0x7df73e27"
    },
    {
      "constant": true,
      "inputs": [],
      "name": "owner",
      "outputs": [
        {
          "name": "",
          "type": "address"
        }
      ],
      "payable": false,
      "stateMutability": "view",
      "type": "function",
      "signature": "0x8da5cb5b"
    },
    {
      "constant": true,
      "inputs": [],
      "name": "isOwner",
      "outputs": [
        {
          "name": "",
          "type": "bool"
        }
      ],
      "payable": false,
      "stateMutability": "view",
      "type": "function",
      "signature": "0x8f32d59b"
    },
    {
      "constant": false,
      "inputs": [],
      "name": "renounceSigner",
      "outputs": [],
      "payable": false,
      "stateMutability": "nonpayable",
      "type": "function",
      "signature": "0xe5c8b03d"
    },
    {
      "constant": false,
      "inputs": [
        {
          "name": "account",
          "type": "address"
        }
      ],
      "name": "addSigner",
      "outputs": [],
      "payable": false,
      "stateMutability": "nonpayable",
      "type": "function",
      "signature": "0xeb12d61e"
    },
    {
      "constant": false,
      "inputs": [
        {
          "name": "newOwner",
          "type": "address"
        }
      ],
      "name": "transferOwnership",
      "outputs": [],
      "payable": false,
      "stateMutability": "nonpayable",
      "type": "function",
      "signature": "0xf2fde38b"
    },
    {
      "inputs": [
        {
          "name": "_erc223Addr",
          "type": "address"
        }
      ],
      "payable": false,
      "stateMutability": "nonpayable",
      "type": "constructor",
      "signature": "constructor"
    },
    {
      "anonymous": false,
      "inputs": [
        {
          "indexed": true,
          "name": "owner",
          "type": "address"
        },
        {
          "indexed": false,
          "name": "cardId",
          "type": "uint256"
        },
        {
          "indexed": true,
          "name": "user",
          "type": "address"
        }
      ],
      "name": "CardValidated",
      "type": "event",
      "signature": "0x80de5a7d3e27e32cfffc07551af7c9ee302a01b5456991722d7ef54193eab356"
    },
    {
      "anonymous": false,
      "inputs": [
        {
          "indexed": true,
          "name": "previousOwner",
          "type": "address"
        },
        {
          "indexed": true,
          "name": "newOwner",
          "type": "address"
        }
      ],
      "name": "OwnershipTransferred",
      "type": "event",
      "signature": "0x8be0079c531659141344cd1fd0a4f28419497f9722a3daafe3b4186f6b6457e0"
    },
    {
      "anonymous": false,
      "inputs": [
        {
          "indexed": true,
          "name": "account",
          "type": "address"
        }
      ],
      "name": "SignerAdded",
      "type": "event",
      "signature": "0x47d1c22a25bb3a5d4e481b9b1e6944c2eade3181a0a20b495ed61d35b5323f24"
    },
    {
      "anonymous": false,
      "inputs": [
        {
          "indexed": true,
          "name": "account",
          "type": "address"
        }
      ],
      "name": "SignerRemoved",
      "type": "event",
      "signature": "0x3525e22824a8a7df2c9a6029941c824cf95b6447f1e13d5128fd3826d35afe8b"
    },
    {
      "constant": true,
      "inputs": [
        {
          "name": "_cardId",
          "type": "uint256"
        }
      ],
      "name": "getCard",
      "outputs": [
        {
          "name": "cardId",
          "type": "uint256"
        },
        {
          "name": "owner",
          "type": "address"
        },
        {
          "name": "tokens",
          "type": "uint256"
        },
        {
          "name": "active",
          "type": "bool"
        }
      ],
      "payable": false,
      "stateMutability": "view",
      "type": "function",
      "signature": "0x9188d312"
    },
    {
      "constant": false,
      "inputs": [
        {
          "name": "_cardId",
          "type": "uint256"
        },
        {
          "name": "_tokens",
          "type": "uint256"
        },
        {
          "name": "_hash",
          "type": "bytes32"
        }
      ],
      "name": "addCard",
      "outputs": [],
      "payable": false,
      "stateMutability": "nonpayable",
      "type": "function",
      "signature": "0x8a984385"
    },
    {
      "constant": false,
      "inputs": [
        {
          "name": "_cardId",
          "type": "uint256"
        }
      ],
      "name": "activateCard",
      "outputs": [],
      "payable": false,
      "stateMutability": "nonpayable",
      "type": "function",
      "signature": "0x7e09ef42"
    },
    {
      "constant": false,
      "inputs": [
        {
          "name": "_secret",
          "type": "bytes"
        }
      ],
      "name": "validateCard",
      "outputs": [],
      "payable": false,
      "stateMutability": "nonpayable",
      "type": "function",
      "signature": "0xc1debea4"
    }
  ],
  "bytecode": "0x60806040523480156200001157600080fd5b5060405160208062001b66833981018060405262000033919081019062000325565b6200004d3362000153640100000000026401000000009004565b33600160006101000a81548173ffffffffffffffffffffffffffffffffffffffff021916908373ffffffffffffffffffffffffffffffffffffffff160217905550600160009054906101000a900473ffffffffffffffffffffffffffffffffffffffff1673ffffffffffffffffffffffffffffffffffffffff16600073ffffffffffffffffffffffffffffffffffffffff167f8be0079c531659141344cd1fd0a4f28419497f9722a3daafe3b4186f6b6457e060405160405180910390a380600460006101000a81548173ffffffffffffffffffffffffffffffffffffffff021916908373ffffffffffffffffffffffffffffffffffffffff1602179055505062000385565b62000177816000620001bd6401000000000262000f1e179091906401000000009004565b8073ffffffffffffffffffffffffffffffffffffffff167f47d1c22a25bb3a5d4e481b9b1e6944c2eade3181a0a20b495ed61d35b5323f2460405160405180910390a250565b600073ffffffffffffffffffffffffffffffffffffffff168173ffffffffffffffffffffffffffffffffffffffff161415620001f857600080fd5b6200021382826200027c640100000000026401000000009004565b156200021e57600080fd5b60018260000160008373ffffffffffffffffffffffffffffffffffffffff1673ffffffffffffffffffffffffffffffffffffffff16815260200190815260200160002060006101000a81548160ff0219169083151502179055505050565b60008073ffffffffffffffffffffffffffffffffffffffff168273ffffffffffffffffffffffffffffffffffffffff161415620002b857600080fd5b8260000160008373ffffffffffffffffffffffffffffffffffffffff1673ffffffffffffffffffffffffffffffffffffffff16815260200190815260200160002060009054906101000a900460ff16905092915050565b60006200031d825162000351565b905092915050565b6000602082840312156200033857600080fd5b600062000348848285016200030f565b91505092915050565b60006200035e8262000365565b9050919050565b600073ffffffffffffffffffffffffffffffffffffffff82169050919050565b6117d180620003956000396000f3fe608060405234801561001057600080fd5b50600436106100c6576000357c0100000000000000000000000000000000000000000000000000000000900480638f32d59b1161008e5780638f32d59b1461015b5780639188d31214610179578063c1debea4146101ac578063e5c8b03d146101c8578063eb12d61e146101d2578063f2fde38b146101ee576100c6565b8063715018a6146100cb5780637df73e27146100d55780637e09ef42146101055780638a984385146101215780638da5cb5b1461013d575b600080fd5b6100d361020a565b005b6100ef60048036036100ea91908101906110bf565b6102dc565b6040516100fc91906114b3565b60405180910390f35b61011f600480360361011a9190810190611152565b6102f9565b005b61013b6004803603610136919081019061117b565b610402565b005b610145610729565b6040516101529190611446565b60405180910390f35b610163610753565b60405161017091906114b3565b60405180910390f35b610193600480360361018e9190810190611152565b6107ab565b6040516101a39493929190611609565b60405180910390f35b6101c660048036036101c19190810190611111565b6108a4565b005b6101d0610bed565b005b6101ec60048036036101e791908101906110bf565b610bf8565b005b610208600480360361020391908101906110bf565b610c16565b005b610212610753565b61021b57600080fd5b600073ffffffffffffffffffffffffffffffffffffffff16600160009054906101000a900473ffffffffffffffffffffffffffffffffffffffff1673ffffffffffffffffffffffffffffffffffffffff167f8be0079c531659141344cd1fd0a4f28419497f9722a3daafe3b4186f6b6457e060405160405180910390a36000600160006101000a81548173ffffffffffffffffffffffffffffffffffffffff021916908373ffffffffffffffffffffffffffffffffffffffff160217905550565b60006102f2826000610c3390919063ffffffff16565b9050919050565b806000600260008381526020019081526020016000206004015411610353576040517f08c379a000000000000000000000000000000000000000000000000000000000815260040161034a9061154e565b60405180910390fd5b61035c336102dc565b61036557600080fd5b600015156002600084815260200190815260200160002060030160009054906101000a900460ff161515146103cf576040517f08c379a00000000000000000000000000000000000000000000000000000000081526004016103c6906115ce565b60405180910390fd5b60016002600084815260200190815260200160002060030160006101000a81548160ff0219169083151502179055505050565b61040a610753565b61041357600080fd5b60008211610456576040517f08c379a000000000000000000000000000000000000000000000000000000000815260040161044d906115ae565b60405180910390fd5b60008311610499576040517f08c379a0000000000000000000000000000000000000000000000000000000008152600401610490906114ee565b60405180910390fd5b60006002600085815260200190815260200160002060040154146104f2576040517f08c379a00000000000000000000000000000000000000000000000000000000081526004016104e99061158e565b60405180910390fd5b6000600360008381526020019081526020016000205414610548576040517f08c379a000000000000000000000000000000000000000000000000000000000815260040161053f906114ce565b60405180910390fd5b600460009054906101000a900473ffffffffffffffffffffffffffffffffffffffff1673ffffffffffffffffffffffffffffffffffffffff166340c10f1930846040518363ffffffff167c01000000000000000000000000000000000000000000000000000000000281526004016105c192919061148a565b602060405180830381600087803b1580156105db57600080fd5b505af11580156105ef573d6000803e3d6000fd5b505050506040513d601f19601f8201168201806040525061061391908101906110e8565b5061061c610fca565b6040518060c001604052808381526020018581526020018481526020016000151581526020013373ffffffffffffffffffffffffffffffffffffffff16815260200160018152509050806002600086815260200190815260200160002060008201518160000155602082015181600101556040820151816002015560608201518160030160006101000a81548160ff02191690831515021790555060808201518160030160016101000a81548173ffffffffffffffffffffffffffffffffffffffff021916908373ffffffffffffffffffffffffffffffffffffffff16021790555060a0820151816004015590505083600360008481526020019081526020016000208190555050505050565b6000600160009054906101000a900473ffffffffffffffffffffffffffffffffffffffff16905090565b6000600160009054906101000a900473ffffffffffffffffffffffffffffffffffffffff1673ffffffffffffffffffffffffffffffffffffffff163373ffffffffffffffffffffffffffffffffffffffff1614905090565b60008060008084600060026000838152602001908152602001600020600401541161080b576040517f08c379a00000000000000000000000000000000000000000000000000000000081526004016108029061154e565b60405180910390fd5b60026000878152602001908152602001600020600101546002600088815260200190815260200160002060030160019054906101000a900473ffffffffffffffffffffffffffffffffffffffff166002600089815260200190815260200160002060020154600260008a815260200190815260200160002060030160009054906101000a900460ff169450945094509450509193509193565b6000818051906020012090506000600360008381526020019081526020016000205490506000811161090b576040517f08c379a00000000000000000000000000000000000000000000000000000000081526004016109029061156e565b60405180910390fd5b600115156002600083815260200190815260200160002060030160009054906101000a900460ff16151514610975576040517f08c379a000000000000000000000000000000000000000000000000000000000815260040161096c9061152e565b60405180910390fd5b816002600083815260200190815260200160002060000154146109cd576040517f08c379a00000000000000000000000000000000000000000000000000000000081526004016109c49061150e565b60405180910390fd5b600460009054906101000a900473ffffffffffffffffffffffffffffffffffffffff1673ffffffffffffffffffffffffffffffffffffffff1663a9059cbb3360026000858152602001908152602001600020600201546040518363ffffffff167c0100000000000000000000000000000000000000000000000000000000028152600401610a5c929190611461565b602060405180830381600087803b158015610a7657600080fd5b505af1158015610a8a573d6000803e3d6000fd5b505050506040513d601f19601f82011682018060405250610aae91908101906110e8565b503373ffffffffffffffffffffffffffffffffffffffff166002600083815260200190815260200160002060030160019054906101000a900473ffffffffffffffffffffffffffffffffffffffff1673ffffffffffffffffffffffffffffffffffffffff167f80de5a7d3e27e32cfffc07551af7c9ee302a01b5456991722d7ef54193eab3566002600085815260200190815260200160002060010154604051610b5891906115ee565b60405180910390a3600360008381526020019081526020016000206000905560026000828152602001908152602001600020600080820160009055600182016000905560028201600090556003820160006101000a81549060ff02191690556003820160016101000a81549073ffffffffffffffffffffffffffffffffffffffff021916905560048201600090555050505050565b610bf633610cc5565b565b610c01336102dc565b610c0a57600080fd5b610c1381610d1f565b50565b610c1e610753565b610c2757600080fd5b610c3081610d79565b50565b60008073ffffffffffffffffffffffffffffffffffffffff168273ffffffffffffffffffffffffffffffffffffffff161415610c6e57600080fd5b8260000160008373ffffffffffffffffffffffffffffffffffffffff1673ffffffffffffffffffffffffffffffffffffffff16815260200190815260200160002060009054906101000a900460ff16905092915050565b610cd9816000610e7390919063ffffffff16565b8073ffffffffffffffffffffffffffffffffffffffff167f3525e22824a8a7df2c9a6029941c824cf95b6447f1e13d5128fd3826d35afe8b60405160405180910390a250565b610d33816000610f1e90919063ffffffff16565b8073ffffffffffffffffffffffffffffffffffffffff167f47d1c22a25bb3a5d4e481b9b1e6944c2eade3181a0a20b495ed61d35b5323f2460405160405180910390a250565b600073ffffffffffffffffffffffffffffffffffffffff168173ffffffffffffffffffffffffffffffffffffffff161415610db357600080fd5b8073ffffffffffffffffffffffffffffffffffffffff16600160009054906101000a900473ffffffffffffffffffffffffffffffffffffffff1673ffffffffffffffffffffffffffffffffffffffff167f8be0079c531659141344cd1fd0a4f28419497f9722a3daafe3b4186f6b6457e060405160405180910390a380600160006101000a81548173ffffffffffffffffffffffffffffffffffffffff021916908373ffffffffffffffffffffffffffffffffffffffff16021790555050565b600073ffffffffffffffffffffffffffffffffffffffff168173ffffffffffffffffffffffffffffffffffffffff161415610ead57600080fd5b610eb78282610c33565b610ec057600080fd5b60008260000160008373ffffffffffffffffffffffffffffffffffffffff1673ffffffffffffffffffffffffffffffffffffffff16815260200190815260200160002060006101000a81548160ff0219169083151502179055505050565b600073ffffffffffffffffffffffffffffffffffffffff168173ffffffffffffffffffffffffffffffffffffffff161415610f5857600080fd5b610f628282610c33565b15610f6c57600080fd5b60018260000160008373ffffffffffffffffffffffffffffffffffffffff1673ffffffffffffffffffffffffffffffffffffffff16815260200190815260200160002060006101000a81548160ff0219169083151502179055505050565b6040518060c00160405280600080191681526020016000815260200160008152602001600015158152602001600073ffffffffffffffffffffffffffffffffffffffff168152602001600081525090565b60006110278235611700565b905092915050565b600061103b8251611712565b905092915050565b600061104f823561171e565b905092915050565b600082601f83011261106857600080fd5b813561107b6110768261167b565b61164e565b9150808252602083016020830185838301111561109757600080fd5b6110a2838284611788565b50505092915050565b60006110b78235611748565b905092915050565b6000602082840312156110d157600080fd5b60006110df8482850161101b565b91505092915050565b6000602082840312156110fa57600080fd5b60006111088482850161102f565b91505092915050565b60006020828403121561112357600080fd5b600082013567ffffffffffffffff81111561113d57600080fd5b61114984828501611057565b91505092915050565b60006020828403121561116457600080fd5b6000611172848285016110ab565b91505092915050565b60008060006060848603121561119057600080fd5b600061119e868287016110ab565b93505060206111af868287016110ab565b92505060406111c086828701611043565b9150509250925092565b6111d381611752565b82525050565b6111e2816116b8565b82525050565b6111f1816116ca565b82525050565b6000611204600f836116a7565b91507f6475706c6963617465645f6861736800000000000000000000000000000000006000830152602082019050919050565b60006112446010836116a7565b91507f6e6f5f76616c69645f636172645f6964000000000000000000000000000000006000830152602082019050919050565b6000611284600c836116a7565b91507f77726f6e675f73656372657400000000000000000000000000000000000000006000830152602082019050919050565b60006112c4600a836116a7565b91507f6e6f745f616374697665000000000000000000000000000000000000000000006000830152602082019050919050565b60006113046009836116a7565b91507f6e6f745f657869737400000000000000000000000000000000000000000000006000830152602082019050919050565b6000611344600e836116a7565b91507f686173685f6e6f745f666f756e640000000000000000000000000000000000006000830152602082019050919050565b6000611384600a836116a7565b91507f636172645f6578697374000000000000000000000000000000000000000000006000830152602082019050919050565b60006113c4600c836116a7565b91507f656d7074795f746f6b656e7300000000000000000000000000000000000000006000830152602082019050919050565b6000611404600f836116a7565b91507f6e6f745f6163746976617461626c6500000000000000000000000000000000006000830152602082019050919050565b611440816116f6565b82525050565b600060208201905061145b60008301846111d9565b92915050565b600060408201905061147660008301856111ca565b6114836020830184611437565b9392505050565b600060408201905061149f60008301856111d9565b6114ac6020830184611437565b9392505050565b60006020820190506114c860008301846111e8565b92915050565b600060208201905081810360008301526114e7816111f7565b9050919050565b6000602082019050818103600083015261150781611237565b9050919050565b6000602082019050818103600083015261152781611277565b9050919050565b60006020820190508181036000830152611547816112b7565b9050919050565b60006020820190508181036000830152611567816112f7565b9050919050565b6000602082019050818103600083015261158781611337565b9050919050565b600060208201905081810360008301526115a781611377565b9050919050565b600060208201905081810360008301526115c7816113b7565b9050919050565b600060208201905081810360008301526115e7816113f7565b9050919050565b60006020820190506116036000830184611437565b92915050565b600060808201905061161e6000830187611437565b61162b60208301866111d9565b6116386040830185611437565b61164560608301846111e8565b95945050505050565b6000604051905081810181811067ffffffffffffffff8211171561167157600080fd5b8060405250919050565b600067ffffffffffffffff82111561169257600080fd5b601f19601f8301169050602081019050919050565b600082825260208201905092915050565b60006116c3826116d6565b9050919050565b60008115159050919050565b600073ffffffffffffffffffffffffffffffffffffffff82169050919050565b6000819050919050565b600061170b82611728565b9050919050565b60008115159050919050565b6000819050919050565b600073ffffffffffffffffffffffffffffffffffffffff82169050919050565b6000819050919050565b600061175d82611764565b9050919050565b600061176f82611776565b9050919050565b6000611781826116d6565b9050919050565b8281833760008383015250505056fea265627a7a72305820524a3920c07066504e2f90dbd5b1c49c748779f2f7af62e887f1114d349978c36c6578706572696d656e74616cf50037",
  "source": "pragma solidity ^0.5.2;\npragma experimental ABIEncoderV2;\n\nimport \"../../node_modules/openzeppelin-solidity/contracts/math/SafeMath.sol\";\nimport \"../../node_modules/openzeppelin-solidity/contracts/access/roles/SignerRole.sol\";\nimport \"../../node_modules/openzeppelin-solidity/contracts/ownership/Ownable.sol\";\nimport \"./Devices.sol\";\nimport \"./token/ERC223.sol\";\n\ncontract PrepaidCardManager is SignerRole, Ownable {\n  using SafeMath for uint256;\n\n  event CardValidated(\n    address indexed owner,\n    uint256 cardId,\n    address indexed user\n  );\n\n  struct Card {\n    bytes32 hash;\n    uint256 cardId;  \n    uint256 tokens;\n    bool active;\n    address owner;\n    uint initialized;\n  }\n\n  mapping (uint256 => Card) private cards_;\n  mapping (bytes32 => uint256) private cardsByHash_;\n\n  modifier cardExists(uint256 _cardId) {\n    require(cards_[_cardId].initialized > 0, \"not_exist\");\n    _;\n  }\n  \n  ERC223 private _erc223;\n  \n  constructor (address _erc223Addr) public{\n    _erc223 = ERC223(_erc223Addr);    \n  }\n\n  function getCard(uint256 _cardId) cardExists(_cardId) public view returns(uint256 cardId, address owner, uint256 tokens, bool active)  {\n    return (cards_[_cardId].cardId, cards_[_cardId].owner, cards_[_cardId].tokens, cards_[_cardId].active);\n  }\n\n  function addCard(uint256 _cardId, uint256 _tokens, bytes32 _hash) onlyOwner public {\n    require(_tokens > 0, \"empty_tokens\");\n    require(_cardId > 0, \"no_valid_card_id\");\n    require(cards_[_cardId].initialized == 0, \"card_exist\");\n    require(cardsByHash_[_hash] == 0, \"duplicated_hash\");\n\n    _erc223.mint(address(this),_tokens);\n    Card memory newCard = Card(_hash, _cardId, _tokens, false, msg.sender, 1);\n    cards_[_cardId] = newCard;   \n    cardsByHash_[_hash] = _cardId;\n  }\n\n  function activateCard(uint256 _cardId) cardExists(_cardId) onlySigner public {\n    require(cards_[_cardId].active == false, \"not_activatable\");\n    cards_[_cardId].active=true;    \n  }\n\n  function validateCard(bytes memory _secret) public {\n    bytes32 hash = keccak256(_secret);\n    uint256 cardId = cardsByHash_[hash];\n    require(cardId > 0, \"hash_not_found\");\n    require(cards_[cardId].active == true, \"not_active\");\n    require(cards_[cardId].hash ==  hash, \"wrong_secret\");\n  \n    // TODO :sender vs origin\n    //_erc223.transfer(address(this), msg.sender,cards_[cardId].tokens);\n    _erc223.transfer( msg.sender,cards_[cardId].tokens);\n\n    emit CardValidated(cards_[cardId].owner, cards_[cardId].cardId, msg.sender);\n  \n    delete cardsByHash_[hash];\n    delete cards_[cardId];\n  }\n\n}",
  "sourcePath": "/home/jordi/ws/jordiescudero/bloomen-wallet/bloomen-wallet-truffle/contracts/bloomen/PrepaidCardManager.sol",
  "compiler": {
    "name": "solc",
    "version": "0.5.7+commit.6da8b019.Emscripten.clang"
  },
  "schemaVersion": "3.0.6",
  "updatedAt": "2019-04-18T10:25:06.146Z",
  "devdoc": {
    "methods": {
      "isOwner()": {
        "return": "true if `msg.sender` is the owner of the contract."
      },
      "owner()": {
        "return": "the address of the owner."
      },
      "renounceOwnership()": {
        "details": "Allows the current owner to relinquish control of the contract. It will not be possible to call the functions with the `onlyOwner` modifier anymore."
      },
      "transferOwnership(address)": {
        "details": "Allows the current owner to transfer control of the contract to a newOwner.",
        "params": {
          "newOwner": "The address to transfer ownership to."
        }
      }
    }
  },
  "userdoc": {
    "methods": {
      "renounceOwnership()": {
        "notice": "Renouncing ownership will leave the contract without an owner, thereby removing any functionality that is only available to the owner."
      }
    }
  }
}