{
  "contractName": "PrepaidCardManager",
  "abi": [
    {
      "constant": true,
      "inputs": [
        {
          "name": "_assetId",
          "type": "uint256"
        },
        {
          "name": "_schemaId",
          "type": "uint256"
        }
      ],
      "name": "checkOwnership",
      "outputs": [
        {
          "name": "",
          "type": "bool"
        }
      ],
      "payable": false,
      "stateMutability": "view",
      "type": "function",
      "signature": "0x04edae0f"
    },
    {
      "constant": true,
      "inputs": [],
      "name": "name",
      "outputs": [
        {
          "name": "",
          "type": "string"
        }
      ],
      "payable": false,
      "stateMutability": "view",
      "type": "function",
      "signature": "0x06fdde03"
    },
    {
      "constant": false,
      "inputs": [
        {
          "name": "_assetId",
          "type": "uint256"
        },
        {
          "name": "_schemaId",
          "type": "uint256"
        },
        {
          "name": "_amount",
          "type": "uint256"
        },
        {
          "name": "_dappId",
          "type": "string"
        },
        {
          "name": "_description",
          "type": "string"
        }
      ],
      "name": "buy",
      "outputs": [],
      "payable": false,
      "stateMutability": "nonpayable",
      "type": "function",
      "signature": "0x080e6887"
    },
    {
      "constant": false,
      "inputs": [
        {
          "name": "_to",
          "type": "address"
        },
        {
          "name": "_value",
          "type": "uint256"
        },
        {
          "name": "_data",
          "type": "uint256"
        }
      ],
      "name": "transfer",
      "outputs": [],
      "payable": false,
      "stateMutability": "nonpayable",
      "type": "function",
      "signature": "0x095bcdb6"
    },
    {
      "constant": false,
      "inputs": [
        {
          "name": "spender",
          "type": "address"
        },
        {
          "name": "value",
          "type": "uint256"
        }
      ],
      "name": "approve",
      "outputs": [
        {
          "name": "",
          "type": "bool"
        }
      ],
      "payable": false,
      "stateMutability": "nonpayable",
      "type": "function",
      "signature": "0x095ea7b3"
    },
    {
      "constant": false,
      "inputs": [
        {
          "name": "_deviceHash",
          "type": "bytes32"
        },
        {
          "name": "_assetId",
          "type": "uint256"
        },
        {
          "name": "_schemaId",
          "type": "uint256"
        },
        {
          "name": "_lifeTime",
          "type": "uint256"
        },
        {
          "name": "_dappId",
          "type": "string"
        }
      ],
      "name": "handshake",
      "outputs": [],
      "payable": false,
      "stateMutability": "nonpayable",
      "type": "function",
      "signature": "0x132c6aa4"
    },
    {
      "constant": true,
      "inputs": [],
      "name": "totalSupply",
      "outputs": [
        {
          "name": "",
          "type": "uint256"
        }
      ],
      "payable": false,
      "stateMutability": "view",
      "type": "function",
      "signature": "0x18160ddd"
    },
    {
      "constant": false,
      "inputs": [
        {
          "name": "_deviceHash",
          "type": "bytes32"
        }
      ],
      "name": "removeDevice",
      "outputs": [],
      "payable": false,
      "stateMutability": "nonpayable",
      "type": "function",
      "signature": "0x1d266200"
    },
    {
      "constant": true,
      "inputs": [
        {
          "name": "_target",
          "type": "address"
        },
        {
          "name": "_deviceHash",
          "type": "bytes32"
        }
      ],
      "name": "isAllowedForAddress",
      "outputs": [
        {
          "name": "",
          "type": "bool"
        }
      ],
      "payable": false,
      "stateMutability": "view",
      "type": "function",
      "signature": "0x1d841899"
    },
    {
      "constant": true,
      "inputs": [
        {
          "name": "theNumber",
          "type": "uint256"
        },
        {
          "name": "percentage",
          "type": "uint256"
        }
      ],
      "name": "calculatePercentage",
      "outputs": [
        {
          "name": "",
          "type": "uint256"
        }
      ],
      "payable": false,
      "stateMutability": "view",
      "type": "function",
      "signature": "0x2133e3b9"
    },
    {
      "constant": true,
      "inputs": [
        {
          "name": "_deviceHash",
          "type": "bytes32"
        }
      ],
      "name": "getAddress",
      "outputs": [
        {
          "name": "",
          "type": "address"
        }
      ],
      "payable": false,
      "stateMutability": "view",
      "type": "function",
      "signature": "0x21f8a721"
    },
    {
      "constant": false,
      "inputs": [
        {
          "name": "from",
          "type": "address"
        },
        {
          "name": "to",
          "type": "address"
        },
        {
          "name": "value",
          "type": "uint256"
        }
      ],
      "name": "transferFrom",
      "outputs": [
        {
          "name": "",
          "type": "bool"
        }
      ],
      "payable": false,
      "stateMutability": "nonpayable",
      "type": "function",
      "signature": "0x23b872dd"
    },
    {
      "constant": true,
      "inputs": [
        {
          "name": "_schemaId",
          "type": "uint256"
        }
      ],
      "name": "getSchema",
      "outputs": [
        {
          "components": [
            {
              "name": "expirationDate",
              "type": "uint256"
            },
            {
              "name": "schemaId",
              "type": "uint256"
            },
            {
              "name": "amount",
              "type": "uint256"
            },
            {
              "name": "assetLifeTime",
              "type": "uint256"
            },
            {
              "components": [
                {
                  "name": "percent",
                  "type": "uint256"
                },
                {
                  "name": "receptor",
                  "type": "address"
                },
                {
                  "name": "description",
                  "type": "string"
                }
              ],
              "name": "clearingHouseRules",
              "type": "tuple[]"
            },
            {
              "name": "valid",
              "type": "bool"
            }
          ],
          "name": "",
          "type": "tuple"
        }
      ],
      "payable": false,
      "stateMutability": "view",
      "type": "function",
      "signature": "0x2b26fb29"
    },
    {
      "constant": true,
      "inputs": [],
      "name": "decimals",
      "outputs": [
        {
          "name": "",
          "type": "uint8"
        }
      ],
      "payable": false,
      "stateMutability": "view",
      "type": "function",
      "signature": "0x313ce567"
    },
    {
      "constant": false,
      "inputs": [
        {
          "name": "spender",
          "type": "address"
        },
        {
          "name": "addedValue",
          "type": "uint256"
        }
      ],
      "name": "increaseAllowance",
      "outputs": [
        {
          "name": "",
          "type": "bool"
        }
      ],
      "payable": false,
      "stateMutability": "nonpayable",
      "type": "function",
      "signature": "0x39509351"
    },
    {
      "constant": false,
      "inputs": [
        {
          "name": "_schemaId",
          "type": "uint256"
        }
      ],
      "name": "validateSchema",
      "outputs": [],
      "payable": false,
      "stateMutability": "nonpayable",
      "type": "function",
      "signature": "0x4014d468"
    },
    {
      "constant": false,
      "inputs": [
        {
          "name": "to",
          "type": "address"
        },
        {
          "name": "value",
          "type": "uint256"
        }
      ],
      "name": "mint",
      "outputs": [
        {
          "name": "",
          "type": "bool"
        }
      ],
      "payable": false,
      "stateMutability": "nonpayable",
      "type": "function",
      "signature": "0x40c10f19"
    },
    {
      "constant": false,
      "inputs": [
        {
          "name": "value",
          "type": "uint256"
        }
      ],
      "name": "burn",
      "outputs": [],
      "payable": false,
      "stateMutability": "nonpayable",
      "type": "function",
      "signature": "0x42966c68"
    },
    {
      "constant": false,
      "inputs": [
        {
          "name": "_deviceHash",
          "type": "bytes32"
        },
        {
          "name": "_assetId",
          "type": "uint256"
        },
        {
          "name": "_schemaId",
          "type": "uint256"
        },
        {
          "name": "_lifeTime",
          "type": "uint256"
        },
        {
          "name": "_dappId",
          "type": "string"
        },
        {
          "name": "_description",
          "type": "string"
        }
      ],
      "name": "handshake",
      "outputs": [],
      "payable": false,
      "stateMutability": "nonpayable",
      "type": "function",
      "signature": "0x42b4bed4"
    },
    {
      "constant": true,
      "inputs": [],
      "name": "getAssetsPageCount",
      "outputs": [
        {
          "name": "",
          "type": "uint256"
        }
      ],
      "payable": false,
      "stateMutability": "view",
      "type": "function",
      "signature": "0x4aa3bfeb"
    },
    {
      "constant": false,
      "inputs": [
        {
          "name": "_from",
          "type": "address"
        },
        {
          "name": "_value",
          "type": "uint256"
        },
        {
          "name": "_schemaId",
          "type": "uint256"
        }
      ],
      "name": "tokenFallback",
      "outputs": [],
      "payable": false,
      "stateMutability": "nonpayable",
      "type": "function",
      "signature": "0x4f4ee353"
    },
    {
      "constant": false,
      "inputs": [
        {
          "name": "_schemaId",
          "type": "uint256"
        }
      ],
      "name": "invalidateSchema",
      "outputs": [],
      "payable": false,
      "stateMutability": "nonpayable",
      "type": "function",
      "signature": "0x5a16f5c4"
    },
    {
      "constant": true,
      "inputs": [
        {
          "name": "_page",
          "type": "uint256"
        }
      ],
      "name": "getDevices",
      "outputs": [
        {
          "components": [
            {
              "name": "expirationDate",
              "type": "uint256"
            },
            {
              "name": "assetId",
              "type": "uint256"
            },
            {
              "name": "schemaId",
              "type": "uint256"
            },
            {
              "name": "dappId",
              "type": "string"
            },
            {
              "name": "description",
              "type": "string"
            }
          ],
          "name": "",
          "type": "tuple[]"
        }
      ],
      "payable": false,
      "stateMutability": "view",
      "type": "function",
      "signature": "0x6d9db7ed"
    },
    {
      "constant": true,
      "inputs": [
        {
          "name": "_target",
          "type": "address"
        },
        {
          "name": "_assetId",
          "type": "uint256"
        },
        {
          "name": "_schemaId",
          "type": "uint256"
        }
      ],
      "name": "checkOwnershipForAddress",
      "outputs": [
        {
          "name": "",
          "type": "bool"
        }
      ],
      "payable": false,
      "stateMutability": "view",
      "type": "function",
      "signature": "0x700651aa"
    },
    {
      "constant": true,
      "inputs": [
        {
          "name": "owner",
          "type": "address"
        }
      ],
      "name": "balanceOf",
      "outputs": [
        {
          "name": "",
          "type": "uint256"
        }
      ],
      "payable": false,
      "stateMutability": "view",
      "type": "function",
      "signature": "0x70a08231"
    },
    {
      "constant": false,
      "inputs": [],
      "name": "renounceOwnership",
      "outputs": [],
      "payable": false,
      "stateMutability": "nonpayable",
      "type": "function",
      "signature": "0x715018a6"
    },
    {
      "constant": true,
      "inputs": [
        {
          "name": "_deviceHash",
          "type": "bytes32"
        }
      ],
      "name": "isAllowed",
      "outputs": [
        {
          "name": "",
          "type": "bool"
        }
      ],
      "payable": false,
      "stateMutability": "view",
      "type": "function",
      "signature": "0x78755295"
    },
    {
      "constant": false,
      "inputs": [
        {
          "name": "from",
          "type": "address"
        },
        {
          "name": "value",
          "type": "uint256"
        }
      ],
      "name": "burnFrom",
      "outputs": [],
      "payable": false,
      "stateMutability": "nonpayable",
      "type": "function",
      "signature": "0x79cc6790"
    },
    {
      "constant": false,
      "inputs": [
        {
          "name": "_assetId",
          "type": "uint256"
        },
        {
          "name": "_schemaId",
          "type": "uint256"
        },
        {
          "name": "_amount",
          "type": "uint256"
        },
        {
          "name": "_dappId",
          "type": "string"
        }
      ],
      "name": "buy",
      "outputs": [],
      "payable": false,
      "stateMutability": "nonpayable",
      "type": "function",
      "signature": "0x7de3b0ed"
    },
    {
      "constant": true,
      "inputs": [
        {
          "name": "account",
          "type": "address"
        }
      ],
      "name": "isSigner",
      "outputs": [
        {
          "name": "",
          "type": "bool"
        }
      ],
      "payable": false,
      "stateMutability": "view",
      "type": "function",
      "signature": "0x7df73e27"
    },
    {
      "constant": true,
      "inputs": [],
      "name": "owner",
      "outputs": [
        {
          "name": "",
          "type": "address"
        }
      ],
      "payable": false,
      "stateMutability": "view",
      "type": "function",
      "signature": "0x8da5cb5b"
    },
    {
      "constant": true,
      "inputs": [],
      "name": "isOwner",
      "outputs": [
        {
          "name": "",
          "type": "bool"
        }
      ],
      "payable": false,
      "stateMutability": "view",
      "type": "function",
      "signature": "0x8f32d59b"
    },
    {
      "constant": true,
      "inputs": [],
      "name": "getSchemas",
      "outputs": [
        {
          "name": "",
          "type": "uint256[]"
        }
      ],
      "payable": false,
      "stateMutability": "view",
      "type": "function",
      "signature": "0x95ba8d18"
    },
    {
      "constant": true,
      "inputs": [],
      "name": "symbol",
      "outputs": [
        {
          "name": "",
          "type": "string"
        }
      ],
      "payable": false,
      "stateMutability": "view",
      "type": "function",
      "signature": "0x95d89b41"
    },
    {
      "constant": false,
      "inputs": [
        {
          "name": "account",
          "type": "address"
        }
      ],
      "name": "addMinter",
      "outputs": [],
      "payable": false,
      "stateMutability": "nonpayable",
      "type": "function",
      "signature": "0x983b2d56"
    },
    {
      "constant": false,
      "inputs": [],
      "name": "renounceMinter",
      "outputs": [],
      "payable": false,
      "stateMutability": "nonpayable",
      "type": "function",
      "signature": "0x98650275"
    },
    {
      "constant": false,
      "inputs": [
        {
          "name": "_schemaId",
          "type": "uint256"
        },
        {
          "name": "_data",
          "type": "bytes"
        }
      ],
      "name": "createSchema",
      "outputs": [],
      "payable": false,
      "stateMutability": "nonpayable",
      "type": "function",
      "signature": "0xa2086dab"
    },
    {
      "constant": false,
      "inputs": [
        {
          "name": "spender",
          "type": "address"
        },
        {
          "name": "subtractedValue",
          "type": "uint256"
        }
      ],
      "name": "decreaseAllowance",
      "outputs": [
        {
          "name": "",
          "type": "bool"
        }
      ],
      "payable": false,
      "stateMutability": "nonpayable",
      "type": "function",
      "signature": "0xa457c2d7"
    },
    {
      "constant": false,
      "inputs": [
        {
          "name": "_to",
          "type": "address"
        },
        {
          "name": "_value",
          "type": "uint256"
        }
      ],
      "name": "transfer",
      "outputs": [
        {
          "name": "",
          "type": "bool"
        }
      ],
      "payable": false,
      "stateMutability": "nonpayable",
      "type": "function",
      "signature": "0xa9059cbb"
    },
    {
      "constant": true,
      "inputs": [
        {
          "name": "account",
          "type": "address"
        }
      ],
      "name": "isMinter",
      "outputs": [
        {
          "name": "",
          "type": "bool"
        }
      ],
      "payable": false,
      "stateMutability": "view",
      "type": "function",
      "signature": "0xaa271e1a"
    },
    {
      "constant": true,
      "inputs": [],
      "name": "getDevicesPageCount",
      "outputs": [
        {
          "name": "",
          "type": "uint256"
        }
      ],
      "payable": false,
      "stateMutability": "view",
      "type": "function",
      "signature": "0xc8c2eb66"
    },
    {
      "constant": true,
      "inputs": [
        {
          "name": "_page",
          "type": "uint256"
        }
      ],
      "name": "getAssets",
      "outputs": [
        {
          "components": [
            {
              "name": "expirationDate",
              "type": "uint256"
            },
            {
              "name": "assetId",
              "type": "uint256"
            },
            {
              "name": "schemaId",
              "type": "uint256"
            },
            {
              "name": "dappId",
              "type": "string"
            },
            {
              "name": "description",
              "type": "string"
            }
          ],
          "name": "",
          "type": "tuple[]"
        }
      ],
      "payable": false,
      "stateMutability": "view",
      "type": "function",
      "signature": "0xd9212164"
    },
    {
      "constant": true,
      "inputs": [
        {
          "name": "owner",
          "type": "address"
        },
        {
          "name": "spender",
          "type": "address"
        }
      ],
      "name": "allowance",
      "outputs": [
        {
          "name": "",
          "type": "uint256"
        }
      ],
      "payable": false,
      "stateMutability": "view",
      "type": "function",
      "signature": "0xdd62ed3e"
    },
    {
      "constant": false,
      "inputs": [],
      "name": "renounceSigner",
      "outputs": [],
      "payable": false,
      "stateMutability": "nonpayable",
      "type": "function",
      "signature": "0xe5c8b03d"
    },
    {
      "constant": false,
      "inputs": [
        {
          "name": "account",
          "type": "address"
        }
      ],
      "name": "addSigner",
      "outputs": [],
      "payable": false,
      "stateMutability": "nonpayable",
      "type": "function",
      "signature": "0xeb12d61e"
    },
    {
      "constant": false,
      "inputs": [
        {
          "name": "newOwner",
          "type": "address"
        }
      ],
      "name": "transferOwnership",
      "outputs": [],
      "payable": false,
      "stateMutability": "nonpayable",
      "type": "function",
      "signature": "0xf2fde38b"
    },
    {
      "inputs": [],
      "payable": false,
      "stateMutability": "nonpayable",
      "type": "constructor",
      "signature": "constructor"
    },
    {
      "anonymous": false,
      "inputs": [
        {
          "indexed": true,
          "name": "owner",
          "type": "address"
        },
        {
          "indexed": false,
          "name": "cardId",
          "type": "uint256"
        },
        {
          "indexed": true,
          "name": "user",
          "type": "address"
        }
      ],
      "name": "CardValidated",
      "type": "event",
      "signature": "0x80de5a7d3e27e32cfffc07551af7c9ee302a01b5456991722d7ef54193eab356"
    },
    {
      "anonymous": false,
      "inputs": [
        {
          "indexed": true,
          "name": "account",
          "type": "address"
        }
      ],
      "name": "MinterAdded",
      "type": "event",
      "signature": "0x6ae172837ea30b801fbfcdd4108aa1d5bf8ff775444fd70256b44e6bf3dfc3f6"
    },
    {
      "anonymous": false,
      "inputs": [
        {
          "indexed": true,
          "name": "account",
          "type": "address"
        }
      ],
      "name": "MinterRemoved",
      "type": "event",
      "signature": "0xe94479a9f7e1952cc78f2d6baab678adc1b772d936c6583def489e524cb66692"
    },
    {
      "anonymous": false,
      "inputs": [
        {
          "indexed": true,
          "name": "from",
          "type": "address"
        },
        {
          "indexed": true,
          "name": "to",
          "type": "address"
        },
        {
          "indexed": false,
          "name": "value",
          "type": "uint256"
        }
      ],
      "name": "Transfer",
      "type": "event",
      "signature": "0xddf252ad1be2c89b69c2b068fc378daa952ba7f163c4a11628f55a4df523b3ef"
    },
    {
      "anonymous": false,
      "inputs": [
        {
          "indexed": true,
          "name": "owner",
          "type": "address"
        },
        {
          "indexed": true,
          "name": "spender",
          "type": "address"
        },
        {
          "indexed": false,
          "name": "value",
          "type": "uint256"
        }
      ],
      "name": "Approval",
      "type": "event",
      "signature": "0x8c5be1e5ebec7d5bd14f71427d1e84f3dd0314c0f7b2291e5b200ac8c7c3b925"
    },
    {
      "anonymous": false,
      "inputs": [
        {
          "indexed": true,
          "name": "previousOwner",
          "type": "address"
        },
        {
          "indexed": true,
          "name": "newOwner",
          "type": "address"
        }
      ],
      "name": "OwnershipTransferred",
      "type": "event",
      "signature": "0x8be0079c531659141344cd1fd0a4f28419497f9722a3daafe3b4186f6b6457e0"
    },
    {
      "anonymous": false,
      "inputs": [
        {
          "indexed": true,
          "name": "account",
          "type": "address"
        }
      ],
      "name": "SignerAdded",
      "type": "event",
      "signature": "0x47d1c22a25bb3a5d4e481b9b1e6944c2eade3181a0a20b495ed61d35b5323f24"
    },
    {
      "anonymous": false,
      "inputs": [
        {
          "indexed": true,
          "name": "account",
          "type": "address"
        }
      ],
      "name": "SignerRemoved",
      "type": "event",
      "signature": "0x3525e22824a8a7df2c9a6029941c824cf95b6447f1e13d5128fd3826d35afe8b"
    },
    {
      "constant": true,
      "inputs": [
        {
          "name": "_cardId",
          "type": "uint256"
        }
      ],
      "name": "getCard",
      "outputs": [
        {
          "name": "cardId",
          "type": "uint256"
        },
        {
          "name": "owner",
          "type": "address"
        },
        {
          "name": "tokens",
          "type": "uint256"
        },
        {
          "name": "active",
          "type": "bool"
        }
      ],
      "payable": false,
      "stateMutability": "view",
      "type": "function",
      "signature": "0x9188d312"
    },
    {
      "constant": false,
      "inputs": [
        {
          "name": "_cardId",
          "type": "uint256"
        },
        {
          "name": "_tokens",
          "type": "uint256"
        },
        {
          "name": "_hash",
          "type": "bytes32"
        }
      ],
      "name": "addCard",
      "outputs": [],
      "payable": false,
      "stateMutability": "nonpayable",
      "type": "function",
      "signature": "0x8a984385"
    },
    {
      "constant": false,
      "inputs": [
        {
          "name": "_cardId",
          "type": "uint256"
        }
      ],
      "name": "activateCard",
      "outputs": [],
      "payable": false,
      "stateMutability": "nonpayable",
      "type": "function",
      "signature": "0x7e09ef42"
    },
    {
      "constant": false,
      "inputs": [
        {
          "name": "_secret",
          "type": "bytes"
        }
      ],
      "name": "validateCard",
      "outputs": [],
      "payable": false,
      "stateMutability": "nonpayable",
      "type": "function",
      "signature": "0xc1debea4"
    }
  ],
  "bytecode": "0x60806040523480156200001157600080fd5b506040518060400160405280600b81526020017f426c6f6f6d656e436f696e0000000000000000000000000000000000000000008152506040518060400160405280600381526020017f424c4f000000000000000000000000000000000000000000000000000000000081525060028282826200009d33620001ce640100000000026401000000009004565b33600160006101000a81548173ffffffffffffffffffffffffffffffffffffffff021916908373ffffffffffffffffffffffffffffffffffffffff160217905550600160009054906101000a900473ffffffffffffffffffffffffffffffffffffffff1673ffffffffffffffffffffffffffffffffffffffff16600073ffffffffffffffffffffffffffffffffffffffff167f8be0079c531659141344cd1fd0a4f28419497f9722a3daafe3b4186f6b6457e060405160405180910390a3826007908051906020019062000173929190620003f4565b5081600890805190602001906200018c929190620003f4565b5080600960006101000a81548160ff021916908360ff160217905550505050620001c53362000238640100000000026401000000009004565b505050620004a3565b620001f2816000620002a26401000000000262003f1d179091906401000000009004565b8073ffffffffffffffffffffffffffffffffffffffff167f47d1c22a25bb3a5d4e481b9b1e6944c2eade3181a0a20b495ed61d35b5323f2460405160405180910390a250565b6200025c81600a620002a26401000000000262003f1d179091906401000000009004565b8073ffffffffffffffffffffffffffffffffffffffff167f6ae172837ea30b801fbfcdd4108aa1d5bf8ff775444fd70256b44e6bf3dfc3f660405160405180910390a250565b600073ffffffffffffffffffffffffffffffffffffffff168173ffffffffffffffffffffffffffffffffffffffff161415620002dd57600080fd5b620002f8828262000361640100000000026401000000009004565b156200030357600080fd5b60018260000160008373ffffffffffffffffffffffffffffffffffffffff1673ffffffffffffffffffffffffffffffffffffffff16815260200190815260200160002060006101000a81548160ff0219169083151502179055505050565b60008073ffffffffffffffffffffffffffffffffffffffff168273ffffffffffffffffffffffffffffffffffffffff1614156200039d57600080fd5b8260000160008373ffffffffffffffffffffffffffffffffffffffff1673ffffffffffffffffffffffffffffffffffffffff16815260200190815260200160002060009054906101000a900460ff16905092915050565b828054600181600116156101000203166002900490600052602060002090601f016020900481019282601f106200043757805160ff191683800117855562000468565b8280016001018555821562000468579182015b82811115620004675782518255916020019190600101906200044a565b5b5090506200047791906200047b565b5090565b620004a091905b808211156200049c57600081600090555060010162000482565b5090565b90565b615f1780620004b36000396000f3fe608060405234801561001057600080fd5b50600436106102f3576000357c010000000000000000000000000000000000000000000000000000000090048063715018a61161019f578063983b2d5611610106578063c1debea4116100bf578063dd62ed3e11610099578063dd62ed3e1461096d578063e5c8b03d1461099d578063eb12d61e146109a7578063f2fde38b146109c3576102f3565b8063c1debea414610903578063c8c2eb661461091f578063d92121641461093d576102f3565b8063983b2d5614610831578063986502751461084d578063a2086dab14610857578063a457c2d714610873578063a9059cbb146108a3578063aa271e1a146108d3576102f3565b80638a984385116101585780638a9843851461076a5780638da5cb5b146107865780638f32d59b146107a45780639188d312146107c257806395ba8d18146107f557806395d89b4114610813576102f3565b8063715018a6146106ac57806378755295146106b657806379cc6790146106e65780637de3b0ed146107025780637df73e271461071e5780637e09ef421461074e576102f3565b80632b26fb291161025e57806342b4bed4116102175780635a16f5c4116101f15780635a16f5c4146106005780636d9db7ed1461061c578063700651aa1461064c57806370a082311461067c576102f3565b806342b4bed4146105aa5780634aa3bfeb146105c65780634f4ee353146105e4576102f3565b80632b26fb29146104c4578063313ce567146104f457806339509351146105125780634014d4681461054257806340c10f191461055e57806342966c681461058e576102f3565b806318160ddd116102b057806318160ddd146103ca5780631d266200146103e85780631d841899146104045780632133e3b91461043457806321f8a7211461046457806323b872dd14610494576102f3565b806304edae0f146102f857806306fdde0314610328578063080e688714610346578063095bcdb614610362578063095ea7b31461037e578063132c6aa4146103ae575b600080fd5b610312600480360361030d9190810190614cec565b6109df565b60405161031f9190615900565b60405180910390f35b6103306109f4565b60405161033d919061591b565b60405180910390f35b610360600480360361035b9190810190614df2565b610a96565b005b61037c60048036036103779190810190614a6e565b610aab565b005b61039860048036036103939190810190614a32565b610ac7565b6040516103a59190615900565b60405180910390f35b6103c860048036036103c39190810190614ae6565b610ade565b005b6103d2610b03565b6040516103df9190615bdf565b60405180910390f35b61040260048036036103fd9190810190614abd565b610b0d565b005b61041e600480360361041991908101906149f6565b610b1a565b60405161042b9190615900565b60405180910390f35b61044e60048036036104499190810190614cec565b610b9c565b60405161045b9190615bdf565b60405180910390f35b61047e60048036036104799190810190614abd565b610bb3565b60405161048b9190615848565b60405180910390f35b6104ae60048036036104a991908101906149a7565b610c0a565b6040516104bb9190615900565b60405180910390f35b6104de60048036036104d99190810190614c6f565b610cbb565b6040516104eb9190615bbd565b60405180910390f35b6104fc610ee5565b6040516105099190615c3f565b60405180910390f35b61052c60048036036105279190810190614a32565b610efc565b6040516105399190615900565b60405180910390f35b61055c60048036036105579190810190614c6f565b610fa1565b005b61057860048036036105739190810190614a32565b610fc0565b6040516105859190615900565b60405180910390f35b6105a860048036036105a39190810190614c6f565b610fe8565b005b6105c460048036036105bf9190810190614b75565b610ff5565b005b6105ce61100c565b6040516105db9190615bdf565b60405180910390f35b6105fe60048036036105f99190810190614a6e565b611063565b005b61061a60048036036106159190810190614c6f565b61112b565b005b61063660048036036106319190810190614c6f565b61114a565b60405161064391906158bc565b60405180910390f35b61066660048036036106619190810190614a6e565b611478565b6040516106739190615900565b60405180910390f35b61069660048036036106919190810190614942565b61148e565b6040516106a39190615bdf565b60405180910390f35b6106b46114d7565b005b6106d060048036036106cb9190810190614abd565b6115a9565b6040516106dd9190615900565b60405180910390f35b61070060048036036106fb9190810190614a32565b611643565b005b61071c60048036036107179190810190614d77565b611651565b005b61073860048036036107339190810190614942565b611674565b6040516107459190615900565b60405180910390f35b61076860048036036107639190810190614c6f565b611691565b005b610784600480360361077f9190810190614d28565b61179a565b005b61078e6119ff565b60405161079b9190615848565b60405180910390f35b6107ac611a29565b6040516107b99190615900565b60405180910390f35b6107dc60048036036107d79190810190614c6f565b611a81565b6040516107ec9493929190615bfa565b60405180910390f35b6107fd611b7a565b60405161080a91906158de565b60405180910390f35b61081b611bd2565b604051610828919061591b565b60405180910390f35b61084b60048036036108469190810190614942565b611c74565b005b610855611c92565b005b610871600480360361086c9190810190614c98565b611c9d565b005b61088d60048036036108889190810190614a32565b611cbc565b60405161089a9190615900565b60405180910390f35b6108bd60048036036108b89190810190614a32565b611d61565b6040516108ca9190615900565b60405180910390f35b6108ed60048036036108e89190810190614942565b611d85565b6040516108fa9190615900565b60405180910390f35b61091d60048036036109189190810190614c2e565b611da2565b005b61092761202a565b6040516109349190615bdf565b60405180910390f35b61095760048036036109529190810190614c6f565b612081565b604051610964919061589a565b60405180910390f35b6109876004803603610982919081019061496b565b612359565b6040516109949190615bdf565b60405180910390f35b6109a56123e0565b005b6109c160048036036109bc9190810190614942565b6123eb565b005b6109dd60048036036109d89190810190614942565b612409565b005b60006109ec338484612426565b905092915050565b606060078054600181600116156101000203166002900480601f016020809104026020016040519081016040528092919081815260200182805460018160011615610100020316600290048015610a8c5780601f10610a6157610100808354040283529160200191610a8c565b820191906000526020600020905b815481529060010190602001808311610a6f57829003601f168201915b5050505050905090565b610aa433868686868661269d565b5050505050565b610ab6338484612854565b610ac233848484612864565b505050565b6000610ad433848461296f565b6001905092915050565b610afc33868686868660405180602001604052806000815250612ace565b5050505050565b6000600654905090565b610b173382612e0f565b50565b6000808373ffffffffffffffffffffffffffffffffffffffff16600d600085815260200190815260200160002060009054906101000a900473ffffffffffffffffffffffffffffffffffffffff1673ffffffffffffffffffffffffffffffffffffffff16148015610b905750610b8f836115a9565b5b90508091505092915050565b6000606482840281610baa57fe5b04905092915050565b600080610bbf836115a9565b905060008115610c0057600d600085815260200190815260200160002060009054906101000a900473ffffffffffffffffffffffffffffffffffffffff1690505b8092505050919050565b6000610c17848484612854565b610cb08433610cab85600560008a73ffffffffffffffffffffffffffffffffffffffff1673ffffffffffffffffffffffffffffffffffffffff16815260200190815260200160002060003373ffffffffffffffffffffffffffffffffffffffff1673ffffffffffffffffffffffffffffffffffffffff168152602001908152602001600020546131f990919063ffffffff16565b61296f565b600190509392505050565b610cc36145d6565b6000600260008481526020019081526020016000206001015411610d1c576040517f08c379a0000000000000000000000000000000000000000000000000000000008152600401610d13906159dd565b60405180910390fd5b600260008381526020019081526020016000206040518060c00160405290816000820154815260200160018201548152602001600282015481526020016003820154815260200160048201805480602002602001604051908101604052809291908181526020016000905b82821015610ebb5783829060005260206000209060030201604051806060016040529081600082015481526020016001820160009054906101000a900473ffffffffffffffffffffffffffffffffffffffff1673ffffffffffffffffffffffffffffffffffffffff1673ffffffffffffffffffffffffffffffffffffffff168152602001600282018054600181600116156101000203166002900480601f016020809104026020016040519081016040528092919081815260200182805460018160011615610100020316600290048015610ea35780601f10610e7857610100808354040283529160200191610ea3565b820191906000526020600020905b815481529060010190602001808311610e8657829003601f168201915b50505050508152505081526020019060010190610d87565b5050505081526020016005820160009054906101000a900460ff1615151515815250509050919050565b6000600960009054906101000a900460ff16905090565b6000610f973384610f9285600560003373ffffffffffffffffffffffffffffffffffffffff1673ffffffffffffffffffffffffffffffffffffffff16815260200190815260200160002060008973ffffffffffffffffffffffffffffffffffffffff1673ffffffffffffffffffffffffffffffffffffffff1681526020019081526020016000205461321990919063ffffffff16565b61296f565b6001905092915050565b610fa9611a29565b610fb257600080fd5b610fbd816001613238565b50565b6000610fcb33611d85565b610fd457600080fd5b610fde838361332e565b6001905092915050565b610ff23382613482565b50565b61100433878787878787612ace565b505050505050565b6000600a600b60003373ffffffffffffffffffffffffffffffffffffffff1673ffffffffffffffffffffffffffffffffffffffff168152602001908152602001600020600001805490508161105d57fe5b04905090565b61106b6145d6565b61107482610cbb565b9050600083905060008090505b6001836080015151038110156110f45760006110b886856080015184815181106110a757fe5b602002602001015160000151610b9c565b90506110e1846080015183815181106110cd57fe5b602002602001015160200151826000610aab565b8083039250508080600101915050611081565b5061112482608001516001846080015151038151811061111057fe5b602002602001015160200151826000610aab565b5050505050565b611133611a29565b61113c57600080fd5b611147816000613238565b50565b606080600a60405190808252806020026020018201604052801561118857816020015b61117561460e565b81526020019060019003908161116d5790505b5090506000600a84600a020390506060600c60003373ffffffffffffffffffffffffffffffffffffffff1673ffffffffffffffffffffffffffffffffffffffff16815260200190815260200160002060010180548060200260200160405190810160405280929190818152602001828054801561122457602002820191906000526020600020905b815481526020019060010190808311611210575b5050505050905060008151148061123e5750600181510382115b1561125157606080945050505050611473565b60008090505b85600a0283101561146b57815183101561145657600c60003373ffffffffffffffffffffffffffffffffffffffff1673ffffffffffffffffffffffffffffffffffffffff16815260200190815260200160002060000160008385815181106112bb57fe5b602002602001015181526020019081526020016000206040518060a0016040529081600082015481526020016001820154815260200160028201548152602001600382018054600181600116156101000203166002900480601f0160208091040260200160405190810160405280929190818152602001828054600181600116156101000203166002900480156113935780601f1061136857610100808354040283529160200191611393565b820191906000526020600020905b81548152906001019060200180831161137657829003601f168201915b50505050508152602001600482018054600181600116156101000203166002900480601f0160208091040260200160405190810160405280929190818152602001828054600181600116156101000203166002900480156114355780601f1061140a57610100808354040283529160200191611435565b820191906000526020600020905b81548152906001019060200180831161141857829003601f168201915b50505050508152505084828151811061144a57fe5b60200260200101819052505b80806001019150508280600101935050611257565b839450505050505b919050565b6000611485848484612426565b90509392505050565b6000600460008373ffffffffffffffffffffffffffffffffffffffff1673ffffffffffffffffffffffffffffffffffffffff168152602001908152602001600020549050919050565b6114df611a29565b6114e857600080fd5b600073ffffffffffffffffffffffffffffffffffffffff16600160009054906101000a900473ffffffffffffffffffffffffffffffffffffffff1673ffffffffffffffffffffffffffffffffffffffff167f8be0079c531659141344cd1fd0a4f28419497f9722a3daafe3b4186f6b6457e060405160405180910390a36000600160006101000a81548173ffffffffffffffffffffffffffffffffffffffff021916908373ffffffffffffffffffffffffffffffffffffffff160217905550565b60008042600c6000600d600087815260200190815260200160002060009054906101000a900473ffffffffffffffffffffffffffffffffffffffff1673ffffffffffffffffffffffffffffffffffffffff1673ffffffffffffffffffffffffffffffffffffffff16815260200190815260200160002060000160008581526020019081526020016000206000015411905080915050919050565b61164d82826135d6565b5050565b61166e33858585856040518060200160405280600081525061269d565b50505050565b600061168a82600061367d90919063ffffffff16565b9050919050565b806000600e600083815260200190815260200160002060040154116116eb576040517f08c379a00000000000000000000000000000000000000000000000000000000081526004016116e2906159dd565b60405180910390fd5b6116f433611674565b6116fd57600080fd5b60001515600e600084815260200190815260200160002060030160009054906101000a900460ff16151514611767576040517f08c379a000000000000000000000000000000000000000000000000000000000815260040161175e90615b9d565b60405180910390fd5b6001600e600084815260200190815260200160002060030160006101000a81548160ff0219169083151502179055505050565b6117a2611a29565b6117ab57600080fd5b600082116117ee576040517f08c379a00000000000000000000000000000000000000000000000000000000081526004016117e590615b3d565b60405180910390fd5b60008311611831576040517f08c379a00000000000000000000000000000000000000000000000000000000081526004016118289061595d565b60405180910390fd5b6000600e6000858152602001908152602001600020600401541461188a576040517f08c379a000000000000000000000000000000000000000000000000000000000815260040161188190615add565b60405180910390fd5b6000600f600083815260200190815260200160002054146118e0576040517f08c379a00000000000000000000000000000000000000000000000000000000081526004016118d79061593d565b60405180910390fd5b6118ea308361332e565b6118f261463d565b6040518060c001604052808381526020018581526020018481526020016000151581526020013373ffffffffffffffffffffffffffffffffffffffff1681526020016001815250905080600e600086815260200190815260200160002060008201518160000155602082015181600101556040820151816002015560608201518160030160006101000a81548160ff02191690831515021790555060808201518160030160016101000a81548173ffffffffffffffffffffffffffffffffffffffff021916908373ffffffffffffffffffffffffffffffffffffffff16021790555060a0820151816004015590505083600f60008481526020019081526020016000208190555050505050565b6000600160009054906101000a900473ffffffffffffffffffffffffffffffffffffffff16905090565b6000600160009054906101000a900473ffffffffffffffffffffffffffffffffffffffff1673ffffffffffffffffffffffffffffffffffffffff163373ffffffffffffffffffffffffffffffffffffffff1614905090565b600080600080846000600e60008381526020019081526020016000206004015411611ae1576040517f08c379a0000000000000000000000000000000000000000000000000000000008152600401611ad8906159dd565b60405180910390fd5b600e600087815260200190815260200160002060010154600e600088815260200190815260200160002060030160019054906101000a900473ffffffffffffffffffffffffffffffffffffffff16600e600089815260200190815260200160002060020154600e60008a815260200190815260200160002060030160009054906101000a900460ff169450945094509450509193509193565b60606003805480602002602001604051908101604052809291908181526020018280548015611bc857602002820191906000526020600020905b815481526020019060010190808311611bb4575b5050505050905090565b606060088054600181600116156101000203166002900480601f016020809104026020016040519081016040528092919081815260200182805460018160011615610100020316600290048015611c6a5780601f10611c3f57610100808354040283529160200191611c6a565b820191906000526020600020905b815481529060010190602001808311611c4d57829003601f168201915b5050505050905090565b611c7d33611d85565b611c8657600080fd5b611c8f8161370f565b50565b611c9b33613769565b565b611ca5611a29565b611cae57600080fd5b611cb882826137c3565b5050565b6000611d573384611d5285600560003373ffffffffffffffffffffffffffffffffffffffff1673ffffffffffffffffffffffffffffffffffffffff16815260200190815260200160002060008973ffffffffffffffffffffffffffffffffffffffff1673ffffffffffffffffffffffffffffffffffffffff168152602001908152602001600020546131f990919063ffffffff16565b61296f565b6001905092915050565b6000611d6e338484612854565b611d7b3384846000612864565b6001905092915050565b6000611d9b82600a61367d90919063ffffffff16565b9050919050565b6000818051906020012090506000600f600083815260200190815260200160002054905060008111611e09576040517f08c379a0000000000000000000000000000000000000000000000000000000008152600401611e0090615a7d565b60405180910390fd5b60011515600e600083815260200190815260200160002060030160009054906101000a900460ff16151514611e73576040517f08c379a0000000000000000000000000000000000000000000000000000000008152600401611e6a906159bd565b60405180910390fd5b81600e60008381526020019081526020016000206000015414611ecb576040517f08c379a0000000000000000000000000000000000000000000000000000000008152600401611ec29061599d565b60405180910390fd5b611eec3033600e600085815260200190815260200160002060020154612854565b3373ffffffffffffffffffffffffffffffffffffffff16600e600083815260200190815260200160002060030160019054906101000a900473ffffffffffffffffffffffffffffffffffffffff1673ffffffffffffffffffffffffffffffffffffffff167f80de5a7d3e27e32cfffc07551af7c9ee302a01b5456991722d7ef54193eab356600e600085815260200190815260200160002060010154604051611f959190615bdf565b60405180910390a3600f600083815260200190815260200160002060009055600e6000828152602001908152602001600020600080820160009055600182016000905560028201600090556003820160006101000a81549060ff02191690556003820160016101000a81549073ffffffffffffffffffffffffffffffffffffffff021916905560048201600090555050505050565b6000600a600c60003373ffffffffffffffffffffffffffffffffffffffff1673ffffffffffffffffffffffffffffffffffffffff168152602001908152602001600020600101805490508161207b57fe5b04905090565b60606000600a83600a020390506060600b60003373ffffffffffffffffffffffffffffffffffffffff1673ffffffffffffffffffffffffffffffffffffffff168152602001908152602001600020600001805480602002602001604051908101604052809291908181526020016000905b8282101561228657838290600052602060002090600502016040518060a0016040529081600082015481526020016001820154815260200160028201548152602001600382018054600181600116156101000203166002900480601f0160208091040260200160405190810160405280929190818152602001828054600181600116156101000203166002900480156121cc5780601f106121a1576101008083540402835291602001916121cc565b820191906000526020600020905b8154815290600101906020018083116121af57829003601f168201915b50505050508152602001600482018054600181600116156101000203166002900480601f01602080910402602001604051908101604052809291908181526020018280546001816001161561010002031660029004801561226e5780601f106122435761010080835404028352916020019161226e565b820191906000526020600020905b81548152906001019060200180831161225157829003601f168201915b505050505081525050815260200190600101906120f2565b50505050905060008151148061229f5750600181510382115b156122b1576060809350505050612354565b6060600a6040519080825280602002602001820160405280156122ee57816020015b6122db61468e565b8152602001906001900390816122d35790505b50905060008090505b85600a0284101561234c5782518410156123375782848151811061231757fe5b602002602001015182828151811061232b57fe5b60200260200101819052505b808060010191505083806001019450506122f7565b819450505050505b919050565b6000600560008473ffffffffffffffffffffffffffffffffffffffff1673ffffffffffffffffffffffffffffffffffffffff16815260200190815260200160002060008373ffffffffffffffffffffffffffffffffffffffff1673ffffffffffffffffffffffffffffffffffffffff16815260200190815260200160002054905092915050565b6123e933613b8e565b565b6123f433611674565b6123fd57600080fd5b61240681613be8565b50565b612411611a29565b61241a57600080fd5b61242381613c42565b50565b600080600090505b600b60008673ffffffffffffffffffffffffffffffffffffffff1673ffffffffffffffffffffffffffffffffffffffff16815260200190815260200160002060000180549050811015612690576124836146bd565b600b60008773ffffffffffffffffffffffffffffffffffffffff1673ffffffffffffffffffffffffffffffffffffffff16815260200190815260200160002060000182815481106124d057fe5b90600052602060002090600502016040518060a0016040529081600082015481526020016001820154815260200160028201548152602001600382018054600181600116156101000203166002900480601f0160208091040260200160405190810160405280929190818152602001828054600181600116156101000203166002900480156125a05780601f10612575576101008083540402835291602001916125a0565b820191906000526020600020905b81548152906001019060200180831161258357829003601f168201915b50505050508152602001600482018054600181600116156101000203166002900480601f0160208091040260200160405190810160405280929190818152602001828054600181600116156101000203166002900480156126425780601f1061261757610100808354040283529160200191612642565b820191906000526020600020905b81548152906001019060200180831161262557829003601f168201915b50505050508152505090508481602001511480156126635750838160400151145b80156126725750428160000151115b1561268257600192505050612696565b50808060010191505061242e565b50600090505b9392505050565b6126a56145d6565b6126ae85610cbb565b9050838160400151146126f6576040517f08c379a00000000000000000000000000000000000000000000000000000000081526004016126ed90615abd565b60405180910390fd5b612701878787612426565b15612741576040517f08c379a000000000000000000000000000000000000000000000000000000000815260040161273890615b1d565b60405180910390fd5b600084111561275657612755308587610aab565b5b600b60008873ffffffffffffffffffffffffffffffffffffffff1673ffffffffffffffffffffffffffffffffffffffff1681526020019081526020016000206000016040518060a001604052808360600151420181526020018881526020018781526020018581526020018481525090806001815401808255809150509060018203906000526020600020906005020160009091929091909150600082015181600001556020820151816001015560408201518160020155606082015181600301908051906020019061282a9291906146ec565b5060808201518160040190805190602001906128479291906146ec565b5050505050505050505050565b61285f838383613d3c565b505050565b61286d83613f0a565b156129045760008390508073ffffffffffffffffffffffffffffffffffffffff16634f4ee3538685856040518463ffffffff167c01000000000000000000000000000000000000000000000000000000000281526004016128d093929190615863565b600060405180830381600087803b1580156128ea57600080fd5b505af11580156128fe573d6000803e3d6000fd5b50505050505b8273ffffffffffffffffffffffffffffffffffffffff168473ffffffffffffffffffffffffffffffffffffffff167fddf252ad1be2c89b69c2b068fc378daa952ba7f163c4a11628f55a4df523b3ef846040516129619190615bdf565b60405180910390a350505050565b600073ffffffffffffffffffffffffffffffffffffffff168273ffffffffffffffffffffffffffffffffffffffff1614156129a957600080fd5b600073ffffffffffffffffffffffffffffffffffffffff168373ffffffffffffffffffffffffffffffffffffffff1614156129e357600080fd5b80600560008573ffffffffffffffffffffffffffffffffffffffff1673ffffffffffffffffffffffffffffffffffffffff16815260200190815260200160002060008473ffffffffffffffffffffffffffffffffffffffff1673ffffffffffffffffffffffffffffffffffffffff168152602001908152602001600020819055508173ffffffffffffffffffffffffffffffffffffffff168373ffffffffffffffffffffffffffffffffffffffff167f8c5be1e5ebec7d5bd14f71427d1e84f3dd0314c0f7b2291e5b200ac8c7c3b92583604051612ac19190615bdf565b60405180910390a3505050565b612ad9878686612426565b612b18576040517f08c379a0000000000000000000000000000000000000000000000000000000008152600401612b0f906159fd565b60405180910390fd5b600073ffffffffffffffffffffffffffffffffffffffff16600d600088815260200190815260200160002060009054906101000a900473ffffffffffffffffffffffffffffffffffffffff1673ffffffffffffffffffffffffffffffffffffffff1614158015612b8e5750612b8c866115a9565b155b15612bd157612bd0600d600088815260200190815260200160002060009054906101000a900473ffffffffffffffffffffffffffffffffffffffff1687612e0f565b5b600073ffffffffffffffffffffffffffffffffffffffff16600d600088815260200190815260200160002060009054906101000a900473ffffffffffffffffffffffffffffffffffffffff1673ffffffffffffffffffffffffffffffffffffffff1614612c73576040517f08c379a0000000000000000000000000000000000000000000000000000000008152600401612c6a90615b7d565b60405180910390fd5b86600d600088815260200190815260200160002060006101000a81548173ffffffffffffffffffffffffffffffffffffffff021916908373ffffffffffffffffffffffffffffffffffffffff1602179055506040518060a0016040528084815260200186815260200185815260200183815260200182815250600c60008973ffffffffffffffffffffffffffffffffffffffff1673ffffffffffffffffffffffffffffffffffffffff16815260200190815260200160002060000160008881526020019081526020016000206000820151816000015560208201518160010155604082015181600201556060820151816003019080519060200190612d799291906146ec565b506080820151816004019080519060200190612d969291906146ec565b50905050600c60008873ffffffffffffffffffffffffffffffffffffffff1673ffffffffffffffffffffffffffffffffffffffff16815260200190815260200160002060010186908060018154018082558091505090600182039060005260206000200160009091929091909150555050505050505050565b8173ffffffffffffffffffffffffffffffffffffffff16600d600083815260200190815260200160002060009054906101000a900473ffffffffffffffffffffffffffffffffffffffff1673ffffffffffffffffffffffffffffffffffffffff1614612eb0576040517f08c379a0000000000000000000000000000000000000000000000000000000008152600401612ea790615a5d565b60405180910390fd5b600d600082815260200190815260200160002060006101000a81549073ffffffffffffffffffffffffffffffffffffffff0219169055600c60008373ffffffffffffffffffffffffffffffffffffffff1673ffffffffffffffffffffffffffffffffffffffff168152602001908152602001600020600001600082815260200190815260200160002060008082016000905560018201600090556002820160009055600382016000612f62919061476c565b600482016000612f72919061476c565b5050600080905060008090505b6001600c60008673ffffffffffffffffffffffffffffffffffffffff1673ffffffffffffffffffffffffffffffffffffffff16815260200190815260200160002060010180549050038110156130fa57811561309057600c60008573ffffffffffffffffffffffffffffffffffffffff1673ffffffffffffffffffffffffffffffffffffffff168152602001908152602001600020600101600182018154811061302557fe5b9060005260206000200154600c60008673ffffffffffffffffffffffffffffffffffffffff1673ffffffffffffffffffffffffffffffffffffffff168152602001908152602001600020600101828154811061307d57fe5b90600052602060002001819055506130ed565b82600c60008673ffffffffffffffffffffffffffffffffffffffff1673ffffffffffffffffffffffffffffffffffffffff16815260200190815260200160002060010182815481106130de57fe5b90600052602060002001541491505b8080600101915050612f7f565b50600c60008473ffffffffffffffffffffffffffffffffffffffff1673ffffffffffffffffffffffffffffffffffffffff1681526020019081526020016000206001016001600c60008673ffffffffffffffffffffffffffffffffffffffff1673ffffffffffffffffffffffffffffffffffffffff16815260200190815260200160002060010180549050038154811061319057fe5b9060005260206000200160009055600c60008473ffffffffffffffffffffffffffffffffffffffff1673ffffffffffffffffffffffffffffffffffffffff1681526020019081526020016000206001018054809190600190036131f391906147b4565b50505050565b60008282111561320857600080fd5b600082840390508091505092915050565b60008082840190508381101561322e57600080fd5b8091505092915050565b600060026000848152602001908152602001600020600101541415613292576040517f08c379a000000000000000000000000000000000000000000000000000000000815260040161328990615a1d565b60405180910390fd5b8015156002600084815260200190815260200160002060050160009054906101000a900460ff16151514156132fc576040517f08c379a00000000000000000000000000000000000000000000000000000000081526004016132f390615afd565b60405180910390fd5b806002600084815260200190815260200160002060050160006101000a81548160ff0219169083151502179055505050565b600073ffffffffffffffffffffffffffffffffffffffff168273ffffffffffffffffffffffffffffffffffffffff16141561336857600080fd5b61337d8160065461321990919063ffffffff16565b6006819055506133d581600460008573ffffffffffffffffffffffffffffffffffffffff1673ffffffffffffffffffffffffffffffffffffffff1681526020019081526020016000205461321990919063ffffffff16565b600460008473ffffffffffffffffffffffffffffffffffffffff1673ffffffffffffffffffffffffffffffffffffffff168152602001908152602001600020819055508173ffffffffffffffffffffffffffffffffffffffff16600073ffffffffffffffffffffffffffffffffffffffff167fddf252ad1be2c89b69c2b068fc378daa952ba7f163c4a11628f55a4df523b3ef836040516134769190615bdf565b60405180910390a35050565b600073ffffffffffffffffffffffffffffffffffffffff168273ffffffffffffffffffffffffffffffffffffffff1614156134bc57600080fd5b6134d1816006546131f990919063ffffffff16565b60068190555061352981600460008573ffffffffffffffffffffffffffffffffffffffff1673ffffffffffffffffffffffffffffffffffffffff168152602001908152602001600020546131f990919063ffffffff16565b600460008473ffffffffffffffffffffffffffffffffffffffff1673ffffffffffffffffffffffffffffffffffffffff16815260200190815260200160002081905550600073ffffffffffffffffffffffffffffffffffffffff168273ffffffffffffffffffffffffffffffffffffffff167fddf252ad1be2c89b69c2b068fc378daa952ba7f163c4a11628f55a4df523b3ef836040516135ca9190615bdf565b60405180910390a35050565b6135e08282613482565b613679823361367484600560008873ffffffffffffffffffffffffffffffffffffffff1673ffffffffffffffffffffffffffffffffffffffff16815260200190815260200160002060003373ffffffffffffffffffffffffffffffffffffffff1673ffffffffffffffffffffffffffffffffffffffff168152602001908152602001600020546131f990919063ffffffff16565b61296f565b5050565b60008073ffffffffffffffffffffffffffffffffffffffff168273ffffffffffffffffffffffffffffffffffffffff1614156136b857600080fd5b8260000160008373ffffffffffffffffffffffffffffffffffffffff1673ffffffffffffffffffffffffffffffffffffffff16815260200190815260200160002060009054906101000a900460ff16905092915050565b61372381600a613f1d90919063ffffffff16565b8073ffffffffffffffffffffffffffffffffffffffff167f6ae172837ea30b801fbfcdd4108aa1d5bf8ff775444fd70256b44e6bf3dfc3f660405160405180910390a250565b61377d81600a613fc990919063ffffffff16565b8073ffffffffffffffffffffffffffffffffffffffff167fe94479a9f7e1952cc78f2d6baab678adc1b772d936c6583def489e524cb6669260405160405180910390a250565b600060026000848152602001908152602001600020600101541461381c576040517f08c379a000000000000000000000000000000000000000000000000000000000815260040161381390615a9d565b60405180910390fd5b6138246147e0565b61382d82614074565b9050606061383a826140a2565b9050600061385b8260008151811061384e57fe5b6020026020010151614179565b905042811161389f576040517f08c379a000000000000000000000000000000000000000000000000000000000815260040161389690615a3d565b60405180910390fd5b60006138be836001815181106138b157fe5b6020026020010151614179565b905060006138df846002815181106138d257fe5b6020026020010151614179565b90506000613900856003815181106138f357fe5b6020026020010151614179565b905060606139218660048151811061391457fe5b60200260200101516140a2565b905060008151905060008090505b81811015613a9c57606061395584838151811061394857fe5b60200260200101516140a2565b90506002600088815260200190815260200160002060040160405180606001604052806139958460008151811061398857fe5b6020026020010151614179565b81526020016139b7846001815181106139aa57fe5b60200260200101516141ea565b73ffffffffffffffffffffffffffffffffffffffff1681526020016139ef846002815181106139e257fe5b602002602001015161420d565b815250908060018154018082558091505090600182039060005260206000209060030201600090919290919091506000820151816000015560208201518160010160006101000a81548173ffffffffffffffffffffffffffffffffffffffff021916908373ffffffffffffffffffffffffffffffffffffffff1602179055506040820151816002019080519060200190613a8a9291906146ec565b5050505050808060010191505061392f565b50613abb60026000878152602001908152602001600020600401614299565b85600260008781526020019081526020016000206000018190555084600260008781526020019081526020016000206001018190555083600260008781526020019081526020016000206002018190555082600260008781526020019081526020016000206003018190555060016002600087815260200190815260200160002060050160006101000a81548160ff021916908315150217905550600385908060018154018082558091505090600182039060005260206000200160009091929091909150555050505050505050505050565b613ba2816000613fc990919063ffffffff16565b8073ffffffffffffffffffffffffffffffffffffffff167f3525e22824a8a7df2c9a6029941c824cf95b6447f1e13d5128fd3826d35afe8b60405160405180910390a250565b613bfc816000613f1d90919063ffffffff16565b8073ffffffffffffffffffffffffffffffffffffffff167f47d1c22a25bb3a5d4e481b9b1e6944c2eade3181a0a20b495ed61d35b5323f2460405160405180910390a250565b600073ffffffffffffffffffffffffffffffffffffffff168173ffffffffffffffffffffffffffffffffffffffff161415613c7c57600080fd5b8073ffffffffffffffffffffffffffffffffffffffff16600160009054906101000a900473ffffffffffffffffffffffffffffffffffffffff1673ffffffffffffffffffffffffffffffffffffffff167f8be0079c531659141344cd1fd0a4f28419497f9722a3daafe3b4186f6b6457e060405160405180910390a380600160006101000a81548173ffffffffffffffffffffffffffffffffffffffff021916908373ffffffffffffffffffffffffffffffffffffffff16021790555050565b600073ffffffffffffffffffffffffffffffffffffffff168273ffffffffffffffffffffffffffffffffffffffff161415613d7657600080fd5b613dc881600460008673ffffffffffffffffffffffffffffffffffffffff1673ffffffffffffffffffffffffffffffffffffffff168152602001908152602001600020546131f990919063ffffffff16565b600460008573ffffffffffffffffffffffffffffffffffffffff1673ffffffffffffffffffffffffffffffffffffffff16815260200190815260200160002081905550613e5d81600460008573ffffffffffffffffffffffffffffffffffffffff1673ffffffffffffffffffffffffffffffffffffffff1681526020019081526020016000205461321990919063ffffffff16565b600460008473ffffffffffffffffffffffffffffffffffffffff1673ffffffffffffffffffffffffffffffffffffffff168152602001908152602001600020819055508173ffffffffffffffffffffffffffffffffffffffff168373ffffffffffffffffffffffffffffffffffffffff167fddf252ad1be2c89b69c2b068fc378daa952ba7f163c4a11628f55a4df523b3ef83604051613efd9190615bdf565b60405180910390a3505050565b600080823b905060008111915050919050565b600073ffffffffffffffffffffffffffffffffffffffff168173ffffffffffffffffffffffffffffffffffffffff161415613f5757600080fd5b613f61828261367d565b15613f6b57600080fd5b60018260000160008373ffffffffffffffffffffffffffffffffffffffff1673ffffffffffffffffffffffffffffffffffffffff16815260200190815260200160002060006101000a81548160ff0219169083151502179055505050565b600073ffffffffffffffffffffffffffffffffffffffff168173ffffffffffffffffffffffffffffffffffffffff16141561400357600080fd5b61400d828261367d565b61401657600080fd5b60008260000160008373ffffffffffffffffffffffffffffffffffffffff1673ffffffffffffffffffffffffffffffffffffffff16815260200190815260200160002060006101000a81548160ff0219169083151502179055505050565b61407c6147e0565b600060208301905060405180604001604052808451815260200182815250915050919050565b60606140ad82614374565b6140b657600080fd5b60006140c1836143c2565b9050806040519080825280602002602001820160405280156140fd57816020015b6140ea6147fa565b8152602001906001900390816140e25790505b509150600061410f8460200151614433565b8460200151019050600080600090505b8381101561417057614130836144bc565b915060405180604001604052808381526020018481525085828151811061415357fe5b60200260200101819052508183019250808060010191505061411f565b50505050919050565b600080826000015111801561419357506021826000015111155b61419c57600080fd5b60006141ab8360200151614433565b905060008184600001510390506000808386602001510190508051915060208310156141de57826020036101000a820491505b81945050505050919050565b600060158260000151146141fd57600080fd5b61420682614179565b9050919050565b6060600082600001511161422057600080fd5b600061422f8360200151614433565b905060008184600001510390506060816040519080825280601f01601f1916602001820160405280156142715781602001600182028038833980820191505090505b509050600081602001905061428d84876020015101828561456f565b81945050505050919050565b60008180549050116142e0576040517f08c379a00000000000000000000000000000000000000000000000000000000081526004016142d79061597d565b60405180910390fd5b600081805490509050600080905060008090505b8281101561432b5783818154811061430857fe5b9060005260206000209060030201600001548201915080806001019150506142f4565b506064811461436f576040517f08c379a000000000000000000000000000000000000000000000000000000000815260040161436690615b5d565b60405180910390fd5b505050565b6000808260000151141561438b57600090506143bd565b60008083602001519050805160001a915060c060ff168260ff1610156143b6576000925050506143bd565b6001925050505b919050565b600080826000015114156143d9576000905061442e565b600080905060006143ed8460200151614433565b84602001510190506000846000015185602001510190505b8082101561442757614416826144bc565b820191508280600101935050614405565b8293505050505b919050565b600080825160001a9050608060ff168110156144535760009150506144b7565b60b860ff16811080614478575060c060ff168110158015614477575060f860ff1681105b5b156144875760019150506144b7565b60c060ff168110156144a75760018060b80360ff168203019150506144b7565b60018060f80360ff168203019150505b919050565b600080825160001a9050608060ff168110156144dc57600191505061456a565b60b860ff168110156144fa576001608060ff1682030191505061456a565b60c060ff1681101561452a5760b78103600184019350806020036101000a84510460018201810193505050614568565b60f860ff1681101561454857600160c060ff1682030191505061456a565b60f78103600184019350806020036101000a845104600182018101935050505b505b919050565b600081141561457d576145d1565b5b602060ff1681106145ad5782518252602060ff1683019250602060ff1682019150602060ff168103905061457e565b6000600182602060ff16036101000a03905080198451168184511681811785525050505b505050565b6040518060c0016040528060008152602001600081526020016000815260200160008152602001606081526020016000151581525090565b6040518060a0016040528060008152602001600081526020016000815260200160608152602001606081525090565b6040518060c00160405280600080191681526020016000815260200160008152602001600015158152602001600073ffffffffffffffffffffffffffffffffffffffff168152602001600081525090565b6040518060a0016040528060008152602001600081526020016000815260200160608152602001606081525090565b6040518060a0016040528060008152602001600081526020016000815260200160608152602001606081525090565b828054600181600116156101000203166002900490600052602060002090601f016020900481019282601f1061472d57805160ff191683800117855561475b565b8280016001018555821561475b579182015b8281111561475a57825182559160200191906001019061473f565b5b5090506147689190614814565b5090565b50805460018160011615610100020316600290046000825580601f1061479257506147b1565b601f0160209004906000526020600020908101906147b09190614814565b5b50565b8154818355818111156147db578183600052602060002091820191016147da9190614839565b5b505050565b604051806040016040528060008152602001600081525090565b604051806040016040528060008152602001600081525090565b61483691905b8082111561483257600081600090555060010161481a565b5090565b90565b61485b91905b8082111561485757600081600090555060010161483f565b5090565b90565b600061486a8235615e44565b905092915050565b600061487e8235615e56565b905092915050565b600082601f83011261489757600080fd5b81356148aa6148a582615c87565b615c5a565b915080825260208301602083018583830111156148c657600080fd5b6148d1838284615e8a565b50505092915050565b600082601f8301126148eb57600080fd5b81356148fe6148f982615cb3565b615c5a565b9150808252602083016020830185838301111561491a57600080fd5b614925838284615e8a565b50505092915050565b600061493a8235615e80565b905092915050565b60006020828403121561495457600080fd5b60006149628482850161485e565b91505092915050565b6000806040838503121561497e57600080fd5b600061498c8582860161485e565b925050602061499d8582860161485e565b9150509250929050565b6000806000606084860312156149bc57600080fd5b60006149ca8682870161485e565b93505060206149db8682870161485e565b92505060406149ec8682870161492e565b9150509250925092565b60008060408385031215614a0957600080fd5b6000614a178582860161485e565b9250506020614a2885828601614872565b9150509250929050565b60008060408385031215614a4557600080fd5b6000614a538582860161485e565b9250506020614a648582860161492e565b9150509250929050565b600080600060608486031215614a8357600080fd5b6000614a918682870161485e565b9350506020614aa28682870161492e565b9250506040614ab38682870161492e565b9150509250925092565b600060208284031215614acf57600080fd5b6000614add84828501614872565b91505092915050565b600080600080600060a08688031215614afe57600080fd5b6000614b0c88828901614872565b9550506020614b1d8882890161492e565b9450506040614b2e8882890161492e565b9350506060614b3f8882890161492e565b925050608086013567ffffffffffffffff811115614b5c57600080fd5b614b68888289016148da565b9150509295509295909350565b60008060008060008060c08789031215614b8e57600080fd5b6000614b9c89828a01614872565b9650506020614bad89828a0161492e565b9550506040614bbe89828a0161492e565b9450506060614bcf89828a0161492e565b935050608087013567ffffffffffffffff811115614bec57600080fd5b614bf889828a016148da565b92505060a087013567ffffffffffffffff811115614c1557600080fd5b614c2189828a016148da565b9150509295509295509295565b600060208284031215614c4057600080fd5b600082013567ffffffffffffffff811115614c5a57600080fd5b614c6684828501614886565b91505092915050565b600060208284031215614c8157600080fd5b6000614c8f8482850161492e565b91505092915050565b60008060408385031215614cab57600080fd5b6000614cb98582860161492e565b925050602083013567ffffffffffffffff811115614cd657600080fd5b614ce285828601614886565b9150509250929050565b60008060408385031215614cff57600080fd5b6000614d0d8582860161492e565b9250506020614d1e8582860161492e565b9150509250929050565b600080600060608486031215614d3d57600080fd5b6000614d4b8682870161492e565b9350506020614d5c8682870161492e565b9250506040614d6d86828701614872565b9150509250925092565b60008060008060808587031215614d8d57600080fd5b6000614d9b8782880161492e565b9450506020614dac8782880161492e565b9350506040614dbd8782880161492e565b925050606085013567ffffffffffffffff811115614dda57600080fd5b614de6878288016148da565b91505092959194509250565b600080600080600060a08688031215614e0a57600080fd5b6000614e188882890161492e565b9550506020614e298882890161492e565b9450506040614e3a8882890161492e565b935050606086013567ffffffffffffffff811115614e5757600080fd5b614e63888289016148da565b925050608086013567ffffffffffffffff811115614e8057600080fd5b614e8c888289016148da565b9150509295509295909350565b6000614ea58383615648565b905092915050565b6000614eb983836156c5565b905092915050565b6000614ecd8383615715565b905092915050565b6000614ee1838361581b565b60208301905092915050565b614ef681615def565b82525050565b614f0581615def565b82525050565b6000614f1682615d13565b614f208185615d89565b935083602082028501614f3285615cdf565b60005b84811015614f6b578383038852614f4d838351614e99565b9250614f5882615d55565b9150602088019750600181019050614f35565b508196508694505050505092915050565b6000614f8782615d1e565b614f918185615d9a565b935083602082028501614fa385615cec565b60005b84811015614fdc578383038852614fbe838351614ead565b9250614fc982615d62565b9150602088019750600181019050614fa6565b508196508694505050505092915050565b6000614ff882615d29565b6150028185615dab565b93508360208202850161501485615cf9565b60005b8481101561504d57838303885261502f838351614ec1565b925061503a82615d6f565b9150602088019750600181019050615017565b508196508694505050505092915050565b600061506982615d34565b6150738185615dbc565b935061507e83615d06565b60005b828110156150ac57615094868351614ed5565b955061509f82615d7c565b9150600181019050615081565b50849250505092915050565b6150c181615e01565b82525050565b6150d081615e01565b82525050565b60006150e182615d4a565b6150eb8185615dde565b93506150fb818560208601615e99565b61510481615ecc565b840191505092915050565b600061511a82615d3f565b6151248185615dcd565b9350615134818560208601615e99565b61513d81615ecc565b840191505092915050565b6000615155600f83615dde565b91507f6475706c6963617465645f6861736800000000000000000000000000000000006000830152602082019050919050565b6000615195601083615dde565b91507f6e6f5f76616c69645f636172645f6964000000000000000000000000000000006000830152602082019050919050565b60006151d5600983615dde565b91507f6e6f742072756c657300000000000000000000000000000000000000000000006000830152602082019050919050565b6000615215600c83615dde565b91507f77726f6e675f73656372657400000000000000000000000000000000000000006000830152602082019050919050565b6000615255600a83615dde565b91507f6e6f745f616374697665000000000000000000000000000000000000000000006000830152602082019050919050565b6000615295600983615dde565b91507f6e6f745f657869737400000000000000000000000000000000000000000000006000830152602082019050919050565b60006152d5600b83615dde565b91507f6e6f7420616c6c6f7765640000000000000000000000000000000000000000006000830152602082019050919050565b6000615315600983615dde565b91507f6e6f7420657869737400000000000000000000000000000000000000000000006000830152602082019050919050565b6000615355600783615dde565b91507f65787069726564000000000000000000000000000000000000000000000000006000830152602082019050919050565b6000615395600a83615dde565b91507f73616d65206f776e6572000000000000000000000000000000000000000000006000830152602082019050919050565b60006153d5600e83615dde565b91507f686173685f6e6f745f666f756e640000000000000000000000000000000000006000830152602082019050919050565b6000615415600583615dde565b91507f65786973740000000000000000000000000000000000000000000000000000006000830152602082019050919050565b6000615455601083615dde565b91507f696e636f727265637420616d6f756e74000000000000000000000000000000006000830152602082019050919050565b6000615495600a83615dde565b91507f636172645f6578697374000000000000000000000000000000000000000000006000830152602082019050919050565b60006154d5600b83615dde565b91507f73616d65207374617475730000000000000000000000000000000000000000006000830152602082019050919050565b6000615515600a83615dde565b91507f6475706c696361746564000000000000000000000000000000000000000000006000830152602082019050919050565b6000615555600c83615dde565b91507f656d7074795f746f6b656e7300000000000000000000000000000000000000006000830152602082019050919050565b6000615595601683615dde565b91507f616c6c20616d6f756e74206469737472696275746564000000000000000000006000830152602082019050919050565b60006155d5600f83615dde565b91507f6475706c696361746564206861736800000000000000000000000000000000006000830152602082019050919050565b6000615615600f83615dde565b91507f6e6f745f6163746976617461626c6500000000000000000000000000000000006000830152602082019050919050565b600060a083016000830151615660600086018261581b565b506020830151615673602086018261581b565b506040830151615686604086018261581b565b506060830151848203606086015261569e828261510f565b915050608083015184820360808601526156b8828261510f565b9150508091505092915050565b60006060830160008301516156dd600086018261581b565b5060208301516156f06020860182614eed565b5060408301518482036040860152615708828261510f565b9150508091505092915050565b600060a08301600083015161572d600086018261581b565b506020830151615740602086018261581b565b506040830151615753604086018261581b565b506060830151848203606086015261576b828261510f565b91505060808301518482036080860152615785828261510f565b9150508091505092915050565b600060c0830160008301516157aa600086018261581b565b5060208301516157bd602086018261581b565b5060408301516157d0604086018261581b565b5060608301516157e3606086018261581b565b50608083015184820360808601526157fb8282614f7c565b91505060a083015161581060a08601826150b8565b508091505092915050565b61582481615e2d565b82525050565b61583381615e2d565b82525050565b61584281615e37565b82525050565b600060208201905061585d6000830184614efc565b92915050565b60006060820190506158786000830186614efc565b615885602083018561582a565b615892604083018461582a565b949350505050565b600060208201905081810360008301526158b48184614f0b565b905092915050565b600060208201905081810360008301526158d68184614fed565b905092915050565b600060208201905081810360008301526158f8818461505e565b905092915050565b600060208201905061591560008301846150c7565b92915050565b6000602082019050818103600083015261593581846150d6565b905092915050565b6000602082019050818103600083015261595681615148565b9050919050565b6000602082019050818103600083015261597681615188565b9050919050565b60006020820190508181036000830152615996816151c8565b9050919050565b600060208201905081810360008301526159b681615208565b9050919050565b600060208201905081810360008301526159d681615248565b9050919050565b600060208201905081810360008301526159f681615288565b9050919050565b60006020820190508181036000830152615a16816152c8565b9050919050565b60006020820190508181036000830152615a3681615308565b9050919050565b60006020820190508181036000830152615a5681615348565b9050919050565b60006020820190508181036000830152615a7681615388565b9050919050565b60006020820190508181036000830152615a96816153c8565b9050919050565b60006020820190508181036000830152615ab681615408565b9050919050565b60006020820190508181036000830152615ad681615448565b9050919050565b60006020820190508181036000830152615af681615488565b9050919050565b60006020820190508181036000830152615b16816154c8565b9050919050565b60006020820190508181036000830152615b3681615508565b9050919050565b60006020820190508181036000830152615b5681615548565b9050919050565b60006020820190508181036000830152615b7681615588565b9050919050565b60006020820190508181036000830152615b96816155c8565b9050919050565b60006020820190508181036000830152615bb681615608565b9050919050565b60006020820190508181036000830152615bd78184615792565b905092915050565b6000602082019050615bf4600083018461582a565b92915050565b6000608082019050615c0f600083018761582a565b615c1c6020830186614efc565b615c29604083018561582a565b615c3660608301846150c7565b95945050505050565b6000602082019050615c546000830184615839565b92915050565b6000604051905081810181811067ffffffffffffffff82111715615c7d57600080fd5b8060405250919050565b600067ffffffffffffffff821115615c9e57600080fd5b601f19601f8301169050602081019050919050565b600067ffffffffffffffff821115615cca57600080fd5b601f19601f8301169050602081019050919050565b6000602082019050919050565b6000602082019050919050565b6000602082019050919050565b6000602082019050919050565b600081519050919050565b600081519050919050565b600081519050919050565b600081519050919050565b600081519050919050565b600081519050919050565b6000602082019050919050565b6000602082019050919050565b6000602082019050919050565b6000602082019050919050565b600082825260208201905092915050565b600082825260208201905092915050565b600082825260208201905092915050565b600082825260208201905092915050565b600082825260208201905092915050565b600082825260208201905092915050565b6000615dfa82615e0d565b9050919050565b60008115159050919050565b600073ffffffffffffffffffffffffffffffffffffffff82169050919050565b6000819050919050565b600060ff82169050919050565b6000615e4f82615e60565b9050919050565b6000819050919050565b600073ffffffffffffffffffffffffffffffffffffffff82169050919050565b6000819050919050565b82818337600083830152505050565b60005b83811015615eb7578082015181840152602081019050615e9c565b83811115615ec6576000848401525b50505050565b6000601f19601f830116905091905056fea265627a7a72305820bd00427b4a119776851728315144f8204c22fbfc273c644904cde5e8893139596c6578706572696d656e74616cf50037",
  "source": "pragma solidity ^0.5.2;\npragma experimental ABIEncoderV2;\n\nimport \"../../node_modules/openzeppelin-solidity/contracts/math/SafeMath.sol\";\nimport \"../../node_modules/openzeppelin-solidity/contracts/access/roles/SignerRole.sol\";\nimport \"../../node_modules/openzeppelin-solidity/contracts/ownership/Ownable.sol\";\n\nimport \"./Devices.sol\";\n\ncontract PrepaidCardManager is SignerRole, Ownable , Devices {\n  using SafeMath for uint256;\n\n  event CardValidated(\n    address indexed owner,\n    uint256 cardId,\n    address indexed user\n  );\n\n  struct Card {\n    bytes32 hash;\n    uint256 cardId;  \n    uint256 tokens;\n    bool active;\n    address owner;\n    uint initialized;\n  }\n\n  mapping (uint256 => Card) private cards_;\n  mapping (bytes32 => uint256) private cardsByHash_;\n\n  modifier cardExists(uint256 _cardId) {\n    require(cards_[_cardId].initialized > 0, \"not_exist\");\n    _;\n  }\n  \n  constructor() public {}\n\n  function getCard(uint256 _cardId) cardExists(_cardId) public view returns(uint256 cardId, address owner, uint256 tokens, bool active)  {\n    return (cards_[_cardId].cardId, cards_[_cardId].owner, cards_[_cardId].tokens, cards_[_cardId].active);\n  }\n\n  function addCard(uint256 _cardId, uint256 _tokens, bytes32 _hash) onlyOwner public {\n    require(_tokens > 0, \"empty_tokens\");\n    require(_cardId > 0, \"no_valid_card_id\");\n    require(cards_[_cardId].initialized == 0, \"card_exist\");\n    require(cardsByHash_[_hash] == 0, \"duplicated_hash\");\n\n    _mint(address(this),_tokens);\n    Card memory newCard = Card(_hash, _cardId, _tokens, false, msg.sender, 1);\n    cards_[_cardId] = newCard;   \n    cardsByHash_[_hash] = _cardId;\n  }\n\n  function activateCard(uint256 _cardId) cardExists(_cardId) onlySigner public {\n    require(cards_[_cardId].active == false, \"not_activatable\");\n    cards_[_cardId].active=true;    \n  }\n\n  function validateCard(bytes memory _secret) public {\n    bytes32 hash = keccak256(_secret);\n    uint256 cardId = cardsByHash_[hash];\n    require(cardId > 0, \"hash_not_found\");\n    require(cards_[cardId].active == true, \"not_active\");\n    require(cards_[cardId].hash ==  hash, \"wrong_secret\");\n  \n    _transfer(address(this), msg.sender,cards_[cardId].tokens);\n    emit CardValidated(cards_[cardId].owner, cards_[cardId].cardId, msg.sender);\n  \n    delete cardsByHash_[hash];\n    delete cards_[cardId];\n  }\n\n}",
  "sourcePath": "/home/jordi/ws/jordiescudero/bloomen-wallet/bloomen-wallet-truffle/contracts/bloomen/PrepaidCardManager.sol",
  "compiler": {
    "name": "solc",
    "version": "0.5.7+commit.6da8b019.Emscripten.clang"
  },
  "schemaVersion": "3.0.6",
  "updatedAt": "2019-04-17T08:24:15.247Z",
  "devdoc": {
    "methods": {
      "allowance(address,address)": {
        "details": "Function to check the amount of tokens that an owner allowed to a spender.",
        "params": {
          "owner": "address The address which owns the funds.",
          "spender": "address The address which will spend the funds."
        },
        "return": "A uint256 specifying the amount of tokens still available for the spender."
      },
      "approve(address,uint256)": {
        "details": "Approve the passed address to spend the specified amount of tokens on behalf of msg.sender. Beware that changing an allowance with this method brings the risk that someone may use both the old and the new allowance by unfortunate transaction ordering. One possible solution to mitigate this race condition is to first reduce the spender's allowance to 0 and set the desired value afterwards: https://github.com/ethereum/EIPs/issues/20#issuecomment-263524729",
        "params": {
          "spender": "The address which will spend the funds.",
          "value": "The amount of tokens to be spent."
        }
      },
      "balanceOf(address)": {
        "details": "Gets the balance of the specified address.",
        "params": {
          "owner": "The address to query the balance of."
        },
        "return": "A uint256 representing the amount owned by the passed address."
      },
      "burn(uint256)": {
        "details": "Burns a specific amount of tokens.",
        "params": {
          "value": "The amount of token to be burned."
        }
      },
      "burnFrom(address,uint256)": {
        "details": "Burns a specific amount of tokens from the target address and decrements allowance",
        "params": {
          "from": "address The account whose tokens will be burned.",
          "value": "uint256 The amount of token to be burned."
        }
      },
      "decimals()": {
        "return": "the number of decimals of the token."
      },
      "decreaseAllowance(address,uint256)": {
        "details": "Decrease the amount of tokens that an owner allowed to a spender. approve should be called when _allowed[msg.sender][spender] == 0. To decrement allowed value is better to use this function to avoid 2 calls (and wait until the first transaction is mined) From MonolithDAO Token.sol Emits an Approval event.",
        "params": {
          "spender": "The address which will spend the funds.",
          "subtractedValue": "The amount of tokens to decrease the allowance by."
        }
      },
      "increaseAllowance(address,uint256)": {
        "details": "Increase the amount of tokens that an owner allowed to a spender. approve should be called when _allowed[msg.sender][spender] == 0. To increment allowed value is better to use this function to avoid 2 calls (and wait until the first transaction is mined) From MonolithDAO Token.sol Emits an Approval event.",
        "params": {
          "addedValue": "The amount of tokens to increase the allowance by.",
          "spender": "The address which will spend the funds."
        }
      },
      "isOwner()": {
        "return": "true if `msg.sender` is the owner of the contract."
      },
      "mint(address,uint256)": {
        "details": "Function to mint tokens",
        "params": {
          "to": "The address that will receive the minted tokens.",
          "value": "The amount of tokens to mint."
        },
        "return": "A boolean that indicates if the operation was successful."
      },
      "name()": {
        "return": "the name of the token."
      },
      "owner()": {
        "return": "the address of the owner."
      },
      "renounceOwnership()": {
        "details": "Allows the current owner to relinquish control of the contract. It will not be possible to call the functions with the `onlyOwner` modifier anymore."
      },
      "symbol()": {
        "return": "the symbol of the token."
      },
      "totalSupply()": {
        "details": "Total number of tokens in existence"
      },
      "transferFrom(address,address,uint256)": {
        "details": "Transfer tokens from one address to another. Note that while this function emits an Approval event, this is not required as per the specification, and other compliant implementations may not emit the event.",
        "params": {
          "from": "address The address which you want to send tokens from",
          "to": "address The address which you want to transfer to",
          "value": "uint256 the amount of tokens to be transferred"
        }
      },
      "transferOwnership(address)": {
        "details": "Allows the current owner to transfer control of the contract to a newOwner.",
        "params": {
          "newOwner": "The address to transfer ownership to."
        }
      }
    }
  },
  "userdoc": {
    "methods": {
      "renounceOwnership()": {
        "notice": "Renouncing ownership will leave the contract without an owner, thereby removing any functionality that is only available to the owner."
      }
    }
  }
}