{
  "contractName": "PrepaidCardManager",
  "abi": [
    {
      "constant": true,
      "inputs": [
        {
          "name": "_assetId",
          "type": "uint256"
        },
        {
          "name": "_schemaId",
          "type": "uint256"
        }
      ],
      "name": "checkOwnership",
      "outputs": [
        {
          "name": "",
          "type": "bool"
        }
      ],
      "payable": false,
      "stateMutability": "view",
      "type": "function"
    },
    {
      "constant": true,
      "inputs": [],
      "name": "name",
      "outputs": [
        {
          "name": "",
          "type": "string"
        }
      ],
      "payable": false,
      "stateMutability": "view",
      "type": "function"
    },
    {
      "constant": false,
      "inputs": [
        {
          "name": "_assetId",
          "type": "uint256"
        },
        {
          "name": "_schemaId",
          "type": "uint256"
        },
        {
          "name": "_amount",
          "type": "uint256"
        },
        {
          "name": "_dappId",
          "type": "string"
        },
        {
          "name": "_description",
          "type": "string"
        }
      ],
      "name": "buy",
      "outputs": [],
      "payable": false,
      "stateMutability": "nonpayable",
      "type": "function"
    },
    {
      "constant": false,
      "inputs": [
        {
          "name": "_to",
          "type": "address"
        },
        {
          "name": "_value",
          "type": "uint256"
        },
        {
          "name": "_data",
          "type": "uint256"
        }
      ],
      "name": "transfer",
      "outputs": [],
      "payable": false,
      "stateMutability": "nonpayable",
      "type": "function"
    },
    {
      "constant": false,
      "inputs": [
        {
          "name": "spender",
          "type": "address"
        },
        {
          "name": "value",
          "type": "uint256"
        }
      ],
      "name": "approve",
      "outputs": [
        {
          "name": "",
          "type": "bool"
        }
      ],
      "payable": false,
      "stateMutability": "nonpayable",
      "type": "function"
    },
    {
      "constant": false,
      "inputs": [
        {
          "name": "_deviceHash",
          "type": "bytes32"
        },
        {
          "name": "_assetId",
          "type": "uint256"
        },
        {
          "name": "_schemaId",
          "type": "uint256"
        },
        {
          "name": "_lifeTime",
          "type": "uint256"
        },
        {
          "name": "_dappId",
          "type": "string"
        }
      ],
      "name": "handshake",
      "outputs": [],
      "payable": false,
      "stateMutability": "nonpayable",
      "type": "function"
    },
    {
      "constant": true,
      "inputs": [],
      "name": "totalSupply",
      "outputs": [
        {
          "name": "",
          "type": "uint256"
        }
      ],
      "payable": false,
      "stateMutability": "view",
      "type": "function"
    },
    {
      "constant": false,
      "inputs": [
        {
          "name": "_deviceHash",
          "type": "bytes32"
        }
      ],
      "name": "removeDevice",
      "outputs": [],
      "payable": false,
      "stateMutability": "nonpayable",
      "type": "function"
    },
    {
      "constant": true,
      "inputs": [
        {
          "name": "_target",
          "type": "address"
        },
        {
          "name": "_deviceHash",
          "type": "bytes32"
        }
      ],
      "name": "isAllowedForAddress",
      "outputs": [
        {
          "name": "",
          "type": "bool"
        }
      ],
      "payable": false,
      "stateMutability": "view",
      "type": "function"
    },
    {
      "constant": true,
      "inputs": [
        {
          "name": "theNumber",
          "type": "uint256"
        },
        {
          "name": "percentage",
          "type": "uint256"
        }
      ],
      "name": "calculatePercentage",
      "outputs": [
        {
          "name": "",
          "type": "uint256"
        }
      ],
      "payable": false,
      "stateMutability": "view",
      "type": "function"
    },
    {
      "constant": true,
      "inputs": [
        {
          "name": "_deviceHash",
          "type": "bytes32"
        }
      ],
      "name": "getAddress",
      "outputs": [
        {
          "name": "",
          "type": "address"
        }
      ],
      "payable": false,
      "stateMutability": "view",
      "type": "function"
    },
    {
      "constant": false,
      "inputs": [
        {
          "name": "from",
          "type": "address"
        },
        {
          "name": "to",
          "type": "address"
        },
        {
          "name": "value",
          "type": "uint256"
        }
      ],
      "name": "transferFrom",
      "outputs": [
        {
          "name": "",
          "type": "bool"
        }
      ],
      "payable": false,
      "stateMutability": "nonpayable",
      "type": "function"
    },
    {
      "constant": true,
      "inputs": [
        {
          "name": "_schemaId",
          "type": "uint256"
        }
      ],
      "name": "getSchema",
      "outputs": [
        {
          "components": [
            {
              "name": "expirationDate",
              "type": "uint256"
            },
            {
              "name": "schemaId",
              "type": "uint256"
            },
            {
              "name": "amount",
              "type": "uint256"
            },
            {
              "name": "assetLifeTime",
              "type": "uint256"
            },
            {
              "components": [
                {
                  "name": "percent",
                  "type": "uint256"
                },
                {
                  "name": "receptor",
                  "type": "address"
                },
                {
                  "name": "description",
                  "type": "string"
                }
              ],
              "name": "clearingHouseRules",
              "type": "tuple[]"
            },
            {
              "name": "valid",
              "type": "bool"
            }
          ],
          "name": "",
          "type": "tuple"
        }
      ],
      "payable": false,
      "stateMutability": "view",
      "type": "function"
    },
    {
      "constant": true,
      "inputs": [],
      "name": "decimals",
      "outputs": [
        {
          "name": "",
          "type": "uint8"
        }
      ],
      "payable": false,
      "stateMutability": "view",
      "type": "function"
    },
    {
      "constant": false,
      "inputs": [
        {
          "name": "spender",
          "type": "address"
        },
        {
          "name": "addedValue",
          "type": "uint256"
        }
      ],
      "name": "increaseAllowance",
      "outputs": [
        {
          "name": "",
          "type": "bool"
        }
      ],
      "payable": false,
      "stateMutability": "nonpayable",
      "type": "function"
    },
    {
      "constant": false,
      "inputs": [
        {
          "name": "_schemaId",
          "type": "uint256"
        }
      ],
      "name": "validateSchema",
      "outputs": [],
      "payable": false,
      "stateMutability": "nonpayable",
      "type": "function"
    },
    {
      "constant": false,
      "inputs": [
        {
          "name": "to",
          "type": "address"
        },
        {
          "name": "value",
          "type": "uint256"
        }
      ],
      "name": "mint",
      "outputs": [
        {
          "name": "",
          "type": "bool"
        }
      ],
      "payable": false,
      "stateMutability": "nonpayable",
      "type": "function"
    },
    {
      "constant": false,
      "inputs": [
        {
          "name": "value",
          "type": "uint256"
        }
      ],
      "name": "burn",
      "outputs": [],
      "payable": false,
      "stateMutability": "nonpayable",
      "type": "function"
    },
    {
      "constant": false,
      "inputs": [
        {
          "name": "_deviceHash",
          "type": "bytes32"
        },
        {
          "name": "_assetId",
          "type": "uint256"
        },
        {
          "name": "_schemaId",
          "type": "uint256"
        },
        {
          "name": "_lifeTime",
          "type": "uint256"
        },
        {
          "name": "_dappId",
          "type": "string"
        },
        {
          "name": "_description",
          "type": "string"
        }
      ],
      "name": "handshake",
      "outputs": [],
      "payable": false,
      "stateMutability": "nonpayable",
      "type": "function"
    },
    {
      "constant": true,
      "inputs": [],
      "name": "getAssetsPageCount",
      "outputs": [
        {
          "name": "",
          "type": "uint256"
        }
      ],
      "payable": false,
      "stateMutability": "view",
      "type": "function"
    },
    {
      "constant": false,
      "inputs": [
        {
          "name": "_from",
          "type": "address"
        },
        {
          "name": "_value",
          "type": "uint256"
        },
        {
          "name": "_schemaId",
          "type": "uint256"
        }
      ],
      "name": "tokenFallback",
      "outputs": [],
      "payable": false,
      "stateMutability": "nonpayable",
      "type": "function"
    },
    {
      "constant": false,
      "inputs": [
        {
          "name": "_schemaId",
          "type": "uint256"
        }
      ],
      "name": "invalidateSchema",
      "outputs": [],
      "payable": false,
      "stateMutability": "nonpayable",
      "type": "function"
    },
    {
      "constant": true,
      "inputs": [
        {
          "name": "_page",
          "type": "uint256"
        }
      ],
      "name": "getDevices",
      "outputs": [
        {
          "components": [
            {
              "name": "expirationDate",
              "type": "uint256"
            },
            {
              "name": "assetId",
              "type": "uint256"
            },
            {
              "name": "schemaId",
              "type": "uint256"
            },
            {
              "name": "dappId",
              "type": "string"
            },
            {
              "name": "description",
              "type": "string"
            }
          ],
          "name": "",
          "type": "tuple[]"
        }
      ],
      "payable": false,
      "stateMutability": "view",
      "type": "function"
    },
    {
      "constant": true,
      "inputs": [
        {
          "name": "_target",
          "type": "address"
        },
        {
          "name": "_assetId",
          "type": "uint256"
        },
        {
          "name": "_schemaId",
          "type": "uint256"
        }
      ],
      "name": "checkOwnershipForAddress",
      "outputs": [
        {
          "name": "",
          "type": "bool"
        }
      ],
      "payable": false,
      "stateMutability": "view",
      "type": "function"
    },
    {
      "constant": true,
      "inputs": [
        {
          "name": "owner",
          "type": "address"
        }
      ],
      "name": "balanceOf",
      "outputs": [
        {
          "name": "",
          "type": "uint256"
        }
      ],
      "payable": false,
      "stateMutability": "view",
      "type": "function"
    },
    {
      "constant": false,
      "inputs": [],
      "name": "renounceOwnership",
      "outputs": [],
      "payable": false,
      "stateMutability": "nonpayable",
      "type": "function"
    },
    {
      "constant": true,
      "inputs": [
        {
          "name": "_deviceHash",
          "type": "bytes32"
        }
      ],
      "name": "isAllowed",
      "outputs": [
        {
          "name": "",
          "type": "bool"
        }
      ],
      "payable": false,
      "stateMutability": "view",
      "type": "function"
    },
    {
      "constant": false,
      "inputs": [
        {
          "name": "from",
          "type": "address"
        },
        {
          "name": "value",
          "type": "uint256"
        }
      ],
      "name": "burnFrom",
      "outputs": [],
      "payable": false,
      "stateMutability": "nonpayable",
      "type": "function"
    },
    {
      "constant": false,
      "inputs": [
        {
          "name": "_assetId",
          "type": "uint256"
        },
        {
          "name": "_schemaId",
          "type": "uint256"
        },
        {
          "name": "_amount",
          "type": "uint256"
        },
        {
          "name": "_dappId",
          "type": "string"
        }
      ],
      "name": "buy",
      "outputs": [],
      "payable": false,
      "stateMutability": "nonpayable",
      "type": "function"
    },
    {
      "constant": true,
      "inputs": [
        {
          "name": "account",
          "type": "address"
        }
      ],
      "name": "isSigner",
      "outputs": [
        {
          "name": "",
          "type": "bool"
        }
      ],
      "payable": false,
      "stateMutability": "view",
      "type": "function"
    },
    {
      "constant": true,
      "inputs": [],
      "name": "owner",
      "outputs": [
        {
          "name": "",
          "type": "address"
        }
      ],
      "payable": false,
      "stateMutability": "view",
      "type": "function"
    },
    {
      "constant": true,
      "inputs": [],
      "name": "isOwner",
      "outputs": [
        {
          "name": "",
          "type": "bool"
        }
      ],
      "payable": false,
      "stateMutability": "view",
      "type": "function"
    },
    {
      "constant": true,
      "inputs": [],
      "name": "getSchemas",
      "outputs": [
        {
          "name": "",
          "type": "uint256[]"
        }
      ],
      "payable": false,
      "stateMutability": "view",
      "type": "function"
    },
    {
      "constant": true,
      "inputs": [],
      "name": "symbol",
      "outputs": [
        {
          "name": "",
          "type": "string"
        }
      ],
      "payable": false,
      "stateMutability": "view",
      "type": "function"
    },
    {
      "constant": false,
      "inputs": [
        {
          "name": "account",
          "type": "address"
        }
      ],
      "name": "addMinter",
      "outputs": [],
      "payable": false,
      "stateMutability": "nonpayable",
      "type": "function"
    },
    {
      "constant": false,
      "inputs": [],
      "name": "renounceMinter",
      "outputs": [],
      "payable": false,
      "stateMutability": "nonpayable",
      "type": "function"
    },
    {
      "constant": false,
      "inputs": [
        {
          "name": "_schemaId",
          "type": "uint256"
        },
        {
          "name": "_data",
          "type": "bytes"
        }
      ],
      "name": "createSchema",
      "outputs": [],
      "payable": false,
      "stateMutability": "nonpayable",
      "type": "function"
    },
    {
      "constant": false,
      "inputs": [
        {
          "name": "spender",
          "type": "address"
        },
        {
          "name": "subtractedValue",
          "type": "uint256"
        }
      ],
      "name": "decreaseAllowance",
      "outputs": [
        {
          "name": "",
          "type": "bool"
        }
      ],
      "payable": false,
      "stateMutability": "nonpayable",
      "type": "function"
    },
    {
      "constant": false,
      "inputs": [
        {
          "name": "_to",
          "type": "address"
        },
        {
          "name": "_value",
          "type": "uint256"
        }
      ],
      "name": "transfer",
      "outputs": [
        {
          "name": "",
          "type": "bool"
        }
      ],
      "payable": false,
      "stateMutability": "nonpayable",
      "type": "function"
    },
    {
      "constant": true,
      "inputs": [
        {
          "name": "account",
          "type": "address"
        }
      ],
      "name": "isMinter",
      "outputs": [
        {
          "name": "",
          "type": "bool"
        }
      ],
      "payable": false,
      "stateMutability": "view",
      "type": "function"
    },
    {
      "constant": true,
      "inputs": [],
      "name": "getDevicesPageCount",
      "outputs": [
        {
          "name": "",
          "type": "uint256"
        }
      ],
      "payable": false,
      "stateMutability": "view",
      "type": "function"
    },
    {
      "constant": true,
      "inputs": [
        {
          "name": "_page",
          "type": "uint256"
        }
      ],
      "name": "getAssets",
      "outputs": [
        {
          "components": [
            {
              "name": "expirationDate",
              "type": "uint256"
            },
            {
              "name": "assetId",
              "type": "uint256"
            },
            {
              "name": "schemaId",
              "type": "uint256"
            },
            {
              "name": "dappId",
              "type": "string"
            },
            {
              "name": "description",
              "type": "string"
            }
          ],
          "name": "",
          "type": "tuple[]"
        }
      ],
      "payable": false,
      "stateMutability": "view",
      "type": "function"
    },
    {
      "constant": true,
      "inputs": [
        {
          "name": "owner",
          "type": "address"
        },
        {
          "name": "spender",
          "type": "address"
        }
      ],
      "name": "allowance",
      "outputs": [
        {
          "name": "",
          "type": "uint256"
        }
      ],
      "payable": false,
      "stateMutability": "view",
      "type": "function"
    },
    {
      "constant": false,
      "inputs": [],
      "name": "renounceSigner",
      "outputs": [],
      "payable": false,
      "stateMutability": "nonpayable",
      "type": "function"
    },
    {
      "constant": false,
      "inputs": [
        {
          "name": "account",
          "type": "address"
        }
      ],
      "name": "addSigner",
      "outputs": [],
      "payable": false,
      "stateMutability": "nonpayable",
      "type": "function"
    },
    {
      "constant": false,
      "inputs": [
        {
          "name": "newOwner",
          "type": "address"
        }
      ],
      "name": "transferOwnership",
      "outputs": [],
      "payable": false,
      "stateMutability": "nonpayable",
      "type": "function"
    },
    {
      "inputs": [],
      "payable": false,
      "stateMutability": "nonpayable",
      "type": "constructor"
    },
    {
      "anonymous": false,
      "inputs": [
        {
          "indexed": true,
          "name": "owner",
          "type": "address"
        },
        {
          "indexed": false,
          "name": "cardId",
          "type": "uint256"
        },
        {
          "indexed": true,
          "name": "user",
          "type": "address"
        }
      ],
      "name": "CardValidated",
      "type": "event"
    },
    {
      "anonymous": false,
      "inputs": [
        {
          "indexed": true,
          "name": "account",
          "type": "address"
        }
      ],
      "name": "MinterAdded",
      "type": "event"
    },
    {
      "anonymous": false,
      "inputs": [
        {
          "indexed": true,
          "name": "account",
          "type": "address"
        }
      ],
      "name": "MinterRemoved",
      "type": "event"
    },
    {
      "anonymous": false,
      "inputs": [
        {
          "indexed": true,
          "name": "from",
          "type": "address"
        },
        {
          "indexed": true,
          "name": "to",
          "type": "address"
        },
        {
          "indexed": false,
          "name": "value",
          "type": "uint256"
        }
      ],
      "name": "Transfer",
      "type": "event"
    },
    {
      "anonymous": false,
      "inputs": [
        {
          "indexed": true,
          "name": "owner",
          "type": "address"
        },
        {
          "indexed": true,
          "name": "spender",
          "type": "address"
        },
        {
          "indexed": false,
          "name": "value",
          "type": "uint256"
        }
      ],
      "name": "Approval",
      "type": "event"
    },
    {
      "anonymous": false,
      "inputs": [
        {
          "indexed": true,
          "name": "previousOwner",
          "type": "address"
        },
        {
          "indexed": true,
          "name": "newOwner",
          "type": "address"
        }
      ],
      "name": "OwnershipTransferred",
      "type": "event"
    },
    {
      "anonymous": false,
      "inputs": [
        {
          "indexed": true,
          "name": "account",
          "type": "address"
        }
      ],
      "name": "SignerAdded",
      "type": "event"
    },
    {
      "anonymous": false,
      "inputs": [
        {
          "indexed": true,
          "name": "account",
          "type": "address"
        }
      ],
      "name": "SignerRemoved",
      "type": "event"
    },
    {
      "constant": true,
      "inputs": [
        {
          "name": "_cardId",
          "type": "uint256"
        }
      ],
      "name": "getCard",
      "outputs": [
        {
          "name": "cardId",
          "type": "uint256"
        },
        {
          "name": "owner",
          "type": "address"
        },
        {
          "name": "tokens",
          "type": "uint256"
        },
        {
          "name": "active",
          "type": "bool"
        }
      ],
      "payable": false,
      "stateMutability": "view",
      "type": "function"
    },
    {
      "constant": false,
      "inputs": [
        {
          "name": "_cardId",
          "type": "uint256"
        },
        {
          "name": "_tokens",
          "type": "uint256"
        },
        {
          "name": "_hash",
          "type": "bytes32"
        }
      ],
      "name": "addCard",
      "outputs": [],
      "payable": false,
      "stateMutability": "nonpayable",
      "type": "function"
    },
    {
      "constant": false,
      "inputs": [
        {
          "name": "_cardId",
          "type": "uint256"
        }
      ],
      "name": "activateCard",
      "outputs": [],
      "payable": false,
      "stateMutability": "nonpayable",
      "type": "function"
    },
    {
      "constant": false,
      "inputs": [
        {
          "name": "_secret",
          "type": "bytes"
        }
      ],
      "name": "validateCard",
      "outputs": [],
      "payable": false,
      "stateMutability": "nonpayable",
      "type": "function"
    }
  ],
  "bytecode": "0x60806040523480156200001157600080fd5b506040518060400160405280600b81526020017f426c6f6f6d656e436f696e0000000000000000000000000000000000000000008152506040518060400160405280600381526020017f424c4f0000000000000000000000000000000000000000000000000000000000815250600282828262000094336200013e60201b60201c565b600180546001600160a01b0319163317908190556040516001600160a01b0391909116906000907f8be0079c531659141344cd1fd0a4f28419497f9722a3daafe3b4186f6b6457e0908290a38251620000f59060079060208601906200026e565b5081516200010b9060089060208501906200026e565b506009805460ff191660ff92909216919091179055506200013590503362000190602090811b901c565b50505062000313565b62000159816000620001e260201b620026d61790919060201c565b6040516001600160a01b038216907f47d1c22a25bb3a5d4e481b9b1e6944c2eade3181a0a20b495ed61d35b5323f2490600090a250565b620001ab81600a620001e260201b620026d61790919060201c565b6040516001600160a01b038216907f6ae172837ea30b801fbfcdd4108aa1d5bf8ff775444fd70256b44e6bf3dfc3f690600090a250565b6001600160a01b038116620001f657600080fd5b6200020882826200023860201b60201c565b156200021357600080fd5b6001600160a01b0316600090815260209190915260409020805460ff19166001179055565b60006001600160a01b0382166200024e57600080fd5b506001600160a01b03166000908152602091909152604090205460ff1690565b828054600181600116156101000203166002900490600052602060002090601f016020900481019282601f10620002b157805160ff1916838001178555620002e1565b82800160010185558215620002e1579182015b82811115620002e1578251825591602001919060010190620002c4565b50620002ef929150620002f3565b5090565b6200031091905b80821115620002ef5760008155600101620002fa565b90565b613c0580620003236000396000f3fe608060405234801561001057600080fd5b50600436106102d65760003560e01c8063715018a611610182578063983b2d56116100e9578063c1debea4116100a2578063dd62ed3e1161007c578063dd62ed3e1461065c578063e5c8b03d1461066f578063eb12d61e14610677578063f2fde38b1461068a576102d6565b8063c1debea414610621578063c8c2eb6614610634578063d92121641461063c576102d6565b8063983b2d56146105ba57806398650275146105cd578063a2086dab146105d5578063a457c2d7146105e8578063a9059cbb146105fb578063aa271e1a1461060e576102d6565b80638a9843851161013b5780638a984385146105575780638da5cb5b1461056a5780638f32d59b146105725780639188d3121461057a57806395ba8d181461059d57806395d89b41146105b2576102d6565b8063715018a6146104f057806378755295146104f857806379cc67901461050b5780637de3b0ed1461051e5780637df73e27146105315780637e09ef4214610544576102d6565b80632b26fb291161024157806342b4bed4116101fa5780635a16f5c4116101d45780635a16f5c4146104975780636d9db7ed146104aa578063700651aa146104ca57806370a08231146104dd576102d6565b806342b4bed4146104695780634aa3bfeb1461047c5780634f4ee35314610484576102d6565b80632b26fb29146103e8578063313ce56714610408578063395093511461041d5780634014d4681461043057806340c10f191461044357806342966c6814610456576102d6565b806318160ddd1161029357806318160ddd146103675780631d2662001461037c5780631d8418991461038f5780632133e3b9146103a257806321f8a721146103b557806323b872dd146103d5576102d6565b806304edae0f146102db57806306fdde0314610304578063080e688714610319578063095bcdb61461032e578063095ea7b314610341578063132c6aa414610354575b600080fd5b6102ee6102e9366004613099565b61069d565b6040516102fb9190613924565b60405180910390f35b61030c6106b3565b6040516102fb9190613932565b61032c610327366004613152565b61074a565b005b61032c61033c366004612e88565b61075f565b6102ee61034f366004612e58565b61077b565b61032c610362366004612ed8565b610791565b61036f6107af565b6040516102fb9190613a94565b61032c61038a366004612eba565b6107b5565b6102ee61039d366004612e58565b6107c2565b61036f6103b0366004613099565b6107f9565b6103c86103c3366004612eba565b610801565b6040516102fb91906138bb565b6102ee6103e3366004612e0b565b61083a565b6103fb6103f6366004612eba565b610892565b6040516102fb9190613a83565b610410610a30565b6040516102fb9190613ad7565b6102ee61042b366004612e58565b610a39565b61032c61043e366004612eba565b610a75565b6102ee610451366004612e58565b610a91565b61032c610464366004612eba565b610aaf565b61032c610477366004612f65565b610ab9565b61036f610ad0565b61032c610492366004612e88565b610aea565b61032c6104a5366004612eba565b610b88565b6104bd6104b8366004612eba565b610ba4565b6040516102fb9190613902565b6102ee6104d8366004612e88565b610e46565b61036f6104eb366004612db3565b610e53565b61032c610e6e565b6102ee610506366004612eba565b610ec9565b61032c610519366004612e58565b610efa565b61032c61052c3660046130d9565b610f08565b6102ee61053f366004612db3565b610f2b565b61032c610552366004612eba565b610f3d565b61032c6105653660046130b8565b610fd6565b6103c8611140565b6102ee61114f565b61058d610588366004612eba565b611160565b6040516102fb9493929190613aa2565b6105a56111d3565b6040516102fb9190613913565b61030c61122a565b61032c6105c8366004612db3565b61128b565b61032c6112a6565b61032c6105e3366004613051565b6112b1565b6102ee6105f6366004612e58565b6112cc565b6102ee610609366004612e58565b611308565b6102ee61061c366004612db3565b611322565b61032c61062f36600461301c565b611335565b61036f6114a2565b61064f61064a366004612eba565b6114bd565b6040516102fb91906138f1565b61036f61066a366004612dd1565b611733565b61032c61175e565b61032c610685366004612db3565b611767565b61032c610698366004612db3565b611782565b60006106aa33848461179c565b90505b92915050565b60078054604080516020601f600260001961010060018816150201909516949094049384018190048102820181019092528281526060939092909183018282801561073f5780601f106107145761010080835404028352916020019161073f565b820191906000526020600020905b81548152906001019060200180831161072257829003601f168201915b505050505090505b90565b6107583386868686866119a1565b5050505050565b61076a338484611ac9565b61077633848484611ad4565b505050565b6000610788338484611b8a565b50600192915050565b61075833868686868660405180602001604052806000815250611c18565b60065490565b6107bf3382611db2565b50565b6000818152600f602052604081205481906001600160a01b0385811691161480156107f157506107f183610ec9565b949350505050565b606491020490565b60008061080d83610ec9565b90506000811561083157506000838152600f60205260409020546001600160a01b03165b9150505b919050565b6000610847848484611ac9565b6001600160a01b038416600090815260056020908152604080832033808552925290912054610887918691610882908663ffffffff611fa916565b611b8a565b5060015b9392505050565b61089a612b91565b6000828152600260205260409020600101546108d457604051600160e51b62461bcd0281526004016108cb90613993565b60405180910390fd5b6000828152600260208181526040808420815160c081018352815481526001820154818501529381015484830152600381015460608501526004810180548351818602810186019094528084529495919460808701949192909184015b82821015610a115760008481526020908190206040805160608101825260038602909201805483526001808201546001600160a01b0316848601526002808301805485516101009482161594909402600019011691909104601f81018790048702830187018552808352949592949386019391929091908301828280156109f95780601f106109ce576101008083540402835291602001916109f9565b820191906000526020600020905b8154815290600101906020018083116109dc57829003601f168201915b50505050508152505081526020019060010190610931565b505050908252506005919091015460ff16151560209091015292915050565b60095460ff1690565b3360008181526005602090815260408083206001600160a01b03871684529091528120549091610788918590610882908663ffffffff611fbe16565b610a7d61114f565b610a8657600080fd5b6107bf816001611fd0565b6000610a9c33611322565b610aa557600080fd5b610788838361205f565b6107bf33826120fa565b610ac833878787878787611c18565b505050505050565b336000908152600d6020526040812054600a905b04905090565b610af2612b91565b610afb82610892565b90508260005b600183608001515103811015610b6d576000610b388685608001518481518110610b2757fe5b6020026020010151600001516107f9565b9050610b6184608001518381518110610b4d57fe5b60200260200101516020015182600061075f565b90910390600101610b01565b506080820151805161075891906000198101908110610b4d57fe5b610b9061114f565b610b9957600080fd5b6107bf816000611fd0565b60408051600a8082526101608201909252606091829190816020015b610bc8612bc9565b815260200190600190039081610bc0575050336000908152600e60209081526040918290206001018054835181840281018401909452808452939450600a8702600919019360609392830182828015610c4057602002820191906000526020600020905b815481526020019060010190808311610c2c575b50505050509050805160001480610c5a5750600181510382115b15610c6c575060609250610835915050565b60005b85600a02831015610e3c578151831015610e3057336000908152600e602052604081208351909190849086908110610ca357fe5b602002602001015181526020019081526020016000206040518060a0016040529081600082015481526020016001820154815260200160028201548152602001600382018054600181600116156101000203166002900480601f016020809104026020016040519081016040528092919081815260200182805460018160011615610100020316600290048015610d7b5780601f10610d5057610100808354040283529160200191610d7b565b820191906000526020600020905b815481529060010190602001808311610d5e57829003601f168201915b505050918352505060048201805460408051602060026001851615610100026000190190941693909304601f8101849004840282018401909252818152938201939291830182828015610e0f5780601f10610de457610100808354040283529160200191610e0f565b820191906000526020600020905b815481529060010190602001808311610df257829003601f168201915b505050505081525050848281518110610e2457fe5b60200260200101819052505b60019283019201610c6f565b5091949350505050565b60006107f184848461179c565b6001600160a01b031660009081526004602052604090205490565b610e7661114f565b610e7f57600080fd5b6001546040516000916001600160a01b0316907f8be0079c531659141344cd1fd0a4f28419497f9722a3daafe3b4186f6b6457e0908390a3600180546001600160a01b0319169055565b6000818152600f60209081526040808320546001600160a01b03168352600e82528083209383529290522054421090565b610f048282612186565b5050565b610f253385858585604051806020016040528060008152506119a1565b50505050565b60006106ad818363ffffffff6121cb16565b6000818152601060205260409020600401548190610f7057604051600160e51b62461bcd0281526004016108cb90613993565b610f7933610f2b565b610f8257600080fd5b60008281526010602052604090206003015460ff1615610fb757604051600160e51b62461bcd0281526004016108cb90613a73565b506000908152601060205260409020600301805460ff19166001179055565b610fde61114f565b610fe757600080fd5b6000821161100a57604051600160e51b62461bcd0281526004016108cb90613a43565b6000831161102d57604051600160e51b62461bcd0281526004016108cb90613953565b6000838152601060205260409020600401541561105f57604051600160e51b62461bcd0281526004016108cb90613a13565b6000818152601160205260409020541561108e57604051600160e51b62461bcd0281526004016108cb90613943565b611098308361205f565b6110a0612bf8565b506040805160c08101825282815260208082018681528284019586526000606084018181523360808601908152600160a087018181528b85526010875288852097518855945190870155975160028601555160038501805498516001600160a01b031661010002610100600160a81b031992151560ff19909a16999099179190911697909717909655516004909201919091559183526011909152902055565b6001546001600160a01b031690565b6001546001600160a01b0316331490565b600081815260106020526040812060040154819081908190859061119957604051600160e51b62461bcd0281526004016108cb90613993565b5050506000928352505060106020526040902060018101546003820154600290920154909261010083046001600160a01b03169260ff1690565b6060600380548060200260200160405190810160405280929190818152602001828054801561073f57602002820191906000526020600020905b81548152602001906001019080831161120d575050505050905090565b60088054604080516020601f600260001961010060018816150201909516949094049384018190048102820181019092528281526060939092909183018282801561073f5780601f106107145761010080835404028352916020019161073f565b61129433611322565b61129d57600080fd5b6107bf81612200565b6112af33612248565b565b6112b961114f565b6112c257600080fd5b610f048282612290565b3360008181526005602090815260408083206001600160a01b03871684529091528120549091610788918590610882908663ffffffff611fa916565b6000611315338484611ac9565b6107883384846000611ad4565b60006106ad600a8363ffffffff6121cb16565b8051602080830191909120600081815260119092526040909120548061137057604051600160e51b62461bcd0281526004016108cb906139e3565b60008181526010602052604090206003015460ff1615156001146113a957604051600160e51b62461bcd0281526004016108cb90613983565b60008181526010602052604090205482146113d957604051600160e51b62461bcd0281526004016108cb90613973565b6000818152601060205260409020600201546113f89030903390611ac9565b600081815260106020526040908190206003810154600190910154915133926101009092046001600160a01b0316917f80de5a7d3e27e32cfffc07551af7c9ee302a01b5456991722d7ef54193eab356916114539190613a94565b60405180910390a3600091825260116020908152604080842084905591835260109052812081815560018101829055600281018290556003810180546001600160a81b03191690556004015550565b336000908152600e6020526040812060010154600a90610ae4565b336000908152600d602090815260408083208054825181850281018501909352808352606094600919600a8802019486949392919084015b8282101561167b57838290600052602060002090600502016040518060a0016040529081600082015481526020016001820154815260200160028201548152602001600382018054600181600116156101000203166002900480601f0160208091040260200160405190810160405280929190818152602001828054600181600116156101000203166002900480156115cf5780601f106115a4576101008083540402835291602001916115cf565b820191906000526020600020905b8154815290600101906020018083116115b257829003601f168201915b505050918352505060048201805460408051602060026001851615610100026000190190941693909304601f81018490048402820184019092528181529382019392918301828280156116635780601f1061163857610100808354040283529160200191611663565b820191906000526020600020905b81548152906001019060200180831161164657829003601f168201915b505050505081525050815260200190600101906114f5565b5050505090508051600014806116945750600181510382115b156116a55750606091506108359050565b60408051600a8082526101608201909252606091816020015b6116c6612bc9565b8152602001906001900390816116be57905050905060005b85600a0284101561172a57825184101561171e578284815181106116fe57fe5b602002602001015182828151811061171257fe5b60200260200101819052505b600193840193016116de565b50949350505050565b6001600160a01b03918216600090815260056020908152604080832093909416825291909152205490565b6112af33612520565b61177033610f2b565b61177957600080fd5b6107bf81612568565b61178a61114f565b61179357600080fd5b6107bf816125b0565b6000805b6001600160a01b0385166000908152600d6020526040902054811015611996576117c8612bc9565b6001600160a01b0386166000908152600d602052604090208054839081106117ec57fe5b90600052602060002090600502016040518060a0016040529081600082015481526020016001820154815260200160028201548152602001600382018054600181600116156101000203166002900480601f0160208091040260200160405190810160405280929190818152602001828054600181600116156101000203166002900480156118bc5780601f10611891576101008083540402835291602001916118bc565b820191906000526020600020905b81548152906001019060200180831161189f57829003601f168201915b505050918352505060048201805460408051602060026001851615610100026000190190941693909304601f81018490048402820184019092528181529382019392918301828280156119505780601f1061192557610100808354040283529160200191611950565b820191906000526020600020905b81548152906001019060200180831161193357829003601f168201915b50505050508152505090508481602001511480156119715750838160400151145b801561197d5750805142105b1561198d5760019250505061088b565b506001016117a0565b506000949350505050565b6119a9612b91565b6119b285610892565b9050838160400151146119da57604051600160e51b62461bcd0281526004016108cb90613a03565b6119e587878761179c565b15611a0557604051600160e51b62461bcd0281526004016108cb90613a33565b8315611a1657611a1630858761075f565b6001600160a01b0387166000908152600d60209081526040808320815160a081018352606080870151420182528185018c81529382018b8152908201898152608083018990528354600181810180875595895297879020845160059092020190815594519685019690965551600284015593518051919493611aa092600385019290910190612c2d565b5060808201518051611abc916004840191602090910190612c2d565b5050505050505050505050565b61077683838361261f565b611add836126d0565b15611b4b57604051600160e01b634f4ee35302815283906001600160a01b03821690634f4ee35390611b17908890879087906004016138c9565b600060405180830381600087803b158015611b3157600080fd5b505af1158015611b45573d6000803e3d6000fd5b50505050505b826001600160a01b0316846001600160a01b0316600080516020613bac83398151915284604051611b7c9190613a94565b60405180910390a350505050565b6001600160a01b038216611b9d57600080fd5b6001600160a01b038316611bb057600080fd5b6001600160a01b0380841660008181526005602090815260408083209487168084529490915290819020849055517f8c5be1e5ebec7d5bd14f71427d1e84f3dd0314c0f7b2291e5b200ac8c7c3b92590611c0b908590613a94565b60405180910390a3505050565b611c2387868661179c565b611c4257604051600160e51b62461bcd0281526004016108cb906139a3565b6000868152600f60205260409020546001600160a01b031615801590611c6e5750611c6c86610ec9565b155b15611c95576000868152600f6020526040902054611c95906001600160a01b031687611db2565b6000868152600f60205260409020546001600160a01b031615611ccd57604051600160e51b62461bcd0281526004016108cb90613a63565b6000868152600f6020908152604080832080546001600160a01b0319166001600160a01b038c16908117909155815160a0810183528781528084018a81528184018a81526060830189815260808401899052938752600e86528487208d8852865293909520815181559451600186015591516002850155518051919392611d5c92600385019290910190612c2d565b5060808201518051611d78916004840191602090910190612c2d565b5050506001600160a01b039096166000908152600e6020908152604082206001908101805491820181558352912001949094555050505050565b6000818152600f60205260409020546001600160a01b03838116911614611dee57604051600160e51b62461bcd0281526004016108cb906139d3565b6000818152600f6020908152604080832080546001600160a01b03191690556001600160a01b0385168352600e82528083208484529091528120818155600181018290556002810182905590611e476003830182612cab565b611e55600483016000612cab565b5060009050805b6001600160a01b0384166000908152600e602052604090206001015460001901811015611f45578115611f04576001600160a01b0384166000908152600e602052604090206001908101805490918301908110611eb557fe5b9060005260206000200154600e6000866001600160a01b03166001600160a01b031681526020019081526020016000206001018281548110611ef357fe5b600091825260209091200155611f3d565b6001600160a01b0384166000908152600e60205260409020600101805484919083908110611f2e57fe5b90600052602060002001541491505b600101611e5c565b506001600160a01b0383166000908152600e6020526040902060010180546000198101908110611f7157fe5b600091825260208083209091018290556001600160a01b0385168252600e905260409020600101805490610f25906000198301612cef565b600082821115611fb857600080fd5b50900390565b6000828201838110156106aa57600080fd5b60008281526002602052604090206001015461200157604051600160e51b62461bcd0281526004016108cb906139b3565b60008281526002602052604090206005015460ff161515811515141561203c57604051600160e51b62461bcd0281526004016108cb90613a23565b600091825260026020526040909120600501805460ff1916911515919091179055565b6001600160a01b03821661207257600080fd5b600654612085908263ffffffff611fbe16565b6006556001600160a01b0382166000908152600460205260409020546120b1908263ffffffff611fbe16565b6001600160a01b038316600081815260046020526040808220939093559151909190600080516020613bac833981519152906120ee908590613a94565b60405180910390a35050565b6001600160a01b03821661210d57600080fd5b600654612120908263ffffffff611fa916565b6006556001600160a01b03821660009081526004602052604090205461214c908263ffffffff611fa916565b6001600160a01b038316600081815260046020526040808220939093559151600080516020613bac833981519152906120ee908590613a94565b61219082826120fa565b6001600160a01b038216600090815260056020908152604080832033808552925290912054610f04918491610882908563ffffffff611fa916565b60006001600160a01b0382166121e057600080fd5b506001600160a01b03166000908152602091909152604090205460ff1690565b612211600a8263ffffffff6126d616565b6040516001600160a01b038216907f6ae172837ea30b801fbfcdd4108aa1d5bf8ff775444fd70256b44e6bf3dfc3f690600090a250565b612259600a8263ffffffff61272216565b6040516001600160a01b038216907fe94479a9f7e1952cc78f2d6baab678adc1b772d936c6583def489e524cb6669290600090a250565b600082815260026020526040902060010154156122c257604051600160e51b62461bcd0281526004016108cb906139f3565b6122ca612d13565b6122d38261276a565b905060606122e08261278f565b90506000612301826000815181106122f457fe5b602002602001015161285c565b905042811161232557604051600160e51b62461bcd0281526004016108cb906139c3565b6000612337836001815181106122f457fe5b9050600061234b846002815181106122f457fe5b9050600061235f856003815181106122f457fe5b905060606123808660048151811061237357fe5b602002602001015161278f565b805190915060005b818110156124945760606123a184838151811061237357fe5b90506002600088815260200190815260200160002060040160405180606001604052806123d4846000815181106122f457fe5b81526020016123f6846001815181106123e957fe5b60200260200101516128ba565b6001600160a01b031681526020016124218460028151811061241457fe5b60200260200101516128d4565b905281546001808201808555600094855260209485902084516003909402019283558385015191830180546001600160a01b0319166001600160a01b039093169290921790915560408301518051919461248392600285019290910190612c2d565b505060019093019250612388915050565b5060008581526002602052604090206124af90600401612944565b5050600083815260026020819052604082209586556001808701869055908601939093556003808601929092556005909401805460ff191683179055805491820181559092527fc2575a0e9e593c00f959f8c92f12db2869c3395a3b0502d05e2516446f71f85b9091015550505050565b61253160008263ffffffff61272216565b6040516001600160a01b038216907f3525e22824a8a7df2c9a6029941c824cf95b6447f1e13d5128fd3826d35afe8b90600090a250565b61257960008263ffffffff6126d616565b6040516001600160a01b038216907f47d1c22a25bb3a5d4e481b9b1e6944c2eade3181a0a20b495ed61d35b5323f2490600090a250565b6001600160a01b0381166125c357600080fd5b6001546040516001600160a01b038084169216907f8be0079c531659141344cd1fd0a4f28419497f9722a3daafe3b4186f6b6457e090600090a3600180546001600160a01b0319166001600160a01b0392909216919091179055565b6001600160a01b03821661263257600080fd5b6001600160a01b03831660009081526004602052604090205461265b908263ffffffff611fa916565b6001600160a01b038085166000908152600460205260408082209390935590841681522054612690908263ffffffff611fbe16565b6001600160a01b038084166000818152600460205260409081902093909355915190851690600080516020613bac83398151915290611c0b908590613a94565b3b151590565b6001600160a01b0381166126e957600080fd5b6126f382826121cb565b156126fd57600080fd5b6001600160a01b0316600090815260209190915260409020805460ff19166001179055565b6001600160a01b03811661273557600080fd5b61273f82826121cb565b61274857600080fd5b6001600160a01b0316600090815260209190915260409020805460ff19169055565b612772612d13565b506040805180820190915281518152602082810190820152919050565b606061279a826129c1565b6127a357600080fd5b60006127ae836129f1565b9050806040519080825280602002602001820160405280156127ea57816020015b6127d7612d13565b8152602001906001900390816127cf5790505b50915060006127fc8460200151612a4d565b60208501510190506000805b838110156128535761281983612ab6565b915060405180604001604052808381526020018481525085828151811061283c57fe5b602090810291909101015291810191600101612808565b50505050919050565b80516000901580159061287157508151602110155b61287a57600080fd5b60006128898360200151612a4d565b8351602080860151830180519394509184900392919083101561172a57506020919091036101000a90049392505050565b80516000906015146128cb57600080fd5b6106ad8261285c565b80516060906128e257600080fd5b60006128f18360200151612a4d565b83516040805191839003808352601f19601f8201168301602001909152919250606090828015612928576020820181803883390190505b509050600081602001905061172a848760200151018285612b46565b805461296557604051600160e51b62461bcd0281526004016108cb90613963565b80546000805b8281101561299d5783818154811061297f57fe5b6000918252602090912060039091020154919091019060010161296b565b508060641461077657604051600160e51b62461bcd0281526004016108cb90613a53565b80516000906129d257506000610835565b6020820151805160001a9060c082101561088757600092505050610835565b8051600090612a0257506000610835565b60008090506000612a168460200151612a4d565b602085015185519181019250015b80821015612a4457612a3582612ab6565b60019093019290910190612a24565b50909392505050565b8051600090811a6080811015612a67576000915050610835565b60b8811080612a82575060c08110801590612a82575060f881105b15612a91576001915050610835565b60c0811015612aa55760b519019050610835565b60f519019050610835565b50919050565b8051600090811a6080811015612ad0576001915050610835565b60b8811015612ae457607e19019050610835565b60c0811015612b115760b78103600184019350806020036101000a84510460018201810193505050612ab0565b60f8811015612b255760be19019050610835565b60019290920151602083900360f7016101000a900490910160f51901919050565b80612b5057610776565b5b60208110612b70578251825260209283019290910190601f1901612b51565b915181516020939093036101000a6000190180199091169216919091179052565b6040518060c0016040528060008152602001600081526020016000815260200160008152602001606081526020016000151581525090565b6040518060a0016040528060008152602001600081526020016000815260200160608152602001606081525090565b6040805160c081018252600080825260208201819052918101829052606081018290526080810182905260a081019190915290565b828054600181600116156101000203166002900490600052602060002090601f016020900481019282601f10612c6e57805160ff1916838001178555612c9b565b82800160010185558215612c9b579182015b82811115612c9b578251825591602001919060010190612c80565b50612ca7929150612d2d565b5090565b50805460018160011615610100020316600290046000825580601f10612cd157506107bf565b601f0160209004906000526020600020908101906107bf9190612d2d565b81548183558181111561077657600083815260209020610776918101908301612d2d565b604051806040016040528060008152602001600081525090565b61074791905b80821115612ca75760008155600101612d33565b60006106aa8235613b47565b60006106aa8235610747565b600082601f830112612d7057600080fd5b8135612d83612d7e82613b0c565b613ae5565b91508082526020830160208301858383011115612d9f57600080fd5b612daa838284613b69565b50505092915050565b600060208284031215612dc557600080fd5b60006107f18484612d47565b60008060408385031215612de457600080fd5b6000612df08585612d47565b9250506020612e0185828601612d47565b9150509250929050565b600080600060608486031215612e2057600080fd5b6000612e2c8686612d47565b9350506020612e3d86828701612d47565b9250506040612e4e86828701612d53565b9150509250925092565b60008060408385031215612e6b57600080fd5b6000612e778585612d47565b9250506020612e0185828601612d53565b600080600060608486031215612e9d57600080fd5b6000612ea98686612d47565b9350506020612e3d86828701612d53565b600060208284031215612ecc57600080fd5b60006107f18484612d53565b600080600080600060a08688031215612ef057600080fd5b6000612efc8888612d53565b9550506020612f0d88828901612d53565b9450506040612f1e88828901612d53565b9350506060612f2f88828901612d53565b925050608086013567ffffffffffffffff811115612f4c57600080fd5b612f5888828901612d5f565b9150509295509295909350565b60008060008060008060c08789031215612f7e57600080fd5b6000612f8a8989612d53565b9650506020612f9b89828a01612d53565b9550506040612fac89828a01612d53565b9450506060612fbd89828a01612d53565b935050608087013567ffffffffffffffff811115612fda57600080fd5b612fe689828a01612d5f565b92505060a087013567ffffffffffffffff81111561300357600080fd5b61300f89828a01612d5f565b9150509295509295509295565b60006020828403121561302e57600080fd5b813567ffffffffffffffff81111561304557600080fd5b6107f184828501612d5f565b6000806040838503121561306457600080fd5b60006130708585612d53565b925050602083013567ffffffffffffffff81111561308d57600080fd5b612e0185828601612d5f565b600080604083850312156130ac57600080fd5b6000612e778585612d53565b6000806000606084860312156130cd57600080fd5b6000612ea98686612d53565b600080600080608085870312156130ef57600080fd5b60006130fb8787612d53565b945050602061310c87828801612d53565b935050604061311d87828801612d53565b925050606085013567ffffffffffffffff81111561313a57600080fd5b61314687828801612d5f565b91505092959194509250565b600080600080600060a0868803121561316a57600080fd5b60006131768888612d53565b955050602061318788828901612d53565b945050604061319888828901612d53565b935050606086013567ffffffffffffffff8111156131b557600080fd5b612f2f88828901612d5f565b60006106aa8383613773565b60006106aa83836137e8565b60006131e583836138a9565b505060200190565b6131f681613b47565b82525050565b600061320782613b3a565b6132118185613b3e565b93508360208202850161322385613b34565b60005b8481101561325a57838303885261323e8383516131c1565b925061324982613b34565b602098909801979150600101613226565b50909695505050505050565b600061327182613b3a565b61327b8185613b3e565b93508360208202850161328d85613b34565b60005b8481101561325a5783830388526132a88383516131cd565b92506132b382613b34565b602098909801979150600101613290565b60006132cf82613b3a565b6132d98185613b3e565b9350836020820285016132eb85613b34565b60005b8481101561325a5783830388526133068383516131c1565b925061331182613b34565b6020989098019791506001016132ee565b600061332d82613b3a565b6133378185613b3e565b935061334283613b34565b60005b8281101561336d576133588683516131d9565b955061336382613b34565b9150600101613345565b5093949350505050565b6131f681613b52565b600061338b82613b3a565b6133958185613b3e565b93506133a5818560208601613b75565b6133ae81613ba1565b9093019392505050565b60006133c5600f83613b3e565b7f6475706c6963617465645f686173680000000000000000000000000000000000815260200192915050565b60006133fe601083613b3e565b7f6e6f5f76616c69645f636172645f696400000000000000000000000000000000815260200192915050565b6000613437600983613b3e565b600160b81b686e6f742072756c657302815260200192915050565b600061345f600c83613b3e565b7f77726f6e675f7365637265740000000000000000000000000000000000000000815260200192915050565b6000613498600a83613b3e565b600160b01b696e6f745f61637469766502815260200192915050565b60006134c1600983613b3e565b600160ba1b681b9bdd17d95e1a5cdd02815260200192915050565b60006134e9600b83613b3e565b600160aa1b6a1b9bdd08185b1b1bddd95902815260200192915050565b6000613513600983613b3e565b600160ba1b681b9bdd08195e1a5cdd02815260200192915050565b600061353b600783613b3e565b600160ca1b66195e1c1a5c995902815260200192915050565b6000613561600a83613b3e565b600160b11b6939b0b6b29037bbb732b902815260200192915050565b600061358a600e83613b3e565b7f686173685f6e6f745f666f756e64000000000000000000000000000000000000815260200192915050565b60006135c3600583613b3e565b600160da1b64195e1a5cdd02815260200192915050565b60006135e7601083613b3e565b7f696e636f727265637420616d6f756e7400000000000000000000000000000000815260200192915050565b6000613620600a83613b3e565b600160b21b6918d85c9917d95e1a5cdd02815260200192915050565b6000613649600b83613b3e565b600160a81b6a73616d652073746174757302815260200192915050565b6000613673600a83613b3e565b600160b21b69191d5c1b1a58d85d195902815260200192915050565b600061369c600c83613b3e565b7f656d7074795f746f6b656e730000000000000000000000000000000000000000815260200192915050565b60006136d5601683613b3e565b7f616c6c20616d6f756e7420646973747269627574656400000000000000000000815260200192915050565b600061370e600f83613b3e565b7f6475706c69636174656420686173680000000000000000000000000000000000815260200192915050565b6000613747600f83613b3e565b7f6e6f745f6163746976617461626c650000000000000000000000000000000000815260200192915050565b805160009060a084019061378785826138a9565b50602083015161379a60208601826138a9565b5060408301516137ad60408601826138a9565b50606083015184820360608601526137c58282613380565b915050608083015184820360808601526137df8282613380565b95945050505050565b805160009060608401906137fc85826138a9565b50602083015161380f60208601826131ed565b50604083015184820360408601526137df8282613380565b805160009060c084019061383b85826138a9565b50602083015161384e60208601826138a9565b50604083015161386160408601826138a9565b50606083015161387460608601826138a9565b506080830151848203608086015261388c8282613266565b91505060a08301516138a160a0860182613377565b509392505050565b6131f681610747565b6131f681613b63565b602081016106ad82846131ed565b606081016138d782866131ed565b6138e460208301856138a9565b6107f160408301846138a9565b602080825281016106aa81846131fc565b602080825281016106aa81846132c4565b602080825281016106aa8184613322565b602081016106ad8284613377565b602080825281016106aa8184613380565b602080825281016106ad816133b8565b602080825281016106ad816133f1565b602080825281016106ad8161342a565b602080825281016106ad81613452565b602080825281016106ad8161348b565b602080825281016106ad816134b4565b602080825281016106ad816134dc565b602080825281016106ad81613506565b602080825281016106ad8161352e565b602080825281016106ad81613554565b602080825281016106ad8161357d565b602080825281016106ad816135b6565b602080825281016106ad816135da565b602080825281016106ad81613613565b602080825281016106ad8161363c565b602080825281016106ad81613666565b602080825281016106ad8161368f565b602080825281016106ad816136c8565b602080825281016106ad81613701565b602080825281016106ad8161373a565b602080825281016106aa8184613827565b602081016106ad82846138a9565b60808101613ab082876138a9565b613abd60208301866131ed565b613aca60408301856138a9565b6137df6060830184613377565b602081016106ad82846138b2565b60405181810167ffffffffffffffff81118282101715613b0457600080fd5b604052919050565b600067ffffffffffffffff821115613b2357600080fd5b506020601f91909101601f19160190565b60200190565b5190565b90815260200190565b60006106ad82613b57565b151590565b6001600160a01b031690565b60ff1690565b82818337506000910152565b60005b83811015613b90578181015183820152602001613b78565b83811115610f255750506000910152565b601f01601f19169056feddf252ad1be2c89b69c2b068fc378daa952ba7f163c4a11628f55a4df523b3efa265627a7a72305820092206ecb61fdf961aeaf9adce321af20199af086d7607363af856898cf763606c6578706572696d656e74616cf50037",
  "source": "pragma solidity ^0.5.2;\npragma experimental ABIEncoderV2;\n\nimport \"../../node_modules/openzeppelin-solidity/contracts/math/SafeMath.sol\";\nimport \"../../node_modules/openzeppelin-solidity/contracts/access/roles/SignerRole.sol\";\nimport \"../../node_modules/openzeppelin-solidity/contracts/ownership/Ownable.sol\";\n\nimport \"./Devices.sol\";\n\ncontract PrepaidCardManager is SignerRole, Ownable , Devices {\n  using SafeMath for uint256;\n\n  event CardValidated(\n    address indexed owner,\n    uint256 cardId,\n    address indexed user\n  );\n\n  struct Card {\n    bytes32 hash;\n    uint256 cardId;  \n    uint256 tokens;\n    bool active;\n    address owner;\n    uint initialized;\n  }\n\n  mapping (uint256 => Card) private cards_;\n  mapping (bytes32 => uint256) private cardsByHash_;\n\n  modifier cardExists(uint256 _cardId) {\n    require(cards_[_cardId].initialized > 0, \"not_exist\");\n    _;\n  }\n  \n  constructor() public {}\n\n  function getCard(uint256 _cardId) cardExists(_cardId) public view returns(uint256 cardId, address owner, uint256 tokens, bool active)  {\n    return (cards_[_cardId].cardId, cards_[_cardId].owner, cards_[_cardId].tokens, cards_[_cardId].active);\n  }\n\n  function addCard(uint256 _cardId, uint256 _tokens, bytes32 _hash) onlyOwner public {\n    require(_tokens > 0, \"empty_tokens\");\n    require(_cardId > 0, \"no_valid_card_id\");\n    require(cards_[_cardId].initialized == 0, \"card_exist\");\n    require(cardsByHash_[_hash] == 0, \"duplicated_hash\");\n\n    _mint(address(this),_tokens);\n    Card memory newCard = Card(_hash, _cardId, _tokens, false, msg.sender, 1);\n    cards_[_cardId] = newCard;   \n    cardsByHash_[_hash] = _cardId;\n  }\n\n  function activateCard(uint256 _cardId) cardExists(_cardId) onlySigner public {\n    require(cards_[_cardId].active == false, \"not_activatable\");\n    cards_[_cardId].active=true;    \n  }\n\n  function validateCard(bytes memory _secret) public {\n    bytes32 hash = keccak256(_secret);\n    uint256 cardId = cardsByHash_[hash];\n    require(cardId > 0, \"hash_not_found\");\n    require(cards_[cardId].active == true, \"not_active\");\n    require(cards_[cardId].hash ==  hash, \"wrong_secret\");\n  \n    _transfer(address(this), msg.sender,cards_[cardId].tokens);\n    emit CardValidated(cards_[cardId].owner, cards_[cardId].cardId, msg.sender);\n  \n    delete cardsByHash_[hash];\n    delete cards_[cardId];\n  }\n\n}",
  "sourcePath": "/home/jordi/ws/jordiescudero/bloomen-wallet/bloomen-wallet-truffle/contracts/bloomen/PrepaidCardManager.sol",
  "compiler": {
    "name": "solc",
    "version": "0.5.7+commit.6da8b019.Emscripten.clang"
  },
  "schemaVersion": "3.0.6",
  "updatedAt": "2019-04-16T09:48:37.239Z",
  "devdoc": {
    "methods": {
      "allowance(address,address)": {
        "details": "Function to check the amount of tokens that an owner allowed to a spender.",
        "params": {
          "owner": "address The address which owns the funds.",
          "spender": "address The address which will spend the funds."
        },
        "return": "A uint256 specifying the amount of tokens still available for the spender."
      },
      "approve(address,uint256)": {
        "details": "Approve the passed address to spend the specified amount of tokens on behalf of msg.sender. Beware that changing an allowance with this method brings the risk that someone may use both the old and the new allowance by unfortunate transaction ordering. One possible solution to mitigate this race condition is to first reduce the spender's allowance to 0 and set the desired value afterwards: https://github.com/ethereum/EIPs/issues/20#issuecomment-263524729",
        "params": {
          "spender": "The address which will spend the funds.",
          "value": "The amount of tokens to be spent."
        }
      },
      "balanceOf(address)": {
        "details": "Gets the balance of the specified address.",
        "params": {
          "owner": "The address to query the balance of."
        },
        "return": "A uint256 representing the amount owned by the passed address."
      },
      "burn(uint256)": {
        "details": "Burns a specific amount of tokens.",
        "params": {
          "value": "The amount of token to be burned."
        }
      },
      "burnFrom(address,uint256)": {
        "details": "Burns a specific amount of tokens from the target address and decrements allowance",
        "params": {
          "from": "address The account whose tokens will be burned.",
          "value": "uint256 The amount of token to be burned."
        }
      },
      "decimals()": {
        "return": "the number of decimals of the token."
      },
      "decreaseAllowance(address,uint256)": {
        "details": "Decrease the amount of tokens that an owner allowed to a spender. approve should be called when _allowed[msg.sender][spender] == 0. To decrement allowed value is better to use this function to avoid 2 calls (and wait until the first transaction is mined) From MonolithDAO Token.sol Emits an Approval event.",
        "params": {
          "spender": "The address which will spend the funds.",
          "subtractedValue": "The amount of tokens to decrease the allowance by."
        }
      },
      "increaseAllowance(address,uint256)": {
        "details": "Increase the amount of tokens that an owner allowed to a spender. approve should be called when _allowed[msg.sender][spender] == 0. To increment allowed value is better to use this function to avoid 2 calls (and wait until the first transaction is mined) From MonolithDAO Token.sol Emits an Approval event.",
        "params": {
          "addedValue": "The amount of tokens to increase the allowance by.",
          "spender": "The address which will spend the funds."
        }
      },
      "isOwner()": {
        "return": "true if `msg.sender` is the owner of the contract."
      },
      "mint(address,uint256)": {
        "details": "Function to mint tokens",
        "params": {
          "to": "The address that will receive the minted tokens.",
          "value": "The amount of tokens to mint."
        },
        "return": "A boolean that indicates if the operation was successful."
      },
      "name()": {
        "return": "the name of the token."
      },
      "owner()": {
        "return": "the address of the owner."
      },
      "renounceOwnership()": {
        "details": "Allows the current owner to relinquish control of the contract. It will not be possible to call the functions with the `onlyOwner` modifier anymore."
      },
      "symbol()": {
        "return": "the symbol of the token."
      },
      "totalSupply()": {
        "details": "Total number of tokens in existence"
      },
      "transferFrom(address,address,uint256)": {
        "details": "Transfer tokens from one address to another. Note that while this function emits an Approval event, this is not required as per the specification, and other compliant implementations may not emit the event.",
        "params": {
          "from": "address The address which you want to send tokens from",
          "to": "address The address which you want to transfer to",
          "value": "uint256 the amount of tokens to be transferred"
        }
      },
      "transferOwnership(address)": {
        "details": "Allows the current owner to transfer control of the contract to a newOwner.",
        "params": {
          "newOwner": "The address to transfer ownership to."
        }
      }
    }
  },
  "userdoc": {
    "methods": {
      "renounceOwnership()": {
        "notice": "Renouncing ownership will leave the contract without an owner, thereby removing any functionality that is only available to the owner."
      }
    }
  }
}