{
  "contractName": "Schemas",
  "abi": [
    {
      "constant": false,
      "inputs": [],
      "name": "renounceOwnership",
      "outputs": [],
      "payable": false,
      "stateMutability": "nonpayable",
      "type": "function",
      "signature": "0x715018a6"
    },
    {
      "constant": true,
      "inputs": [],
      "name": "owner",
      "outputs": [
        {
          "name": "",
          "type": "address"
        }
      ],
      "payable": false,
      "stateMutability": "view",
      "type": "function",
      "signature": "0x8da5cb5b"
    },
    {
      "constant": true,
      "inputs": [],
      "name": "isOwner",
      "outputs": [
        {
          "name": "",
          "type": "bool"
        }
      ],
      "payable": false,
      "stateMutability": "view",
      "type": "function",
      "signature": "0x8f32d59b"
    },
    {
      "constant": false,
      "inputs": [
        {
          "name": "newOwner",
          "type": "address"
        }
      ],
      "name": "transferOwnership",
      "outputs": [],
      "payable": false,
      "stateMutability": "nonpayable",
      "type": "function",
      "signature": "0xf2fde38b"
    },
    {
      "anonymous": false,
      "inputs": [
        {
          "indexed": true,
          "name": "previousOwner",
          "type": "address"
        },
        {
          "indexed": true,
          "name": "newOwner",
          "type": "address"
        }
      ],
      "name": "OwnershipTransferred",
      "type": "event",
      "signature": "0x8be0079c531659141344cd1fd0a4f28419497f9722a3daafe3b4186f6b6457e0"
    },
    {
      "constant": true,
      "inputs": [
        {
          "name": "_schemaId",
          "type": "uint256"
        }
      ],
      "name": "getSchema",
      "outputs": [
        {
          "components": [
            {
              "name": "expirationDate",
              "type": "uint256"
            },
            {
              "name": "schemaId",
              "type": "uint256"
            },
            {
              "name": "amount",
              "type": "uint256"
            },
            {
              "name": "assetLifeTime",
              "type": "uint256"
            },
            {
              "components": [
                {
                  "name": "percent",
                  "type": "uint256"
                },
                {
                  "name": "receptor",
                  "type": "address"
                },
                {
                  "name": "description",
                  "type": "string"
                }
              ],
              "name": "clearingHouseRules",
              "type": "tuple[]"
            },
            {
              "name": "valid",
              "type": "bool"
            }
          ],
          "name": "",
          "type": "tuple"
        }
      ],
      "payable": false,
      "stateMutability": "view",
      "type": "function",
      "signature": "0x2b26fb29"
    },
    {
      "constant": true,
      "inputs": [],
      "name": "getSchemas",
      "outputs": [
        {
          "name": "",
          "type": "uint256[]"
        }
      ],
      "payable": false,
      "stateMutability": "view",
      "type": "function",
      "signature": "0x95ba8d18"
    },
    {
      "constant": false,
      "inputs": [
        {
          "name": "_schemaId",
          "type": "uint256"
        },
        {
          "name": "_data",
          "type": "bytes"
        }
      ],
      "name": "createSchema",
      "outputs": [],
      "payable": false,
      "stateMutability": "nonpayable",
      "type": "function",
      "signature": "0xa2086dab"
    },
    {
      "constant": false,
      "inputs": [
        {
          "name": "_schemaId",
          "type": "uint256"
        }
      ],
      "name": "invalidateSchema",
      "outputs": [],
      "payable": false,
      "stateMutability": "nonpayable",
      "type": "function",
      "signature": "0x5a16f5c4"
    },
    {
      "constant": false,
      "inputs": [
        {
          "name": "_schemaId",
          "type": "uint256"
        }
      ],
      "name": "validateSchema",
      "outputs": [],
      "payable": false,
      "stateMutability": "nonpayable",
      "type": "function",
      "signature": "0x4014d468"
    }
  ],
  "bytecode": "0x6080604052336000806101000a81548173ffffffffffffffffffffffffffffffffffffffff021916908373ffffffffffffffffffffffffffffffffffffffff1602179055506000809054906101000a900473ffffffffffffffffffffffffffffffffffffffff1673ffffffffffffffffffffffffffffffffffffffff16600073ffffffffffffffffffffffffffffffffffffffff167f8be0079c531659141344cd1fd0a4f28419497f9722a3daafe3b4186f6b6457e060405160405180910390a3611ac3806100cf6000396000f3fe608060405234801561001057600080fd5b50600436106100b0576000357c0100000000000000000000000000000000000000000000000000000000900480638da5cb5b116100835780638da5cb5b146101275780638f32d59b1461014557806395ba8d1814610163578063a2086dab14610181578063f2fde38b1461019d576100b0565b80632b26fb29146100b55780634014d468146100e55780635a16f5c414610101578063715018a61461011d575b600080fd5b6100cf60048036036100ca91908101906112d5565b6101b9565b6040516100dc919061189e565b60405180910390f35b6100ff60048036036100fa91908101906112d5565b6103e3565b005b61011b600480360361011691908101906112d5565b610402565b005b610125610421565b005b61012f6104f1565b60405161013c9190611766565b60405180910390f35b61014d61051a565b60405161015a91906117a3565b60405180910390f35b61016b610571565b6040516101789190611781565b60405180910390f35b61019b600480360361019691908101906112fe565b6105c9565b005b6101b760048036036101b291908101906112ac565b6105e8565b005b6101c161111f565b600060016000848152602001908152602001600020600101541161021a576040517f08c379a0000000000000000000000000000000000000000000000000000000008152600401610211906117de565b60405180910390fd5b600160008381526020019081526020016000206040518060c00160405290816000820154815260200160018201548152602001600282015481526020016003820154815260200160048201805480602002602001604051908101604052809291908181526020016000905b828210156103b95783829060005260206000209060030201604051806060016040529081600082015481526020016001820160009054906101000a900473ffffffffffffffffffffffffffffffffffffffff1673ffffffffffffffffffffffffffffffffffffffff1673ffffffffffffffffffffffffffffffffffffffff168152602001600282018054600181600116156101000203166002900480601f0160208091040260200160405190810160405280929190818152602001828054600181600116156101000203166002900480156103a15780601f10610376576101008083540402835291602001916103a1565b820191906000526020600020905b81548152906001019060200180831161038457829003601f168201915b50505050508152505081526020019060010190610285565b5050505081526020016005820160009054906101000a900460ff1615151515815250509050919050565b6103eb61051a565b6103f457600080fd5b6103ff816001610605565b50565b61040a61051a565b61041357600080fd5b61041e816000610605565b50565b61042961051a565b61043257600080fd5b600073ffffffffffffffffffffffffffffffffffffffff166000809054906101000a900473ffffffffffffffffffffffffffffffffffffffff1673ffffffffffffffffffffffffffffffffffffffff167f8be0079c531659141344cd1fd0a4f28419497f9722a3daafe3b4186f6b6457e060405160405180910390a360008060006101000a81548173ffffffffffffffffffffffffffffffffffffffff021916908373ffffffffffffffffffffffffffffffffffffffff160217905550565b60008060009054906101000a900473ffffffffffffffffffffffffffffffffffffffff16905090565b60008060009054906101000a900473ffffffffffffffffffffffffffffffffffffffff1673ffffffffffffffffffffffffffffffffffffffff163373ffffffffffffffffffffffffffffffffffffffff1614905090565b606060028054806020026020016040519081016040528092919081815260200182805480156105bf57602002820191906000526020600020905b8154815260200190600101908083116105ab575b5050505050905090565b6105d161051a565b6105da57600080fd5b6105e482826106fb565b5050565b6105f061051a565b6105f957600080fd5b61060281610ac5565b50565b60006001600084815260200190815260200160002060010154141561065f576040517f08c379a0000000000000000000000000000000000000000000000000000000008152600401610656906117fe565b60405180910390fd5b8015156001600084815260200190815260200160002060050160009054906101000a900460ff16151514156106c9576040517f08c379a00000000000000000000000000000000000000000000000000000000081526004016106c09061185e565b60405180910390fd5b806001600084815260200190815260200160002060050160006101000a81548160ff0219169083151502179055505050565b6000600160008481526020019081526020016000206001015414610754576040517f08c379a000000000000000000000000000000000000000000000000000000000815260040161074b9061183e565b60405180910390fd5b61075c611157565b61076582610bbd565b9050606061077282610beb565b905060006107938260008151811061078657fe5b6020026020010151610cc2565b90504281116107d7576040517f08c379a00000000000000000000000000000000000000000000000000000000081526004016107ce9061181e565b60405180910390fd5b60006107f6836001815181106107e957fe5b6020026020010151610cc2565b905060006108178460028151811061080a57fe5b6020026020010151610cc2565b905060006108388560038151811061082b57fe5b6020026020010151610cc2565b905060606108598660048151811061084c57fe5b6020026020010151610beb565b905060008151905060008090505b818110156109d457606061088d84838151811061088057fe5b6020026020010151610beb565b90506001600088815260200190815260200160002060040160405180606001604052806108cd846000815181106108c057fe5b6020026020010151610cc2565b81526020016108ef846001815181106108e257fe5b6020026020010151610d33565b73ffffffffffffffffffffffffffffffffffffffff1681526020016109278460028151811061091a57fe5b6020026020010151610d56565b815250908060018154018082558091505090600182039060005260206000209060030201600090919290919091506000820151816000015560208201518160010160006101000a81548173ffffffffffffffffffffffffffffffffffffffff021916908373ffffffffffffffffffffffffffffffffffffffff16021790555060408201518160020190805190602001906109c2929190611171565b50505050508080600101915050610867565b506109f360016000878152602001908152602001600020600401610de2565b856001600087815260200190815260200160002060000181905550846001600087815260200190815260200160002060010181905550836001600087815260200190815260200160002060020181905550826001600087815260200190815260200160002060030181905550600180600087815260200190815260200160002060050160006101000a81548160ff021916908315150217905550600285908060018154018082558091505090600182039060005260206000200160009091929091909150555050505050505050505050565b600073ffffffffffffffffffffffffffffffffffffffff168173ffffffffffffffffffffffffffffffffffffffff161415610aff57600080fd5b8073ffffffffffffffffffffffffffffffffffffffff166000809054906101000a900473ffffffffffffffffffffffffffffffffffffffff1673ffffffffffffffffffffffffffffffffffffffff167f8be0079c531659141344cd1fd0a4f28419497f9722a3daafe3b4186f6b6457e060405160405180910390a3806000806101000a81548173ffffffffffffffffffffffffffffffffffffffff021916908373ffffffffffffffffffffffffffffffffffffffff16021790555050565b610bc5611157565b600060208301905060405180604001604052808451815260200182815250915050919050565b6060610bf682610ebd565b610bff57600080fd5b6000610c0a83610f0b565b905080604051908082528060200260200182016040528015610c4657816020015b610c336111f1565b815260200190600190039081610c2b5790505b5091506000610c588460200151610f7c565b8460200151019050600080600090505b83811015610cb957610c7983611005565b9150604051806040016040528083815260200184815250858281518110610c9c57fe5b602002602001018190525081830192508080600101915050610c68565b50505050919050565b6000808260000151118015610cdc57506021826000015111155b610ce557600080fd5b6000610cf48360200151610f7c565b90506000818460000151039050600080838660200151019050805191506020831015610d2757826020036101000a820491505b81945050505050919050565b60006015826000015114610d4657600080fd5b610d4f82610cc2565b9050919050565b60606000826000015111610d6957600080fd5b6000610d788360200151610f7c565b905060008184600001510390506060816040519080825280601f01601f191660200182016040528015610dba5781602001600182028038833980820191505090505b5090506000816020019050610dd68487602001510182856110b8565b81945050505050919050565b6000818054905011610e29576040517f08c379a0000000000000000000000000000000000000000000000000000000008152600401610e20906117be565b60405180910390fd5b600081805490509050600080905060008090505b82811015610e7457838181548110610e5157fe5b906000526020600020906003020160000154820191508080600101915050610e3d565b5060648114610eb8576040517f08c379a0000000000000000000000000000000000000000000000000000000008152600401610eaf9061187e565b60405180910390fd5b505050565b60008082600001511415610ed45760009050610f06565b60008083602001519050805160001a915060c060ff168260ff161015610eff57600092505050610f06565b6001925050505b919050565b60008082600001511415610f225760009050610f77565b60008090506000610f368460200151610f7c565b84602001510190506000846000015185602001510190505b80821015610f7057610f5f82611005565b820191508280600101935050610f4e565b8293505050505b919050565b600080825160001a9050608060ff16811015610f9c576000915050611000565b60b860ff16811080610fc1575060c060ff168110158015610fc0575060f860ff1681105b5b15610fd0576001915050611000565b60c060ff16811015610ff05760018060b80360ff16820301915050611000565b60018060f80360ff168203019150505b919050565b600080825160001a9050608060ff168110156110255760019150506110b3565b60b860ff16811015611043576001608060ff168203019150506110b3565b60c060ff168110156110735760b78103600184019350806020036101000a845104600182018101935050506110b1565b60f860ff1681101561109157600160c060ff168203019150506110b3565b60f78103600184019350806020036101000a845104600182018101935050505b505b919050565b60008114156110c65761111a565b5b602060ff1681106110f65782518252602060ff1683019250602060ff1682019150602060ff16810390506110c7565b6000600182602060ff16036101000a03905080198451168184511681811785525050505b505050565b6040518060c0016040528060008152602001600081526020016000815260200160008152602001606081526020016000151581525090565b604051806040016040528060008152602001600081525090565b828054600181600116156101000203166002900490600052602060002090601f016020900481019282601f106111b257805160ff19168380011785556111e0565b828001600101855582156111e0579182015b828111156111df5782518255916020019190600101906111c4565b5b5090506111ed919061120b565b5090565b604051806040016040528060008152602001600081525090565b61122d91905b80821115611229576000816000905550600101611211565b5090565b90565b600061123c82356119fa565b905092915050565b600082601f83011261125557600080fd5b8135611268611263826118ed565b6118c0565b9150808252602083016020830185838301111561128457600080fd5b61128f838284611a36565b50505092915050565b60006112a48235611a2c565b905092915050565b6000602082840312156112be57600080fd5b60006112cc84828501611230565b91505092915050565b6000602082840312156112e757600080fd5b60006112f584828501611298565b91505092915050565b6000806040838503121561131157600080fd5b600061131f85828601611298565b925050602083013567ffffffffffffffff81111561133c57600080fd5b61134885828601611244565b9150509250929050565b600061135e838361167e565b905092915050565b60006113728383611757565b60208301905092915050565b611387816119b2565b82525050565b611396816119b2565b82525050565b60006113a782611933565b6113b1818561196e565b9350836020820285016113c385611919565b60005b848110156113fc5783830388526113de838351611352565b92506113e982611954565b91506020880197506001810190506113c6565b508196508694505050505092915050565b60006114188261193e565b611422818561197f565b935061142d83611926565b60005b8281101561145b57611443868351611366565b955061144e82611961565b9150600181019050611430565b50849250505092915050565b611470816119c4565b82525050565b61147f816119c4565b82525050565b600061149082611949565b61149a8185611990565b93506114aa818560208601611a45565b6114b381611a78565b840191505092915050565b60006114cb6009836119a1565b91507f6e6f742072756c657300000000000000000000000000000000000000000000006000830152602082019050919050565b600061150b6009836119a1565b91507f6e6f745f657869737400000000000000000000000000000000000000000000006000830152602082019050919050565b600061154b6009836119a1565b91507f6e6f7420657869737400000000000000000000000000000000000000000000006000830152602082019050919050565b600061158b6007836119a1565b91507f65787069726564000000000000000000000000000000000000000000000000006000830152602082019050919050565b60006115cb6005836119a1565b91507f65786973740000000000000000000000000000000000000000000000000000006000830152602082019050919050565b600061160b600b836119a1565b91507f73616d65207374617475730000000000000000000000000000000000000000006000830152602082019050919050565b600061164b6016836119a1565b91507f616c6c20616d6f756e74206469737472696275746564000000000000000000006000830152602082019050919050565b60006060830160008301516116966000860182611757565b5060208301516116a9602086018261137e565b50604083015184820360408601526116c18282611485565b9150508091505092915050565b600060c0830160008301516116e66000860182611757565b5060208301516116f96020860182611757565b50604083015161170c6040860182611757565b50606083015161171f6060860182611757565b5060808301518482036080860152611737828261139c565b91505060a083015161174c60a0860182611467565b508091505092915050565b611760816119f0565b82525050565b600060208201905061177b600083018461138d565b92915050565b6000602082019050818103600083015261179b818461140d565b905092915050565b60006020820190506117b86000830184611476565b92915050565b600060208201905081810360008301526117d7816114be565b9050919050565b600060208201905081810360008301526117f7816114fe565b9050919050565b600060208201905081810360008301526118178161153e565b9050919050565b600060208201905081810360008301526118378161157e565b9050919050565b60006020820190508181036000830152611857816115be565b9050919050565b60006020820190508181036000830152611877816115fe565b9050919050565b600060208201905081810360008301526118978161163e565b9050919050565b600060208201905081810360008301526118b881846116ce565b905092915050565b6000604051905081810181811067ffffffffffffffff821117156118e357600080fd5b8060405250919050565b600067ffffffffffffffff82111561190457600080fd5b601f19601f8301169050602081019050919050565b6000602082019050919050565b6000602082019050919050565b600081519050919050565b600081519050919050565b600081519050919050565b6000602082019050919050565b6000602082019050919050565b600082825260208201905092915050565b600082825260208201905092915050565b600082825260208201905092915050565b600082825260208201905092915050565b60006119bd826119d0565b9050919050565b60008115159050919050565b600073ffffffffffffffffffffffffffffffffffffffff82169050919050565b6000819050919050565b6000611a0582611a0c565b9050919050565b600073ffffffffffffffffffffffffffffffffffffffff82169050919050565b6000819050919050565b82818337600083830152505050565b60005b83811015611a63578082015181840152602081019050611a48565b83811115611a72576000848401525b50505050565b6000601f19601f830116905091905056fea265627a7a723058201fb883f5d0dc73b17abc4c4d8a274f6246a7463d97a53fea04d19ff9b40d14f66c6578706572696d656e74616cf50037",
  "source": "pragma solidity ^0.5.2;\npragma experimental ABIEncoderV2;\n\nimport \"../../node_modules/solidity-rlp/contracts/RLPReader.sol\";\nimport \"../../node_modules/openzeppelin-solidity/contracts/ownership/Ownable.sol\";\n\ncontract Schemas is Ownable {\n\n  using RLPReader for bytes;\n  using RLPReader for uint;\n  using RLPReader for RLPReader.RLPItem;\n\n  struct Schema {   \n    uint expirationDate;\n    uint256 schemaId;\n    uint256 amount;\n    uint256 assetLifeTime;\n    ClearingHouseRule[] clearingHouseRules;\n    bool valid;\n  }\n\n  struct ClearingHouseRule {  \n    uint percent; \n    address receptor;\n    string description;\n  }\n\n  mapping (uint256 => Schema) private schemas_;\n  uint256[] private schemasArray_ ;\n\n  function getSchema(uint256 _schemaId) public view returns (Schema memory) {\n    require(schemas_[_schemaId].schemaId > 0, \"not_exist\");\n    return (schemas_[_schemaId]);\n  }\n\n  function getSchemas() public view returns (uint256[] memory) {    \n    return (schemasArray_);\n  }\n\n  function createSchema(uint256 _schemaId, bytes memory _data) public onlyOwner  {\n    _createSchema(_schemaId, _data);  \n  }\n\n  function invalidateSchema(uint256 _schemaId) public  onlyOwner {\n    _schemaStatus(_schemaId, false);  \n  }\n\n  function validateSchema(uint256 _schemaId) public onlyOwner  {\n    _schemaStatus(_schemaId, true);  \n  }\n\n  function _createSchema(uint256 _schemaId, bytes memory _in) internal  {\n    // RLP format : [<expirationDate>,<schemaId>,<amount>,<assetLifeTime>,[ [<percent>,<address>,<description>],[<percent>,<address>,<description>]]]\n\n    require(schemas_[_schemaId].schemaId == 0, \"exist\"); \n   \n    RLPReader.RLPItem memory item = _in.toRlpItem();\n    RLPReader.RLPItem[] memory itemList = item.toList();\n\n    uint expirationDate = itemList[0].toUint();\n\n    require(expirationDate > now, \"expired\");\n\n    uint256 schemaId = uint256(itemList[1].toUint());\n    uint256 amount = uint256(itemList[2].toUint());\n    uint256 assetLifeTime = uint256(itemList[3].toUint());\n\n    \n    RLPReader.RLPItem[] memory clearingHouseRulesItemList = itemList[4].toList();\n    \n    uint listLength = clearingHouseRulesItemList.length;\n    for (uint i = 0; i < listLength; i++) {\n      RLPReader.RLPItem[] memory tempListItem = clearingHouseRulesItemList[i].toList();\n        \n      schemas_[schemaId].clearingHouseRules.push(\n        ClearingHouseRule(tempListItem[0].toUint(),tempListItem[1].toAddress(),string(tempListItem[2].toBytes()))\n      );    \n    }\n    \n    _validateClearingHouseRules(schemas_[schemaId].clearingHouseRules);\n    \n    schemas_[schemaId].expirationDate = expirationDate;\n    schemas_[schemaId].schemaId = schemaId;\n    schemas_[schemaId].amount = amount;\n    schemas_[schemaId].assetLifeTime = assetLifeTime;\n    schemas_[schemaId].valid = true;\n    schemasArray_.push(schemaId);\n  }\n\n  function _schemaStatus(uint256 _schemaId, bool _newStatus) internal  {\n    require(schemas_[_schemaId].schemaId != 0, \"not exist\"); \n    require(schemas_[_schemaId].valid != _newStatus , \"same status\");\n    schemas_[_schemaId].valid = _newStatus;\n  }\n\n  function _validateClearingHouseRules(ClearingHouseRule[] storage clearingHouseRules) internal  {\n    require(clearingHouseRules.length > 0, \"not rules\"); \n    uint listLength = clearingHouseRules.length;\n    uint total = 0;\n    for (uint i = 0; i < listLength; i++) {\n      total += clearingHouseRules[i].percent;\n    }\n    require(total == 100, \"all amount distributed\");    \n  }\n\n}",
  "sourcePath": "/home/jordi/ws/jordiescudero/bloomen-wallet/bloomen-wallet-truffle/contracts/bloomen/Schemas.sol",
  "compiler": {
    "name": "solc",
    "version": "0.5.7+commit.6da8b019.Emscripten.clang"
  },
  "schemaVersion": "3.0.6",
  "updatedAt": "2019-04-18T10:25:19.486Z",
  "devdoc": {
    "methods": {
      "isOwner()": {
        "return": "true if `msg.sender` is the owner of the contract."
      },
      "owner()": {
        "return": "the address of the owner."
      },
      "renounceOwnership()": {
        "details": "Allows the current owner to relinquish control of the contract. It will not be possible to call the functions with the `onlyOwner` modifier anymore."
      },
      "transferOwnership(address)": {
        "details": "Allows the current owner to transfer control of the contract to a newOwner.",
        "params": {
          "newOwner": "The address to transfer ownership to."
        }
      }
    }
  },
  "userdoc": {
    "methods": {
      "renounceOwnership()": {
        "notice": "Renouncing ownership will leave the contract without an owner, thereby removing any functionality that is only available to the owner."
      }
    }
  }
}