{
  "contractName": "Schemas",
  "abi": [
    {
      "constant": false,
      "inputs": [],
      "name": "renounceOwnership",
      "outputs": [],
      "payable": false,
      "stateMutability": "nonpayable",
      "type": "function"
    },
    {
      "constant": true,
      "inputs": [],
      "name": "owner",
      "outputs": [
        {
          "name": "",
          "type": "address"
        }
      ],
      "payable": false,
      "stateMutability": "view",
      "type": "function"
    },
    {
      "constant": true,
      "inputs": [],
      "name": "isOwner",
      "outputs": [
        {
          "name": "",
          "type": "bool"
        }
      ],
      "payable": false,
      "stateMutability": "view",
      "type": "function"
    },
    {
      "constant": false,
      "inputs": [
        {
          "name": "newOwner",
          "type": "address"
        }
      ],
      "name": "transferOwnership",
      "outputs": [],
      "payable": false,
      "stateMutability": "nonpayable",
      "type": "function"
    },
    {
      "anonymous": false,
      "inputs": [
        {
          "indexed": true,
          "name": "previousOwner",
          "type": "address"
        },
        {
          "indexed": true,
          "name": "newOwner",
          "type": "address"
        }
      ],
      "name": "OwnershipTransferred",
      "type": "event"
    },
    {
      "constant": true,
      "inputs": [
        {
          "name": "_schemaId",
          "type": "uint256"
        }
      ],
      "name": "getSchema",
      "outputs": [
        {
          "components": [
            {
              "name": "expirationDate",
              "type": "uint256"
            },
            {
              "name": "schemaId",
              "type": "uint256"
            },
            {
              "name": "amount",
              "type": "uint256"
            },
            {
              "name": "assetLifeTime",
              "type": "uint256"
            },
            {
              "components": [
                {
                  "name": "percent",
                  "type": "uint256"
                },
                {
                  "name": "receptor",
                  "type": "address"
                },
                {
                  "name": "description",
                  "type": "string"
                }
              ],
              "name": "clearingHouseRules",
              "type": "tuple[]"
            },
            {
              "name": "valid",
              "type": "bool"
            }
          ],
          "name": "",
          "type": "tuple"
        }
      ],
      "payable": false,
      "stateMutability": "view",
      "type": "function"
    },
    {
      "constant": true,
      "inputs": [],
      "name": "getSchemas",
      "outputs": [
        {
          "name": "",
          "type": "uint256[]"
        }
      ],
      "payable": false,
      "stateMutability": "view",
      "type": "function"
    },
    {
      "constant": false,
      "inputs": [
        {
          "name": "_schemaId",
          "type": "uint256"
        },
        {
          "name": "_data",
          "type": "bytes"
        }
      ],
      "name": "createSchema",
      "outputs": [],
      "payable": false,
      "stateMutability": "nonpayable",
      "type": "function"
    },
    {
      "constant": false,
      "inputs": [
        {
          "name": "_schemaId",
          "type": "uint256"
        }
      ],
      "name": "invalidateSchema",
      "outputs": [],
      "payable": false,
      "stateMutability": "nonpayable",
      "type": "function"
    },
    {
      "constant": false,
      "inputs": [
        {
          "name": "_schemaId",
          "type": "uint256"
        }
      ],
      "name": "validateSchema",
      "outputs": [],
      "payable": false,
      "stateMutability": "nonpayable",
      "type": "function"
    }
  ],
  "bytecode": "0x60806040819052600080546001600160a01b03191633178082556001600160a01b0316917f8be0079c531659141344cd1fd0a4f28419497f9722a3daafe3b4186f6b6457e0908290a36112d0806100576000396000f3fe608060405234801561001057600080fd5b50600436106100935760003560e01c80638da5cb5b116100665780638da5cb5b146100f15780638f32d59b1461010657806395ba8d181461011b578063a2086dab14610130578063f2fde38b1461014357610093565b80632b26fb29146100985780634014d468146100c15780635a16f5c4146100d6578063715018a6146100e9575b600080fd5b6100ab6100a6366004610d8d565b610156565b6040516100b891906111c1565b60405180910390f35b6100d46100cf366004610d8d565b6102f7565b005b6100d46100e4366004610d8d565b610316565b6100d4610332565b6100f961038d565b6040516100b89190611124565b61010e61039d565b6040516100b89190611143565b6101236103ae565b6040516100b89190611132565b6100d461013e366004610dab565b610406565b6100d4610151366004610d67565b610425565b61015e610c0a565b6000828152600160208190526040909120015461019957604051600160e51b62461bcd02815260040161019090611161565b60405180910390fd5b6000828152600160208181526040808420815160c081018352815481529381015484840152600281015484830152600381015460608501526004810180548351818602810186019094528084529495919460808701949192909184015b828210156102d65760008481526020908190206040805160608101825260038602909201805483526001808201546001600160a01b0316848601526002808301805485516101009482161594909402600019011691909104601f81018790048702830187018552808352949592949386019391929091908301828280156102be5780601f10610293576101008083540402835291602001916102be565b820191906000526020600020905b8154815290600101906020018083116102a157829003601f168201915b505050505081525050815260200190600101906101f6565b505050908252506005919091015460ff16151560209091015290505b919050565b6102ff61039d565b61030857600080fd5b61031381600161043f565b50565b61031e61039d565b61032757600080fd5b61031381600061043f565b61033a61039d565b61034357600080fd5b600080546040516001600160a01b03909116907f8be0079c531659141344cd1fd0a4f28419497f9722a3daafe3b4186f6b6457e0908390a3600080546001600160a01b0319169055565b6000546001600160a01b03165b90565b6000546001600160a01b0316331490565b606060028054806020026020016040519081016040528092919081815260200182805480156103fc57602002820191906000526020600020905b8154815260200190600101908083116103e8575b5050505050905090565b61040e61039d565b61041757600080fd5b61042182826104cf565b5050565b61042d61039d565b61043657600080fd5b6103138161075e565b6000828152600160208190526040909120015461047157604051600160e51b62461bcd02815260040161019090611171565b60008281526001602052604090206005015460ff16151581151514156104ac57604051600160e51b62461bcd028152600401610190906111a1565b600091825260016020526040909120600501805460ff1916911515919091179055565b600082815260016020819052604090912001541561050257604051600160e51b62461bcd02815260040161019090611191565b61050a610c42565b610513826107cc565b90506060610520826107f1565b905060006105418260008151811061053457fe5b60200260200101516108be565b905042811161056557604051600160e51b62461bcd02815260040161019090611181565b60006105778360018151811061053457fe5b9050600061058b8460028151811061053457fe5b9050600061059f8560038151811061053457fe5b905060606105c0866004815181106105b357fe5b60200260200101516107f1565b805190915060005b818110156106d45760606105e18483815181106105b357fe5b90506001600088815260200190815260200160002060040160405180606001604052806106148460008151811061053457fe5b81526020016106368460018151811061062957fe5b602002602001015161091e565b6001600160a01b031681526020016106618460028151811061065457fe5b602002602001015161093e565b905281546001808201808555600094855260209485902084516003909402019283558385015191830180546001600160a01b0319166001600160a01b03909316929092179091556040830151805191946106c392600285019290910190610c5c565b5050600190930192506105c8915050565b5060008581526001602052604090206106ef906004016109ae565b50506000838152600160208190526040822095865585810185905560028087019490945560038601929092556005909401805460ff1916821790558154908101825592527f405787fa12a823e0f2b7631cc41b3ba8828b3321ca811111fa75cd3aa3bb5ace9091015550505050565b6001600160a01b03811661077157600080fd5b600080546040516001600160a01b03808516939216917f8be0079c531659141344cd1fd0a4f28419497f9722a3daafe3b4186f6b6457e091a3600080546001600160a01b0319166001600160a01b0392909216919091179055565b6107d4610c42565b506040805180820190915281518152602082810190820152919050565b60606107fc82610a30565b61080557600080fd5b600061081083610a6a565b90508060405190808252806020026020018201604052801561084c57816020015b610839610c42565b8152602001906001900390816108315790505b509150600061085e8460200151610ac6565b60208501510190506000805b838110156108b55761087b83610b2f565b915060405180604001604052808381526020018481525085828151811061089e57fe5b60209081029190910101529181019160010161086a565b50505050919050565b8051600090158015906108d357508151602110155b6108dc57600080fd5b60006108eb8360200151610ac6565b8351602080860151830180519394509184900392919083101561091557826020036101000a820491505b50949350505050565b805160009060151461092f57600080fd5b610938826108be565b92915050565b805160609061094c57600080fd5b600061095b8360200151610ac6565b83516040805191839003808352601f19601f8201168301602001909152919250606090828015610992576020820181803883390190505b5090506000816020019050610915848760200151018285610bbf565b80546109cf57604051600160e51b62461bcd02815260040161019090611151565b80546000805b82811015610a07578381815481106109e957fe5b600091825260209091206003909102015491909101906001016109d5565b5080606414610a2b57604051600160e51b62461bcd028152600401610190906111b1565b505050565b8051600090610a41575060006102f2565b6020820151805160001a9060c0821015610a60576000925050506102f2565b5060019392505050565b8051600090610a7b575060006102f2565b60008090506000610a8f8460200151610ac6565b602085015185519181019250015b80821015610abd57610aae82610b2f565b60019093019290910190610a9d565b50909392505050565b8051600090811a6080811015610ae05760009150506102f2565b60b8811080610afb575060c08110801590610afb575060f881105b15610b0a5760019150506102f2565b60c0811015610b1e5760b5190190506102f2565b60f5190190506102f2565b50919050565b8051600090811a6080811015610b495760019150506102f2565b60b8811015610b5d57607e190190506102f2565b60c0811015610b8a5760b78103600184019350806020036101000a84510460018201810193505050610b29565b60f8811015610b9e5760be190190506102f2565b60019290920151602083900360f7016101000a900490910160f51901919050565b80610bc957610a2b565b5b60208110610be9578251825260209283019290910190601f1901610bca565b915181516020939093036101000a6000190180199091169216919091179052565b6040518060c0016040528060008152602001600081526020016000815260200160008152602001606081526020016000151581525090565b604051806040016040528060008152602001600081525090565b828054600181600116156101000203166002900490600052602060002090601f016020900481019282601f10610c9d57805160ff1916838001178555610cca565b82800160010185558215610cca579182015b82811115610cca578251825591602001919060010190610caf565b50610cd6929150610cda565b5090565b61039a91905b80821115610cd65760008155600101610ce0565b6000610d008235611234565b9392505050565b600082601f830112610d1857600080fd5b8135610d2b610d26826111f9565b6111d2565b91508082526020830160208301858383011115610d4757600080fd5b610d52838284611250565b50505092915050565b6000610d00823561039a565b600060208284031215610d7957600080fd5b6000610d858484610cf4565b949350505050565b600060208284031215610d9f57600080fd5b6000610d858484610d5b565b60008060408385031215610dbe57600080fd5b6000610dca8585610d5b565b925050602083013567ffffffffffffffff811115610de757600080fd5b610df385828601610d07565b9150509250929050565b6000610d008383611051565b6000610e15838361111b565b505060200190565b610e2681611234565b82525050565b6000610e3782611227565b610e41818561122b565b935083602082028501610e5385611221565b60005b84811015610e8a578383038852610e6e838351610dfd565b9250610e7982611221565b602098909801979150600101610e56565b50909695505050505050565b6000610ea182611227565b610eab818561122b565b9350610eb683611221565b60005b82811015610ee157610ecc868351610e09565b9550610ed782611221565b9150600101610eb9565b5093949350505050565b610e268161123f565b6000610eff82611227565b610f09818561122b565b9350610f1981856020860161125c565b610f228161128c565b9093019392505050565b6000610f3960098361122b565b600160b81b686e6f742072756c657302815260200192915050565b6000610f6160098361122b565b600160ba1b681b9bdd17d95e1a5cdd02815260200192915050565b6000610f8960098361122b565b600160ba1b681b9bdd08195e1a5cdd02815260200192915050565b6000610fb160078361122b565b600160ca1b66195e1c1a5c995902815260200192915050565b6000610fd760058361122b565b600160da1b64195e1a5cdd02815260200192915050565b6000610ffb600b8361122b565b600160a81b6a73616d652073746174757302815260200192915050565b600061102560168361122b565b7f616c6c20616d6f756e7420646973747269627574656400000000000000000000815260200192915050565b80516000906060840190611065858261111b565b5060208301516110786020860182610e1d565b50604083015184820360408601526110908282610ef4565b95945050505050565b805160009060c08401906110ad858261111b565b5060208301516110c0602086018261111b565b5060408301516110d3604086018261111b565b5060608301516110e6606086018261111b565b50608083015184820360808601526110fe8282610e2c565b91505060a083015161111360a0860182610eeb565b509392505050565b610e268161039a565b602081016109388284610e1d565b60208082528101610d008184610e96565b602081016109388284610eeb565b6020808252810161093881610f2c565b6020808252810161093881610f54565b6020808252810161093881610f7c565b6020808252810161093881610fa4565b6020808252810161093881610fca565b6020808252810161093881610fee565b6020808252810161093881611018565b60208082528101610d008184611099565b60405181810167ffffffffffffffff811182821017156111f157600080fd5b604052919050565b600067ffffffffffffffff82111561121057600080fd5b506020601f91909101601f19160190565b60200190565b5190565b90815260200190565b600061093882611244565b151590565b6001600160a01b031690565b82818337506000910152565b60005b8381101561127757818101518382015260200161125f565b83811115611286576000848401525b50505050565b601f01601f19169056fea265627a7a72305820b25dd837abce6ac834a6b7a2b92c5643dd6d28aec8d8469173894fa6d150be816c6578706572696d656e74616cf50037",
  "source": "pragma solidity ^0.5.2;\npragma experimental ABIEncoderV2;\n\nimport \"../../node_modules/solidity-rlp/contracts/RLPReader.sol\";\nimport \"../../node_modules/openzeppelin-solidity/contracts/ownership/Ownable.sol\";\n\ncontract  Schemas is Ownable {\n\n  using RLPReader for bytes;\n  using RLPReader for uint;\n  using RLPReader for RLPReader.RLPItem;\n\n  struct Schema {   \n    uint expirationDate;\n    uint256 schemaId;\n    uint256 amount;\n    uint256 assetLifeTime;\n    ClearingHouseRule[] clearingHouseRules;\n    bool valid;\n  }\n\n  struct ClearingHouseRule {  \n    uint percent; \n    address receptor;\n    string description;\n  }\n\n  mapping (uint256 => Schema) private schemas_;\n  uint256[] private schemasArray_ ;\n\n  function getSchema(uint256 _schemaId) public view returns (Schema memory) {\n    require(schemas_[_schemaId].schemaId > 0, \"not_exist\");\n    return (schemas_[_schemaId]);\n  }\n\n  function getSchemas() public view returns (uint256[] memory) {    \n    return (schemasArray_);\n  }\n\n  function createSchema(uint256 _schemaId, bytes memory _data) public onlyOwner  {\n    _createSchema(_schemaId, _data);  \n  }\n\n  function invalidateSchema(uint256 _schemaId) public  onlyOwner {\n    _schemaStatus(_schemaId, false);  \n  }\n\n  function validateSchema(uint256 _schemaId) public onlyOwner  {\n    _schemaStatus(_schemaId, true);  \n  }\n\n  function _createSchema(uint256 _schemaId, bytes memory _in) internal  {\n    // RLP format : [<expirationDate>,<schemaId>,<amount>,<assetLifeTime>,[ [<percent>,<address>,<description>],[<percent>,<address>,<description>]]]\n\n    require(schemas_[_schemaId].schemaId == 0, \"exist\"); \n   \n    RLPReader.RLPItem memory item = _in.toRlpItem();\n    RLPReader.RLPItem[] memory itemList = item.toList();\n\n    uint expirationDate = itemList[0].toUint();\n\n    require(expirationDate > now, \"expired\");\n\n    uint256 schemaId = uint256(itemList[1].toUint());\n    uint256 amount = uint256(itemList[2].toUint());\n    uint256 assetLifeTime = uint256(itemList[3].toUint());\n\n    \n    RLPReader.RLPItem[] memory clearingHouseRulesItemList = itemList[4].toList();\n    \n    uint listLength = clearingHouseRulesItemList.length;\n    for (uint i = 0; i < listLength; i++) {\n      RLPReader.RLPItem[] memory tempListItem = clearingHouseRulesItemList[i].toList();\n        \n      schemas_[schemaId].clearingHouseRules.push(\n        ClearingHouseRule(tempListItem[0].toUint(),tempListItem[1].toAddress(),string(tempListItem[2].toBytes()))\n      );    \n    }\n    \n    _validateClearingHouseRules(schemas_[schemaId].clearingHouseRules);\n    \n    schemas_[schemaId].expirationDate = expirationDate;\n    schemas_[schemaId].schemaId = schemaId;\n    schemas_[schemaId].amount = amount;\n    schemas_[schemaId].assetLifeTime = assetLifeTime;\n    schemas_[schemaId].valid = true;\n    schemasArray_.push(schemaId);\n  }\n\n  function _schemaStatus(uint256 _schemaId, bool _newStatus) internal  {\n    require(schemas_[_schemaId].schemaId != 0, \"not exist\"); \n    require(schemas_[_schemaId].valid != _newStatus , \"same status\");\n    schemas_[_schemaId].valid = _newStatus;\n  }\n\n  function _validateClearingHouseRules(ClearingHouseRule[] storage clearingHouseRules) internal  {\n    require(clearingHouseRules.length > 0, \"not rules\"); \n    uint listLength = clearingHouseRules.length;\n    uint total = 0;\n    for (uint i = 0; i < listLength; i++) {\n      total += clearingHouseRules[i].percent;\n    }\n    require(total == 100, \"all amount distributed\");    \n  }\n\n}",
  "sourcePath": "/home/jordi/ws/jordiescudero/bloomen-wallet/bloomen-wallet-truffle/contracts/bloomen/Schemas.sol",
  "compiler": {
    "name": "solc",
    "version": "0.5.7+commit.6da8b019.Emscripten.clang"
  },
  "schemaVersion": "3.0.6",
  "updatedAt": "2019-04-16T09:48:37.240Z",
  "devdoc": {
    "methods": {
      "isOwner()": {
        "return": "true if `msg.sender` is the owner of the contract."
      },
      "owner()": {
        "return": "the address of the owner."
      },
      "renounceOwnership()": {
        "details": "Allows the current owner to relinquish control of the contract. It will not be possible to call the functions with the `onlyOwner` modifier anymore."
      },
      "transferOwnership(address)": {
        "details": "Allows the current owner to transfer control of the contract to a newOwner.",
        "params": {
          "newOwner": "The address to transfer ownership to."
        }
      }
    }
  },
  "userdoc": {
    "methods": {
      "renounceOwnership()": {
        "notice": "Renouncing ownership will leave the contract without an owner, thereby removing any functionality that is only available to the owner."
      }
    }
  }
}