{
  "contractName": "DappContainer",
  "abi": [
    {
      "constant": false,
      "inputs": [],
      "name": "renounceOwnership",
      "outputs": [],
      "payable": false,
      "stateMutability": "nonpayable",
      "type": "function"
    },
    {
      "constant": true,
      "inputs": [],
      "name": "owner",
      "outputs": [
        {
          "name": "",
          "type": "address"
        }
      ],
      "payable": false,
      "stateMutability": "view",
      "type": "function"
    },
    {
      "constant": false,
      "inputs": [
        {
          "name": "newOwner",
          "type": "address"
        }
      ],
      "name": "transferOwnership",
      "outputs": [],
      "payable": false,
      "stateMutability": "nonpayable",
      "type": "function"
    },
    {
      "inputs": [],
      "payable": false,
      "stateMutability": "nonpayable",
      "type": "constructor"
    },
    {
      "anonymous": false,
      "inputs": [
        {
          "indexed": true,
          "name": "previousOwner",
          "type": "address"
        },
        {
          "indexed": true,
          "name": "newOwner",
          "type": "address"
        }
      ],
      "name": "OwnershipTransferred",
      "type": "event"
    },
    {
      "constant": true,
      "inputs": [],
      "name": "isOwner",
      "outputs": [
        {
          "name": "",
          "type": "bool"
        }
      ],
      "payable": false,
      "stateMutability": "view",
      "type": "function"
    },
    {
      "constant": true,
      "inputs": [],
      "name": "getData",
      "outputs": [
        {
          "components": [
            {
              "name": "path",
              "type": "string"
            },
            {
              "name": "value",
              "type": "string"
            },
            {
              "name": "valueType",
              "type": "string"
            }
          ],
          "name": "",
          "type": "tuple[]"
        }
      ],
      "payable": false,
      "stateMutability": "view",
      "type": "function"
    },
    {
      "constant": false,
      "inputs": [
        {
          "name": "_in",
          "type": "bytes"
        }
      ],
      "name": "update",
      "outputs": [],
      "payable": false,
      "stateMutability": "nonpayable",
      "type": "function"
    },
    {
      "constant": false,
      "inputs": [
        {
          "components": [
            {
              "name": "path",
              "type": "string"
            },
            {
              "name": "value",
              "type": "string"
            },
            {
              "name": "valueType",
              "type": "string"
            }
          ],
          "name": "_data",
          "type": "tuple[]"
        }
      ],
      "name": "initialize",
      "outputs": [],
      "payable": false,
      "stateMutability": "nonpayable",
      "type": "function"
    }
  ],
  "bytecode": "0x608060405234801561001057600080fd5b50336000806101000a81548173ffffffffffffffffffffffffffffffffffffffff021916908373ffffffffffffffffffffffffffffffffffffffff1602179055506000809054906101000a900473ffffffffffffffffffffffffffffffffffffffff1673ffffffffffffffffffffffffffffffffffffffff16600073ffffffffffffffffffffffffffffffffffffffff167f8be0079c531659141344cd1fd0a4f28419497f9722a3daafe3b4186f6b6457e060405160405180910390a332600360006101000a81548173ffffffffffffffffffffffffffffffffffffffff021916908373ffffffffffffffffffffffffffffffffffffffff16021790555061202a8061011d6000396000f3fe608060405234801561001057600080fd5b506004361061009a576000357c0100000000000000000000000000000000000000000000000000000000900480638da5cb5b116100785780638da5cb5b146100e35780638f32d59b14610101578063c43ed2c81461011f578063f2fde38b1461013b5761009a565b806309d2213a1461009f5780633bc5de30146100bb578063715018a6146100d9575b600080fd5b6100b960048036036100b49190810190611b49565b610157565b005b6100c36101c4565b6040516100d09190611da0565b60405180910390f35b6100e1610409565b005b6100eb6104d9565b6040516100f89190611d85565b60405180910390f35b610109610502565b6040516101169190611dc2565b60405180910390f35b61013960048036036101349190810190611b8a565b61055a565b005b61015560048036036101509190810190611b20565b6107ae565b005b61015f610502565b61016857600080fd5b60008151905060008090505b818110156101bf576101846117cb565b83828151811061019057fe5b602002602001015190506101b18160000151826020015183604001516107cb565b508080600101915050610174565b505050565b60606002805480602002602001604051908101604052809291908181526020016000905b828210156104005783829060005260206000209060030201604051806060016040529081600082018054600181600116156101000203166002900480601f0160208091040260200160405190810160405280929190818152602001828054600181600116156101000203166002900480156102a45780601f10610279576101008083540402835291602001916102a4565b820191906000526020600020905b81548152906001019060200180831161028757829003601f168201915b50505050508152602001600182018054600181600116156101000203166002900480601f0160208091040260200160405190810160405280929190818152602001828054600181600116156101000203166002900480156103465780601f1061031b57610100808354040283529160200191610346565b820191906000526020600020905b81548152906001019060200180831161032957829003601f168201915b50505050508152602001600282018054600181600116156101000203166002900480601f0160208091040260200160405190810160405280929190818152602001828054600181600116156101000203166002900480156103e85780601f106103bd576101008083540402835291602001916103e8565b820191906000526020600020905b8154815290600101906020018083116103cb57829003601f168201915b505050505081525050815260200190600101906101e8565b50505050905090565b610411610502565b61041a57600080fd5b600073ffffffffffffffffffffffffffffffffffffffff166000809054906101000a900473ffffffffffffffffffffffffffffffffffffffff1673ffffffffffffffffffffffffffffffffffffffff167f8be0079c531659141344cd1fd0a4f28419497f9722a3daafe3b4186f6b6457e060405160405180910390a360008060006101000a81548173ffffffffffffffffffffffffffffffffffffffff021916908373ffffffffffffffffffffffffffffffffffffffff160217905550565b60008060009054906101000a900473ffffffffffffffffffffffffffffffffffffffff16905090565b6000600360009054906101000a900473ffffffffffffffffffffffffffffffffffffffff1673ffffffffffffffffffffffffffffffffffffffff163273ffffffffffffffffffffffffffffffffffffffff1614905090565b610562610502565b61056b57600080fd5b6105736117ec565b61057c82610c54565b9050606061058982610c82565b905060008151905060008090505b818110156107a75760006105d96105c08584815181106105b357fe5b6020026020010151610c82565b6003815181106105cc57fe5b6020026020010151610d59565b905060008114156106995761069461061f6106068685815181106105f957fe5b6020026020010151610c82565b60008151811061061257fe5b6020026020010151610dca565b61065761063e87868151811061063157fe5b6020026020010151610c82565b60018151811061064a57fe5b6020026020010151610dca565b61068f61067688878151811061066957fe5b6020026020010151610c82565b60028151811061068257fe5b6020026020010151610dca565b6107cb565b610799565b60018114156106e7576106e26106dd6106c48685815181106106b757fe5b6020026020010151610c82565b6000815181106106d057fe5b6020026020010151610dca565b610e56565b610798565b6107976107226107098685815181106106fc57fe5b6020026020010151610c82565b60008151811061071557fe5b6020026020010151610dca565b61075a61074187868151811061073457fe5b6020026020010151610c82565b60018151811061074d57fe5b6020026020010151610dca565b61079261077988878151811061076c57fe5b6020026020010151610c82565b60028151811061078557fe5b6020026020010151610dca565b6110ac565b5b5b508080600101915050610597565b5050505050565b6107b6610502565b6107bf57600080fd5b6107c881611331565b50565b60008380519060200120905060606001600083815260200190815260200160002080548060200260200160405190810160405280929190818152602001828054801561083657602002820191906000526020600020905b815481526020019060010190808311610822575b5050505050905060008151111561099d5760008151905060008090505b8181101561099a576060600284838151811061086b57fe5b60200260200101518154811061087d57fe5b90600052602060002090600302016000018054600181600116156101000203166002900480601f0160208091040260200160405190810160405280929190818152602001828054600181600116156101000203166002900480156109225780601f106108f757610100808354040283529160200191610922565b820191906000526020600020905b81548152906001019060200180831161090557829003601f168201915b5050505050905061094c61093589611429565b61093e83611429565b61145790919063ffffffff16565b1561098c576040517f08c379a000000000000000000000000000000000000000000000000000000000815260040161098390611ddd565b60405180910390fd5b508080600101915050610853565b50505b6109a56117cb565b60405180606001604052808781526020018681526020018581525090506000600280549050905060008090505b818160ff161015610b7c57610aa7610aa260028360ff16815481106109f357fe5b90600052602060002090600302016000018054600181600116156101000203166002900480601f016020809104026020016040519081016040528092919081815260200182805460018160011615610100020316600290048015610a985780601f10610a6d57610100808354040283529160200191610a98565b820191906000526020600020905b815481529060010190602001808311610a7b57829003601f168201915b5050505050611429565b61146d565b15610b6f578260028260ff1681548110610abd57fe5b90600052602060002090600302016000820151816000019080519060200190610ae7929190611806565b506020820151816001019080519060200190610b04929190611806565b506040820151816002019080519060200190610b21929190611806565b5090505060016000868152602001908152602001600020819080600181540180825580915050906001820390600052602060002001600090919260ff16909190915055505050505050610c4f565b80806001019150506109d2565b50600282908060018154018082558091505090600182039060005260206000209060030201600090919290919091506000820151816000019080519060200190610bc7929190611806565b506020820151816001019080519060200190610be4929190611806565b506040820151816002019080519060200190610c01929190611806565b50505050600160008581526020019081526020016000206001600280549050039080600181540180825580915050906001820390600052602060002001600090919290919091505550505050505b505050565b610c5c6117ec565b600060208301905060405180604001604052808451815260200182815250915050919050565b6060610c8d8261147d565b610c9657600080fd5b6000610ca1836114cb565b905080604051908082528060200260200182016040528015610cdd57816020015b610cca611886565b815260200190600190039081610cc25790505b5091506000610cef846020015161153c565b8460200151019050600080600090505b83811015610d5057610d10836115c5565b9150604051806040016040528083815260200184815250858281518110610d3357fe5b602002602001018190525081830192508080600101915050610cff565b50505050919050565b6000808260000151118015610d7357506021826000015111155b610d7c57600080fd5b6000610d8b836020015161153c565b90506000818460000151039050600080838660200151019050805191506020831015610dbe57826020036101000a820491505b81945050505050919050565b60606000826000015111610ddd57600080fd5b6000610dec836020015161153c565b905060008184600001510390506060816040519080825280601f01601f191660200182016040528015610e2e5781602001600182028038833980820191505090505b5090506000816020019050610e4a848760200151018285611678565b81945050505050919050565b600081805190602001209050606060016000838152602001908152602001600020805480602002602001604051908101604052809291908181526020018280548015610ec157602002820191906000526020600020905b815481526020019060010190808311610ead575b505050505090506000815111610f0c576040517f08c379a0000000000000000000000000000000000000000000000000000000008152600401610f0390611dfd565b60405180910390fd5b60008151905060008090505b818110156110a55760606002848381518110610f3057fe5b602002602001015181548110610f4257fe5b90600052602060002090600302016000018054600181600116156101000203166002900480601f016020809104026020016040519081016040528092919081815260200182805460018160011615610100020316600290048015610fe75780601f10610fbc57610100808354040283529160200191610fe7565b820191906000526020600020905b815481529060010190602001808311610fca57829003601f168201915b50505050509050611011610ffa87611429565b61100383611429565b61145790919063ffffffff16565b1561109757600284838151811061102457fe5b60200260200101518154811061103657fe5b90600052602060002090600302016000808201600061105591906118a0565b60018201600061106591906118a0565b60028201600061107591906118a0565b505060016000868152602001908152602001600020600061109691906118e8565b5b508080600101915050610f18565b5050505050565b60008380519060200120905060606001600083815260200190815260200160002080548060200260200160405190810160405280929190818152602001828054801561111757602002820191906000526020600020905b815481526020019060010190808311611103575b505050505090506000815111611162576040517f08c379a000000000000000000000000000000000000000000000000000000000815260040161115990611dfd565b60405180910390fd5b60008151905060008090505b81811015611327576060600284838151811061118657fe5b60200260200101518154811061119857fe5b90600052602060002090600302016000018054600181600116156101000203166002900480601f01602080910402602001604051908101604052809291908181526020018280546001816001161561010002031660029004801561123d5780601f106112125761010080835404028352916020019161123d565b820191906000526020600020905b81548152906001019060200180831161122057829003601f168201915b5050505050905061126761125089611429565b61125983611429565b61145790919063ffffffff16565b1561131957604051806060016040528089815260200188815260200187815250600285848151811061129557fe5b6020026020010151815481106112a757fe5b906000526020600020906003020160008201518160000190805190602001906112d1929190611806565b5060208201518160010190805190602001906112ee929190611806565b50604082015181600201908051906020019061130b929190611806565b50905050505050505061132c565b50808060010191505061116e565b505050505b505050565b600073ffffffffffffffffffffffffffffffffffffffff168173ffffffffffffffffffffffffffffffffffffffff16141561136b57600080fd5b8073ffffffffffffffffffffffffffffffffffffffff166000809054906101000a900473ffffffffffffffffffffffffffffffffffffffff1673ffffffffffffffffffffffffffffffffffffffff167f8be0079c531659141344cd1fd0a4f28419497f9722a3daafe3b4186f6b6457e060405160405180910390a3806000806101000a81548173ffffffffffffffffffffffffffffffffffffffff021916908373ffffffffffffffffffffffffffffffffffffffff16021790555050565b611431611909565b600060208301905060405180604001604052808451815260200182815250915050919050565b60008061146484846116df565b14905092915050565b6000808260000151149050919050565b6000808260000151141561149457600090506114c6565b60008083602001519050805160001a915060c060ff168260ff1610156114bf576000925050506114c6565b6001925050505b919050565b600080826000015114156114e25760009050611537565b600080905060006114f6846020015161153c565b84602001510190506000846000015185602001510190505b808210156115305761151f826115c5565b82019150828060010193505061150e565b8293505050505b919050565b600080825160001a9050608060ff1681101561155c5760009150506115c0565b60b860ff16811080611581575060c060ff168110158015611580575060f860ff1681105b5b156115905760019150506115c0565b60c060ff168110156115b05760018060b80360ff168203019150506115c0565b60018060f80360ff168203019150505b919050565b600080825160001a9050608060ff168110156115e5576001915050611673565b60b860ff16811015611603576001608060ff16820301915050611673565b60c060ff168110156116335760b78103600184019350806020036101000a84510460018201810193505050611671565b60f860ff1681101561165157600160c060ff16820301915050611673565b60f78103600184019350806020036101000a845104600182018101935050505b505b919050565b6000811415611686576116da565b5b602060ff1681106116b65782518252602060ff1683019250602060ff1682019150602060ff1681039050611687565b6000600182602060ff16036101000a03905080198451168184511681811785525050505b505050565b6000808360000151905083600001518360000151101561170157826000015190505b60008460200151905060008460200151905060008090505b838110156117b357600080845191508351905080821461179a5760007fffffffffffffffffffffffffffffffffffffffffffffffffffffffffffffffff9050602087101561177457600184886020030160080260020a031990505b6000818316828516039050600081146117975780985050505050505050506117c5565b50505b6020850194506020840193505050602081019050611719565b50846000015186600001510393505050505b92915050565b60405180606001604052806060815260200160608152602001606081525090565b604051806040016040528060008152602001600081525090565b828054600181600116156101000203166002900490600052602060002090601f016020900481019282601f1061184757805160ff1916838001178555611875565b82800160010185558215611875579182015b82811115611874578251825591602001919060010190611859565b5b5090506118829190611923565b5090565b604051806040016040528060008152602001600081525090565b50805460018160011615610100020316600290046000825580601f106118c657506118e5565b601f0160209004906000526020600020908101906118e49190611923565b5b50565b50805460008255906000526020600020908101906119069190611923565b50565b604051806040016040528060008152602001600081525090565b61194591905b80821115611941576000816000905550600101611929565b5090565b90565b60006119548235611f6b565b905092915050565b600082601f83011261196d57600080fd5b813561198061197b82611e4a565b611e1d565b9150818183526020840193506020810190508360005b838110156119c657813586016119ac8882611a78565b845260208401935060208301925050600181019050611996565b5050505092915050565b600082601f8301126119e157600080fd5b81356119f46119ef82611e72565b611e1d565b91508082526020830160208301858383011115611a1057600080fd5b611a1b838284611f9d565b50505092915050565b600082601f830112611a3557600080fd5b8135611a48611a4382611e9e565b611e1d565b91508082526020830160208301858383011115611a6457600080fd5b611a6f838284611f9d565b50505092915050565b600060608284031215611a8a57600080fd5b611a946060611e1d565b9050600082013567ffffffffffffffff811115611ab057600080fd5b611abc84828501611a24565b600083015250602082013567ffffffffffffffff811115611adc57600080fd5b611ae884828501611a24565b602083015250604082013567ffffffffffffffff811115611b0857600080fd5b611b1484828501611a24565b60408301525092915050565b600060208284031215611b3257600080fd5b6000611b4084828501611948565b91505092915050565b600060208284031215611b5b57600080fd5b600082013567ffffffffffffffff811115611b7557600080fd5b611b818482850161195c565b91505092915050565b600060208284031215611b9c57600080fd5b600082013567ffffffffffffffff811115611bb657600080fd5b611bc2848285016119d0565b91505092915050565b6000611bd78383611d27565b905092915050565b611be881611f2d565b82525050565b6000611bf982611ed7565b611c038185611efa565b935083602082028501611c1585611eca565b60005b84811015611c4e578383038852611c30838351611bcb565b9250611c3b82611eed565b9150602088019750600181019050611c18565b508196508694505050505092915050565b611c6881611f3f565b82525050565b6000611c7982611ee2565b611c838185611f0b565b9350611c93818560208601611fac565b611c9c81611fdf565b840191505092915050565b6000611cb4601b83611f1c565b91507f4572726f723a207061746820616c7265616479206578697374732e00000000006000830152602082019050919050565b6000611cf4601c83611f1c565b91507f4572726f723a207061746820646f6573206e6f74206578697374732e000000006000830152602082019050919050565b60006060830160008301518482036000860152611d448282611c6e565b91505060208301518482036020860152611d5e8282611c6e565b91505060408301518482036040860152611d788282611c6e565b9150508091505092915050565b6000602082019050611d9a6000830184611bdf565b92915050565b60006020820190508181036000830152611dba8184611bee565b905092915050565b6000602082019050611dd76000830184611c5f565b92915050565b60006020820190508181036000830152611df681611ca7565b9050919050565b60006020820190508181036000830152611e1681611ce7565b9050919050565b6000604051905081810181811067ffffffffffffffff82111715611e4057600080fd5b8060405250919050565b600067ffffffffffffffff821115611e6157600080fd5b602082029050602081019050919050565b600067ffffffffffffffff821115611e8957600080fd5b601f19601f8301169050602081019050919050565b600067ffffffffffffffff821115611eb557600080fd5b601f19601f8301169050602081019050919050565b6000602082019050919050565b600081519050919050565b600081519050919050565b6000602082019050919050565b600082825260208201905092915050565b600082825260208201905092915050565b600082825260208201905092915050565b6000611f3882611f4b565b9050919050565b60008115159050919050565b600073ffffffffffffffffffffffffffffffffffffffff82169050919050565b6000611f7682611f7d565b9050919050565b600073ffffffffffffffffffffffffffffffffffffffff82169050919050565b82818337600083830152505050565b60005b83811015611fca578082015181840152602081019050611faf565b83811115611fd9576000848401525b50505050565b6000601f19601f830116905091905056fea265627a7a72305820ce983faa3ef95a2bc8c705b5c5593effc3ff22d4f7d340ff73c417d0e319db006c6578706572696d656e74616cf50037",
  "source": "pragma solidity ^0.5.2;\npragma experimental ABIEncoderV2;\n\nimport \"./lib/Strings.sol\";\nimport \"../../../node_modules/solidity-rlp/contracts/RLPReader.sol\";\nimport \"../../../node_modules/openzeppelin-solidity/contracts/ownership/Ownable.sol\";\n\ncontract DappContainer is Ownable {\n\n  using Strings for *;\n  using RLPReader for bytes;\n  using RLPReader for uint;\n  using RLPReader for RLPReader.RLPItem;\n\n  struct PathValue {\n        string path;\n        string value;\n        string valueType;\n  }\n\n  mapping (bytes32 => uint[]) private hashIndexMap_;\n\n  PathValue[] private data_;\n\n  address private _owner;\n\n  constructor() public {\n    _owner = tx.origin;\n  }\n\n  modifier onlyOwner() {\n    require(isOwner());\n    _;\n  }\n\n  function isOwner() public view returns(bool) {\n    return tx.origin == _owner;\n  }\n\n  function getData() public view returns (PathValue[] memory) {\n    return data_;\n  }\n\n  function update(bytes memory _in) onlyOwner public {\n    RLPReader.RLPItem memory item = _in.toRlpItem();\n    RLPReader.RLPItem[] memory itemList = item.toList();\n    uint listLength = itemList.length;\n    for (uint i = 0; i < listLength; i++) {\n      uint difference = itemList[i].toList()[3].toUint();\n      if (difference == 0) { //addition\n        _addPath(string(itemList[i].toList()[0].toBytes()), string(itemList[i].toList()[1].toBytes()), string(itemList[i].toList()[2].toBytes()));\n      } else if (difference == 1) { //deletion\n        _deletePath(string(itemList[i].toList()[0].toBytes()));\n      } else { //modification\n        _modifyPath(string(itemList[i].toList()[0].toBytes()), string(itemList[i].toList()[1].toBytes()), string(itemList[i].toList()[2].toBytes()));\n      }\n    }\n  }\n\n  function initialize(PathValue[] memory _data) onlyOwner  public {\n    uint dataLength = _data.length;\n    for (uint i = 0;i < dataLength; i++) {\n      PathValue memory pathValue = _data[i];\n      _addPath(pathValue.path, pathValue.value, pathValue.valueType);\n    }\n  }\n\n  function _addPath(string memory _path, string memory _value, string memory _valueType) internal {\n    bytes32 pathHash = keccak256(bytes(_path));\n    uint[] memory indexArray = hashIndexMap_[pathHash];\n    if (indexArray.length > 0) {\n      uint indexLength = indexArray.length;\n      for (uint i = 0; i < indexLength; i++) {\n        string memory storedPath = data_[indexArray[i]].path;\n        require(!storedPath.toSlice().equals(_path.toSlice()), \"Error: path already exists.\");\n      }\n    }\n    PathValue memory pathValue = PathValue(_path, _value, _valueType);\n    uint dataLength = data_.length;\n    for (uint8 i = 0; i < dataLength; i++) {\n      if (data_[i].path.toSlice().empty()) {\n        data_[i] = pathValue;\n        hashIndexMap_[pathHash].push(i);\n        return;\n      }\n    }\n    data_.push(pathValue);\n    hashIndexMap_[pathHash].push(data_.length - 1); \n  }\n\n  function _deletePath(string memory _path) internal {\n    bytes32 pathHash = keccak256(bytes(_path));\n    uint[] memory indexArray = hashIndexMap_[pathHash];\n    require(indexArray.length > 0, \"Error: path does not exists.\");\n    uint indexLength = indexArray.length;\n    for (uint i = 0; i < indexLength; i++) {\n      string memory storedPath = data_[indexArray[i]].path;\n      if (storedPath.toSlice().equals(_path.toSlice())) {\n        delete data_[indexArray[i]];\n        delete hashIndexMap_[pathHash];\n      }\n    }\n  }\n\n  function _modifyPath(string memory _path, string memory _value, string memory _valueType) internal {\n    bytes32 pathHash = keccak256(bytes(_path));\n    uint[] memory indexArray = hashIndexMap_[pathHash];\n    require(indexArray.length > 0, \"Error: path does not exists.\");\n    uint indexLength = indexArray.length;\n    for (uint i = 0; i < indexLength; i++) {\n      string memory storedPath = data_[indexArray[i]].path;\n      if (storedPath.toSlice().equals(_path.toSlice())) {\n        data_[indexArray[i]] = PathValue(_path, _value, _valueType);\n        return;\n      }\n    }\n  }\n\n}",
  "sourcePath": "/home/jordi/ws/jordiescudero/bloomen-wallet/bloomen-wallet-truffle/contracts/bloomen/dapp/DappContainer.sol",
  "compiler": {
    "name": "solc",
    "version": "0.5.7+commit.6da8b019.Emscripten.clang"
  },
  "schemaVersion": "3.0.6",
  "updatedAt": "2019-04-18T10:25:34.685Z",
  "devdoc": {
    "methods": {
      "owner()": {
        "return": "the address of the owner."
      },
      "renounceOwnership()": {
        "details": "Allows the current owner to relinquish control of the contract. It will not be possible to call the functions with the `onlyOwner` modifier anymore."
      },
      "transferOwnership(address)": {
        "details": "Allows the current owner to transfer control of the contract to a newOwner.",
        "params": {
          "newOwner": "The address to transfer ownership to."
        }
      }
    }
  },
  "userdoc": {
    "methods": {
      "renounceOwnership()": {
        "notice": "Renouncing ownership will leave the contract without an owner, thereby removing any functionality that is only available to the owner."
      }
    }
  }
}