{
  "contractName": "DappContainerFactory",
  "abi": [
    {
      "constant": false,
      "inputs": [
        {
          "name": "account",
          "type": "address"
        }
      ],
      "name": "addWhitelisted",
      "outputs": [],
      "payable": false,
      "stateMutability": "nonpayable",
      "type": "function",
      "signature": "0x10154bad"
    },
    {
      "constant": false,
      "inputs": [
        {
          "name": "account",
          "type": "address"
        }
      ],
      "name": "removeWhitelisted",
      "outputs": [],
      "payable": false,
      "stateMutability": "nonpayable",
      "type": "function",
      "signature": "0x291d9549"
    },
    {
      "constant": true,
      "inputs": [
        {
          "name": "account",
          "type": "address"
        }
      ],
      "name": "isWhitelisted",
      "outputs": [
        {
          "name": "",
          "type": "bool"
        }
      ],
      "payable": false,
      "stateMutability": "view",
      "type": "function",
      "signature": "0x3af32abf"
    },
    {
      "constant": false,
      "inputs": [],
      "name": "renounceWhitelistAdmin",
      "outputs": [],
      "payable": false,
      "stateMutability": "nonpayable",
      "type": "function",
      "signature": "0x4c5a628c"
    },
    {
      "constant": false,
      "inputs": [
        {
          "name": "account",
          "type": "address"
        }
      ],
      "name": "addWhitelistAdmin",
      "outputs": [],
      "payable": false,
      "stateMutability": "nonpayable",
      "type": "function",
      "signature": "0x7362d9c8"
    },
    {
      "constant": true,
      "inputs": [
        {
          "name": "account",
          "type": "address"
        }
      ],
      "name": "isWhitelistAdmin",
      "outputs": [
        {
          "name": "",
          "type": "bool"
        }
      ],
      "payable": false,
      "stateMutability": "view",
      "type": "function",
      "signature": "0xbb5f747b"
    },
    {
      "constant": false,
      "inputs": [],
      "name": "renounceWhitelisted",
      "outputs": [],
      "payable": false,
      "stateMutability": "nonpayable",
      "type": "function",
      "signature": "0xd6cd9473"
    },
    {
      "anonymous": false,
      "inputs": [
        {
          "indexed": true,
          "name": "account",
          "type": "address"
        }
      ],
      "name": "WhitelistedAdded",
      "type": "event",
      "signature": "0xee1504a83b6d4a361f4c1dc78ab59bfa30d6a3b6612c403e86bb01ef2984295f"
    },
    {
      "anonymous": false,
      "inputs": [
        {
          "indexed": true,
          "name": "account",
          "type": "address"
        }
      ],
      "name": "WhitelistedRemoved",
      "type": "event",
      "signature": "0x270d9b30cf5b0793bbfd54c9d5b94aeb49462b8148399000265144a8722da6b6"
    },
    {
      "anonymous": false,
      "inputs": [
        {
          "indexed": true,
          "name": "account",
          "type": "address"
        }
      ],
      "name": "WhitelistAdminAdded",
      "type": "event",
      "signature": "0x22380c05984257a1cb900161c713dd71d39e74820f1aea43bd3f1bdd20961299"
    },
    {
      "anonymous": false,
      "inputs": [
        {
          "indexed": true,
          "name": "account",
          "type": "address"
        }
      ],
      "name": "WhitelistAdminRemoved",
      "type": "event",
      "signature": "0x0a8eb35e5ca14b3d6f28e4abf2f128dbab231a58b56e89beb5d636115001e165"
    },
    {
      "constant": false,
      "inputs": [
        {
          "name": "_in",
          "type": "bytes"
        },
        {
          "name": "_name",
          "type": "string"
        }
      ],
      "name": "createContainer",
      "outputs": [],
      "payable": false,
      "stateMutability": "nonpayable",
      "type": "function",
      "signature": "0x6416e44d"
    },
    {
      "constant": true,
      "inputs": [],
      "name": "getContainers",
      "outputs": [
        {
          "components": [
            {
              "name": "addr",
              "type": "address"
            },
            {
              "name": "name",
              "type": "string"
            }
          ],
          "name": "",
          "type": "tuple[]"
        }
      ],
      "payable": false,
      "stateMutability": "view",
      "type": "function",
      "signature": "0x959a17f8"
    }
  ],
  "bytecode": "0x60806040526200001e3362000024640100000000026401000000009004565b620001e0565b620000488160006200008e6401000000000262000ad1179091906401000000009004565b8073ffffffffffffffffffffffffffffffffffffffff167f22380c05984257a1cb900161c713dd71d39e74820f1aea43bd3f1bdd2096129960405160405180910390a250565b600073ffffffffffffffffffffffffffffffffffffffff168173ffffffffffffffffffffffffffffffffffffffff161415620000c957600080fd5b620000e482826200014d640100000000026401000000009004565b15620000ef57600080fd5b60018260000160008373ffffffffffffffffffffffffffffffffffffffff1673ffffffffffffffffffffffffffffffffffffffff16815260200190815260200160002060006101000a81548160ff0219169083151502179055505050565b60008073ffffffffffffffffffffffffffffffffffffffff168273ffffffffffffffffffffffffffffffffffffffff1614156200018957600080fd5b8260000160008373ffffffffffffffffffffffffffffffffffffffff1673ffffffffffffffffffffffffffffffffffffffff16815260200190815260200160002060009054906101000a900460ff16905092915050565b6139d580620001f06000396000f3fe60806040523480156200001157600080fd5b5060043610620000bd576000357c0100000000000000000000000000000000000000000000000000000000900480636416e44d116200008c5780636416e44d14620001445780637362d9c81462000164578063959a17f81462000184578063bb5f747b14620001a6578063d6cd947314620001dc57620000bd565b806310154bad14620000c2578063291d954914620000e25780633af32abf14620001025780634c5a628c1462000138575b600080fd5b620000e06004803603620000da9190810190620010b3565b620001e8565b005b620001006004803603620000fa9190810190620010b3565b6200020b565b005b6200012060048036036200011a9190810190620010b3565b6200022e565b6040516200012f9190620013c8565b60405180910390f35b620001426200024d565b005b6200016260048036036200015c9190810190620010df565b6200025a565b005b6200018260048036036200017c9190810190620010b3565b62000579565b005b6200018e6200059c565b6040516200019d919062001380565b60405180910390f35b620001c46004803603620001be9190810190620010b3565b620006f9565b604051620001d39190620013c8565b60405180910390f35b620001e662000718565b005b620001f333620006f9565b620001fd57600080fd5b620002088162000725565b50565b6200021633620006f9565b6200022057600080fd5b6200022b8162000781565b50565b600062000246826001620007dd90919063ffffffff16565b9050919050565b620002583362000870565b565b62000265336200022e565b6200026f57600080fd5b6200027962000eb2565b6200028483620008cc565b905060606200029382620008fc565b9050600081519050606081604051908082528060200260200182016040528015620002db57816020015b620002c762000ecc565b815260200190600190039081620002bd5790505b50905060008090505b82811015620003f357620002f762000eed565b604051806060016040528062000340620003258886815181106200031757fe5b6020026020010151620008fc565b6000815181106200033257fe5b6020026020010151620009e3565b815260200162000383620003688886815181106200035a57fe5b6020026020010151620008fc565b6001815181106200037557fe5b6020026020010151620009e3565b8152602001620003c6620003ab8886815181106200039d57fe5b6020026020010151620008fc565b600281518110620003b857fe5b6020026020010151620009e3565b815250905080838381518110620003d957fe5b6020026020010181905250508080600101915050620002e4565b506000604051620004049062000f0e565b604051809103906000f08015801562000421573d6000803e3d6000fd5b5090508073ffffffffffffffffffffffffffffffffffffffff166309d2213a836040518263ffffffff167c01000000000000000000000000000000000000000000000000000000000281526004016200047b9190620013a4565b600060405180830381600087803b1580156200049657600080fd5b505af1158015620004ab573d6000803e3d6000fd5b50505050600260405180604001604052808373ffffffffffffffffffffffffffffffffffffffff168152602001888152509080600181540180825580915050906001820390600052602060002090600202016000909192909190915060008201518160000160006101000a81548173ffffffffffffffffffffffffffffffffffffffff021916908373ffffffffffffffffffffffffffffffffffffffff16021790555060208201518160010190805190602001906200056c92919062000f1c565b5050505050505050505050565b6200058433620006f9565b6200058e57600080fd5b620005998162000a75565b50565b60606002805480602002602001604051908101604052809291908181526020016000905b82821015620006f057838290600052602060002090600202016040518060400160405290816000820160009054906101000a900473ffffffffffffffffffffffffffffffffffffffff1673ffffffffffffffffffffffffffffffffffffffff1673ffffffffffffffffffffffffffffffffffffffff168152602001600182018054600181600116156101000203166002900480601f016020809104026020016040519081016040528092919081815260200182805460018160011615610100020316600290048015620006d75780601f10620006ab57610100808354040283529160200191620006d7565b820191906000526020600020905b815481529060010190602001808311620006b957829003601f168201915b50505050508152505081526020019060010190620005c0565b50505050905090565b600062000711826000620007dd90919063ffffffff16565b9050919050565b620007233362000781565b565b6200073b81600162000ad190919063ffffffff16565b8073ffffffffffffffffffffffffffffffffffffffff167fee1504a83b6d4a361f4c1dc78ab59bfa30d6a3b6612c403e86bb01ef2984295f60405160405180910390a250565b6200079781600162000b8190919063ffffffff16565b8073ffffffffffffffffffffffffffffffffffffffff167f270d9b30cf5b0793bbfd54c9d5b94aeb49462b8148399000265144a8722da6b660405160405180910390a250565b60008073ffffffffffffffffffffffffffffffffffffffff168273ffffffffffffffffffffffffffffffffffffffff1614156200081957600080fd5b8260000160008373ffffffffffffffffffffffffffffffffffffffff1673ffffffffffffffffffffffffffffffffffffffff16815260200190815260200160002060009054906101000a900460ff16905092915050565b6200088681600062000b8190919063ffffffff16565b8073ffffffffffffffffffffffffffffffffffffffff167f0a8eb35e5ca14b3d6f28e4abf2f128dbab231a58b56e89beb5d636115001e16560405160405180910390a250565b620008d662000eb2565b600060208301905060405180604001604052808451815260200182815250915050919050565b6060620009098262000c30565b6200091357600080fd5b6000620009208362000c82565b9050806040519080825280602002602001820160405280156200096057816020015b6200094c62000fa3565b815260200190600190039081620009425790505b509150600062000974846020015162000cfb565b8460200151019050600080600090505b83811015620009da57620009988362000d8c565b9150604051806040016040528083815260200184815250858281518110620009bc57fe5b60200260200101819052508183019250808060010191505062000984565b50505050919050565b60606000826000015111620009f757600080fd5b600062000a08836020015162000cfb565b905060008184600001510390506060816040519080825280601f01601f19166020018201604052801562000a4b5781602001600182028038833980820191505090505b509050600081602001905062000a6984876020015101828562000e47565b81945050505050919050565b62000a8b81600062000ad190919063ffffffff16565b8073ffffffffffffffffffffffffffffffffffffffff167f22380c05984257a1cb900161c713dd71d39e74820f1aea43bd3f1bdd2096129960405160405180910390a250565b600073ffffffffffffffffffffffffffffffffffffffff168173ffffffffffffffffffffffffffffffffffffffff16141562000b0c57600080fd5b62000b188282620007dd565b1562000b2357600080fd5b60018260000160008373ffffffffffffffffffffffffffffffffffffffff1673ffffffffffffffffffffffffffffffffffffffff16815260200190815260200160002060006101000a81548160ff0219169083151502179055505050565b600073ffffffffffffffffffffffffffffffffffffffff168173ffffffffffffffffffffffffffffffffffffffff16141562000bbc57600080fd5b62000bc88282620007dd565b62000bd257600080fd5b60008260000160008373ffffffffffffffffffffffffffffffffffffffff1673ffffffffffffffffffffffffffffffffffffffff16815260200190815260200160002060006101000a81548160ff0219169083151502179055505050565b6000808260000151141562000c49576000905062000c7d565b60008083602001519050805160001a915060c060ff168260ff16101562000c765760009250505062000c7d565b6001925050505b919050565b6000808260000151141562000c9b576000905062000cf6565b6000809050600062000cb1846020015162000cfb565b84602001510190506000846000015185602001510190505b8082101562000cef5762000cdd8262000d8c565b82019150828060010193505062000cc9565b8293505050505b919050565b600080825160001a9050608060ff1681101562000d1d57600091505062000d87565b60b860ff1681108062000d44575060c060ff16811015801562000d43575060f860ff1681105b5b1562000d5557600191505062000d87565b60c060ff1681101562000d775760018060b80360ff1682030191505062000d87565b60018060f80360ff168203019150505b919050565b600080825160001a9050608060ff1681101562000dae57600191505062000e42565b60b860ff1681101562000dce576001608060ff1682030191505062000e42565b60c060ff1681101562000e005760b78103600184019350806020036101000a8451046001820181019350505062000e40565b60f860ff1681101562000e2057600160c060ff1682030191505062000e42565b60f78103600184019350806020036101000a845104600182018101935050505b505b919050565b600081141562000e575762000ead565b5b602060ff16811062000e895782518252602060ff1683019250602060ff1682019150602060ff168103905062000e58565b6000600182602060ff16036101000a03905080198451168184511681811785525050505b505050565b604051806040016040528060008152602001600081525090565b60405180606001604052806060815260200160608152602001606081525090565b60405180606001604052806060815260200160608152602001606081525090565b6123dc80620015c083390190565b828054600181600116156101000203166002900490600052602060002090601f016020900481019282601f1062000f5f57805160ff191683800117855562000f90565b8280016001018555821562000f90579182015b8281111562000f8f57825182559160200191906001019062000f72565b5b50905062000f9f919062000fbd565b5090565b604051806040016040528060008152602001600081525090565b62000fe291905b8082111562000fde57600081600090555060010162000fc4565b5090565b90565b600062000ff3823562001535565b905092915050565b600082601f8301126200100d57600080fd5b8135620010246200101e8262001413565b620013e5565b915080825260208301602083018583830111156200104157600080fd5b6200104e83828462001569565b50505092915050565b600082601f8301126200106957600080fd5b8135620010806200107a8262001440565b620013e5565b915080825260208301602083018583830111156200109d57600080fd5b620010aa83828462001569565b50505092915050565b600060208284031215620010c657600080fd5b6000620010d68482850162000fe5565b91505092915050565b60008060408385031215620010f357600080fd5b600083013567ffffffffffffffff8111156200110e57600080fd5b6200111c8582860162000ffb565b925050602083013567ffffffffffffffff8111156200113a57600080fd5b620011488582860162001057565b9150509250929050565b6000620011608383620012db565b905092915050565b60006200117683836200131c565b905092915050565b6200118981620014f5565b82525050565b60006200119c8262001487565b620011a88185620014c2565b935083602082028501620011bc856200146d565b60005b84811015620011fb578383038852620011da83835162001152565b9250620011e782620014a8565b9150602088019750600181019050620011bf565b508196508694505050505092915050565b6000620012198262001492565b620012258185620014d3565b93508360208202850162001239856200147a565b60005b84811015620012785783830388526200125783835162001168565b92506200126482620014b5565b91506020880197506001810190506200123c565b508196508694505050505092915050565b620012948162001509565b82525050565b6000620012a7826200149d565b620012b38185620014e4565b9350620012c581856020860162001578565b620012d081620015ae565b840191505092915050565b6000604083016000830151620012f560008601826200117e565b50602083015184820360208601526200130f82826200129a565b9150508091505092915050565b600060608301600083015184820360008601526200133b82826200129a565b915050602083015184820360208601526200135782826200129a565b915050604083015184820360408601526200137382826200129a565b9150508091505092915050565b600060208201905081810360008301526200139c81846200118f565b905092915050565b60006020820190508181036000830152620013c081846200120c565b905092915050565b6000602082019050620013df600083018462001289565b92915050565b6000604051905081810181811067ffffffffffffffff821117156200140957600080fd5b8060405250919050565b600067ffffffffffffffff8211156200142b57600080fd5b601f19601f8301169050602081019050919050565b600067ffffffffffffffff8211156200145857600080fd5b601f19601f8301169050602081019050919050565b6000602082019050919050565b6000602082019050919050565b600081519050919050565b600081519050919050565b600081519050919050565b6000602082019050919050565b6000602082019050919050565b600082825260208201905092915050565b600082825260208201905092915050565b600082825260208201905092915050565b6000620015028262001515565b9050919050565b60008115159050919050565b600073ffffffffffffffffffffffffffffffffffffffff82169050919050565b6000620015428262001549565b9050919050565b600073ffffffffffffffffffffffffffffffffffffffff82169050919050565b82818337600083830152505050565b60005b83811015620015985780820151818401526020810190506200157b565b83811115620015a8576000848401525b50505050565b6000601f19601f830116905091905056fe60806040526200001e3362000024640100000000026401000000009004565b620001e0565b620000488160006200008e6401000000000262001544179091906401000000009004565b8073ffffffffffffffffffffffffffffffffffffffff167f22380c05984257a1cb900161c713dd71d39e74820f1aea43bd3f1bdd2096129960405160405180910390a250565b600073ffffffffffffffffffffffffffffffffffffffff168173ffffffffffffffffffffffffffffffffffffffff161415620000c957600080fd5b620000e482826200014d640100000000026401000000009004565b15620000ef57600080fd5b60018260000160008373ffffffffffffffffffffffffffffffffffffffff1673ffffffffffffffffffffffffffffffffffffffff16815260200190815260200160002060006101000a81548160ff0219169083151502179055505050565b60008073ffffffffffffffffffffffffffffffffffffffff168273ffffffffffffffffffffffffffffffffffffffff1614156200018957600080fd5b8260000160008373ffffffffffffffffffffffffffffffffffffffff1673ffffffffffffffffffffffffffffffffffffffff16815260200190815260200160002060009054906101000a900460ff16905092915050565b6121ec80620001f06000396000f3fe608060405234801561001057600080fd5b50600436106100bb576000357c0100000000000000000000000000000000000000000000000000000000900480634c5a628c116100835780634c5a628c146101625780637362d9c81461016c578063bb5f747b14610188578063c43ed2c8146101b8578063d6cd9473146101d4576100bb565b806309d2213a146100c057806310154bad146100dc578063291d9549146100f85780633af32abf146101145780633bc5de3014610144575b600080fd5b6100da60048036036100d59190810190611d67565b6101de565b005b6100f660048036036100f19190810190611d3e565b61024c565b005b610112600480360361010d9190810190611d3e565b61026a565b005b61012e60048036036101299190810190611d3e565b610288565b60405161013b9190611fb6565b60405180910390f35b61014c6102a5565b6040516101599190611f94565b60405180910390f35b61016a6104ea565b005b61018660048036036101819190810190611d3e565b6104f5565b005b6101a2600480360361019d9190810190611d3e565b610513565b6040516101af9190611fb6565b60405180910390f35b6101d260048036036101cd9190810190611da8565b610530565b005b6101dc610785565b005b6101e733610288565b6101f057600080fd5b60008151905060008090505b818110156102475761020c6119e9565b83828151811061021857fe5b60200260200101519050610239816000015182602001518360400151610790565b5080806001019150506101fc565b505050565b61025533610513565b61025e57600080fd5b61026781610c19565b50565b61027333610513565b61027c57600080fd5b61028581610c73565b50565b600061029e826001610ccd90919063ffffffff16565b9050919050565b60606003805480602002602001604051908101604052809291908181526020016000905b828210156104e15783829060005260206000209060030201604051806060016040529081600082018054600181600116156101000203166002900480601f0160208091040260200160405190810160405280929190818152602001828054600181600116156101000203166002900480156103855780601f1061035a57610100808354040283529160200191610385565b820191906000526020600020905b81548152906001019060200180831161036857829003601f168201915b50505050508152602001600182018054600181600116156101000203166002900480601f0160208091040260200160405190810160405280929190818152602001828054600181600116156101000203166002900480156104275780601f106103fc57610100808354040283529160200191610427565b820191906000526020600020905b81548152906001019060200180831161040a57829003601f168201915b50505050508152602001600282018054600181600116156101000203166002900480601f0160208091040260200160405190810160405280929190818152602001828054600181600116156101000203166002900480156104c95780601f1061049e576101008083540402835291602001916104c9565b820191906000526020600020905b8154815290600101906020018083116104ac57829003601f168201915b505050505081525050815260200190600101906102c9565b50505050905090565b6104f333610d5f565b565b6104fe33610513565b61050757600080fd5b61051081610db9565b50565b6000610529826000610ccd90919063ffffffff16565b9050919050565b61053933610288565b61054257600080fd5b61054a611a0a565b61055382610e13565b9050606061056082610e41565b905060008151905060008090505b8181101561077e5760006105b061059785848151811061058a57fe5b6020026020010151610e41565b6003815181106105a357fe5b6020026020010151610f18565b905060008114156106705761066b6105f66105dd8685815181106105d057fe5b6020026020010151610e41565b6000815181106105e957fe5b6020026020010151610f89565b61062e61061587868151811061060857fe5b6020026020010151610e41565b60018151811061062157fe5b6020026020010151610f89565b61066661064d88878151811061064057fe5b6020026020010151610e41565b60028151811061065957fe5b6020026020010151610f89565b610790565b610770565b60018114156106be576106b96106b461069b86858151811061068e57fe5b6020026020010151610e41565b6000815181106106a757fe5b6020026020010151610f89565b611015565b61076f565b61076e6106f96106e08685815181106106d357fe5b6020026020010151610e41565b6000815181106106ec57fe5b6020026020010151610f89565b61073161071887868151811061070b57fe5b6020026020010151610e41565b60018151811061072457fe5b6020026020010151610f89565b61076961075088878151811061074357fe5b6020026020010151610e41565b60028151811061075c57fe5b6020026020010151610f89565b61126b565b5b5b50808060010191505061056e565b5050505050565b61078e33610c73565b565b6000838051906020012090506060600260008381526020019081526020016000208054806020026020016040519081016040528092919081815260200182805480156107fb57602002820191906000526020600020905b8154815260200190600101908083116107e7575b505050505090506000815111156109625760008151905060008090505b8181101561095f576060600384838151811061083057fe5b60200260200101518154811061084257fe5b90600052602060002090600302016000018054600181600116156101000203166002900480601f0160208091040260200160405190810160405280929190818152602001828054600181600116156101000203166002900480156108e75780601f106108bc576101008083540402835291602001916108e7565b820191906000526020600020905b8154815290600101906020018083116108ca57829003601f168201915b505050505090506109116108fa896114f0565b610903836114f0565b61151e90919063ffffffff16565b15610951576040517f08c379a000000000000000000000000000000000000000000000000000000000815260040161094890611fd1565b60405180910390fd5b508080600101915050610818565b50505b61096a6119e9565b60405180606001604052808781526020018681526020018581525090506000600380549050905060008090505b818160ff161015610b4157610a6c610a6760038360ff16815481106109b857fe5b90600052602060002090600302016000018054600181600116156101000203166002900480601f016020809104026020016040519081016040528092919081815260200182805460018160011615610100020316600290048015610a5d5780601f10610a3257610100808354040283529160200191610a5d565b820191906000526020600020905b815481529060010190602001808311610a4057829003601f168201915b50505050506114f0565b611534565b15610b34578260038260ff1681548110610a8257fe5b90600052602060002090600302016000820151816000019080519060200190610aac929190611a24565b506020820151816001019080519060200190610ac9929190611a24565b506040820151816002019080519060200190610ae6929190611a24565b5090505060026000868152602001908152602001600020819080600181540180825580915050906001820390600052602060002001600090919260ff16909190915055505050505050610c14565b8080600101915050610997565b50600382908060018154018082558091505090600182039060005260206000209060030201600090919290919091506000820151816000019080519060200190610b8c929190611a24565b506020820151816001019080519060200190610ba9929190611a24565b506040820151816002019080519060200190610bc6929190611a24565b50505050600260008581526020019081526020016000206001600380549050039080600181540180825580915050906001820390600052602060002001600090919290919091505550505050505b505050565b610c2d81600161154490919063ffffffff16565b8073ffffffffffffffffffffffffffffffffffffffff167fee1504a83b6d4a361f4c1dc78ab59bfa30d6a3b6612c403e86bb01ef2984295f60405160405180910390a250565b610c878160016115f090919063ffffffff16565b8073ffffffffffffffffffffffffffffffffffffffff167f270d9b30cf5b0793bbfd54c9d5b94aeb49462b8148399000265144a8722da6b660405160405180910390a250565b60008073ffffffffffffffffffffffffffffffffffffffff168273ffffffffffffffffffffffffffffffffffffffff161415610d0857600080fd5b8260000160008373ffffffffffffffffffffffffffffffffffffffff1673ffffffffffffffffffffffffffffffffffffffff16815260200190815260200160002060009054906101000a900460ff16905092915050565b610d738160006115f090919063ffffffff16565b8073ffffffffffffffffffffffffffffffffffffffff167f0a8eb35e5ca14b3d6f28e4abf2f128dbab231a58b56e89beb5d636115001e16560405160405180910390a250565b610dcd81600061154490919063ffffffff16565b8073ffffffffffffffffffffffffffffffffffffffff167f22380c05984257a1cb900161c713dd71d39e74820f1aea43bd3f1bdd2096129960405160405180910390a250565b610e1b611a0a565b600060208301905060405180604001604052808451815260200182815250915050919050565b6060610e4c8261169b565b610e5557600080fd5b6000610e60836116e9565b905080604051908082528060200260200182016040528015610e9c57816020015b610e89611aa4565b815260200190600190039081610e815790505b5091506000610eae846020015161175a565b8460200151019050600080600090505b83811015610f0f57610ecf836117e3565b9150604051806040016040528083815260200184815250858281518110610ef257fe5b602002602001018190525081830192508080600101915050610ebe565b50505050919050565b6000808260000151118015610f3257506021826000015111155b610f3b57600080fd5b6000610f4a836020015161175a565b90506000818460000151039050600080838660200151019050805191506020831015610f7d57826020036101000a820491505b81945050505050919050565b60606000826000015111610f9c57600080fd5b6000610fab836020015161175a565b905060008184600001510390506060816040519080825280601f01601f191660200182016040528015610fed5781602001600182028038833980820191505090505b5090506000816020019050611009848760200151018285611896565b81945050505050919050565b60008180519060200120905060606002600083815260200190815260200160002080548060200260200160405190810160405280929190818152602001828054801561108057602002820191906000526020600020905b81548152602001906001019080831161106c575b5050505050905060008151116110cb576040517f08c379a00000000000000000000000000000000000000000000000000000000081526004016110c290611ff1565b60405180910390fd5b60008151905060008090505b8181101561126457606060038483815181106110ef57fe5b60200260200101518154811061110157fe5b90600052602060002090600302016000018054600181600116156101000203166002900480601f0160208091040260200160405190810160405280929190818152602001828054600181600116156101000203166002900480156111a65780601f1061117b576101008083540402835291602001916111a6565b820191906000526020600020905b81548152906001019060200180831161118957829003601f168201915b505050505090506111d06111b9876114f0565b6111c2836114f0565b61151e90919063ffffffff16565b156112565760038483815181106111e357fe5b6020026020010151815481106111f557fe5b9060005260206000209060030201600080820160006112149190611abe565b6001820160006112249190611abe565b6002820160006112349190611abe565b50506002600086815260200190815260200160002060006112559190611b06565b5b5080806001019150506110d7565b5050505050565b6000838051906020012090506060600260008381526020019081526020016000208054806020026020016040519081016040528092919081815260200182805480156112d657602002820191906000526020600020905b8154815260200190600101908083116112c2575b505050505090506000815111611321576040517f08c379a000000000000000000000000000000000000000000000000000000000815260040161131890611ff1565b60405180910390fd5b60008151905060008090505b818110156114e6576060600384838151811061134557fe5b60200260200101518154811061135757fe5b90600052602060002090600302016000018054600181600116156101000203166002900480601f0160208091040260200160405190810160405280929190818152602001828054600181600116156101000203166002900480156113fc5780601f106113d1576101008083540402835291602001916113fc565b820191906000526020600020905b8154815290600101906020018083116113df57829003601f168201915b5050505050905061142661140f896114f0565b611418836114f0565b61151e90919063ffffffff16565b156114d857604051806060016040528089815260200188815260200187815250600385848151811061145457fe5b60200260200101518154811061146657fe5b90600052602060002090600302016000820151816000019080519060200190611490929190611a24565b5060208201518160010190805190602001906114ad929190611a24565b5060408201518160020190805190602001906114ca929190611a24565b5090505050505050506114eb565b50808060010191505061132d565b505050505b505050565b6114f8611b27565b600060208301905060405180604001604052808451815260200182815250915050919050565b60008061152b84846118fd565b14905092915050565b6000808260000151149050919050565b600073ffffffffffffffffffffffffffffffffffffffff168173ffffffffffffffffffffffffffffffffffffffff16141561157e57600080fd5b6115888282610ccd565b1561159257600080fd5b60018260000160008373ffffffffffffffffffffffffffffffffffffffff1673ffffffffffffffffffffffffffffffffffffffff16815260200190815260200160002060006101000a81548160ff0219169083151502179055505050565b600073ffffffffffffffffffffffffffffffffffffffff168173ffffffffffffffffffffffffffffffffffffffff16141561162a57600080fd5b6116348282610ccd565b61163d57600080fd5b60008260000160008373ffffffffffffffffffffffffffffffffffffffff1673ffffffffffffffffffffffffffffffffffffffff16815260200190815260200160002060006101000a81548160ff0219169083151502179055505050565b600080826000015114156116b257600090506116e4565b60008083602001519050805160001a915060c060ff168260ff1610156116dd576000925050506116e4565b6001925050505b919050565b600080826000015114156117005760009050611755565b60008090506000611714846020015161175a565b84602001510190506000846000015185602001510190505b8082101561174e5761173d826117e3565b82019150828060010193505061172c565b8293505050505b919050565b600080825160001a9050608060ff1681101561177a5760009150506117de565b60b860ff1681108061179f575060c060ff16811015801561179e575060f860ff1681105b5b156117ae5760019150506117de565b60c060ff168110156117ce5760018060b80360ff168203019150506117de565b60018060f80360ff168203019150505b919050565b600080825160001a9050608060ff16811015611803576001915050611891565b60b860ff16811015611821576001608060ff16820301915050611891565b60c060ff168110156118515760b78103600184019350806020036101000a8451046001820181019350505061188f565b60f860ff1681101561186f57600160c060ff16820301915050611891565b60f78103600184019350806020036101000a845104600182018101935050505b505b919050565b60008114156118a4576118f8565b5b602060ff1681106118d45782518252602060ff1683019250602060ff1682019150602060ff16810390506118a5565b6000600182602060ff16036101000a03905080198451168184511681811785525050505b505050565b6000808360000151905083600001518360000151101561191f57826000015190505b60008460200151905060008460200151905060008090505b838110156119d15760008084519150835190508082146119b85760007fffffffffffffffffffffffffffffffffffffffffffffffffffffffffffffffff9050602087101561199257600184886020030160080260020a031990505b6000818316828516039050600081146119b55780985050505050505050506119e3565b50505b6020850194506020840193505050602081019050611937565b50846000015186600001510393505050505b92915050565b60405180606001604052806060815260200160608152602001606081525090565b604051806040016040528060008152602001600081525090565b828054600181600116156101000203166002900490600052602060002090601f016020900481019282601f10611a6557805160ff1916838001178555611a93565b82800160010185558215611a93579182015b82811115611a92578251825591602001919060010190611a77565b5b509050611aa09190611b41565b5090565b604051806040016040528060008152602001600081525090565b50805460018160011615610100020316600290046000825580601f10611ae45750611b03565b601f016020900490600052602060002090810190611b029190611b41565b5b50565b5080546000825590600052602060002090810190611b249190611b41565b50565b604051806040016040528060008152602001600081525090565b611b6391905b80821115611b5f576000816000905550600101611b47565b5090565b90565b6000611b72823561212d565b905092915050565b600082601f830112611b8b57600080fd5b8135611b9e611b998261203e565b612011565b9150818183526020840193506020810190508360005b83811015611be45781358601611bca8882611c96565b845260208401935060208301925050600181019050611bb4565b5050505092915050565b600082601f830112611bff57600080fd5b8135611c12611c0d82612066565b612011565b91508082526020830160208301858383011115611c2e57600080fd5b611c3983828461215f565b50505092915050565b600082601f830112611c5357600080fd5b8135611c66611c6182612092565b612011565b91508082526020830160208301858383011115611c8257600080fd5b611c8d83828461215f565b50505092915050565b600060608284031215611ca857600080fd5b611cb26060612011565b9050600082013567ffffffffffffffff811115611cce57600080fd5b611cda84828501611c42565b600083015250602082013567ffffffffffffffff811115611cfa57600080fd5b611d0684828501611c42565b602083015250604082013567ffffffffffffffff811115611d2657600080fd5b611d3284828501611c42565b60408301525092915050565b600060208284031215611d5057600080fd5b6000611d5e84828501611b66565b91505092915050565b600060208284031215611d7957600080fd5b600082013567ffffffffffffffff811115611d9357600080fd5b611d9f84828501611b7a565b91505092915050565b600060208284031215611dba57600080fd5b600082013567ffffffffffffffff811115611dd457600080fd5b611de084828501611bee565b91505092915050565b6000611df58383611f36565b905092915050565b6000611e08826120cb565b611e1281856120ee565b935083602082028501611e24856120be565b60005b84811015611e5d578383038852611e3f838351611de9565b9250611e4a826120e1565b9150602088019750600181019050611e27565b508196508694505050505092915050565b611e7781612121565b82525050565b6000611e88826120d6565b611e9281856120ff565b9350611ea281856020860161216e565b611eab816121a1565b840191505092915050565b6000611ec3601b83612110565b91507f4572726f723a207061746820616c7265616479206578697374732e00000000006000830152602082019050919050565b6000611f03601c83612110565b91507f4572726f723a207061746820646f6573206e6f74206578697374732e000000006000830152602082019050919050565b60006060830160008301518482036000860152611f538282611e7d565b91505060208301518482036020860152611f6d8282611e7d565b91505060408301518482036040860152611f878282611e7d565b9150508091505092915050565b60006020820190508181036000830152611fae8184611dfd565b905092915050565b6000602082019050611fcb6000830184611e6e565b92915050565b60006020820190508181036000830152611fea81611eb6565b9050919050565b6000602082019050818103600083015261200a81611ef6565b9050919050565b6000604051905081810181811067ffffffffffffffff8211171561203457600080fd5b8060405250919050565b600067ffffffffffffffff82111561205557600080fd5b602082029050602081019050919050565b600067ffffffffffffffff82111561207d57600080fd5b601f19601f8301169050602081019050919050565b600067ffffffffffffffff8211156120a957600080fd5b601f19601f8301169050602081019050919050565b6000602082019050919050565b600081519050919050565b600081519050919050565b6000602082019050919050565b600082825260208201905092915050565b600082825260208201905092915050565b600082825260208201905092915050565b60008115159050919050565b60006121388261213f565b9050919050565b600073ffffffffffffffffffffffffffffffffffffffff82169050919050565b82818337600083830152505050565b60005b8381101561218c578082015181840152602081019050612171565b8381111561219b576000848401525b50505050565b6000601f19601f830116905091905056fea265627a7a723058200f47ea5863f729a28920637626d19b1cc2ce9af5c0e625c2ce4bde1bb44ea65f6c6578706572696d656e74616cf50037a265627a7a72305820c2977eba5e705f16eaf547ddb4483f051a1bad64ec63e05fb0ae0489bb3914e86c6578706572696d656e74616cf50037",
  "source": "pragma solidity ^0.5.2;\npragma experimental ABIEncoderV2;\n\nimport \"./DappContainer.sol\";\nimport \"../../../node_modules/solidity-rlp/contracts/RLPReader.sol\";\nimport \"../../../node_modules/openzeppelin-solidity/contracts/access/roles/WhitelistedRole.sol\";\n\ncontract DappContainerFactory is WhitelistedRole {\n\n  using RLPReader for bytes;\n  using RLPReader for uint;\n  using RLPReader for RLPReader.RLPItem;\n\n  struct Container {\n    address addr;\n    string name;\n  }\n\n  Container[] private containers_;\n\n  function createContainer(bytes memory _in, string memory _name) onlyWhitelisted public {\n    RLPReader.RLPItem memory item = _in.toRlpItem();\n    RLPReader.RLPItem[] memory itemList = item.toList();\n\n    uint listLength = itemList.length;\n    DappContainer.PathValue[] memory data = new DappContainer.PathValue[](listLength);\n    for (uint i = 0; i < listLength; i++) {\n      DappContainer.PathValue memory pathValue = DappContainer.PathValue(\n        string(itemList[i].toList()[0].toBytes()),\n        string(itemList[i].toList()[1].toBytes()),\n        string(itemList[i].toList()[2].toBytes())\n      );\n      data[i] = pathValue;\n    } \n\n    DappContainer container = new DappContainer();\n    container.initialize(data);\n    //container.addWhitelistAdmin(msg.sender);\n\n    containers_.push(Container(address(container), _name)); \n  }\n\n  function getContainers() public view returns (Container[] memory) {\n    return containers_;\n  }\n\n}",
  "sourcePath": "/home/jordi/ws/jordiescudero/bloomen-wallet/bloomen-wallet-truffle/contracts/bloomen/dapp/DappContainerFactory.sol",
  "compiler": {
    "name": "solc",
    "version": "0.5.7+commit.6da8b019.Emscripten.clang"
  },
  "schemaVersion": "3.0.6",
  "updatedAt": "2019-04-23T12:41:13.147Z",
  "devdoc": {
    "methods": {}
  },
  "userdoc": {
    "methods": {}
  }
}